{
	"ExamineAndReward.sol": {
		"UploadMedicalrecords": {
			"abi": [
				{
					"anonymous": false,
					"inputs": [
						{
							"indexed": true,
							"internalType": "address",
							"name": "sender",
							"type": "address"
						},
						{
							"indexed": false,
							"internalType": "uint256",
							"name": "amount",
							"type": "uint256"
						},
						{
							"indexed": false,
							"internalType": "uint256",
							"name": "balance",
							"type": "uint256"
						}
					],
					"name": "Deposit",
					"type": "event"
				},
				{
					"inputs": [
						{
							"internalType": "address",
							"name": "from_",
							"type": "address"
						},
						{
							"internalType": "address",
							"name": "to_",
							"type": "address"
						},
						{
							"internalType": "uint256",
							"name": "ercnum_",
							"type": "uint256"
						}
					],
					"name": "_transfer2other",
					"outputs": [],
					"stateMutability": "nonpayable",
					"type": "function"
				},
				{
					"inputs": [],
					"name": "examineTime",
					"outputs": [
						{
							"internalType": "uint256",
							"name": "",
							"type": "uint256"
						}
					],
					"stateMutability": "view",
					"type": "function"
				},
				{
					"inputs": [
						{
							"internalType": "address",
							"name": "doctor",
							"type": "address"
						}
					],
					"name": "gainer_doctorsee",
					"outputs": [
						{
							"internalType": "address",
							"name": "",
							"type": "address"
						},
						{
							"internalType": "string[]",
							"name": "",
							"type": "string[]"
						},
						{
							"internalType": "address",
							"name": "",
							"type": "address"
						}
					],
					"stateMutability": "view",
					"type": "function"
				},
				{
					"inputs": [
						{
							"internalType": "address",
							"name": "doctor",
							"type": "address"
						}
					],
					"name": "gainer_isDoctor",
					"outputs": [
						{
							"internalType": "bool",
							"name": "",
							"type": "bool"
						}
					],
					"stateMutability": "view",
					"type": "function"
				},
				{
					"inputs": [
						{
							"internalType": "address",
							"name": "doctor",
							"type": "address"
						}
					],
					"name": "gainer_setDoctor",
					"outputs": [],
					"stateMutability": "nonpayable",
					"type": "function"
				},
				{
					"inputs": [
						{
							"internalType": "address",
							"name": "doctor",
							"type": "address"
						},
						{
							"internalType": "string",
							"name": "PictureRoute",
							"type": "string"
						},
						{
							"internalType": "bool",
							"name": "whether",
							"type": "bool"
						},
						{
							"internalType": "uint256",
							"name": "ercnum_",
							"type": "uint256"
						}
					],
					"name": "gainer_whether",
					"outputs": [],
					"stateMutability": "nonpayable",
					"type": "function"
				},
				{
					"inputs": [],
					"name": "lastUpdateTime",
					"outputs": [
						{
							"internalType": "uint256",
							"name": "",
							"type": "uint256"
						}
					],
					"stateMutability": "view",
					"type": "function"
				},
				{
					"inputs": [
						{
							"internalType": "string",
							"name": "PictureRoute",
							"type": "string"
						}
					],
					"name": "seeMedicaldata",
					"outputs": [
						{
							"internalType": "string",
							"name": "",
							"type": "string"
						},
						{
							"internalType": "bool",
							"name": "",
							"type": "bool"
						}
					],
					"stateMutability": "view",
					"type": "function"
				},
				{
					"inputs": [
						{
							"internalType": "address",
							"name": "ercaddress_",
							"type": "address"
						}
					],
					"name": "setErc",
					"outputs": [],
					"stateMutability": "nonpayable",
					"type": "function"
				},
				{
					"inputs": [
						{
							"internalType": "string",
							"name": "Proute",
							"type": "string"
						},
						{
							"internalType": "address",
							"name": "_doctor",
							"type": "address"
						}
					],
					"name": "user_AddMedicalInformation",
					"outputs": [],
					"stateMutability": "nonpayable",
					"type": "function"
				},
				{
					"inputs": [
						{
							"internalType": "address",
							"name": "_user",
							"type": "address"
						}
					],
					"name": "user_Adduser",
					"outputs": [],
					"stateMutability": "nonpayable",
					"type": "function"
				},
				{
					"inputs": [
						{
							"internalType": "address",
							"name": "_user",
							"type": "address"
						}
					],
					"name": "user_IsUser",
					"outputs": [
						{
							"internalType": "bool",
							"name": "",
							"type": "bool"
						}
					],
					"stateMutability": "view",
					"type": "function"
				},
				{
					"inputs": [
						{
							"internalType": "address",
							"name": "_user",
							"type": "address"
						}
					],
					"name": "user_ViewMedicalRecords",
					"outputs": [
						{
							"internalType": "string[]",
							"name": "",
							"type": "string[]"
						},
						{
							"internalType": "address",
							"name": "doctor",
							"type": "address"
						}
					],
					"stateMutability": "view",
					"type": "function"
				},
				{
					"stateMutability": "payable",
					"type": "receive"
				}
			],
			"devdoc": {
				"kind": "dev",
				"methods": {},
				"version": 1
			},
			"evm": {
				"assembly": "    /* \"ExamineAndReward.sol\":141:4775  contract UploadMedicalrecords \r... */\n  mstore(0x40, 0x80)\n  callvalue\n  dup1\n  iszero\n  tag_1\n  jumpi\n  0x00\n  dup1\n  revert\ntag_1:\n  pop\n  dataSize(sub_0)\n  dup1\n  dataOffset(sub_0)\n  0x00\n  codecopy\n  0x00\n  return\nstop\n\nsub_0: assembly {\n        /* \"ExamineAndReward.sol\":141:4775  contract UploadMedicalrecords \r... */\n      mstore(0x40, 0x80)\n      jumpi(tag_1, lt(calldatasize, 0x04))\n      shr(0xe0, calldataload(0x00))\n      dup1\n      0xab547346\n      gt\n      tag_16\n      jumpi\n      dup1\n      0xd5f03d3c\n      gt\n      tag_17\n      jumpi\n      dup1\n      0xd5f03d3c\n      eq\n      tag_12\n      jumpi\n      dup1\n      0xe70c5b1f\n      eq\n      tag_13\n      jumpi\n      dup1\n      0xfcc585c5\n      eq\n      tag_14\n      jumpi\n      dup1\n      0xfece0fe8\n      eq\n      tag_15\n      jumpi\n      jump(tag_2)\n    tag_17:\n      dup1\n      0xab547346\n      eq\n      tag_9\n      jumpi\n      dup1\n      0xac5679d0\n      eq\n      tag_10\n      jumpi\n      dup1\n      0xc8f33c91\n      eq\n      tag_11\n      jumpi\n      jump(tag_2)\n    tag_16:\n      dup1\n      0x1dd9ec67\n      eq\n      tag_3\n      jumpi\n      dup1\n      0x495c184e\n      eq\n      tag_4\n      jumpi\n      dup1\n      0x5d268670\n      eq\n      tag_5\n      jumpi\n      dup1\n      0x600d9056\n      eq\n      tag_6\n      jumpi\n      dup1\n      0x79172b5b\n      eq\n      tag_7\n      jumpi\n      dup1\n      0x93172bf7\n      eq\n      tag_8\n      jumpi\n      jump(tag_2)\n    tag_1:\n      jumpi(tag_2, calldatasize)\n        /* \"ExamineAndReward.sol\":1150:1160  msg.sender */\n      caller\n        /* \"ExamineAndReward.sol\":1142:1195  Deposit(msg.sender, msg.value, address(this).balance) */\n      0xffffffffffffffffffffffffffffffffffffffff\n      and\n      0x90890809c654f11d6e72a28fa60149770a0d11ec6c92319d6ceb2bb0a4ea1a15\n        /* \"ExamineAndReward.sol\":1162:1171  msg.value */\n      callvalue\n        /* \"ExamineAndReward.sol\":1173:1194  address(this).balance */\n      selfbalance\n        /* \"ExamineAndReward.sol\":1142:1195  Deposit(msg.sender, msg.value, address(this).balance) */\n      mload(0x40)\n      tag_20\n      swap3\n      swap2\n      swap1\n      tag_21\n      jump\t// in\n    tag_20:\n      mload(0x40)\n      dup1\n      swap2\n      sub\n      swap1\n      log2\n        /* \"ExamineAndReward.sol\":141:4775  contract UploadMedicalrecords \r... */\n      stop\n    tag_2:\n      0x00\n      dup1\n      revert\n        /* \"ExamineAndReward.sol\":1909:2025  function user_Adduser(address _user) public{\r... */\n    tag_3:\n      callvalue\n      dup1\n      iszero\n      tag_22\n      jumpi\n      0x00\n      dup1\n      revert\n    tag_22:\n      pop\n      tag_23\n      0x04\n      dup1\n      calldatasize\n      sub\n      dup2\n      add\n      swap1\n      tag_24\n      swap2\n      swap1\n      tag_25\n      jump\t// in\n    tag_24:\n      tag_26\n      jump\t// in\n    tag_23:\n      stop\n        /* \"ExamineAndReward.sol\":550:573  uint public examineTime */\n    tag_4:\n      callvalue\n      dup1\n      iszero\n      tag_27\n      jumpi\n      0x00\n      dup1\n      revert\n    tag_27:\n      pop\n      tag_28\n      tag_29\n      jump\t// in\n    tag_28:\n      mload(0x40)\n      tag_30\n      swap2\n      swap1\n      tag_31\n      jump\t// in\n    tag_30:\n      mload(0x40)\n      dup1\n      swap2\n      sub\n      swap1\n      return\n        /* \"ExamineAndReward.sol\":2045:2166  function gainer_setDoctor(address doctor) public{\r... */\n    tag_5:\n      callvalue\n      dup1\n      iszero\n      tag_32\n      jumpi\n      0x00\n      dup1\n      revert\n    tag_32:\n      pop\n      tag_33\n      0x04\n      dup1\n      calldatasize\n      sub\n      dup2\n      add\n      swap1\n      tag_34\n      swap2\n      swap1\n      tag_25\n      jump\t// in\n    tag_34:\n      tag_35\n      jump\t// in\n    tag_33:\n      stop\n        /* \"ExamineAndReward.sol\":4435:4602  function  seeMedicaldata(string memory PictureRoute) public view returns(string memory,bool){\r... */\n    tag_6:\n      callvalue\n      dup1\n      iszero\n      tag_36\n      jumpi\n      0x00\n      dup1\n      revert\n    tag_36:\n      pop\n      tag_37\n      0x04\n      dup1\n      calldatasize\n      sub\n      dup2\n      add\n      swap1\n      tag_38\n      swap2\n      swap1\n      tag_39\n      jump\t// in\n    tag_38:\n      tag_40\n      jump\t// in\n    tag_37:\n      mload(0x40)\n      tag_41\n      swap3\n      swap2\n      swap1\n      tag_42\n      jump\t// in\n    tag_41:\n      mload(0x40)\n      dup1\n      swap2\n      sub\n      swap1\n      return\n        /* \"ExamineAndReward.sol\":3517:3598  function setErc(address ercaddress_) public{\r... */\n    tag_7:\n      callvalue\n      dup1\n      iszero\n      tag_43\n      jumpi\n      0x00\n      dup1\n      revert\n    tag_43:\n      pop\n      tag_44\n      0x04\n      dup1\n      calldatasize\n      sub\n      dup2\n      add\n      swap1\n      tag_45\n      swap2\n      swap1\n      tag_25\n      jump\t// in\n    tag_45:\n      tag_46\n      jump\t// in\n    tag_44:\n      stop\n        /* \"ExamineAndReward.sol\":2803:2906  function gainer_isDoctor(address doctor)public view returns(bool){\r... */\n    tag_8:\n      callvalue\n      dup1\n      iszero\n      tag_47\n      jumpi\n      0x00\n      dup1\n      revert\n    tag_47:\n      pop\n      tag_48\n      0x04\n      dup1\n      calldatasize\n      sub\n      dup2\n      add\n      swap1\n      tag_49\n      swap2\n      swap1\n      tag_25\n      jump\t// in\n    tag_49:\n      tag_50\n      jump\t// in\n    tag_48:\n      mload(0x40)\n      tag_51\n      swap2\n      swap1\n      tag_52\n      jump\t// in\n    tag_51:\n      mload(0x40)\n      dup1\n      swap2\n      sub\n      swap1\n      return\n        /* \"ExamineAndReward.sol\":2198:2639  function user_AddMedicalInformation(string memory Proute,address _doctor) public user_upTime(msg.sender) {\r... */\n    tag_9:\n      callvalue\n      dup1\n      iszero\n      tag_53\n      jumpi\n      0x00\n      dup1\n      revert\n    tag_53:\n      pop\n      tag_54\n      0x04\n      dup1\n      calldatasize\n      sub\n      dup2\n      add\n      swap1\n      tag_55\n      swap2\n      swap1\n      tag_56\n      jump\t// in\n    tag_55:\n      tag_57\n      jump\t// in\n    tag_54:\n      stop\n        /* \"ExamineAndReward.sol\":3625:4389  function gainer_whether(address doctor,string memory PictureRoute,bool whether,uint ercnum_) public gainer_examineTime(doctor){\r... */\n    tag_10:\n      callvalue\n      dup1\n      iszero\n      tag_58\n      jumpi\n      0x00\n      dup1\n      revert\n    tag_58:\n      pop\n      tag_59\n      0x04\n      dup1\n      calldatasize\n      sub\n      dup2\n      add\n      swap1\n      tag_60\n      swap2\n      swap1\n      tag_61\n      jump\t// in\n    tag_60:\n      tag_62\n      jump\t// in\n    tag_59:\n      stop\n        /* \"ExamineAndReward.sol\":491:517  uint public lastUpdateTime */\n    tag_11:\n      callvalue\n      dup1\n      iszero\n      tag_63\n      jumpi\n      0x00\n      dup1\n      revert\n    tag_63:\n      pop\n      tag_64\n      tag_65\n      jump\t// in\n    tag_64:\n      mload(0x40)\n      tag_66\n      swap2\n      swap1\n      tag_31\n      jump\t// in\n    tag_66:\n      mload(0x40)\n      dup1\n      swap2\n      sub\n      swap1\n      return\n        /* \"ExamineAndReward.sol\":2675:2771  function user_IsUser(address _user) public view returns(bool){\r... */\n    tag_12:\n      callvalue\n      dup1\n      iszero\n      tag_67\n      jumpi\n      0x00\n      dup1\n      revert\n    tag_67:\n      pop\n      tag_68\n      0x04\n      dup1\n      calldatasize\n      sub\n      dup2\n      add\n      swap1\n      tag_69\n      swap2\n      swap1\n      tag_25\n      jump\t// in\n    tag_69:\n      tag_70\n      jump\t// in\n    tag_68:\n      mload(0x40)\n      tag_71\n      swap2\n      swap1\n      tag_52\n      jump\t// in\n    tag_71:\n      mload(0x40)\n      dup1\n      swap2\n      sub\n      swap1\n      return\n        /* \"ExamineAndReward.sol\":4626:4772  function _transfer2other(address from_,address to_ ,uint ercnum_) public {\r... */\n    tag_13:\n      callvalue\n      dup1\n      iszero\n      tag_72\n      jumpi\n      0x00\n      dup1\n      revert\n    tag_72:\n      pop\n      tag_73\n      0x04\n      dup1\n      calldatasize\n      sub\n      dup2\n      add\n      swap1\n      tag_74\n      swap2\n      swap1\n      tag_75\n      jump\t// in\n    tag_74:\n      tag_76\n      jump\t// in\n    tag_73:\n      stop\n        /* \"ExamineAndReward.sol\":2947:3200  function user_ViewMedicalRecords(address _user) public view returns(string[] memory,address doctor){\r... */\n    tag_14:\n      callvalue\n      dup1\n      iszero\n      tag_77\n      jumpi\n      0x00\n      dup1\n      revert\n    tag_77:\n      pop\n      tag_78\n      0x04\n      dup1\n      calldatasize\n      sub\n      dup2\n      add\n      swap1\n      tag_79\n      swap2\n      swap1\n      tag_25\n      jump\t// in\n    tag_79:\n      tag_80\n      jump\t// in\n    tag_78:\n      mload(0x40)\n      tag_81\n      swap3\n      swap2\n      swap1\n      tag_82\n      jump\t// in\n    tag_81:\n      mload(0x40)\n      dup1\n      swap2\n      sub\n      swap1\n      return\n        /* \"ExamineAndReward.sol\":3256:3491  function  gainer_doctorsee(address doctor) public view returns(address,string[] memory,address){\r... */\n    tag_15:\n      callvalue\n      dup1\n      iszero\n      tag_83\n      jumpi\n      0x00\n      dup1\n      revert\n    tag_83:\n      pop\n      tag_84\n      0x04\n      dup1\n      calldatasize\n      sub\n      dup2\n      add\n      swap1\n      tag_85\n      swap2\n      swap1\n      tag_25\n      jump\t// in\n    tag_85:\n      tag_86\n      jump\t// in\n    tag_84:\n      mload(0x40)\n      tag_87\n      swap4\n      swap3\n      swap2\n      swap1\n      tag_88\n      jump\t// in\n    tag_87:\n      mload(0x40)\n      dup1\n      swap2\n      sub\n      swap1\n      return\n        /* \"ExamineAndReward.sol\":1909:2025  function user_Adduser(address _user) public{\r... */\n    tag_26:\n        /* \"ExamineAndReward.sol\":1982:1987  _user */\n      dup1\n        /* \"ExamineAndReward.sol\":1962:1968  Ausers */\n      0x03\n        /* \"ExamineAndReward.sol\":1962:1975  Ausers[_user] */\n      0x00\n        /* \"ExamineAndReward.sol\":1969:1974  _user */\n      dup4\n        /* \"ExamineAndReward.sol\":1962:1975  Ausers[_user] */\n      0xffffffffffffffffffffffffffffffffffffffff\n      and\n      0xffffffffffffffffffffffffffffffffffffffff\n      and\n      dup2\n      mstore\n      0x20\n      add\n      swap1\n      dup2\n      mstore\n      0x20\n      add\n      0x00\n      keccak256\n        /* \"ExamineAndReward.sol\":1962:1980  Ausers[_user].user */\n      0x00\n      add\n      0x00\n        /* \"ExamineAndReward.sol\":1962:1987  Ausers[_user].user= _user */\n      0x0100\n      exp\n      dup2\n      sload\n      dup2\n      0xffffffffffffffffffffffffffffffffffffffff\n      mul\n      not\n      and\n      swap1\n      dup4\n      0xffffffffffffffffffffffffffffffffffffffff\n      and\n      mul\n      or\n      swap1\n      sstore\n      pop\n        /* \"ExamineAndReward.sol\":2017:2021  true */\n      0x01\n        /* \"ExamineAndReward.sol\":1997:2003  Ausers */\n      0x03\n        /* \"ExamineAndReward.sol\":1997:2010  Ausers[_user] */\n      0x00\n        /* \"ExamineAndReward.sol\":2004:2009  _user */\n      dup4\n        /* \"ExamineAndReward.sol\":1997:2010  Ausers[_user] */\n      0xffffffffffffffffffffffffffffffffffffffff\n      and\n      0xffffffffffffffffffffffffffffffffffffffff\n      and\n      dup2\n      mstore\n      0x20\n      add\n      swap1\n      dup2\n      mstore\n      0x20\n      add\n      0x00\n      keccak256\n        /* \"ExamineAndReward.sol\":1997:2015  Ausers[_user].exit */\n      0x00\n      add\n      0x14\n        /* \"ExamineAndReward.sol\":1997:2021  Ausers[_user].exit= true */\n      0x0100\n      exp\n      dup2\n      sload\n      dup2\n      0xff\n      mul\n      not\n      and\n      swap1\n      dup4\n      iszero\n      iszero\n      mul\n      or\n      swap1\n      sstore\n      pop\n        /* \"ExamineAndReward.sol\":1909:2025  function user_Adduser(address _user) public{\r... */\n      pop\n      jump\t// out\n        /* \"ExamineAndReward.sol\":550:573  uint public examineTime */\n    tag_29:\n      sload(0x02)\n      dup2\n      jump\t// out\n        /* \"ExamineAndReward.sol\":2045:2166  function gainer_setDoctor(address doctor) public{\r... */\n    tag_35:\n        /* \"ExamineAndReward.sol\":2123:2129  doctor */\n      dup1\n        /* \"ExamineAndReward.sol\":2100:2107  Adoctor */\n      0x04\n        /* \"ExamineAndReward.sol\":2100:2115  Adoctor[doctor] */\n      0x00\n        /* \"ExamineAndReward.sol\":2108:2114  doctor */\n      dup4\n        /* \"ExamineAndReward.sol\":2100:2115  Adoctor[doctor] */\n      0xffffffffffffffffffffffffffffffffffffffff\n      and\n      0xffffffffffffffffffffffffffffffffffffffff\n      and\n      dup2\n      mstore\n      0x20\n      add\n      swap1\n      dup2\n      mstore\n      0x20\n      add\n      0x00\n      keccak256\n        /* \"ExamineAndReward.sol\":2100:2122  Adoctor[doctor].doctor */\n      0x00\n      add\n      0x00\n        /* \"ExamineAndReward.sol\":2100:2129  Adoctor[doctor].doctor=doctor */\n      0x0100\n      exp\n      dup2\n      sload\n      dup2\n      0xffffffffffffffffffffffffffffffffffffffff\n      mul\n      not\n      and\n      swap1\n      dup4\n      0xffffffffffffffffffffffffffffffffffffffff\n      and\n      mul\n      or\n      swap1\n      sstore\n      pop\n        /* \"ExamineAndReward.sol\":2158:2162  true */\n      0x01\n        /* \"ExamineAndReward.sol\":2136:2143  Adoctor */\n      0x04\n        /* \"ExamineAndReward.sol\":2136:2151  Adoctor[doctor] */\n      0x00\n        /* \"ExamineAndReward.sol\":2144:2150  doctor */\n      dup4\n        /* \"ExamineAndReward.sol\":2136:2151  Adoctor[doctor] */\n      0xffffffffffffffffffffffffffffffffffffffff\n      and\n      0xffffffffffffffffffffffffffffffffffffffff\n      and\n      dup2\n      mstore\n      0x20\n      add\n      swap1\n      dup2\n      mstore\n      0x20\n      add\n      0x00\n      keccak256\n        /* \"ExamineAndReward.sol\":2136:2157  Adoctor[doctor].exist */\n      0x00\n      add\n      0x14\n        /* \"ExamineAndReward.sol\":2136:2162  Adoctor[doctor].exist=true */\n      0x0100\n      exp\n      dup2\n      sload\n      dup2\n      0xff\n      mul\n      not\n      and\n      swap1\n      dup4\n      iszero\n      iszero\n      mul\n      or\n      swap1\n      sstore\n      pop\n        /* \"ExamineAndReward.sol\":2045:2166  function gainer_setDoctor(address doctor) public{\r... */\n      pop\n      jump\t// out\n        /* \"ExamineAndReward.sol\":4435:4602  function  seeMedicaldata(string memory PictureRoute) public view returns(string memory,bool){\r... */\n    tag_40:\n        /* \"ExamineAndReward.sol\":4508:4521  string memory */\n      0x60\n        /* \"ExamineAndReward.sol\":4522:4526  bool */\n      0x00\n        /* \"ExamineAndReward.sol\":4545:4557  PictureRoute */\n      dup3\n        /* \"ExamineAndReward.sol\":4558:4575  userExamineString */\n      0x09\n        /* \"ExamineAndReward.sol\":4576:4588  PictureRoute */\n      dup5\n        /* \"ExamineAndReward.sol\":4558:4589  userExamineString[PictureRoute] */\n      mload(0x40)\n      tag_92\n      swap2\n      swap1\n      tag_93\n      jump\t// in\n    tag_92:\n      swap1\n      dup2\n      mstore\n      0x20\n      add\n      mload(0x40)\n      dup1\n      swap2\n      sub\n      swap1\n      keccak256\n        /* \"ExamineAndReward.sol\":4558:4597  userExamineString[PictureRoute].whether */\n      0x03\n      add\n      0x00\n      swap1\n      sload\n      swap1\n      0x0100\n      exp\n      swap1\n      div\n      0xff\n      and\n        /* \"ExamineAndReward.sol\":4538:4598  return(PictureRoute,userExamineString[PictureRoute].whether) */\n      swap2\n      pop\n      swap2\n      pop\n        /* \"ExamineAndReward.sol\":4435:4602  function  seeMedicaldata(string memory PictureRoute) public view returns(string memory,bool){\r... */\n      swap2\n      pop\n      swap2\n      jump\t// out\n        /* \"ExamineAndReward.sol\":3517:3598  function setErc(address ercaddress_) public{\r... */\n    tag_46:\n        /* \"ExamineAndReward.sol\":3583:3594  ercaddress_ */\n      dup1\n        /* \"ExamineAndReward.sol\":3572:3582  ercaddress */\n      0x00\n      dup1\n        /* \"ExamineAndReward.sol\":3572:3594  ercaddress=ercaddress_ */\n      0x0100\n      exp\n      dup2\n      sload\n      dup2\n      0xffffffffffffffffffffffffffffffffffffffff\n      mul\n      not\n      and\n      swap1\n      dup4\n      0xffffffffffffffffffffffffffffffffffffffff\n      and\n      mul\n      or\n      swap1\n      sstore\n      pop\n        /* \"ExamineAndReward.sol\":3517:3598  function setErc(address ercaddress_) public{\r... */\n      pop\n      jump\t// out\n        /* \"ExamineAndReward.sol\":2803:2906  function gainer_isDoctor(address doctor)public view returns(bool){\r... */\n    tag_50:\n        /* \"ExamineAndReward.sol\":2863:2867  bool */\n      0x00\n        /* \"ExamineAndReward.sol\":2881:2888  Adoctor */\n      0x04\n        /* \"ExamineAndReward.sol\":2881:2896  Adoctor[doctor] */\n      0x00\n        /* \"ExamineAndReward.sol\":2889:2895  doctor */\n      dup4\n        /* \"ExamineAndReward.sol\":2881:2896  Adoctor[doctor] */\n      0xffffffffffffffffffffffffffffffffffffffff\n      and\n      0xffffffffffffffffffffffffffffffffffffffff\n      and\n      dup2\n      mstore\n      0x20\n      add\n      swap1\n      dup2\n      mstore\n      0x20\n      add\n      0x00\n      keccak256\n        /* \"ExamineAndReward.sol\":2881:2902  Adoctor[doctor].exist */\n      0x00\n      add\n      0x14\n      swap1\n      sload\n      swap1\n      0x0100\n      exp\n      swap1\n      div\n      0xff\n      and\n        /* \"ExamineAndReward.sol\":2874:2902  return Adoctor[doctor].exist */\n      swap1\n      pop\n        /* \"ExamineAndReward.sol\":2803:2906  function gainer_isDoctor(address doctor)public view returns(bool){\r... */\n      swap2\n      swap1\n      pop\n      jump\t// out\n        /* \"ExamineAndReward.sol\":2198:2639  function user_AddMedicalInformation(string memory Proute,address _doctor) public user_upTime(msg.sender) {\r... */\n    tag_57:\n        /* \"ExamineAndReward.sol\":2291:2301  msg.sender */\n      caller\n        /* \"ExamineAndReward.sol\":926:941  block.timestamp */\n      timestamp\n        /* \"ExamineAndReward.sol\":909:923  lastUpdateTime */\n      0x01\n        /* \"ExamineAndReward.sol\":909:941  lastUpdateTime = block.timestamp */\n      dup2\n      swap1\n      sstore\n      pop\n        /* \"ExamineAndReward.sol\":2325:2348  user_IsUser(msg.sender) */\n      tag_98\n        /* \"ExamineAndReward.sol\":2337:2347  msg.sender */\n      caller\n        /* \"ExamineAndReward.sol\":2325:2336  user_IsUser */\n      tag_70\n        /* \"ExamineAndReward.sol\":2325:2348  user_IsUser(msg.sender) */\n      jump\t// in\n    tag_98:\n        /* \"ExamineAndReward.sol\":2317:2368  require(user_IsUser(msg.sender),\"patient no exist\") */\n      tag_99\n      jumpi\n      mload(0x40)\n      0x08c379a000000000000000000000000000000000000000000000000000000000\n      dup2\n      mstore\n      0x04\n      add\n      tag_100\n      swap1\n      tag_101\n      jump\t// in\n    tag_100:\n      mload(0x40)\n      dup1\n      swap2\n      sub\n      swap1\n      revert\n    tag_99:\n        /* \"ExamineAndReward.sol\":2390:2414  gainer_isDoctor(_doctor) */\n      tag_102\n        /* \"ExamineAndReward.sol\":2406:2413  _doctor */\n      dup3\n        /* \"ExamineAndReward.sol\":2390:2405  gainer_isDoctor */\n      tag_50\n        /* \"ExamineAndReward.sol\":2390:2414  gainer_isDoctor(_doctor) */\n      jump\t// in\n    tag_102:\n        /* \"ExamineAndReward.sol\":2382:2434  require(gainer_isDoctor(_doctor),\"patient no exist\") */\n      tag_103\n      jumpi\n      mload(0x40)\n      0x08c379a000000000000000000000000000000000000000000000000000000000\n      dup2\n      mstore\n      0x04\n      add\n      tag_104\n      swap1\n      tag_101\n      jump\t// in\n    tag_104:\n      mload(0x40)\n      dup1\n      swap2\n      sub\n      swap1\n      revert\n    tag_103:\n        /* \"ExamineAndReward.sol\":2489:2499  msg.sender */\n      caller\n        /* \"ExamineAndReward.sol\":2448:2471  userAmedicalInformation */\n      0x05\n        /* \"ExamineAndReward.sol\":2448:2483  userAmedicalInformation[msg.sender] */\n      0x00\n        /* \"ExamineAndReward.sol\":2472:2482  msg.sender */\n      caller\n        /* \"ExamineAndReward.sol\":2448:2483  userAmedicalInformation[msg.sender] */\n      0xffffffffffffffffffffffffffffffffffffffff\n      and\n      0xffffffffffffffffffffffffffffffffffffffff\n      and\n      dup2\n      mstore\n      0x20\n      add\n      swap1\n      dup2\n      mstore\n      0x20\n      add\n      0x00\n      keccak256\n        /* \"ExamineAndReward.sol\":2448:2488  userAmedicalInformation[msg.sender].user */\n      0x00\n      add\n      0x00\n        /* \"ExamineAndReward.sol\":2448:2499  userAmedicalInformation[msg.sender].user=msg.sender */\n      0x0100\n      exp\n      dup2\n      sload\n      dup2\n      0xffffffffffffffffffffffffffffffffffffffff\n      mul\n      not\n      and\n      swap1\n      dup4\n      0xffffffffffffffffffffffffffffffffffffffff\n      and\n      mul\n      or\n      swap1\n      sstore\n      pop\n        /* \"ExamineAndReward.sol\":2513:2536  userAmedicalInformation */\n      0x05\n        /* \"ExamineAndReward.sol\":2513:2548  userAmedicalInformation[msg.sender] */\n      0x00\n        /* \"ExamineAndReward.sol\":2537:2547  msg.sender */\n      caller\n        /* \"ExamineAndReward.sol\":2513:2548  userAmedicalInformation[msg.sender] */\n      0xffffffffffffffffffffffffffffffffffffffff\n      and\n      0xffffffffffffffffffffffffffffffffffffffff\n      and\n      dup2\n      mstore\n      0x20\n      add\n      swap1\n      dup2\n      mstore\n      0x20\n      add\n      0x00\n      keccak256\n        /* \"ExamineAndReward.sol\":2513:2561  userAmedicalInformation[msg.sender].PictureRoute */\n      0x01\n      add\n        /* \"ExamineAndReward.sol\":2567:2573  Proute */\n      dup4\n        /* \"ExamineAndReward.sol\":2513:2574  userAmedicalInformation[msg.sender].PictureRoute.push(Proute) */\n      swap1\n      dup1\n      0x01\n      dup2\n      sload\n      add\n      dup1\n      dup3\n      sstore\n      dup1\n      swap2\n      pop\n      pop\n      0x01\n      swap1\n      sub\n      swap1\n      0x00\n      mstore\n      keccak256(0x00, 0x20)\n      add\n      0x00\n      swap1\n      swap2\n      swap1\n      swap2\n      swap1\n      swap2\n      pop\n      swap1\n      dup1\n      mload\n      swap1\n      0x20\n      add\n      swap1\n      tag_106\n      swap3\n      swap2\n      swap1\n      tag_107\n      jump\t// in\n    tag_106:\n      pop\n        /* \"ExamineAndReward.sol\":2628:2635  _doctor */\n      dup2\n        /* \"ExamineAndReward.sol\":2588:2611  userAmedicalInformation */\n      0x05\n        /* \"ExamineAndReward.sol\":2588:2620  userAmedicalInformation[_doctor] */\n      0x00\n        /* \"ExamineAndReward.sol\":2612:2619  _doctor */\n      dup5\n        /* \"ExamineAndReward.sol\":2588:2620  userAmedicalInformation[_doctor] */\n      0xffffffffffffffffffffffffffffffffffffffff\n      and\n      0xffffffffffffffffffffffffffffffffffffffff\n      and\n      dup2\n      mstore\n      0x20\n      add\n      swap1\n      dup2\n      mstore\n      0x20\n      add\n      0x00\n      keccak256\n        /* \"ExamineAndReward.sol\":2588:2627  userAmedicalInformation[_doctor].doctor */\n      0x02\n      add\n      0x00\n        /* \"ExamineAndReward.sol\":2588:2635  userAmedicalInformation[_doctor].doctor=_doctor */\n      0x0100\n      exp\n      dup2\n      sload\n      dup2\n      0xffffffffffffffffffffffffffffffffffffffff\n      mul\n      not\n      and\n      swap1\n      dup4\n      0xffffffffffffffffffffffffffffffffffffffff\n      and\n      mul\n      or\n      swap1\n      sstore\n      pop\n        /* \"ExamineAndReward.sol\":2198:2639  function user_AddMedicalInformation(string memory Proute,address _doctor) public user_upTime(msg.sender) {\r... */\n      pop\n      pop\n      pop\n      jump\t// out\n        /* \"ExamineAndReward.sol\":3625:4389  function gainer_whether(address doctor,string memory PictureRoute,bool whether,uint ercnum_) public gainer_examineTime(doctor){\r... */\n    tag_62:\n        /* \"ExamineAndReward.sol\":3744:3750  doctor */\n      dup4\n        /* \"ExamineAndReward.sol\":1047:1062  block.timestamp */\n      timestamp\n        /* \"ExamineAndReward.sol\":1033:1044  examineTime */\n      0x02\n        /* \"ExamineAndReward.sol\":1033:1062  examineTime = block.timestamp */\n      dup2\n      swap1\n      sstore\n      pop\n        /* \"ExamineAndReward.sol\":3799:3805  doctor */\n      dup5\n        /* \"ExamineAndReward.sol\":3770:3783  gainerExamine */\n      0x07\n        /* \"ExamineAndReward.sol\":3770:3791  gainerExamine[doctor] */\n      0x00\n        /* \"ExamineAndReward.sol\":3784:3790  doctor */\n      dup8\n        /* \"ExamineAndReward.sol\":3770:3791  gainerExamine[doctor] */\n      0xffffffffffffffffffffffffffffffffffffffff\n      and\n      0xffffffffffffffffffffffffffffffffffffffff\n      and\n      dup2\n      mstore\n      0x20\n      add\n      swap1\n      dup2\n      mstore\n      0x20\n      add\n      0x00\n      keccak256\n        /* \"ExamineAndReward.sol\":3770:3798  gainerExamine[doctor].doctor */\n      0x00\n      add\n      0x00\n        /* \"ExamineAndReward.sol\":3770:3805  gainerExamine[doctor].doctor=doctor */\n      0x0100\n      exp\n      dup2\n      sload\n      dup2\n      0xffffffffffffffffffffffffffffffffffffffff\n      mul\n      not\n      and\n      swap1\n      dup4\n      0xffffffffffffffffffffffffffffffffffffffff\n      and\n      mul\n      or\n      swap1\n      sstore\n      pop\n        /* \"ExamineAndReward.sol\":3851:3870  gainerExamineString */\n      0x08\n        /* \"ExamineAndReward.sol\":3871:3883  PictureRoute */\n      dup5\n        /* \"ExamineAndReward.sol\":3851:3884  gainerExamineString[PictureRoute] */\n      mload(0x40)\n      tag_110\n      swap2\n      swap1\n      tag_93\n      jump\t// in\n    tag_110:\n      swap1\n      dup2\n      mstore\n      0x20\n      add\n      mload(0x40)\n      dup1\n      swap2\n      sub\n      swap1\n      keccak256\n        /* \"ExamineAndReward.sol\":3851:3889  gainerExamineString[PictureRoute].user */\n      0x00\n      add\n      0x00\n      swap1\n      sload\n      swap1\n      0x0100\n      exp\n      swap1\n      div\n      0xffffffffffffffffffffffffffffffffffffffff\n      and\n        /* \"ExamineAndReward.sol\":3824:3837  gainerExamine */\n      0x07\n        /* \"ExamineAndReward.sol\":3824:3845  gainerExamine[doctor] */\n      0x00\n        /* \"ExamineAndReward.sol\":3838:3844  doctor */\n      dup8\n        /* \"ExamineAndReward.sol\":3824:3845  gainerExamine[doctor] */\n      0xffffffffffffffffffffffffffffffffffffffff\n      and\n      0xffffffffffffffffffffffffffffffffffffffff\n      and\n      dup2\n      mstore\n      0x20\n      add\n      swap1\n      dup2\n      mstore\n      0x20\n      add\n      0x00\n      keccak256\n        /* \"ExamineAndReward.sol\":3824:3850  gainerExamine[doctor].user */\n      0x01\n      add\n      0x00\n        /* \"ExamineAndReward.sol\":3824:3889  gainerExamine[doctor].user=gainerExamineString[PictureRoute].user */\n      0x0100\n      exp\n      dup2\n      sload\n      dup2\n      0xffffffffffffffffffffffffffffffffffffffff\n      mul\n      not\n      and\n      swap1\n      dup4\n      0xffffffffffffffffffffffffffffffffffffffff\n      and\n      mul\n      or\n      swap1\n      sstore\n      pop\n        /* \"ExamineAndReward.sol\":3937:3949  PictureRoute */\n      dup4\n        /* \"ExamineAndReward.sol\":3908:3921  gainerExamine */\n      0x07\n        /* \"ExamineAndReward.sol\":3908:3929  gainerExamine[doctor] */\n      0x00\n        /* \"ExamineAndReward.sol\":3922:3928  doctor */\n      dup8\n        /* \"ExamineAndReward.sol\":3908:3929  gainerExamine[doctor] */\n      0xffffffffffffffffffffffffffffffffffffffff\n      and\n      0xffffffffffffffffffffffffffffffffffffffff\n      and\n      dup2\n      mstore\n      0x20\n      add\n      swap1\n      dup2\n      mstore\n      0x20\n      add\n      0x00\n      keccak256\n        /* \"ExamineAndReward.sol\":3908:3936  gainerExamine[doctor].pRoute */\n      0x02\n      add\n        /* \"ExamineAndReward.sol\":3908:3949  gainerExamine[doctor].pRoute=PictureRoute */\n      swap1\n      dup1\n      mload\n      swap1\n      0x20\n      add\n      swap1\n      tag_111\n      swap3\n      swap2\n      swap1\n      tag_107\n      jump\t// in\n    tag_111:\n      pop\n        /* \"ExamineAndReward.sol\":3984:4003  gainerExamineString */\n      0x08\n        /* \"ExamineAndReward.sol\":4004:4016  PictureRoute */\n      dup5\n        /* \"ExamineAndReward.sol\":3984:4017  gainerExamineString[PictureRoute] */\n      mload(0x40)\n      tag_112\n      swap2\n      swap1\n      tag_93\n      jump\t// in\n    tag_112:\n      swap1\n      dup2\n      mstore\n      0x20\n      add\n      mload(0x40)\n      dup1\n      swap2\n      sub\n      swap1\n      keccak256\n        /* \"ExamineAndReward.sol\":3984:4024  gainerExamineString[PictureRoute].doctor */\n      0x02\n      add\n      0x00\n      swap1\n      sload\n      swap1\n      0x0100\n      exp\n      swap1\n      div\n      0xffffffffffffffffffffffffffffffffffffffff\n      and\n        /* \"ExamineAndReward.sol\":3976:4024  doctor==gainerExamineString[PictureRoute].doctor */\n      0xffffffffffffffffffffffffffffffffffffffff\n      and\n        /* \"ExamineAndReward.sol\":3976:3982  doctor */\n      dup6\n        /* \"ExamineAndReward.sol\":3976:4024  doctor==gainerExamineString[PictureRoute].doctor */\n      0xffffffffffffffffffffffffffffffffffffffff\n      and\n      eq\n        /* \"ExamineAndReward.sol\":3968:4074  require(doctor==gainerExamineString[PictureRoute].doctor,\"The medical data does not belong to the doctor\") */\n      tag_113\n      jumpi\n      mload(0x40)\n      0x08c379a000000000000000000000000000000000000000000000000000000000\n      dup2\n      mstore\n      0x04\n      add\n      tag_114\n      swap1\n      tag_115\n      jump\t// in\n    tag_114:\n      mload(0x40)\n      dup1\n      swap2\n      sub\n      swap1\n      revert\n    tag_113:\n        /* \"ExamineAndReward.sol\":4103:4107  true */\n      0x01\n        /* \"ExamineAndReward.sol\":4094:4107  whether==true */\n      iszero\n      iszero\n        /* \"ExamineAndReward.sol\":4094:4101  whether */\n      dup4\n        /* \"ExamineAndReward.sol\":4094:4107  whether==true */\n      iszero\n      iszero\n      eq\n        /* \"ExamineAndReward.sol\":4091:4384  if(whether==true){\r... */\n      iszero\n      tag_116\n      jumpi\n        /* \"ExamineAndReward.sol\":4161:4165  true */\n      0x01\n        /* \"ExamineAndReward.sol\":4129:4142  gainerExamine */\n      0x07\n        /* \"ExamineAndReward.sol\":4129:4150  gainerExamine[doctor] */\n      0x00\n        /* \"ExamineAndReward.sol\":4143:4149  doctor */\n      dup8\n        /* \"ExamineAndReward.sol\":4129:4150  gainerExamine[doctor] */\n      0xffffffffffffffffffffffffffffffffffffffff\n      and\n      0xffffffffffffffffffffffffffffffffffffffff\n      and\n      dup2\n      mstore\n      0x20\n      add\n      swap1\n      dup2\n      mstore\n      0x20\n      add\n      0x00\n      keccak256\n        /* \"ExamineAndReward.sol\":4129:4158  gainerExamine[doctor].whether */\n      0x03\n      add\n      0x00\n        /* \"ExamineAndReward.sol\":4129:4165  gainerExamine[doctor].whether = true */\n      0x0100\n      exp\n      dup2\n      sload\n      dup2\n      0xff\n      mul\n      not\n      and\n      swap1\n      dup4\n      iszero\n      iszero\n      mul\n      or\n      swap1\n      sstore\n      pop\n        /* \"ExamineAndReward.sol\":4184:4288  _transfer2other(gainerExamineString[PictureRoute].doctor,gainerExamineString[PictureRoute].user,ercnum_) */\n      tag_117\n        /* \"ExamineAndReward.sol\":4200:4219  gainerExamineString */\n      0x08\n        /* \"ExamineAndReward.sol\":4220:4232  PictureRoute */\n      dup6\n        /* \"ExamineAndReward.sol\":4200:4233  gainerExamineString[PictureRoute] */\n      mload(0x40)\n      tag_118\n      swap2\n      swap1\n      tag_93\n      jump\t// in\n    tag_118:\n      swap1\n      dup2\n      mstore\n      0x20\n      add\n      mload(0x40)\n      dup1\n      swap2\n      sub\n      swap1\n      keccak256\n        /* \"ExamineAndReward.sol\":4200:4240  gainerExamineString[PictureRoute].doctor */\n      0x02\n      add\n      0x00\n      swap1\n      sload\n      swap1\n      0x0100\n      exp\n      swap1\n      div\n      0xffffffffffffffffffffffffffffffffffffffff\n      and\n        /* \"ExamineAndReward.sol\":4241:4260  gainerExamineString */\n      0x08\n        /* \"ExamineAndReward.sol\":4261:4273  PictureRoute */\n      dup7\n        /* \"ExamineAndReward.sol\":4241:4274  gainerExamineString[PictureRoute] */\n      mload(0x40)\n      tag_119\n      swap2\n      swap1\n      tag_93\n      jump\t// in\n    tag_119:\n      swap1\n      dup2\n      mstore\n      0x20\n      add\n      mload(0x40)\n      dup1\n      swap2\n      sub\n      swap1\n      keccak256\n        /* \"ExamineAndReward.sol\":4241:4279  gainerExamineString[PictureRoute].user */\n      0x00\n      add\n      0x00\n      swap1\n      sload\n      swap1\n      0x0100\n      exp\n      swap1\n      div\n      0xffffffffffffffffffffffffffffffffffffffff\n      and\n        /* \"ExamineAndReward.sol\":4280:4287  ercnum_ */\n      dup5\n        /* \"ExamineAndReward.sol\":4184:4199  _transfer2other */\n      tag_76\n        /* \"ExamineAndReward.sol\":4184:4288  _transfer2other(gainerExamineString[PictureRoute].doctor,gainerExamineString[PictureRoute].user,ercnum_) */\n      jump\t// in\n    tag_117:\n        /* \"ExamineAndReward.sol\":4091:4384  if(whether==true){\r... */\n      jump(tag_120)\n    tag_116:\n        /* \"ExamineAndReward.sol\":4331:4366  revert(\"Failed to pass the review\") */\n      mload(0x40)\n      0x08c379a000000000000000000000000000000000000000000000000000000000\n      dup2\n      mstore\n      0x04\n      add\n      tag_121\n      swap1\n      tag_122\n      jump\t// in\n    tag_121:\n      mload(0x40)\n      dup1\n      swap2\n      sub\n      swap1\n      revert\n        /* \"ExamineAndReward.sol\":4091:4384  if(whether==true){\r... */\n    tag_120:\n        /* \"ExamineAndReward.sol\":3625:4389  function gainer_whether(address doctor,string memory PictureRoute,bool whether,uint ercnum_) public gainer_examineTime(doctor){\r... */\n      pop\n      pop\n      pop\n      pop\n      pop\n      jump\t// out\n        /* \"ExamineAndReward.sol\":491:517  uint public lastUpdateTime */\n    tag_65:\n      sload(0x01)\n      dup2\n      jump\t// out\n        /* \"ExamineAndReward.sol\":2675:2771  function user_IsUser(address _user) public view returns(bool){\r... */\n    tag_70:\n        /* \"ExamineAndReward.sol\":2731:2735  bool */\n      0x00\n        /* \"ExamineAndReward.sol\":2749:2755  Ausers */\n      0x03\n        /* \"ExamineAndReward.sol\":2749:2762  Ausers[_user] */\n      0x00\n        /* \"ExamineAndReward.sol\":2756:2761  _user */\n      dup4\n        /* \"ExamineAndReward.sol\":2749:2762  Ausers[_user] */\n      0xffffffffffffffffffffffffffffffffffffffff\n      and\n      0xffffffffffffffffffffffffffffffffffffffff\n      and\n      dup2\n      mstore\n      0x20\n      add\n      swap1\n      dup2\n      mstore\n      0x20\n      add\n      0x00\n      keccak256\n        /* \"ExamineAndReward.sol\":2749:2767  Ausers[_user].exit */\n      0x00\n      add\n      0x14\n      swap1\n      sload\n      swap1\n      0x0100\n      exp\n      swap1\n      div\n      0xff\n      and\n        /* \"ExamineAndReward.sol\":2742:2767  return Ausers[_user].exit */\n      swap1\n      pop\n        /* \"ExamineAndReward.sol\":2675:2771  function user_IsUser(address _user) public view returns(bool){\r... */\n      swap2\n      swap1\n      pop\n      jump\t// out\n        /* \"ExamineAndReward.sol\":4626:4772  function _transfer2other(address from_,address to_ ,uint ercnum_) public {\r... */\n    tag_76:\n        /* \"ExamineAndReward.sol\":4717:4727  ercaddress */\n      0x00\n      dup1\n      sload\n      swap1\n      0x0100\n      exp\n      swap1\n      div\n      0xffffffffffffffffffffffffffffffffffffffff\n      and\n        /* \"ExamineAndReward.sol\":4710:4741  IERC20(ercaddress).transferFrom */\n      0xffffffffffffffffffffffffffffffffffffffff\n      and\n      0x23b872dd\n        /* \"ExamineAndReward.sol\":4742:4747  from_ */\n      dup5\n        /* \"ExamineAndReward.sol\":4748:4751  to_ */\n      dup5\n        /* \"ExamineAndReward.sol\":4752:4759  ercnum_ */\n      dup5\n        /* \"ExamineAndReward.sol\":4710:4760  IERC20(ercaddress).transferFrom(from_,to_,ercnum_) */\n      mload(0x40)\n      dup5\n      0xffffffff\n      and\n      0xe0\n      shl\n      dup2\n      mstore\n      0x04\n      add\n      tag_125\n      swap4\n      swap3\n      swap2\n      swap1\n      tag_126\n      jump\t// in\n    tag_125:\n      0x20\n      mload(0x40)\n      dup1\n      dup4\n      sub\n      dup2\n      0x00\n      dup8\n      dup1\n      extcodesize\n      iszero\n      dup1\n      iszero\n      tag_127\n      jumpi\n      0x00\n      dup1\n      revert\n    tag_127:\n      pop\n      gas\n      call\n      iszero\n      dup1\n      iszero\n      tag_129\n      jumpi\n      returndatasize\n      0x00\n      dup1\n      returndatacopy\n      revert(0x00, returndatasize)\n    tag_129:\n      pop\n      pop\n      pop\n      pop\n      mload(0x40)\n      returndatasize\n      not(0x1f)\n      0x1f\n      dup3\n      add\n      and\n      dup3\n      add\n      dup1\n      0x40\n      mstore\n      pop\n      dup2\n      add\n      swap1\n      tag_130\n      swap2\n      swap1\n      tag_131\n      jump\t// in\n    tag_130:\n      pop\n        /* \"ExamineAndReward.sol\":4626:4772  function _transfer2other(address from_,address to_ ,uint ercnum_) public {\r... */\n      pop\n      pop\n      pop\n      jump\t// out\n        /* \"ExamineAndReward.sol\":2947:3200  function user_ViewMedicalRecords(address _user) public view returns(string[] memory,address doctor){\r... */\n    tag_80:\n        /* \"ExamineAndReward.sol\":3015:3030  string[] memory */\n      0x60\n        /* \"ExamineAndReward.sol\":3031:3045  address doctor */\n      0x00\n        /* \"ExamineAndReward.sol\":3061:3079  user_IsUser(_user) */\n      tag_133\n        /* \"ExamineAndReward.sol\":3073:3078  _user */\n      dup4\n        /* \"ExamineAndReward.sol\":3061:3072  user_IsUser */\n      tag_70\n        /* \"ExamineAndReward.sol\":3061:3079  user_IsUser(_user) */\n      jump\t// in\n    tag_133:\n        /* \"ExamineAndReward.sol\":3053:3099  require(user_IsUser(_user),\"patient no exist\") */\n      tag_134\n      jumpi\n      mload(0x40)\n      0x08c379a000000000000000000000000000000000000000000000000000000000\n      dup2\n      mstore\n      0x04\n      add\n      tag_135\n      swap1\n      tag_101\n      jump\t// in\n    tag_135:\n      mload(0x40)\n      dup1\n      swap2\n      sub\n      swap1\n      revert\n    tag_134:\n        /* \"ExamineAndReward.sol\":3114:3137  userAmedicalInformation */\n      0x05\n        /* \"ExamineAndReward.sol\":3114:3144  userAmedicalInformation[_user] */\n      0x00\n        /* \"ExamineAndReward.sol\":3138:3143  _user */\n      dup5\n        /* \"ExamineAndReward.sol\":3114:3144  userAmedicalInformation[_user] */\n      0xffffffffffffffffffffffffffffffffffffffff\n      and\n      0xffffffffffffffffffffffffffffffffffffffff\n      and\n      dup2\n      mstore\n      0x20\n      add\n      swap1\n      dup2\n      mstore\n      0x20\n      add\n      0x00\n      keccak256\n        /* \"ExamineAndReward.sol\":3114:3157  userAmedicalInformation[_user].PictureRoute */\n      0x01\n      add\n        /* \"ExamineAndReward.sol\":3158:3181  userAmedicalInformation */\n      0x05\n        /* \"ExamineAndReward.sol\":3158:3188  userAmedicalInformation[_user] */\n      0x00\n        /* \"ExamineAndReward.sol\":3182:3187  _user */\n      dup6\n        /* \"ExamineAndReward.sol\":3158:3188  userAmedicalInformation[_user] */\n      0xffffffffffffffffffffffffffffffffffffffff\n      and\n      0xffffffffffffffffffffffffffffffffffffffff\n      and\n      dup2\n      mstore\n      0x20\n      add\n      swap1\n      dup2\n      mstore\n      0x20\n      add\n      0x00\n      keccak256\n        /* \"ExamineAndReward.sol\":3158:3195  userAmedicalInformation[_user].doctor */\n      0x02\n      add\n      0x00\n      swap1\n      sload\n      swap1\n      0x0100\n      exp\n      swap1\n      div\n      0xffffffffffffffffffffffffffffffffffffffff\n      and\n        /* \"ExamineAndReward.sol\":3106:3196  return (userAmedicalInformation[_user].PictureRoute,userAmedicalInformation[_user].doctor) */\n      dup2\n      dup1\n      sload\n      dup1\n      0x20\n      mul\n      0x20\n      add\n      mload(0x40)\n      swap1\n      dup2\n      add\n      0x40\n      mstore\n      dup1\n      swap3\n      swap2\n      swap1\n      dup2\n      dup2\n      mstore\n      0x20\n      add\n      0x00\n      swap1\n    tag_136:\n      dup3\n      dup3\n      lt\n      iszero\n      tag_137\n      jumpi\n      dup4\n      dup3\n      swap1\n      0x00\n      mstore\n      keccak256(0x00, 0x20)\n      add\n      dup1\n      sload\n      tag_139\n      swap1\n      tag_140\n      jump\t// in\n    tag_139:\n      dup1\n      0x1f\n      add\n      0x20\n      dup1\n      swap2\n      div\n      mul\n      0x20\n      add\n      mload(0x40)\n      swap1\n      dup2\n      add\n      0x40\n      mstore\n      dup1\n      swap3\n      swap2\n      swap1\n      dup2\n      dup2\n      mstore\n      0x20\n      add\n      dup3\n      dup1\n      sload\n      tag_141\n      swap1\n      tag_140\n      jump\t// in\n    tag_141:\n      dup1\n      iszero\n      tag_142\n      jumpi\n      dup1\n      0x1f\n      lt\n      tag_143\n      jumpi\n      0x0100\n      dup1\n      dup4\n      sload\n      div\n      mul\n      dup4\n      mstore\n      swap2\n      0x20\n      add\n      swap2\n      jump(tag_142)\n    tag_143:\n      dup3\n      add\n      swap2\n      swap1\n      0x00\n      mstore\n      keccak256(0x00, 0x20)\n      swap1\n    tag_144:\n      dup2\n      sload\n      dup2\n      mstore\n      swap1\n      0x01\n      add\n      swap1\n      0x20\n      add\n      dup1\n      dup4\n      gt\n      tag_144\n      jumpi\n      dup3\n      swap1\n      sub\n      0x1f\n      and\n      dup3\n      add\n      swap2\n    tag_142:\n      pop\n      pop\n      pop\n      pop\n      pop\n      dup2\n      mstore\n      0x20\n      add\n      swap1\n      0x01\n      add\n      swap1\n      jump(tag_136)\n    tag_137:\n      pop\n      pop\n      pop\n      pop\n      swap2\n      pop\n      swap2\n      pop\n      swap2\n      pop\n        /* \"ExamineAndReward.sol\":2947:3200  function user_ViewMedicalRecords(address _user) public view returns(string[] memory,address doctor){\r... */\n      swap2\n      pop\n      swap2\n      jump\t// out\n        /* \"ExamineAndReward.sol\":3256:3491  function  gainer_doctorsee(address doctor) public view returns(address,string[] memory,address){\r... */\n    tag_86:\n        /* \"ExamineAndReward.sol\":3319:3326  address */\n      0x00\n        /* \"ExamineAndReward.sol\":3327:3342  string[] memory */\n      0x60\n        /* \"ExamineAndReward.sol\":3343:3350  address */\n      0x00\n        /* \"ExamineAndReward.sol\":3366:3389  gainAmedicalInformation */\n      0x06\n        /* \"ExamineAndReward.sol\":3366:3397  gainAmedicalInformation[doctor] */\n      0x00\n        /* \"ExamineAndReward.sol\":3390:3396  doctor */\n      dup6\n        /* \"ExamineAndReward.sol\":3366:3397  gainAmedicalInformation[doctor] */\n      0xffffffffffffffffffffffffffffffffffffffff\n      and\n      0xffffffffffffffffffffffffffffffffffffffff\n      and\n      dup2\n      mstore\n      0x20\n      add\n      swap1\n      dup2\n      mstore\n      0x20\n      add\n      0x00\n      keccak256\n        /* \"ExamineAndReward.sol\":3366:3402  gainAmedicalInformation[doctor].user */\n      0x00\n      add\n      0x00\n      swap1\n      sload\n      swap1\n      0x0100\n      exp\n      swap1\n      div\n      0xffffffffffffffffffffffffffffffffffffffff\n      and\n        /* \"ExamineAndReward.sol\":3403:3426  gainAmedicalInformation */\n      0x06\n        /* \"ExamineAndReward.sol\":3403:3434  gainAmedicalInformation[doctor] */\n      0x00\n        /* \"ExamineAndReward.sol\":3427:3433  doctor */\n      dup7\n        /* \"ExamineAndReward.sol\":3403:3434  gainAmedicalInformation[doctor] */\n      0xffffffffffffffffffffffffffffffffffffffff\n      and\n      0xffffffffffffffffffffffffffffffffffffffff\n      and\n      dup2\n      mstore\n      0x20\n      add\n      swap1\n      dup2\n      mstore\n      0x20\n      add\n      0x00\n      keccak256\n        /* \"ExamineAndReward.sol\":3403:3447  gainAmedicalInformation[doctor].PictureRoute */\n      0x01\n      add\n        /* \"ExamineAndReward.sol\":3448:3471  gainAmedicalInformation */\n      0x06\n        /* \"ExamineAndReward.sol\":3448:3479  gainAmedicalInformation[doctor] */\n      0x00\n        /* \"ExamineAndReward.sol\":3472:3478  doctor */\n      dup8\n        /* \"ExamineAndReward.sol\":3448:3479  gainAmedicalInformation[doctor] */\n      0xffffffffffffffffffffffffffffffffffffffff\n      and\n      0xffffffffffffffffffffffffffffffffffffffff\n      and\n      dup2\n      mstore\n      0x20\n      add\n      swap1\n      dup2\n      mstore\n      0x20\n      add\n      0x00\n      keccak256\n        /* \"ExamineAndReward.sol\":3448:3486  gainAmedicalInformation[doctor].doctor */\n      0x02\n      add\n      0x00\n      swap1\n      sload\n      swap1\n      0x0100\n      exp\n      swap1\n      div\n      0xffffffffffffffffffffffffffffffffffffffff\n      and\n        /* \"ExamineAndReward.sol\":3358:3487  return (gainAmedicalInformation[doctor].user,gainAmedicalInformation[doctor].PictureRoute,gainAmedicalInformation[doctor].doctor) */\n      dup2\n      dup1\n      sload\n      dup1\n      0x20\n      mul\n      0x20\n      add\n      mload(0x40)\n      swap1\n      dup2\n      add\n      0x40\n      mstore\n      dup1\n      swap3\n      swap2\n      swap1\n      dup2\n      dup2\n      mstore\n      0x20\n      add\n      0x00\n      swap1\n    tag_146:\n      dup3\n      dup3\n      lt\n      iszero\n      tag_147\n      jumpi\n      dup4\n      dup3\n      swap1\n      0x00\n      mstore\n      keccak256(0x00, 0x20)\n      add\n      dup1\n      sload\n      tag_149\n      swap1\n      tag_140\n      jump\t// in\n    tag_149:\n      dup1\n      0x1f\n      add\n      0x20\n      dup1\n      swap2\n      div\n      mul\n      0x20\n      add\n      mload(0x40)\n      swap1\n      dup2\n      add\n      0x40\n      mstore\n      dup1\n      swap3\n      swap2\n      swap1\n      dup2\n      dup2\n      mstore\n      0x20\n      add\n      dup3\n      dup1\n      sload\n      tag_150\n      swap1\n      tag_140\n      jump\t// in\n    tag_150:\n      dup1\n      iszero\n      tag_151\n      jumpi\n      dup1\n      0x1f\n      lt\n      tag_152\n      jumpi\n      0x0100\n      dup1\n      dup4\n      sload\n      div\n      mul\n      dup4\n      mstore\n      swap2\n      0x20\n      add\n      swap2\n      jump(tag_151)\n    tag_152:\n      dup3\n      add\n      swap2\n      swap1\n      0x00\n      mstore\n      keccak256(0x00, 0x20)\n      swap1\n    tag_153:\n      dup2\n      sload\n      dup2\n      mstore\n      swap1\n      0x01\n      add\n      swap1\n      0x20\n      add\n      dup1\n      dup4\n      gt\n      tag_153\n      jumpi\n      dup3\n      swap1\n      sub\n      0x1f\n      and\n      dup3\n      add\n      swap2\n    tag_151:\n      pop\n      pop\n      pop\n      pop\n      pop\n      dup2\n      mstore\n      0x20\n      add\n      swap1\n      0x01\n      add\n      swap1\n      jump(tag_146)\n    tag_147:\n      pop\n      pop\n      pop\n      pop\n      swap2\n      pop\n      swap3\n      pop\n      swap3\n      pop\n      swap3\n      pop\n        /* \"ExamineAndReward.sol\":3256:3491  function  gainer_doctorsee(address doctor) public view returns(address,string[] memory,address){\r... */\n      swap2\n      swap4\n      swap1\n      swap3\n      pop\n      jump\t// out\n    tag_107:\n      dup3\n      dup1\n      sload\n      tag_154\n      swap1\n      tag_140\n      jump\t// in\n    tag_154:\n      swap1\n      0x00\n      mstore\n      keccak256(0x00, 0x20)\n      swap1\n      0x1f\n      add\n      0x20\n      swap1\n      div\n      dup2\n      add\n      swap3\n      dup3\n      tag_156\n      jumpi\n      0x00\n      dup6\n      sstore\n      jump(tag_155)\n    tag_156:\n      dup3\n      0x1f\n      lt\n      tag_157\n      jumpi\n      dup1\n      mload\n      not(0xff)\n      and\n      dup4\n      dup1\n      add\n      or\n      dup6\n      sstore\n      jump(tag_155)\n    tag_157:\n      dup3\n      dup1\n      add\n      0x01\n      add\n      dup6\n      sstore\n      dup3\n      iszero\n      tag_155\n      jumpi\n      swap2\n      dup3\n      add\n    tag_158:\n      dup3\n      dup2\n      gt\n      iszero\n      tag_159\n      jumpi\n      dup3\n      mload\n      dup3\n      sstore\n      swap2\n      0x20\n      add\n      swap2\n      swap1\n      0x01\n      add\n      swap1\n      jump(tag_158)\n    tag_159:\n    tag_155:\n      pop\n      swap1\n      pop\n      tag_160\n      swap2\n      swap1\n      tag_161\n      jump\t// in\n    tag_160:\n      pop\n      swap1\n      jump\t// out\n    tag_161:\n    tag_162:\n      dup1\n      dup3\n      gt\n      iszero\n      tag_163\n      jumpi\n      0x00\n      dup2\n      0x00\n      swap1\n      sstore\n      pop\n      0x01\n      add\n      jump(tag_162)\n    tag_163:\n      pop\n      swap1\n      jump\t// out\n        /* \"#utility.yul\":7:419   */\n    tag_165:\n        /* \"#utility.yul\":85:90   */\n      0x00\n        /* \"#utility.yul\":110:176   */\n      tag_167\n        /* \"#utility.yul\":126:175   */\n      tag_168\n        /* \"#utility.yul\":168:174   */\n      dup5\n        /* \"#utility.yul\":126:175   */\n      tag_169\n      jump\t// in\n    tag_168:\n        /* \"#utility.yul\":110:176   */\n      tag_170\n      jump\t// in\n    tag_167:\n        /* \"#utility.yul\":101:176   */\n      swap1\n      pop\n        /* \"#utility.yul\":199:205   */\n      dup3\n        /* \"#utility.yul\":192:197   */\n      dup2\n        /* \"#utility.yul\":185:206   */\n      mstore\n        /* \"#utility.yul\":237:241   */\n      0x20\n        /* \"#utility.yul\":230:235   */\n      dup2\n        /* \"#utility.yul\":226:242   */\n      add\n        /* \"#utility.yul\":275:278   */\n      dup5\n        /* \"#utility.yul\":266:272   */\n      dup5\n        /* \"#utility.yul\":261:264   */\n      dup5\n        /* \"#utility.yul\":257:273   */\n      add\n        /* \"#utility.yul\":254:279   */\n      gt\n        /* \"#utility.yul\":251:363   */\n      iszero\n      tag_171\n      jumpi\n        /* \"#utility.yul\":282:361   */\n      tag_172\n      tag_173\n      jump\t// in\n    tag_172:\n        /* \"#utility.yul\":251:363   */\n    tag_171:\n        /* \"#utility.yul\":372:413   */\n      tag_174\n        /* \"#utility.yul\":406:412   */\n      dup5\n        /* \"#utility.yul\":401:404   */\n      dup3\n        /* \"#utility.yul\":396:399   */\n      dup6\n        /* \"#utility.yul\":372:413   */\n      tag_175\n      jump\t// in\n    tag_174:\n        /* \"#utility.yul\":91:419   */\n      pop\n        /* \"#utility.yul\":7:419   */\n      swap4\n      swap3\n      pop\n      pop\n      pop\n      jump\t// out\n        /* \"#utility.yul\":425:564   */\n    tag_176:\n        /* \"#utility.yul\":471:476   */\n      0x00\n        /* \"#utility.yul\":509:515   */\n      dup2\n        /* \"#utility.yul\":496:516   */\n      calldataload\n        /* \"#utility.yul\":487:516   */\n      swap1\n      pop\n        /* \"#utility.yul\":525:558   */\n      tag_178\n        /* \"#utility.yul\":552:557   */\n      dup2\n        /* \"#utility.yul\":525:558   */\n      tag_179\n      jump\t// in\n    tag_178:\n        /* \"#utility.yul\":425:564   */\n      swap3\n      swap2\n      pop\n      pop\n      jump\t// out\n        /* \"#utility.yul\":570:703   */\n    tag_180:\n        /* \"#utility.yul\":613:618   */\n      0x00\n        /* \"#utility.yul\":651:657   */\n      dup2\n        /* \"#utility.yul\":638:658   */\n      calldataload\n        /* \"#utility.yul\":629:658   */\n      swap1\n      pop\n        /* \"#utility.yul\":667:697   */\n      tag_182\n        /* \"#utility.yul\":691:696   */\n      dup2\n        /* \"#utility.yul\":667:697   */\n      tag_183\n      jump\t// in\n    tag_182:\n        /* \"#utility.yul\":570:703   */\n      swap3\n      swap2\n      pop\n      pop\n      jump\t// out\n        /* \"#utility.yul\":709:846   */\n    tag_184:\n        /* \"#utility.yul\":763:768   */\n      0x00\n        /* \"#utility.yul\":794:800   */\n      dup2\n        /* \"#utility.yul\":788:801   */\n      mload\n        /* \"#utility.yul\":779:801   */\n      swap1\n      pop\n        /* \"#utility.yul\":810:840   */\n      tag_186\n        /* \"#utility.yul\":834:839   */\n      dup2\n        /* \"#utility.yul\":810:840   */\n      tag_183\n      jump\t// in\n    tag_186:\n        /* \"#utility.yul\":709:846   */\n      swap3\n      swap2\n      pop\n      pop\n      jump\t// out\n        /* \"#utility.yul\":866:1206   */\n    tag_187:\n        /* \"#utility.yul\":922:927   */\n      0x00\n        /* \"#utility.yul\":971:974   */\n      dup3\n        /* \"#utility.yul\":964:968   */\n      0x1f\n        /* \"#utility.yul\":956:962   */\n      dup4\n        /* \"#utility.yul\":952:969   */\n      add\n        /* \"#utility.yul\":948:975   */\n      slt\n        /* \"#utility.yul\":938:1060   */\n      tag_189\n      jumpi\n        /* \"#utility.yul\":979:1058   */\n      tag_190\n      tag_191\n      jump\t// in\n    tag_190:\n        /* \"#utility.yul\":938:1060   */\n    tag_189:\n        /* \"#utility.yul\":1096:1102   */\n      dup2\n        /* \"#utility.yul\":1083:1103   */\n      calldataload\n        /* \"#utility.yul\":1121:1200   */\n      tag_192\n        /* \"#utility.yul\":1196:1199   */\n      dup5\n        /* \"#utility.yul\":1188:1194   */\n      dup3\n        /* \"#utility.yul\":1181:1185   */\n      0x20\n        /* \"#utility.yul\":1173:1179   */\n      dup7\n        /* \"#utility.yul\":1169:1186   */\n      add\n        /* \"#utility.yul\":1121:1200   */\n      tag_165\n      jump\t// in\n    tag_192:\n        /* \"#utility.yul\":1112:1200   */\n      swap2\n      pop\n        /* \"#utility.yul\":928:1206   */\n      pop\n        /* \"#utility.yul\":866:1206   */\n      swap3\n      swap2\n      pop\n      pop\n      jump\t// out\n        /* \"#utility.yul\":1212:1351   */\n    tag_193:\n        /* \"#utility.yul\":1258:1263   */\n      0x00\n        /* \"#utility.yul\":1296:1302   */\n      dup2\n        /* \"#utility.yul\":1283:1303   */\n      calldataload\n        /* \"#utility.yul\":1274:1303   */\n      swap1\n      pop\n        /* \"#utility.yul\":1312:1345   */\n      tag_195\n        /* \"#utility.yul\":1339:1344   */\n      dup2\n        /* \"#utility.yul\":1312:1345   */\n      tag_196\n      jump\t// in\n    tag_195:\n        /* \"#utility.yul\":1212:1351   */\n      swap3\n      swap2\n      pop\n      pop\n      jump\t// out\n        /* \"#utility.yul\":1357:1686   */\n    tag_25:\n        /* \"#utility.yul\":1416:1422   */\n      0x00\n        /* \"#utility.yul\":1465:1467   */\n      0x20\n        /* \"#utility.yul\":1453:1462   */\n      dup3\n        /* \"#utility.yul\":1444:1451   */\n      dup5\n        /* \"#utility.yul\":1440:1463   */\n      sub\n        /* \"#utility.yul\":1436:1468   */\n      slt\n        /* \"#utility.yul\":1433:1552   */\n      iszero\n      tag_198\n      jumpi\n        /* \"#utility.yul\":1471:1550   */\n      tag_199\n      tag_200\n      jump\t// in\n    tag_199:\n        /* \"#utility.yul\":1433:1552   */\n    tag_198:\n        /* \"#utility.yul\":1591:1592   */\n      0x00\n        /* \"#utility.yul\":1616:1669   */\n      tag_201\n        /* \"#utility.yul\":1661:1668   */\n      dup5\n        /* \"#utility.yul\":1652:1658   */\n      dup3\n        /* \"#utility.yul\":1641:1650   */\n      dup6\n        /* \"#utility.yul\":1637:1659   */\n      add\n        /* \"#utility.yul\":1616:1669   */\n      tag_176\n      jump\t// in\n    tag_201:\n        /* \"#utility.yul\":1606:1669   */\n      swap2\n      pop\n        /* \"#utility.yul\":1562:1679   */\n      pop\n        /* \"#utility.yul\":1357:1686   */\n      swap3\n      swap2\n      pop\n      pop\n      jump\t// out\n        /* \"#utility.yul\":1692:2311   */\n    tag_75:\n        /* \"#utility.yul\":1769:1775   */\n      0x00\n        /* \"#utility.yul\":1777:1783   */\n      dup1\n        /* \"#utility.yul\":1785:1791   */\n      0x00\n        /* \"#utility.yul\":1834:1836   */\n      0x60\n        /* \"#utility.yul\":1822:1831   */\n      dup5\n        /* \"#utility.yul\":1813:1820   */\n      dup7\n        /* \"#utility.yul\":1809:1832   */\n      sub\n        /* \"#utility.yul\":1805:1837   */\n      slt\n        /* \"#utility.yul\":1802:1921   */\n      iszero\n      tag_203\n      jumpi\n        /* \"#utility.yul\":1840:1919   */\n      tag_204\n      tag_200\n      jump\t// in\n    tag_204:\n        /* \"#utility.yul\":1802:1921   */\n    tag_203:\n        /* \"#utility.yul\":1960:1961   */\n      0x00\n        /* \"#utility.yul\":1985:2038   */\n      tag_205\n        /* \"#utility.yul\":2030:2037   */\n      dup7\n        /* \"#utility.yul\":2021:2027   */\n      dup3\n        /* \"#utility.yul\":2010:2019   */\n      dup8\n        /* \"#utility.yul\":2006:2028   */\n      add\n        /* \"#utility.yul\":1985:2038   */\n      tag_176\n      jump\t// in\n    tag_205:\n        /* \"#utility.yul\":1975:2038   */\n      swap4\n      pop\n        /* \"#utility.yul\":1931:2048   */\n      pop\n        /* \"#utility.yul\":2087:2089   */\n      0x20\n        /* \"#utility.yul\":2113:2166   */\n      tag_206\n        /* \"#utility.yul\":2158:2165   */\n      dup7\n        /* \"#utility.yul\":2149:2155   */\n      dup3\n        /* \"#utility.yul\":2138:2147   */\n      dup8\n        /* \"#utility.yul\":2134:2156   */\n      add\n        /* \"#utility.yul\":2113:2166   */\n      tag_176\n      jump\t// in\n    tag_206:\n        /* \"#utility.yul\":2103:2166   */\n      swap3\n      pop\n        /* \"#utility.yul\":2058:2176   */\n      pop\n        /* \"#utility.yul\":2215:2217   */\n      0x40\n        /* \"#utility.yul\":2241:2294   */\n      tag_207\n        /* \"#utility.yul\":2286:2293   */\n      dup7\n        /* \"#utility.yul\":2277:2283   */\n      dup3\n        /* \"#utility.yul\":2266:2275   */\n      dup8\n        /* \"#utility.yul\":2262:2284   */\n      add\n        /* \"#utility.yul\":2241:2294   */\n      tag_193\n      jump\t// in\n    tag_207:\n        /* \"#utility.yul\":2231:2294   */\n      swap2\n      pop\n        /* \"#utility.yul\":2186:2304   */\n      pop\n        /* \"#utility.yul\":1692:2311   */\n      swap3\n      pop\n      swap3\n      pop\n      swap3\n      jump\t// out\n        /* \"#utility.yul\":2317:3256   */\n    tag_61:\n        /* \"#utility.yul\":2410:2416   */\n      0x00\n        /* \"#utility.yul\":2418:2424   */\n      dup1\n        /* \"#utility.yul\":2426:2432   */\n      0x00\n        /* \"#utility.yul\":2434:2440   */\n      dup1\n        /* \"#utility.yul\":2483:2486   */\n      0x80\n        /* \"#utility.yul\":2471:2480   */\n      dup6\n        /* \"#utility.yul\":2462:2469   */\n      dup8\n        /* \"#utility.yul\":2458:2481   */\n      sub\n        /* \"#utility.yul\":2454:2487   */\n      slt\n        /* \"#utility.yul\":2451:2571   */\n      iszero\n      tag_209\n      jumpi\n        /* \"#utility.yul\":2490:2569   */\n      tag_210\n      tag_200\n      jump\t// in\n    tag_210:\n        /* \"#utility.yul\":2451:2571   */\n    tag_209:\n        /* \"#utility.yul\":2610:2611   */\n      0x00\n        /* \"#utility.yul\":2635:2688   */\n      tag_211\n        /* \"#utility.yul\":2680:2687   */\n      dup8\n        /* \"#utility.yul\":2671:2677   */\n      dup3\n        /* \"#utility.yul\":2660:2669   */\n      dup9\n        /* \"#utility.yul\":2656:2678   */\n      add\n        /* \"#utility.yul\":2635:2688   */\n      tag_176\n      jump\t// in\n    tag_211:\n        /* \"#utility.yul\":2625:2688   */\n      swap5\n      pop\n        /* \"#utility.yul\":2581:2698   */\n      pop\n        /* \"#utility.yul\":2765:2767   */\n      0x20\n        /* \"#utility.yul\":2754:2763   */\n      dup6\n        /* \"#utility.yul\":2750:2768   */\n      add\n        /* \"#utility.yul\":2737:2769   */\n      calldataload\n        /* \"#utility.yul\":2796:2814   */\n      0xffffffffffffffff\n        /* \"#utility.yul\":2788:2794   */\n      dup2\n        /* \"#utility.yul\":2785:2815   */\n      gt\n        /* \"#utility.yul\":2782:2899   */\n      iszero\n      tag_212\n      jumpi\n        /* \"#utility.yul\":2818:2897   */\n      tag_213\n      tag_214\n      jump\t// in\n    tag_213:\n        /* \"#utility.yul\":2782:2899   */\n    tag_212:\n        /* \"#utility.yul\":2923:2986   */\n      tag_215\n        /* \"#utility.yul\":2978:2985   */\n      dup8\n        /* \"#utility.yul\":2969:2975   */\n      dup3\n        /* \"#utility.yul\":2958:2967   */\n      dup9\n        /* \"#utility.yul\":2954:2976   */\n      add\n        /* \"#utility.yul\":2923:2986   */\n      tag_187\n      jump\t// in\n    tag_215:\n        /* \"#utility.yul\":2913:2986   */\n      swap4\n      pop\n        /* \"#utility.yul\":2708:2996   */\n      pop\n        /* \"#utility.yul\":3035:3037   */\n      0x40\n        /* \"#utility.yul\":3061:3111   */\n      tag_216\n        /* \"#utility.yul\":3103:3110   */\n      dup8\n        /* \"#utility.yul\":3094:3100   */\n      dup3\n        /* \"#utility.yul\":3083:3092   */\n      dup9\n        /* \"#utility.yul\":3079:3101   */\n      add\n        /* \"#utility.yul\":3061:3111   */\n      tag_180\n      jump\t// in\n    tag_216:\n        /* \"#utility.yul\":3051:3111   */\n      swap3\n      pop\n        /* \"#utility.yul\":3006:3121   */\n      pop\n        /* \"#utility.yul\":3160:3162   */\n      0x60\n        /* \"#utility.yul\":3186:3239   */\n      tag_217\n        /* \"#utility.yul\":3231:3238   */\n      dup8\n        /* \"#utility.yul\":3222:3228   */\n      dup3\n        /* \"#utility.yul\":3211:3220   */\n      dup9\n        /* \"#utility.yul\":3207:3229   */\n      add\n        /* \"#utility.yul\":3186:3239   */\n      tag_193\n      jump\t// in\n    tag_217:\n        /* \"#utility.yul\":3176:3239   */\n      swap2\n      pop\n        /* \"#utility.yul\":3131:3249   */\n      pop\n        /* \"#utility.yul\":2317:3256   */\n      swap3\n      swap6\n      swap2\n      swap5\n      pop\n      swap3\n      pop\n      jump\t// out\n        /* \"#utility.yul\":3262:3607   */\n    tag_131:\n        /* \"#utility.yul\":3329:3335   */\n      0x00\n        /* \"#utility.yul\":3378:3380   */\n      0x20\n        /* \"#utility.yul\":3366:3375   */\n      dup3\n        /* \"#utility.yul\":3357:3364   */\n      dup5\n        /* \"#utility.yul\":3353:3376   */\n      sub\n        /* \"#utility.yul\":3349:3381   */\n      slt\n        /* \"#utility.yul\":3346:3465   */\n      iszero\n      tag_219\n      jumpi\n        /* \"#utility.yul\":3384:3463   */\n      tag_220\n      tag_200\n      jump\t// in\n    tag_220:\n        /* \"#utility.yul\":3346:3465   */\n    tag_219:\n        /* \"#utility.yul\":3504:3505   */\n      0x00\n        /* \"#utility.yul\":3529:3590   */\n      tag_221\n        /* \"#utility.yul\":3582:3589   */\n      dup5\n        /* \"#utility.yul\":3573:3579   */\n      dup3\n        /* \"#utility.yul\":3562:3571   */\n      dup6\n        /* \"#utility.yul\":3558:3580   */\n      add\n        /* \"#utility.yul\":3529:3590   */\n      tag_184\n      jump\t// in\n    tag_221:\n        /* \"#utility.yul\":3519:3590   */\n      swap2\n      pop\n        /* \"#utility.yul\":3475:3600   */\n      pop\n        /* \"#utility.yul\":3262:3607   */\n      swap3\n      swap2\n      pop\n      pop\n      jump\t// out\n        /* \"#utility.yul\":3613:4122   */\n    tag_39:\n        /* \"#utility.yul\":3682:3688   */\n      0x00\n        /* \"#utility.yul\":3731:3733   */\n      0x20\n        /* \"#utility.yul\":3719:3728   */\n      dup3\n        /* \"#utility.yul\":3710:3717   */\n      dup5\n        /* \"#utility.yul\":3706:3729   */\n      sub\n        /* \"#utility.yul\":3702:3734   */\n      slt\n        /* \"#utility.yul\":3699:3818   */\n      iszero\n      tag_223\n      jumpi\n        /* \"#utility.yul\":3737:3816   */\n      tag_224\n      tag_200\n      jump\t// in\n    tag_224:\n        /* \"#utility.yul\":3699:3818   */\n    tag_223:\n        /* \"#utility.yul\":3885:3886   */\n      0x00\n        /* \"#utility.yul\":3874:3883   */\n      dup3\n        /* \"#utility.yul\":3870:3887   */\n      add\n        /* \"#utility.yul\":3857:3888   */\n      calldataload\n        /* \"#utility.yul\":3915:3933   */\n      0xffffffffffffffff\n        /* \"#utility.yul\":3907:3913   */\n      dup2\n        /* \"#utility.yul\":3904:3934   */\n      gt\n        /* \"#utility.yul\":3901:4018   */\n      iszero\n      tag_225\n      jumpi\n        /* \"#utility.yul\":3937:4016   */\n      tag_226\n      tag_214\n      jump\t// in\n    tag_226:\n        /* \"#utility.yul\":3901:4018   */\n    tag_225:\n        /* \"#utility.yul\":4042:4105   */\n      tag_227\n        /* \"#utility.yul\":4097:4104   */\n      dup5\n        /* \"#utility.yul\":4088:4094   */\n      dup3\n        /* \"#utility.yul\":4077:4086   */\n      dup6\n        /* \"#utility.yul\":4073:4095   */\n      add\n        /* \"#utility.yul\":4042:4105   */\n      tag_187\n      jump\t// in\n    tag_227:\n        /* \"#utility.yul\":4032:4105   */\n      swap2\n      pop\n        /* \"#utility.yul\":3828:4115   */\n      pop\n        /* \"#utility.yul\":3613:4122   */\n      swap3\n      swap2\n      pop\n      pop\n      jump\t// out\n        /* \"#utility.yul\":4128:4782   */\n    tag_56:\n        /* \"#utility.yul\":4206:4212   */\n      0x00\n        /* \"#utility.yul\":4214:4220   */\n      dup1\n        /* \"#utility.yul\":4263:4265   */\n      0x40\n        /* \"#utility.yul\":4251:4260   */\n      dup4\n        /* \"#utility.yul\":4242:4249   */\n      dup6\n        /* \"#utility.yul\":4238:4261   */\n      sub\n        /* \"#utility.yul\":4234:4266   */\n      slt\n        /* \"#utility.yul\":4231:4350   */\n      iszero\n      tag_229\n      jumpi\n        /* \"#utility.yul\":4269:4348   */\n      tag_230\n      tag_200\n      jump\t// in\n    tag_230:\n        /* \"#utility.yul\":4231:4350   */\n    tag_229:\n        /* \"#utility.yul\":4417:4418   */\n      0x00\n        /* \"#utility.yul\":4406:4415   */\n      dup4\n        /* \"#utility.yul\":4402:4419   */\n      add\n        /* \"#utility.yul\":4389:4420   */\n      calldataload\n        /* \"#utility.yul\":4447:4465   */\n      0xffffffffffffffff\n        /* \"#utility.yul\":4439:4445   */\n      dup2\n        /* \"#utility.yul\":4436:4466   */\n      gt\n        /* \"#utility.yul\":4433:4550   */\n      iszero\n      tag_231\n      jumpi\n        /* \"#utility.yul\":4469:4548   */\n      tag_232\n      tag_214\n      jump\t// in\n    tag_232:\n        /* \"#utility.yul\":4433:4550   */\n    tag_231:\n        /* \"#utility.yul\":4574:4637   */\n      tag_233\n        /* \"#utility.yul\":4629:4636   */\n      dup6\n        /* \"#utility.yul\":4620:4626   */\n      dup3\n        /* \"#utility.yul\":4609:4618   */\n      dup7\n        /* \"#utility.yul\":4605:4627   */\n      add\n        /* \"#utility.yul\":4574:4637   */\n      tag_187\n      jump\t// in\n    tag_233:\n        /* \"#utility.yul\":4564:4637   */\n      swap3\n      pop\n        /* \"#utility.yul\":4360:4647   */\n      pop\n        /* \"#utility.yul\":4686:4688   */\n      0x20\n        /* \"#utility.yul\":4712:4765   */\n      tag_234\n        /* \"#utility.yul\":4757:4764   */\n      dup6\n        /* \"#utility.yul\":4748:4754   */\n      dup3\n        /* \"#utility.yul\":4737:4746   */\n      dup7\n        /* \"#utility.yul\":4733:4755   */\n      add\n        /* \"#utility.yul\":4712:4765   */\n      tag_176\n      jump\t// in\n    tag_234:\n        /* \"#utility.yul\":4702:4765   */\n      swap2\n      pop\n        /* \"#utility.yul\":4657:4775   */\n      pop\n        /* \"#utility.yul\":4128:4782   */\n      swap3\n      pop\n      swap3\n      swap1\n      pop\n      jump\t// out\n        /* \"#utility.yul\":4788:4984   */\n    tag_235:\n        /* \"#utility.yul\":4877:4887   */\n      0x00\n        /* \"#utility.yul\":4912:4978   */\n      tag_237\n        /* \"#utility.yul\":4974:4977   */\n      dup4\n        /* \"#utility.yul\":4966:4972   */\n      dup4\n        /* \"#utility.yul\":4912:4978   */\n      tag_238\n      jump\t// in\n    tag_237:\n        /* \"#utility.yul\":4898:4978   */\n      swap1\n      pop\n        /* \"#utility.yul\":4788:4984   */\n      swap3\n      swap2\n      pop\n      pop\n      jump\t// out\n        /* \"#utility.yul\":4990:5108   */\n    tag_239:\n        /* \"#utility.yul\":5077:5101   */\n      tag_241\n        /* \"#utility.yul\":5095:5100   */\n      dup2\n        /* \"#utility.yul\":5077:5101   */\n      tag_242\n      jump\t// in\n    tag_241:\n        /* \"#utility.yul\":5072:5075   */\n      dup3\n        /* \"#utility.yul\":5065:5102   */\n      mstore\n        /* \"#utility.yul\":4990:5108   */\n      pop\n      pop\n      jump\t// out\n        /* \"#utility.yul\":5142:6133   */\n    tag_243:\n        /* \"#utility.yul\":5281:5284   */\n      0x00\n        /* \"#utility.yul\":5310:5374   */\n      tag_245\n        /* \"#utility.yul\":5368:5373   */\n      dup3\n        /* \"#utility.yul\":5310:5374   */\n      tag_246\n      jump\t// in\n    tag_245:\n        /* \"#utility.yul\":5390:5486   */\n      tag_247\n        /* \"#utility.yul\":5479:5485   */\n      dup2\n        /* \"#utility.yul\":5474:5477   */\n      dup6\n        /* \"#utility.yul\":5390:5486   */\n      tag_248\n      jump\t// in\n    tag_247:\n        /* \"#utility.yul\":5383:5486   */\n      swap4\n      pop\n        /* \"#utility.yul\":5512:5515   */\n      dup4\n        /* \"#utility.yul\":5557:5561   */\n      0x20\n        /* \"#utility.yul\":5549:5555   */\n      dup3\n        /* \"#utility.yul\":5545:5562   */\n      mul\n        /* \"#utility.yul\":5540:5543   */\n      dup6\n        /* \"#utility.yul\":5536:5563   */\n      add\n        /* \"#utility.yul\":5587:5653   */\n      tag_249\n        /* \"#utility.yul\":5647:5652   */\n      dup6\n        /* \"#utility.yul\":5587:5653   */\n      tag_250\n      jump\t// in\n    tag_249:\n        /* \"#utility.yul\":5676:5683   */\n      dup1\n        /* \"#utility.yul\":5707:5708   */\n      0x00\n        /* \"#utility.yul\":5692:6088   */\n    tag_251:\n        /* \"#utility.yul\":5717:5723   */\n      dup6\n        /* \"#utility.yul\":5714:5715   */\n      dup2\n        /* \"#utility.yul\":5711:5724   */\n      lt\n        /* \"#utility.yul\":5692:6088   */\n      iszero\n      tag_253\n      jumpi\n        /* \"#utility.yul\":5788:5797   */\n      dup5\n        /* \"#utility.yul\":5782:5786   */\n      dup5\n        /* \"#utility.yul\":5778:5798   */\n      sub\n        /* \"#utility.yul\":5773:5776   */\n      dup10\n        /* \"#utility.yul\":5766:5799   */\n      mstore\n        /* \"#utility.yul\":5839:5845   */\n      dup2\n        /* \"#utility.yul\":5833:5846   */\n      mload\n        /* \"#utility.yul\":5867:5951   */\n      tag_254\n        /* \"#utility.yul\":5946:5950   */\n      dup6\n        /* \"#utility.yul\":5931:5944   */\n      dup3\n        /* \"#utility.yul\":5867:5951   */\n      tag_235\n      jump\t// in\n    tag_254:\n        /* \"#utility.yul\":5859:5951   */\n      swap5\n      pop\n        /* \"#utility.yul\":5974:6044   */\n      tag_255\n        /* \"#utility.yul\":6037:6043   */\n      dup4\n        /* \"#utility.yul\":5974:6044   */\n      tag_256\n      jump\t// in\n    tag_255:\n        /* \"#utility.yul\":5964:6044   */\n      swap3\n      pop\n        /* \"#utility.yul\":6073:6077   */\n      0x20\n        /* \"#utility.yul\":6068:6071   */\n      dup11\n        /* \"#utility.yul\":6064:6078   */\n      add\n        /* \"#utility.yul\":6057:6078   */\n      swap10\n      pop\n        /* \"#utility.yul\":5752:6088   */\n      pop\n        /* \"#utility.yul\":5739:5740   */\n      0x01\n        /* \"#utility.yul\":5736:5737   */\n      dup2\n        /* \"#utility.yul\":5732:5741   */\n      add\n        /* \"#utility.yul\":5727:5741   */\n      swap1\n      pop\n        /* \"#utility.yul\":5692:6088   */\n      jump(tag_251)\n    tag_253:\n        /* \"#utility.yul\":5696:5710   */\n      pop\n        /* \"#utility.yul\":6104:6108   */\n      dup3\n        /* \"#utility.yul\":6097:6108   */\n      swap8\n      pop\n        /* \"#utility.yul\":6124:6127   */\n      dup8\n        /* \"#utility.yul\":6117:6127   */\n      swap6\n      pop\n        /* \"#utility.yul\":5286:6133   */\n      pop\n      pop\n      pop\n      pop\n      pop\n        /* \"#utility.yul\":5142:6133   */\n      swap3\n      swap2\n      pop\n      pop\n      jump\t// out\n        /* \"#utility.yul\":6139:6248   */\n    tag_257:\n        /* \"#utility.yul\":6220:6241   */\n      tag_259\n        /* \"#utility.yul\":6235:6240   */\n      dup2\n        /* \"#utility.yul\":6220:6241   */\n      tag_260\n      jump\t// in\n    tag_259:\n        /* \"#utility.yul\":6215:6218   */\n      dup3\n        /* \"#utility.yul\":6208:6242   */\n      mstore\n        /* \"#utility.yul\":6139:6248   */\n      pop\n      pop\n      jump\t// out\n        /* \"#utility.yul\":6254:6598   */\n    tag_238:\n        /* \"#utility.yul\":6332:6335   */\n      0x00\n        /* \"#utility.yul\":6360:6399   */\n      tag_262\n        /* \"#utility.yul\":6393:6398   */\n      dup3\n        /* \"#utility.yul\":6360:6399   */\n      tag_263\n      jump\t// in\n    tag_262:\n        /* \"#utility.yul\":6415:6476   */\n      tag_264\n        /* \"#utility.yul\":6469:6475   */\n      dup2\n        /* \"#utility.yul\":6464:6467   */\n      dup6\n        /* \"#utility.yul\":6415:6476   */\n      tag_265\n      jump\t// in\n    tag_264:\n        /* \"#utility.yul\":6408:6476   */\n      swap4\n      pop\n        /* \"#utility.yul\":6485:6537   */\n      tag_266\n        /* \"#utility.yul\":6530:6536   */\n      dup2\n        /* \"#utility.yul\":6525:6528   */\n      dup6\n        /* \"#utility.yul\":6518:6522   */\n      0x20\n        /* \"#utility.yul\":6511:6516   */\n      dup7\n        /* \"#utility.yul\":6507:6523   */\n      add\n        /* \"#utility.yul\":6485:6537   */\n      tag_267\n      jump\t// in\n    tag_266:\n        /* \"#utility.yul\":6562:6591   */\n      tag_268\n        /* \"#utility.yul\":6584:6590   */\n      dup2\n        /* \"#utility.yul\":6562:6591   */\n      tag_269\n      jump\t// in\n    tag_268:\n        /* \"#utility.yul\":6557:6560   */\n      dup5\n        /* \"#utility.yul\":6553:6592   */\n      add\n        /* \"#utility.yul\":6546:6592   */\n      swap2\n      pop\n        /* \"#utility.yul\":6336:6598   */\n      pop\n        /* \"#utility.yul\":6254:6598   */\n      swap3\n      swap2\n      pop\n      pop\n      jump\t// out\n        /* \"#utility.yul\":6604:6968   */\n    tag_270:\n        /* \"#utility.yul\":6692:6695   */\n      0x00\n        /* \"#utility.yul\":6720:6759   */\n      tag_272\n        /* \"#utility.yul\":6753:6758   */\n      dup3\n        /* \"#utility.yul\":6720:6759   */\n      tag_263\n      jump\t// in\n    tag_272:\n        /* \"#utility.yul\":6775:6846   */\n      tag_273\n        /* \"#utility.yul\":6839:6845   */\n      dup2\n        /* \"#utility.yul\":6834:6837   */\n      dup6\n        /* \"#utility.yul\":6775:6846   */\n      tag_274\n      jump\t// in\n    tag_273:\n        /* \"#utility.yul\":6768:6846   */\n      swap4\n      pop\n        /* \"#utility.yul\":6855:6907   */\n      tag_275\n        /* \"#utility.yul\":6900:6906   */\n      dup2\n        /* \"#utility.yul\":6895:6898   */\n      dup6\n        /* \"#utility.yul\":6888:6892   */\n      0x20\n        /* \"#utility.yul\":6881:6886   */\n      dup7\n        /* \"#utility.yul\":6877:6893   */\n      add\n        /* \"#utility.yul\":6855:6907   */\n      tag_267\n      jump\t// in\n    tag_275:\n        /* \"#utility.yul\":6932:6961   */\n      tag_276\n        /* \"#utility.yul\":6954:6960   */\n      dup2\n        /* \"#utility.yul\":6932:6961   */\n      tag_269\n      jump\t// in\n    tag_276:\n        /* \"#utility.yul\":6927:6930   */\n      dup5\n        /* \"#utility.yul\":6923:6962   */\n      add\n        /* \"#utility.yul\":6916:6962   */\n      swap2\n      pop\n        /* \"#utility.yul\":6696:6968   */\n      pop\n        /* \"#utility.yul\":6604:6968   */\n      swap3\n      swap2\n      pop\n      pop\n      jump\t// out\n        /* \"#utility.yul\":6974:7351   */\n    tag_277:\n        /* \"#utility.yul\":7080:7083   */\n      0x00\n        /* \"#utility.yul\":7108:7147   */\n      tag_279\n        /* \"#utility.yul\":7141:7146   */\n      dup3\n        /* \"#utility.yul\":7108:7147   */\n      tag_263\n      jump\t// in\n    tag_279:\n        /* \"#utility.yul\":7163:7252   */\n      tag_280\n        /* \"#utility.yul\":7245:7251   */\n      dup2\n        /* \"#utility.yul\":7240:7243   */\n      dup6\n        /* \"#utility.yul\":7163:7252   */\n      tag_281\n      jump\t// in\n    tag_280:\n        /* \"#utility.yul\":7156:7252   */\n      swap4\n      pop\n        /* \"#utility.yul\":7261:7313   */\n      tag_282\n        /* \"#utility.yul\":7306:7312   */\n      dup2\n        /* \"#utility.yul\":7301:7304   */\n      dup6\n        /* \"#utility.yul\":7294:7298   */\n      0x20\n        /* \"#utility.yul\":7287:7292   */\n      dup7\n        /* \"#utility.yul\":7283:7299   */\n      add\n        /* \"#utility.yul\":7261:7313   */\n      tag_267\n      jump\t// in\n    tag_282:\n        /* \"#utility.yul\":7338:7344   */\n      dup1\n        /* \"#utility.yul\":7333:7336   */\n      dup5\n        /* \"#utility.yul\":7329:7345   */\n      add\n        /* \"#utility.yul\":7322:7345   */\n      swap2\n      pop\n        /* \"#utility.yul\":7084:7351   */\n      pop\n        /* \"#utility.yul\":6974:7351   */\n      swap3\n      swap2\n      pop\n      pop\n      jump\t// out\n        /* \"#utility.yul\":7357:7723   */\n    tag_283:\n        /* \"#utility.yul\":7499:7502   */\n      0x00\n        /* \"#utility.yul\":7520:7587   */\n      tag_285\n        /* \"#utility.yul\":7584:7586   */\n      0x19\n        /* \"#utility.yul\":7579:7582   */\n      dup4\n        /* \"#utility.yul\":7520:7587   */\n      tag_274\n      jump\t// in\n    tag_285:\n        /* \"#utility.yul\":7513:7587   */\n      swap2\n      pop\n        /* \"#utility.yul\":7596:7689   */\n      tag_286\n        /* \"#utility.yul\":7685:7688   */\n      dup3\n        /* \"#utility.yul\":7596:7689   */\n      tag_287\n      jump\t// in\n    tag_286:\n        /* \"#utility.yul\":7714:7716   */\n      0x20\n        /* \"#utility.yul\":7709:7712   */\n      dup3\n        /* \"#utility.yul\":7705:7717   */\n      add\n        /* \"#utility.yul\":7698:7717   */\n      swap1\n      pop\n        /* \"#utility.yul\":7357:7723   */\n      swap2\n      swap1\n      pop\n      jump\t// out\n        /* \"#utility.yul\":7729:8095   */\n    tag_288:\n        /* \"#utility.yul\":7871:7874   */\n      0x00\n        /* \"#utility.yul\":7892:7959   */\n      tag_290\n        /* \"#utility.yul\":7956:7958   */\n      0x2e\n        /* \"#utility.yul\":7951:7954   */\n      dup4\n        /* \"#utility.yul\":7892:7959   */\n      tag_274\n      jump\t// in\n    tag_290:\n        /* \"#utility.yul\":7885:7959   */\n      swap2\n      pop\n        /* \"#utility.yul\":7968:8061   */\n      tag_291\n        /* \"#utility.yul\":8057:8060   */\n      dup3\n        /* \"#utility.yul\":7968:8061   */\n      tag_292\n      jump\t// in\n    tag_291:\n        /* \"#utility.yul\":8086:8088   */\n      0x40\n        /* \"#utility.yul\":8081:8084   */\n      dup3\n        /* \"#utility.yul\":8077:8089   */\n      add\n        /* \"#utility.yul\":8070:8089   */\n      swap1\n      pop\n        /* \"#utility.yul\":7729:8095   */\n      swap2\n      swap1\n      pop\n      jump\t// out\n        /* \"#utility.yul\":8101:8467   */\n    tag_293:\n        /* \"#utility.yul\":8243:8246   */\n      0x00\n        /* \"#utility.yul\":8264:8331   */\n      tag_295\n        /* \"#utility.yul\":8328:8330   */\n      0x10\n        /* \"#utility.yul\":8323:8326   */\n      dup4\n        /* \"#utility.yul\":8264:8331   */\n      tag_274\n      jump\t// in\n    tag_295:\n        /* \"#utility.yul\":8257:8331   */\n      swap2\n      pop\n        /* \"#utility.yul\":8340:8433   */\n      tag_296\n        /* \"#utility.yul\":8429:8432   */\n      dup3\n        /* \"#utility.yul\":8340:8433   */\n      tag_297\n      jump\t// in\n    tag_296:\n        /* \"#utility.yul\":8458:8460   */\n      0x20\n        /* \"#utility.yul\":8453:8456   */\n      dup3\n        /* \"#utility.yul\":8449:8461   */\n      add\n        /* \"#utility.yul\":8442:8461   */\n      swap1\n      pop\n        /* \"#utility.yul\":8101:8467   */\n      swap2\n      swap1\n      pop\n      jump\t// out\n        /* \"#utility.yul\":8473:8591   */\n    tag_298:\n        /* \"#utility.yul\":8560:8584   */\n      tag_300\n        /* \"#utility.yul\":8578:8583   */\n      dup2\n        /* \"#utility.yul\":8560:8584   */\n      tag_301\n      jump\t// in\n    tag_300:\n        /* \"#utility.yul\":8555:8558   */\n      dup3\n        /* \"#utility.yul\":8548:8585   */\n      mstore\n        /* \"#utility.yul\":8473:8591   */\n      pop\n      pop\n      jump\t// out\n        /* \"#utility.yul\":8597:8872   */\n    tag_93:\n        /* \"#utility.yul\":8729:8732   */\n      0x00\n        /* \"#utility.yul\":8751:8846   */\n      tag_303\n        /* \"#utility.yul\":8842:8845   */\n      dup3\n        /* \"#utility.yul\":8833:8839   */\n      dup5\n        /* \"#utility.yul\":8751:8846   */\n      tag_277\n      jump\t// in\n    tag_303:\n        /* \"#utility.yul\":8744:8846   */\n      swap2\n      pop\n        /* \"#utility.yul\":8863:8866   */\n      dup2\n        /* \"#utility.yul\":8856:8866   */\n      swap1\n      pop\n        /* \"#utility.yul\":8597:8872   */\n      swap3\n      swap2\n      pop\n      pop\n      jump\t// out\n        /* \"#utility.yul\":8878:9320   */\n    tag_126:\n        /* \"#utility.yul\":9027:9031   */\n      0x00\n        /* \"#utility.yul\":9065:9067   */\n      0x60\n        /* \"#utility.yul\":9054:9063   */\n      dup3\n        /* \"#utility.yul\":9050:9068   */\n      add\n        /* \"#utility.yul\":9042:9068   */\n      swap1\n      pop\n        /* \"#utility.yul\":9078:9149   */\n      tag_305\n        /* \"#utility.yul\":9146:9147   */\n      0x00\n        /* \"#utility.yul\":9135:9144   */\n      dup4\n        /* \"#utility.yul\":9131:9148   */\n      add\n        /* \"#utility.yul\":9122:9128   */\n      dup7\n        /* \"#utility.yul\":9078:9149   */\n      tag_239\n      jump\t// in\n    tag_305:\n        /* \"#utility.yul\":9159:9231   */\n      tag_306\n        /* \"#utility.yul\":9227:9229   */\n      0x20\n        /* \"#utility.yul\":9216:9225   */\n      dup4\n        /* \"#utility.yul\":9212:9230   */\n      add\n        /* \"#utility.yul\":9203:9209   */\n      dup6\n        /* \"#utility.yul\":9159:9231   */\n      tag_239\n      jump\t// in\n    tag_306:\n        /* \"#utility.yul\":9241:9313   */\n      tag_307\n        /* \"#utility.yul\":9309:9311   */\n      0x40\n        /* \"#utility.yul\":9298:9307   */\n      dup4\n        /* \"#utility.yul\":9294:9312   */\n      add\n        /* \"#utility.yul\":9285:9291   */\n      dup5\n        /* \"#utility.yul\":9241:9313   */\n      tag_298\n      jump\t// in\n    tag_307:\n        /* \"#utility.yul\":8878:9320   */\n      swap5\n      swap4\n      pop\n      pop\n      pop\n      pop\n      jump\t// out\n        /* \"#utility.yul\":9326:9959   */\n    tag_88:\n        /* \"#utility.yul\":9545:9549   */\n      0x00\n        /* \"#utility.yul\":9583:9585   */\n      0x60\n        /* \"#utility.yul\":9572:9581   */\n      dup3\n        /* \"#utility.yul\":9568:9586   */\n      add\n        /* \"#utility.yul\":9560:9586   */\n      swap1\n      pop\n        /* \"#utility.yul\":9596:9667   */\n      tag_309\n        /* \"#utility.yul\":9664:9665   */\n      0x00\n        /* \"#utility.yul\":9653:9662   */\n      dup4\n        /* \"#utility.yul\":9649:9666   */\n      add\n        /* \"#utility.yul\":9640:9646   */\n      dup7\n        /* \"#utility.yul\":9596:9667   */\n      tag_239\n      jump\t// in\n    tag_309:\n        /* \"#utility.yul\":9714:9723   */\n      dup2\n        /* \"#utility.yul\":9708:9712   */\n      dup2\n        /* \"#utility.yul\":9704:9724   */\n      sub\n        /* \"#utility.yul\":9699:9701   */\n      0x20\n        /* \"#utility.yul\":9688:9697   */\n      dup4\n        /* \"#utility.yul\":9684:9702   */\n      add\n        /* \"#utility.yul\":9677:9725   */\n      mstore\n        /* \"#utility.yul\":9742:9870   */\n      tag_310\n        /* \"#utility.yul\":9865:9869   */\n      dup2\n        /* \"#utility.yul\":9856:9862   */\n      dup6\n        /* \"#utility.yul\":9742:9870   */\n      tag_243\n      jump\t// in\n    tag_310:\n        /* \"#utility.yul\":9734:9870   */\n      swap1\n      pop\n        /* \"#utility.yul\":9880:9952   */\n      tag_311\n        /* \"#utility.yul\":9948:9950   */\n      0x40\n        /* \"#utility.yul\":9937:9946   */\n      dup4\n        /* \"#utility.yul\":9933:9951   */\n      add\n        /* \"#utility.yul\":9924:9930   */\n      dup5\n        /* \"#utility.yul\":9880:9952   */\n      tag_239\n      jump\t// in\n    tag_311:\n        /* \"#utility.yul\":9326:9959   */\n      swap5\n      swap4\n      pop\n      pop\n      pop\n      pop\n      jump\t// out\n        /* \"#utility.yul\":9965:10488   */\n    tag_82:\n        /* \"#utility.yul\":10156:10160   */\n      0x00\n        /* \"#utility.yul\":10194:10196   */\n      0x40\n        /* \"#utility.yul\":10183:10192   */\n      dup3\n        /* \"#utility.yul\":10179:10197   */\n      add\n        /* \"#utility.yul\":10171:10197   */\n      swap1\n      pop\n        /* \"#utility.yul\":10243:10252   */\n      dup2\n        /* \"#utility.yul\":10237:10241   */\n      dup2\n        /* \"#utility.yul\":10233:10253   */\n      sub\n        /* \"#utility.yul\":10229:10230   */\n      0x00\n        /* \"#utility.yul\":10218:10227   */\n      dup4\n        /* \"#utility.yul\":10214:10231   */\n      add\n        /* \"#utility.yul\":10207:10254   */\n      mstore\n        /* \"#utility.yul\":10271:10399   */\n      tag_313\n        /* \"#utility.yul\":10394:10398   */\n      dup2\n        /* \"#utility.yul\":10385:10391   */\n      dup6\n        /* \"#utility.yul\":10271:10399   */\n      tag_243\n      jump\t// in\n    tag_313:\n        /* \"#utility.yul\":10263:10399   */\n      swap1\n      pop\n        /* \"#utility.yul\":10409:10481   */\n      tag_314\n        /* \"#utility.yul\":10477:10479   */\n      0x20\n        /* \"#utility.yul\":10466:10475   */\n      dup4\n        /* \"#utility.yul\":10462:10480   */\n      add\n        /* \"#utility.yul\":10453:10459   */\n      dup5\n        /* \"#utility.yul\":10409:10481   */\n      tag_239\n      jump\t// in\n    tag_314:\n        /* \"#utility.yul\":9965:10488   */\n      swap4\n      swap3\n      pop\n      pop\n      pop\n      jump\t// out\n        /* \"#utility.yul\":10494:10704   */\n    tag_52:\n        /* \"#utility.yul\":10581:10585   */\n      0x00\n        /* \"#utility.yul\":10619:10621   */\n      0x20\n        /* \"#utility.yul\":10608:10617   */\n      dup3\n        /* \"#utility.yul\":10604:10622   */\n      add\n        /* \"#utility.yul\":10596:10622   */\n      swap1\n      pop\n        /* \"#utility.yul\":10632:10697   */\n      tag_316\n        /* \"#utility.yul\":10694:10695   */\n      0x00\n        /* \"#utility.yul\":10683:10692   */\n      dup4\n        /* \"#utility.yul\":10679:10696   */\n      add\n        /* \"#utility.yul\":10670:10676   */\n      dup5\n        /* \"#utility.yul\":10632:10697   */\n      tag_257\n      jump\t// in\n    tag_316:\n        /* \"#utility.yul\":10494:10704   */\n      swap3\n      swap2\n      pop\n      pop\n      jump\t// out\n        /* \"#utility.yul\":10710:11121   */\n    tag_42:\n        /* \"#utility.yul\":10845:10849   */\n      0x00\n        /* \"#utility.yul\":10883:10885   */\n      0x40\n        /* \"#utility.yul\":10872:10881   */\n      dup3\n        /* \"#utility.yul\":10868:10886   */\n      add\n        /* \"#utility.yul\":10860:10886   */\n      swap1\n      pop\n        /* \"#utility.yul\":10932:10941   */\n      dup2\n        /* \"#utility.yul\":10926:10930   */\n      dup2\n        /* \"#utility.yul\":10922:10942   */\n      sub\n        /* \"#utility.yul\":10918:10919   */\n      0x00\n        /* \"#utility.yul\":10907:10916   */\n      dup4\n        /* \"#utility.yul\":10903:10920   */\n      add\n        /* \"#utility.yul\":10896:10943   */\n      mstore\n        /* \"#utility.yul\":10960:11038   */\n      tag_318\n        /* \"#utility.yul\":11033:11037   */\n      dup2\n        /* \"#utility.yul\":11024:11030   */\n      dup6\n        /* \"#utility.yul\":10960:11038   */\n      tag_270\n      jump\t// in\n    tag_318:\n        /* \"#utility.yul\":10952:11038   */\n      swap1\n      pop\n        /* \"#utility.yul\":11048:11114   */\n      tag_319\n        /* \"#utility.yul\":11110:11112   */\n      0x20\n        /* \"#utility.yul\":11099:11108   */\n      dup4\n        /* \"#utility.yul\":11095:11113   */\n      add\n        /* \"#utility.yul\":11086:11092   */\n      dup5\n        /* \"#utility.yul\":11048:11114   */\n      tag_257\n      jump\t// in\n    tag_319:\n        /* \"#utility.yul\":10710:11121   */\n      swap4\n      swap3\n      pop\n      pop\n      pop\n      jump\t// out\n        /* \"#utility.yul\":11127:11546   */\n    tag_122:\n        /* \"#utility.yul\":11293:11297   */\n      0x00\n        /* \"#utility.yul\":11331:11333   */\n      0x20\n        /* \"#utility.yul\":11320:11329   */\n      dup3\n        /* \"#utility.yul\":11316:11334   */\n      add\n        /* \"#utility.yul\":11308:11334   */\n      swap1\n      pop\n        /* \"#utility.yul\":11380:11389   */\n      dup2\n        /* \"#utility.yul\":11374:11378   */\n      dup2\n        /* \"#utility.yul\":11370:11390   */\n      sub\n        /* \"#utility.yul\":11366:11367   */\n      0x00\n        /* \"#utility.yul\":11355:11364   */\n      dup4\n        /* \"#utility.yul\":11351:11368   */\n      add\n        /* \"#utility.yul\":11344:11391   */\n      mstore\n        /* \"#utility.yul\":11408:11539   */\n      tag_321\n        /* \"#utility.yul\":11534:11538   */\n      dup2\n        /* \"#utility.yul\":11408:11539   */\n      tag_283\n      jump\t// in\n    tag_321:\n        /* \"#utility.yul\":11400:11539   */\n      swap1\n      pop\n        /* \"#utility.yul\":11127:11546   */\n      swap2\n      swap1\n      pop\n      jump\t// out\n        /* \"#utility.yul\":11552:11971   */\n    tag_115:\n        /* \"#utility.yul\":11718:11722   */\n      0x00\n        /* \"#utility.yul\":11756:11758   */\n      0x20\n        /* \"#utility.yul\":11745:11754   */\n      dup3\n        /* \"#utility.yul\":11741:11759   */\n      add\n        /* \"#utility.yul\":11733:11759   */\n      swap1\n      pop\n        /* \"#utility.yul\":11805:11814   */\n      dup2\n        /* \"#utility.yul\":11799:11803   */\n      dup2\n        /* \"#utility.yul\":11795:11815   */\n      sub\n        /* \"#utility.yul\":11791:11792   */\n      0x00\n        /* \"#utility.yul\":11780:11789   */\n      dup4\n        /* \"#utility.yul\":11776:11793   */\n      add\n        /* \"#utility.yul\":11769:11816   */\n      mstore\n        /* \"#utility.yul\":11833:11964   */\n      tag_323\n        /* \"#utility.yul\":11959:11963   */\n      dup2\n        /* \"#utility.yul\":11833:11964   */\n      tag_288\n      jump\t// in\n    tag_323:\n        /* \"#utility.yul\":11825:11964   */\n      swap1\n      pop\n        /* \"#utility.yul\":11552:11971   */\n      swap2\n      swap1\n      pop\n      jump\t// out\n        /* \"#utility.yul\":11977:12396   */\n    tag_101:\n        /* \"#utility.yul\":12143:12147   */\n      0x00\n        /* \"#utility.yul\":12181:12183   */\n      0x20\n        /* \"#utility.yul\":12170:12179   */\n      dup3\n        /* \"#utility.yul\":12166:12184   */\n      add\n        /* \"#utility.yul\":12158:12184   */\n      swap1\n      pop\n        /* \"#utility.yul\":12230:12239   */\n      dup2\n        /* \"#utility.yul\":12224:12228   */\n      dup2\n        /* \"#utility.yul\":12220:12240   */\n      sub\n        /* \"#utility.yul\":12216:12217   */\n      0x00\n        /* \"#utility.yul\":12205:12214   */\n      dup4\n        /* \"#utility.yul\":12201:12218   */\n      add\n        /* \"#utility.yul\":12194:12241   */\n      mstore\n        /* \"#utility.yul\":12258:12389   */\n      tag_325\n        /* \"#utility.yul\":12384:12388   */\n      dup2\n        /* \"#utility.yul\":12258:12389   */\n      tag_293\n      jump\t// in\n    tag_325:\n        /* \"#utility.yul\":12250:12389   */\n      swap1\n      pop\n        /* \"#utility.yul\":11977:12396   */\n      swap2\n      swap1\n      pop\n      jump\t// out\n        /* \"#utility.yul\":12402:12624   */\n    tag_31:\n        /* \"#utility.yul\":12495:12499   */\n      0x00\n        /* \"#utility.yul\":12533:12535   */\n      0x20\n        /* \"#utility.yul\":12522:12531   */\n      dup3\n        /* \"#utility.yul\":12518:12536   */\n      add\n        /* \"#utility.yul\":12510:12536   */\n      swap1\n      pop\n        /* \"#utility.yul\":12546:12617   */\n      tag_327\n        /* \"#utility.yul\":12614:12615   */\n      0x00\n        /* \"#utility.yul\":12603:12612   */\n      dup4\n        /* \"#utility.yul\":12599:12616   */\n      add\n        /* \"#utility.yul\":12590:12596   */\n      dup5\n        /* \"#utility.yul\":12546:12617   */\n      tag_298\n      jump\t// in\n    tag_327:\n        /* \"#utility.yul\":12402:12624   */\n      swap3\n      swap2\n      pop\n      pop\n      jump\t// out\n        /* \"#utility.yul\":12630:12962   */\n    tag_21:\n        /* \"#utility.yul\":12751:12755   */\n      0x00\n        /* \"#utility.yul\":12789:12791   */\n      0x40\n        /* \"#utility.yul\":12778:12787   */\n      dup3\n        /* \"#utility.yul\":12774:12792   */\n      add\n        /* \"#utility.yul\":12766:12792   */\n      swap1\n      pop\n        /* \"#utility.yul\":12802:12873   */\n      tag_329\n        /* \"#utility.yul\":12870:12871   */\n      0x00\n        /* \"#utility.yul\":12859:12868   */\n      dup4\n        /* \"#utility.yul\":12855:12872   */\n      add\n        /* \"#utility.yul\":12846:12852   */\n      dup6\n        /* \"#utility.yul\":12802:12873   */\n      tag_298\n      jump\t// in\n    tag_329:\n        /* \"#utility.yul\":12883:12955   */\n      tag_330\n        /* \"#utility.yul\":12951:12953   */\n      0x20\n        /* \"#utility.yul\":12940:12949   */\n      dup4\n        /* \"#utility.yul\":12936:12954   */\n      add\n        /* \"#utility.yul\":12927:12933   */\n      dup5\n        /* \"#utility.yul\":12883:12955   */\n      tag_298\n      jump\t// in\n    tag_330:\n        /* \"#utility.yul\":12630:12962   */\n      swap4\n      swap3\n      pop\n      pop\n      pop\n      jump\t// out\n        /* \"#utility.yul\":12968:13097   */\n    tag_170:\n        /* \"#utility.yul\":13002:13008   */\n      0x00\n        /* \"#utility.yul\":13029:13049   */\n      tag_332\n      tag_333\n      jump\t// in\n    tag_332:\n        /* \"#utility.yul\":13019:13049   */\n      swap1\n      pop\n        /* \"#utility.yul\":13058:13091   */\n      tag_334\n        /* \"#utility.yul\":13086:13090   */\n      dup3\n        /* \"#utility.yul\":13078:13084   */\n      dup3\n        /* \"#utility.yul\":13058:13091   */\n      tag_335\n      jump\t// in\n    tag_334:\n        /* \"#utility.yul\":12968:13097   */\n      swap2\n      swap1\n      pop\n      jump\t// out\n        /* \"#utility.yul\":13103:13178   */\n    tag_333:\n        /* \"#utility.yul\":13136:13142   */\n      0x00\n        /* \"#utility.yul\":13169:13171   */\n      0x40\n        /* \"#utility.yul\":13163:13172   */\n      mload\n        /* \"#utility.yul\":13153:13172   */\n      swap1\n      pop\n        /* \"#utility.yul\":13103:13178   */\n      swap1\n      jump\t// out\n        /* \"#utility.yul\":13184:13492   */\n    tag_169:\n        /* \"#utility.yul\":13246:13250   */\n      0x00\n        /* \"#utility.yul\":13336:13354   */\n      0xffffffffffffffff\n        /* \"#utility.yul\":13328:13334   */\n      dup3\n        /* \"#utility.yul\":13325:13355   */\n      gt\n        /* \"#utility.yul\":13322:13378   */\n      iszero\n      tag_338\n      jumpi\n        /* \"#utility.yul\":13358:13376   */\n      tag_339\n      tag_340\n      jump\t// in\n    tag_339:\n        /* \"#utility.yul\":13322:13378   */\n    tag_338:\n        /* \"#utility.yul\":13396:13425   */\n      tag_341\n        /* \"#utility.yul\":13418:13424   */\n      dup3\n        /* \"#utility.yul\":13396:13425   */\n      tag_269\n      jump\t// in\n    tag_341:\n        /* \"#utility.yul\":13388:13425   */\n      swap1\n      pop\n        /* \"#utility.yul\":13480:13484   */\n      0x20\n        /* \"#utility.yul\":13474:13478   */\n      dup2\n        /* \"#utility.yul\":13470:13485   */\n      add\n        /* \"#utility.yul\":13462:13485   */\n      swap1\n      pop\n        /* \"#utility.yul\":13184:13492   */\n      swap2\n      swap1\n      pop\n      jump\t// out\n        /* \"#utility.yul\":13498:13640   */\n    tag_250:\n        /* \"#utility.yul\":13575:13579   */\n      0x00\n        /* \"#utility.yul\":13598:13601   */\n      dup2\n        /* \"#utility.yul\":13590:13601   */\n      swap1\n      pop\n        /* \"#utility.yul\":13628:13632   */\n      0x20\n        /* \"#utility.yul\":13623:13626   */\n      dup3\n        /* \"#utility.yul\":13619:13633   */\n      add\n        /* \"#utility.yul\":13611:13633   */\n      swap1\n      pop\n        /* \"#utility.yul\":13498:13640   */\n      swap2\n      swap1\n      pop\n      jump\t// out\n        /* \"#utility.yul\":13646:13770   */\n    tag_246:\n        /* \"#utility.yul\":13723:13729   */\n      0x00\n        /* \"#utility.yul\":13757:13762   */\n      dup2\n        /* \"#utility.yul\":13751:13763   */\n      mload\n        /* \"#utility.yul\":13741:13763   */\n      swap1\n      pop\n        /* \"#utility.yul\":13646:13770   */\n      swap2\n      swap1\n      pop\n      jump\t// out\n        /* \"#utility.yul\":13776:13875   */\n    tag_263:\n        /* \"#utility.yul\":13828:13834   */\n      0x00\n        /* \"#utility.yul\":13862:13867   */\n      dup2\n        /* \"#utility.yul\":13856:13868   */\n      mload\n        /* \"#utility.yul\":13846:13868   */\n      swap1\n      pop\n        /* \"#utility.yul\":13776:13875   */\n      swap2\n      swap1\n      pop\n      jump\t// out\n        /* \"#utility.yul\":13881:14004   */\n    tag_256:\n        /* \"#utility.yul\":13961:13965   */\n      0x00\n        /* \"#utility.yul\":13993:13997   */\n      0x20\n        /* \"#utility.yul\":13988:13991   */\n      dup3\n        /* \"#utility.yul\":13984:13998   */\n      add\n        /* \"#utility.yul\":13976:13998   */\n      swap1\n      pop\n        /* \"#utility.yul\":13881:14004   */\n      swap2\n      swap1\n      pop\n      jump\t// out\n        /* \"#utility.yul\":14010:14204   */\n    tag_248:\n        /* \"#utility.yul\":14119:14130   */\n      0x00\n        /* \"#utility.yul\":14153:14159   */\n      dup3\n        /* \"#utility.yul\":14148:14151   */\n      dup3\n        /* \"#utility.yul\":14141:14160   */\n      mstore\n        /* \"#utility.yul\":14193:14197   */\n      0x20\n        /* \"#utility.yul\":14188:14191   */\n      dup3\n        /* \"#utility.yul\":14184:14198   */\n      add\n        /* \"#utility.yul\":14169:14198   */\n      swap1\n      pop\n        /* \"#utility.yul\":14010:14204   */\n      swap3\n      swap2\n      pop\n      pop\n      jump\t// out\n        /* \"#utility.yul\":14210:14369   */\n    tag_265:\n        /* \"#utility.yul\":14284:14295   */\n      0x00\n        /* \"#utility.yul\":14318:14324   */\n      dup3\n        /* \"#utility.yul\":14313:14316   */\n      dup3\n        /* \"#utility.yul\":14306:14325   */\n      mstore\n        /* \"#utility.yul\":14358:14362   */\n      0x20\n        /* \"#utility.yul\":14353:14356   */\n      dup3\n        /* \"#utility.yul\":14349:14363   */\n      add\n        /* \"#utility.yul\":14334:14363   */\n      swap1\n      pop\n        /* \"#utility.yul\":14210:14369   */\n      swap3\n      swap2\n      pop\n      pop\n      jump\t// out\n        /* \"#utility.yul\":14375:14544   */\n    tag_274:\n        /* \"#utility.yul\":14459:14470   */\n      0x00\n        /* \"#utility.yul\":14493:14499   */\n      dup3\n        /* \"#utility.yul\":14488:14491   */\n      dup3\n        /* \"#utility.yul\":14481:14500   */\n      mstore\n        /* \"#utility.yul\":14533:14537   */\n      0x20\n        /* \"#utility.yul\":14528:14531   */\n      dup3\n        /* \"#utility.yul\":14524:14538   */\n      add\n        /* \"#utility.yul\":14509:14538   */\n      swap1\n      pop\n        /* \"#utility.yul\":14375:14544   */\n      swap3\n      swap2\n      pop\n      pop\n      jump\t// out\n        /* \"#utility.yul\":14550:14698   */\n    tag_281:\n        /* \"#utility.yul\":14652:14663   */\n      0x00\n        /* \"#utility.yul\":14689:14692   */\n      dup2\n        /* \"#utility.yul\":14674:14692   */\n      swap1\n      pop\n        /* \"#utility.yul\":14550:14698   */\n      swap3\n      swap2\n      pop\n      pop\n      jump\t// out\n        /* \"#utility.yul\":14704:14800   */\n    tag_242:\n        /* \"#utility.yul\":14741:14748   */\n      0x00\n        /* \"#utility.yul\":14770:14794   */\n      tag_351\n        /* \"#utility.yul\":14788:14793   */\n      dup3\n        /* \"#utility.yul\":14770:14794   */\n      tag_352\n      jump\t// in\n    tag_351:\n        /* \"#utility.yul\":14759:14794   */\n      swap1\n      pop\n        /* \"#utility.yul\":14704:14800   */\n      swap2\n      swap1\n      pop\n      jump\t// out\n        /* \"#utility.yul\":14806:14896   */\n    tag_260:\n        /* \"#utility.yul\":14840:14847   */\n      0x00\n        /* \"#utility.yul\":14883:14888   */\n      dup2\n        /* \"#utility.yul\":14876:14889   */\n      iszero\n        /* \"#utility.yul\":14869:14890   */\n      iszero\n        /* \"#utility.yul\":14858:14890   */\n      swap1\n      pop\n        /* \"#utility.yul\":14806:14896   */\n      swap2\n      swap1\n      pop\n      jump\t// out\n        /* \"#utility.yul\":14902:15028   */\n    tag_352:\n        /* \"#utility.yul\":14939:14946   */\n      0x00\n        /* \"#utility.yul\":14979:15021   */\n      0xffffffffffffffffffffffffffffffffffffffff\n        /* \"#utility.yul\":14972:14977   */\n      dup3\n        /* \"#utility.yul\":14968:15022   */\n      and\n        /* \"#utility.yul\":14957:15022   */\n      swap1\n      pop\n        /* \"#utility.yul\":14902:15028   */\n      swap2\n      swap1\n      pop\n      jump\t// out\n        /* \"#utility.yul\":15034:15111   */\n    tag_301:\n        /* \"#utility.yul\":15071:15078   */\n      0x00\n        /* \"#utility.yul\":15100:15105   */\n      dup2\n        /* \"#utility.yul\":15089:15105   */\n      swap1\n      pop\n        /* \"#utility.yul\":15034:15111   */\n      swap2\n      swap1\n      pop\n      jump\t// out\n        /* \"#utility.yul\":15117:15271   */\n    tag_175:\n        /* \"#utility.yul\":15201:15207   */\n      dup3\n        /* \"#utility.yul\":15196:15199   */\n      dup2\n        /* \"#utility.yul\":15191:15194   */\n      dup4\n        /* \"#utility.yul\":15178:15208   */\n      calldatacopy\n        /* \"#utility.yul\":15263:15264   */\n      0x00\n        /* \"#utility.yul\":15254:15260   */\n      dup4\n        /* \"#utility.yul\":15249:15252   */\n      dup4\n        /* \"#utility.yul\":15245:15261   */\n      add\n        /* \"#utility.yul\":15238:15265   */\n      mstore\n        /* \"#utility.yul\":15117:15271   */\n      pop\n      pop\n      pop\n      jump\t// out\n        /* \"#utility.yul\":15277:15584   */\n    tag_267:\n        /* \"#utility.yul\":15345:15346   */\n      0x00\n        /* \"#utility.yul\":15355:15468   */\n    tag_358:\n        /* \"#utility.yul\":15369:15375   */\n      dup4\n        /* \"#utility.yul\":15366:15367   */\n      dup2\n        /* \"#utility.yul\":15363:15376   */\n      lt\n        /* \"#utility.yul\":15355:15468   */\n      iszero\n      tag_360\n      jumpi\n        /* \"#utility.yul\":15454:15455   */\n      dup1\n        /* \"#utility.yul\":15449:15452   */\n      dup3\n        /* \"#utility.yul\":15445:15456   */\n      add\n        /* \"#utility.yul\":15439:15457   */\n      mload\n        /* \"#utility.yul\":15435:15436   */\n      dup2\n        /* \"#utility.yul\":15430:15433   */\n      dup5\n        /* \"#utility.yul\":15426:15437   */\n      add\n        /* \"#utility.yul\":15419:15458   */\n      mstore\n        /* \"#utility.yul\":15391:15393   */\n      0x20\n        /* \"#utility.yul\":15388:15389   */\n      dup2\n        /* \"#utility.yul\":15384:15394   */\n      add\n        /* \"#utility.yul\":15379:15394   */\n      swap1\n      pop\n        /* \"#utility.yul\":15355:15468   */\n      jump(tag_358)\n    tag_360:\n        /* \"#utility.yul\":15486:15492   */\n      dup4\n        /* \"#utility.yul\":15483:15484   */\n      dup2\n        /* \"#utility.yul\":15480:15493   */\n      gt\n        /* \"#utility.yul\":15477:15578   */\n      iszero\n      tag_361\n      jumpi\n        /* \"#utility.yul\":15566:15567   */\n      0x00\n        /* \"#utility.yul\":15557:15563   */\n      dup5\n        /* \"#utility.yul\":15552:15555   */\n      dup5\n        /* \"#utility.yul\":15548:15564   */\n      add\n        /* \"#utility.yul\":15541:15568   */\n      mstore\n        /* \"#utility.yul\":15477:15578   */\n    tag_361:\n        /* \"#utility.yul\":15326:15584   */\n      pop\n        /* \"#utility.yul\":15277:15584   */\n      pop\n      pop\n      pop\n      jump\t// out\n        /* \"#utility.yul\":15590:15910   */\n    tag_140:\n        /* \"#utility.yul\":15634:15640   */\n      0x00\n        /* \"#utility.yul\":15671:15672   */\n      0x02\n        /* \"#utility.yul\":15665:15669   */\n      dup3\n        /* \"#utility.yul\":15661:15673   */\n      div\n        /* \"#utility.yul\":15651:15673   */\n      swap1\n      pop\n        /* \"#utility.yul\":15718:15719   */\n      0x01\n        /* \"#utility.yul\":15712:15716   */\n      dup3\n        /* \"#utility.yul\":15708:15720   */\n      and\n        /* \"#utility.yul\":15739:15757   */\n      dup1\n        /* \"#utility.yul\":15729:15810   */\n      tag_363\n      jumpi\n        /* \"#utility.yul\":15795:15799   */\n      0x7f\n        /* \"#utility.yul\":15787:15793   */\n      dup3\n        /* \"#utility.yul\":15783:15800   */\n      and\n        /* \"#utility.yul\":15773:15800   */\n      swap2\n      pop\n        /* \"#utility.yul\":15729:15810   */\n    tag_363:\n        /* \"#utility.yul\":15857:15859   */\n      0x20\n        /* \"#utility.yul\":15849:15855   */\n      dup3\n        /* \"#utility.yul\":15846:15860   */\n      lt\n        /* \"#utility.yul\":15826:15844   */\n      dup2\n        /* \"#utility.yul\":15823:15861   */\n      eq\n        /* \"#utility.yul\":15820:15904   */\n      iszero\n      tag_364\n      jumpi\n        /* \"#utility.yul\":15876:15894   */\n      tag_365\n      tag_366\n      jump\t// in\n    tag_365:\n        /* \"#utility.yul\":15820:15904   */\n    tag_364:\n        /* \"#utility.yul\":15641:15910   */\n      pop\n        /* \"#utility.yul\":15590:15910   */\n      swap2\n      swap1\n      pop\n      jump\t// out\n        /* \"#utility.yul\":15916:16197   */\n    tag_335:\n        /* \"#utility.yul\":15999:16026   */\n      tag_368\n        /* \"#utility.yul\":16021:16025   */\n      dup3\n        /* \"#utility.yul\":15999:16026   */\n      tag_269\n      jump\t// in\n    tag_368:\n        /* \"#utility.yul\":15991:15997   */\n      dup2\n        /* \"#utility.yul\":15987:16027   */\n      add\n        /* \"#utility.yul\":16129:16135   */\n      dup2\n        /* \"#utility.yul\":16117:16127   */\n      dup2\n        /* \"#utility.yul\":16114:16136   */\n      lt\n        /* \"#utility.yul\":16093:16111   */\n      0xffffffffffffffff\n        /* \"#utility.yul\":16081:16091   */\n      dup3\n        /* \"#utility.yul\":16078:16112   */\n      gt\n        /* \"#utility.yul\":16075:16137   */\n      or\n        /* \"#utility.yul\":16072:16160   */\n      iszero\n      tag_369\n      jumpi\n        /* \"#utility.yul\":16140:16158   */\n      tag_370\n      tag_340\n      jump\t// in\n    tag_370:\n        /* \"#utility.yul\":16072:16160   */\n    tag_369:\n        /* \"#utility.yul\":16180:16190   */\n      dup1\n        /* \"#utility.yul\":16176:16178   */\n      0x40\n        /* \"#utility.yul\":16169:16191   */\n      mstore\n        /* \"#utility.yul\":15959:16197   */\n      pop\n        /* \"#utility.yul\":15916:16197   */\n      pop\n      pop\n      jump\t// out\n        /* \"#utility.yul\":16203:16383   */\n    tag_366:\n        /* \"#utility.yul\":16251:16328   */\n      0x4e487b7100000000000000000000000000000000000000000000000000000000\n        /* \"#utility.yul\":16248:16249   */\n      0x00\n        /* \"#utility.yul\":16241:16329   */\n      mstore\n        /* \"#utility.yul\":16348:16352   */\n      0x22\n        /* \"#utility.yul\":16345:16346   */\n      0x04\n        /* \"#utility.yul\":16338:16353   */\n      mstore\n        /* \"#utility.yul\":16372:16376   */\n      0x24\n        /* \"#utility.yul\":16369:16370   */\n      0x00\n        /* \"#utility.yul\":16362:16377   */\n      revert\n        /* \"#utility.yul\":16389:16569   */\n    tag_340:\n        /* \"#utility.yul\":16437:16514   */\n      0x4e487b7100000000000000000000000000000000000000000000000000000000\n        /* \"#utility.yul\":16434:16435   */\n      0x00\n        /* \"#utility.yul\":16427:16515   */\n      mstore\n        /* \"#utility.yul\":16534:16538   */\n      0x41\n        /* \"#utility.yul\":16531:16532   */\n      0x04\n        /* \"#utility.yul\":16524:16539   */\n      mstore\n        /* \"#utility.yul\":16558:16562   */\n      0x24\n        /* \"#utility.yul\":16555:16556   */\n      0x00\n        /* \"#utility.yul\":16548:16563   */\n      revert\n        /* \"#utility.yul\":16575:16692   */\n    tag_191:\n        /* \"#utility.yul\":16684:16685   */\n      0x00\n        /* \"#utility.yul\":16681:16682   */\n      dup1\n        /* \"#utility.yul\":16674:16686   */\n      revert\n        /* \"#utility.yul\":16698:16815   */\n    tag_173:\n        /* \"#utility.yul\":16807:16808   */\n      0x00\n        /* \"#utility.yul\":16804:16805   */\n      dup1\n        /* \"#utility.yul\":16797:16809   */\n      revert\n        /* \"#utility.yul\":16821:16938   */\n    tag_214:\n        /* \"#utility.yul\":16930:16931   */\n      0x00\n        /* \"#utility.yul\":16927:16928   */\n      dup1\n        /* \"#utility.yul\":16920:16932   */\n      revert\n        /* \"#utility.yul\":16944:17061   */\n    tag_200:\n        /* \"#utility.yul\":17053:17054   */\n      0x00\n        /* \"#utility.yul\":17050:17051   */\n      dup1\n        /* \"#utility.yul\":17043:17055   */\n      revert\n        /* \"#utility.yul\":17067:17169   */\n    tag_269:\n        /* \"#utility.yul\":17108:17114   */\n      0x00\n        /* \"#utility.yul\":17159:17161   */\n      0x1f\n        /* \"#utility.yul\":17155:17162   */\n      not\n        /* \"#utility.yul\":17150:17152   */\n      0x1f\n        /* \"#utility.yul\":17143:17148   */\n      dup4\n        /* \"#utility.yul\":17139:17153   */\n      add\n        /* \"#utility.yul\":17135:17163   */\n      and\n        /* \"#utility.yul\":17125:17163   */\n      swap1\n      pop\n        /* \"#utility.yul\":17067:17169   */\n      swap2\n      swap1\n      pop\n      jump\t// out\n        /* \"#utility.yul\":17175:17350   */\n    tag_287:\n        /* \"#utility.yul\":17315:17342   */\n      0x4661696c656420746f2070617373207468652072657669657700000000000000\n        /* \"#utility.yul\":17311:17312   */\n      0x00\n        /* \"#utility.yul\":17303:17309   */\n      dup3\n        /* \"#utility.yul\":17299:17313   */\n      add\n        /* \"#utility.yul\":17292:17343   */\n      mstore\n        /* \"#utility.yul\":17175:17350   */\n      pop\n      jump\t// out\n        /* \"#utility.yul\":17356:17589   */\n    tag_292:\n        /* \"#utility.yul\":17496:17530   */\n      0x546865206d65646963616c206461746120646f6573206e6f742062656c6f6e67\n        /* \"#utility.yul\":17492:17493   */\n      0x00\n        /* \"#utility.yul\":17484:17490   */\n      dup3\n        /* \"#utility.yul\":17480:17494   */\n      add\n        /* \"#utility.yul\":17473:17531   */\n      mstore\n        /* \"#utility.yul\":17565:17581   */\n      0x20746f2074686520646f63746f72000000000000000000000000000000000000\n        /* \"#utility.yul\":17560:17562   */\n      0x20\n        /* \"#utility.yul\":17552:17558   */\n      dup3\n        /* \"#utility.yul\":17548:17563   */\n      add\n        /* \"#utility.yul\":17541:17582   */\n      mstore\n        /* \"#utility.yul\":17356:17589   */\n      pop\n      jump\t// out\n        /* \"#utility.yul\":17595:17761   */\n    tag_297:\n        /* \"#utility.yul\":17735:17753   */\n      0x70617469656e74206e6f20657869737400000000000000000000000000000000\n        /* \"#utility.yul\":17731:17732   */\n      0x00\n        /* \"#utility.yul\":17723:17729   */\n      dup3\n        /* \"#utility.yul\":17719:17733   */\n      add\n        /* \"#utility.yul\":17712:17754   */\n      mstore\n        /* \"#utility.yul\":17595:17761   */\n      pop\n      jump\t// out\n        /* \"#utility.yul\":17767:17889   */\n    tag_179:\n        /* \"#utility.yul\":17840:17864   */\n      tag_382\n        /* \"#utility.yul\":17858:17863   */\n      dup2\n        /* \"#utility.yul\":17840:17864   */\n      tag_242\n      jump\t// in\n    tag_382:\n        /* \"#utility.yul\":17833:17838   */\n      dup2\n        /* \"#utility.yul\":17830:17865   */\n      eq\n        /* \"#utility.yul\":17820:17883   */\n      tag_383\n      jumpi\n        /* \"#utility.yul\":17879:17880   */\n      0x00\n        /* \"#utility.yul\":17876:17877   */\n      dup1\n        /* \"#utility.yul\":17869:17881   */\n      revert\n        /* \"#utility.yul\":17820:17883   */\n    tag_383:\n        /* \"#utility.yul\":17767:17889   */\n      pop\n      jump\t// out\n        /* \"#utility.yul\":17895:18011   */\n    tag_183:\n        /* \"#utility.yul\":17965:17986   */\n      tag_385\n        /* \"#utility.yul\":17980:17985   */\n      dup2\n        /* \"#utility.yul\":17965:17986   */\n      tag_260\n      jump\t// in\n    tag_385:\n        /* \"#utility.yul\":17958:17963   */\n      dup2\n        /* \"#utility.yul\":17955:17987   */\n      eq\n        /* \"#utility.yul\":17945:18005   */\n      tag_386\n      jumpi\n        /* \"#utility.yul\":18001:18002   */\n      0x00\n        /* \"#utility.yul\":17998:17999   */\n      dup1\n        /* \"#utility.yul\":17991:18003   */\n      revert\n        /* \"#utility.yul\":17945:18005   */\n    tag_386:\n        /* \"#utility.yul\":17895:18011   */\n      pop\n      jump\t// out\n        /* \"#utility.yul\":18017:18139   */\n    tag_196:\n        /* \"#utility.yul\":18090:18114   */\n      tag_388\n        /* \"#utility.yul\":18108:18113   */\n      dup2\n        /* \"#utility.yul\":18090:18114   */\n      tag_301\n      jump\t// in\n    tag_388:\n        /* \"#utility.yul\":18083:18088   */\n      dup2\n        /* \"#utility.yul\":18080:18115   */\n      eq\n        /* \"#utility.yul\":18070:18133   */\n      tag_389\n      jumpi\n        /* \"#utility.yul\":18129:18130   */\n      0x00\n        /* \"#utility.yul\":18126:18127   */\n      dup1\n        /* \"#utility.yul\":18119:18131   */\n      revert\n        /* \"#utility.yul\":18070:18133   */\n    tag_389:\n        /* \"#utility.yul\":18017:18139   */\n      pop\n      jump\t// out\n\n    auxdata: 0xa264697066735822122097f2a858ab83da601d33ae9bb61515ec7b3e76200b969d30273b6867d83f896164736f6c63430008070033\n}\n",
				"bytecode": {
					"linkReferences": {},
					"object": "608060405234801561001057600080fd5b50611ab3806100206000396000f3fe6080604052600436106100c65760003560e01c8063ab5473461161007f578063d5f03d3c11610059578063d5f03d3c146102c0578063e70c5b1f146102fd578063fcc585c514610326578063fece0fe8146103645761011d565b8063ab54734614610243578063ac5679d01461026c578063c8f33c91146102955761011d565b80631dd9ec6714610122578063495c184e1461014b5780635d26867014610176578063600d90561461019f57806379172b5b146101dd57806393172bf7146102065761011d565b3661011d573373ffffffffffffffffffffffffffffffffffffffff167f90890809c654f11d6e72a28fa60149770a0d11ec6c92319d6ceb2bb0a4ea1a153447604051610113929190611737565b60405180910390a2005b600080fd5b34801561012e57600080fd5b506101496004803603810190610144919061121e565b6103a3565b005b34801561015757600080fd5b50610160610482565b60405161016d919061171c565b60405180910390f35b34801561018257600080fd5b5061019d6004803603810190610198919061121e565b610488565b005b3480156101ab57600080fd5b506101c660048036038101906101c1919061134e565b610567565b6040516101d492919061168c565b60405180910390f35b3480156101e957600080fd5b5061020460048036038101906101ff919061121e565b6105a4565b005b34801561021257600080fd5b5061022d6004803603810190610228919061121e565b6105e7565b60405161023a9190611671565b60405180910390f35b34801561024f57600080fd5b5061026a60048036038101906102659190611397565b610640565b005b34801561027857600080fd5b50610293600480360381019061028e919061129e565b61085b565b005b3480156102a157600080fd5b506102aa610be8565b6040516102b7919061171c565b60405180910390f35b3480156102cc57600080fd5b506102e760048036038101906102e2919061121e565b610bee565b6040516102f49190611671565b60405180910390f35b34801561030957600080fd5b50610324600480360381019061031f919061124b565b610c47565b005b34801561033257600080fd5b5061034d6004803603810190610348919061121e565b610cfc565b60405161035b929190611641565b60405180910390f35b34801561037057600080fd5b5061038b6004803603810190610386919061121e565b610ec9565b60405161039a93929190611603565b60405180910390f35b80600360008373ffffffffffffffffffffffffffffffffffffffff1673ffffffffffffffffffffffffffffffffffffffff16815260200190815260200160002060000160006101000a81548173ffffffffffffffffffffffffffffffffffffffff021916908373ffffffffffffffffffffffffffffffffffffffff1602179055506001600360008373ffffffffffffffffffffffffffffffffffffffff1673ffffffffffffffffffffffffffffffffffffffff16815260200190815260200160002060000160146101000a81548160ff02191690831515021790555050565b60025481565b80600460008373ffffffffffffffffffffffffffffffffffffffff1673ffffffffffffffffffffffffffffffffffffffff16815260200190815260200160002060000160006101000a81548173ffffffffffffffffffffffffffffffffffffffff021916908373ffffffffffffffffffffffffffffffffffffffff1602179055506001600460008373ffffffffffffffffffffffffffffffffffffffff1673ffffffffffffffffffffffffffffffffffffffff16815260200190815260200160002060000160146101000a81548160ff02191690831515021790555050565b606060008260098460405161057c91906115b5565b908152602001604051809103902060030160009054906101000a900460ff1691509150915091565b806000806101000a81548173ffffffffffffffffffffffffffffffffffffffff021916908373ffffffffffffffffffffffffffffffffffffffff16021790555050565b6000600460008373ffffffffffffffffffffffffffffffffffffffff1673ffffffffffffffffffffffffffffffffffffffff16815260200190815260200160002060000160149054906101000a900460ff169050919050565b334260018190555061065133610bee565b610690576040517f08c379a0000000000000000000000000000000000000000000000000000000008152600401610687906116fc565b60405180910390fd5b610699826105e7565b6106d8576040517f08c379a00000000000000000000000000000000000000000000000000000000081526004016106cf906116fc565b60405180910390fd5b33600560003373ffffffffffffffffffffffffffffffffffffffff1673ffffffffffffffffffffffffffffffffffffffff16815260200190815260200160002060000160006101000a81548173ffffffffffffffffffffffffffffffffffffffff021916908373ffffffffffffffffffffffffffffffffffffffff160217905550600560003373ffffffffffffffffffffffffffffffffffffffff1673ffffffffffffffffffffffffffffffffffffffff168152602001908152602001600020600101839080600181540180825580915050600190039060005260206000200160009091909190915090805190602001906107d49291906110b7565b5081600560008473ffffffffffffffffffffffffffffffffffffffff1673ffffffffffffffffffffffffffffffffffffffff16815260200190815260200160002060020160006101000a81548173ffffffffffffffffffffffffffffffffffffffff021916908373ffffffffffffffffffffffffffffffffffffffff160217905550505050565b834260028190555084600760008773ffffffffffffffffffffffffffffffffffffffff1673ffffffffffffffffffffffffffffffffffffffff16815260200190815260200160002060000160006101000a81548173ffffffffffffffffffffffffffffffffffffffff021916908373ffffffffffffffffffffffffffffffffffffffff1602179055506008846040516108f491906115b5565b908152602001604051809103902060000160009054906101000a900473ffffffffffffffffffffffffffffffffffffffff16600760008773ffffffffffffffffffffffffffffffffffffffff1673ffffffffffffffffffffffffffffffffffffffff16815260200190815260200160002060010160006101000a81548173ffffffffffffffffffffffffffffffffffffffff021916908373ffffffffffffffffffffffffffffffffffffffff16021790555083600760008773ffffffffffffffffffffffffffffffffffffffff1673ffffffffffffffffffffffffffffffffffffffff16815260200190815260200160002060020190805190602001906109fc9291906110b7565b50600884604051610a0d91906115b5565b908152602001604051809103902060020160009054906101000a900473ffffffffffffffffffffffffffffffffffffffff1673ffffffffffffffffffffffffffffffffffffffff168573ffffffffffffffffffffffffffffffffffffffff1614610aac576040517f08c379a0000000000000000000000000000000000000000000000000000000008152600401610aa3906116dc565b60405180910390fd5b600115158315151415610ba6576001600760008773ffffffffffffffffffffffffffffffffffffffff1673ffffffffffffffffffffffffffffffffffffffff16815260200190815260200160002060030160006101000a81548160ff021916908315150217905550610ba1600885604051610b2791906115b5565b908152602001604051809103902060020160009054906101000a900473ffffffffffffffffffffffffffffffffffffffff16600886604051610b6991906115b5565b908152602001604051809103902060000160009054906101000a900473ffffffffffffffffffffffffffffffffffffffff1684610c47565b610be1565b6040517f08c379a0000000000000000000000000000000000000000000000000000000008152600401610bd8906116bc565b60405180910390fd5b5050505050565b60015481565b6000600360008373ffffffffffffffffffffffffffffffffffffffff1673ffffffffffffffffffffffffffffffffffffffff16815260200190815260200160002060000160149054906101000a900460ff169050919050565b60008054906101000a900473ffffffffffffffffffffffffffffffffffffffff1673ffffffffffffffffffffffffffffffffffffffff166323b872dd8484846040518463ffffffff1660e01b8152600401610ca4939291906115cc565b602060405180830381600087803b158015610cbe57600080fd5b505af1158015610cd2573d6000803e3d6000fd5b505050506040513d601f19601f82011682018060405250810190610cf69190611321565b50505050565b60606000610d0983610bee565b610d48576040517f08c379a0000000000000000000000000000000000000000000000000000000008152600401610d3f906116fc565b60405180910390fd5b600560008473ffffffffffffffffffffffffffffffffffffffff1673ffffffffffffffffffffffffffffffffffffffff168152602001908152602001600020600101600560008573ffffffffffffffffffffffffffffffffffffffff1673ffffffffffffffffffffffffffffffffffffffff16815260200190815260200160002060020160009054906101000a900473ffffffffffffffffffffffffffffffffffffffff1681805480602002602001604051908101604052809291908181526020016000905b82821015610eba578382906000526020600020018054610e2d906118b1565b80601f0160208091040260200160405190810160405280929190818152602001828054610e59906118b1565b8015610ea65780601f10610e7b57610100808354040283529160200191610ea6565b820191906000526020600020905b815481529060010190602001808311610e8957829003601f168201915b505050505081526020019060010190610e0e565b50505050915091509150915091565b600060606000600660008573ffffffffffffffffffffffffffffffffffffffff1673ffffffffffffffffffffffffffffffffffffffff16815260200190815260200160002060000160009054906101000a900473ffffffffffffffffffffffffffffffffffffffff16600660008673ffffffffffffffffffffffffffffffffffffffff1673ffffffffffffffffffffffffffffffffffffffff168152602001908152602001600020600101600660008773ffffffffffffffffffffffffffffffffffffffff1673ffffffffffffffffffffffffffffffffffffffff16815260200190815260200160002060020160009054906101000a900473ffffffffffffffffffffffffffffffffffffffff1681805480602002602001604051908101604052809291908181526020016000905b828210156110a4578382906000526020600020018054611017906118b1565b80601f0160208091040260200160405190810160405280929190818152602001828054611043906118b1565b80156110905780601f1061106557610100808354040283529160200191611090565b820191906000526020600020905b81548152906001019060200180831161107357829003601f168201915b505050505081526020019060010190610ff8565b5050505091509250925092509193909250565b8280546110c3906118b1565b90600052602060002090601f0160209004810192826110e5576000855561112c565b82601f106110fe57805160ff191683800117855561112c565b8280016001018555821561112c579182015b8281111561112b578251825591602001919060010190611110565b5b509050611139919061113d565b5090565b5b8082111561115657600081600090555060010161113e565b5090565b600061116d61116884611785565b611760565b90508281526020810184848401111561118957611188611977565b5b61119484828561186f565b509392505050565b6000813590506111ab81611a38565b92915050565b6000813590506111c081611a4f565b92915050565b6000815190506111d581611a4f565b92915050565b600082601f8301126111f0576111ef611972565b5b813561120084826020860161115a565b91505092915050565b60008135905061121881611a66565b92915050565b60006020828403121561123457611233611981565b5b60006112428482850161119c565b91505092915050565b60008060006060848603121561126457611263611981565b5b60006112728682870161119c565b93505060206112838682870161119c565b925050604061129486828701611209565b9150509250925092565b600080600080608085870312156112b8576112b7611981565b5b60006112c68782880161119c565b945050602085013567ffffffffffffffff8111156112e7576112e661197c565b5b6112f3878288016111db565b9350506040611304878288016111b1565b925050606061131587828801611209565b91505092959194509250565b60006020828403121561133757611336611981565b5b6000611345848285016111c6565b91505092915050565b60006020828403121561136457611363611981565b5b600082013567ffffffffffffffff8111156113825761138161197c565b5b61138e848285016111db565b91505092915050565b600080604083850312156113ae576113ad611981565b5b600083013567ffffffffffffffff8111156113cc576113cb61197c565b5b6113d8858286016111db565b92505060206113e98582860161119c565b9150509250929050565b60006113ff838361149a565b905092915050565b61141081611827565b82525050565b6000611421826117c6565b61142b81856117e9565b93508360208202850161143d856117b6565b8060005b85811015611479578484038952815161145a85826113f3565b9450611465836117dc565b925060208a01995050600181019050611441565b50829750879550505050505092915050565b61149481611839565b82525050565b60006114a5826117d1565b6114af81856117fa565b93506114bf81856020860161187e565b6114c881611986565b840191505092915050565b60006114de826117d1565b6114e8818561180b565b93506114f881856020860161187e565b61150181611986565b840191505092915050565b6000611517826117d1565b611521818561181c565b935061153181856020860161187e565b80840191505092915050565b600061154a60198361180b565b915061155582611997565b602082019050919050565b600061156d602e8361180b565b9150611578826119c0565b604082019050919050565b600061159060108361180b565b915061159b82611a0f565b602082019050919050565b6115af81611865565b82525050565b60006115c1828461150c565b915081905092915050565b60006060820190506115e16000830186611407565b6115ee6020830185611407565b6115fb60408301846115a6565b949350505050565b60006060820190506116186000830186611407565b818103602083015261162a8185611416565b90506116396040830184611407565b949350505050565b6000604082019050818103600083015261165b8185611416565b905061166a6020830184611407565b9392505050565b6000602082019050611686600083018461148b565b92915050565b600060408201905081810360008301526116a681856114d3565b90506116b5602083018461148b565b9392505050565b600060208201905081810360008301526116d58161153d565b9050919050565b600060208201905081810360008301526116f581611560565b9050919050565b6000602082019050818103600083015261171581611583565b9050919050565b600060208201905061173160008301846115a6565b92915050565b600060408201905061174c60008301856115a6565b61175960208301846115a6565b9392505050565b600061176a61177b565b905061177682826118e3565b919050565b6000604051905090565b600067ffffffffffffffff8211156117a05761179f611943565b5b6117a982611986565b9050602081019050919050565b6000819050602082019050919050565b600081519050919050565b600081519050919050565b6000602082019050919050565b600082825260208201905092915050565b600082825260208201905092915050565b600082825260208201905092915050565b600081905092915050565b600061183282611845565b9050919050565b60008115159050919050565b600073ffffffffffffffffffffffffffffffffffffffff82169050919050565b6000819050919050565b82818337600083830152505050565b60005b8381101561189c578082015181840152602081019050611881565b838111156118ab576000848401525b50505050565b600060028204905060018216806118c957607f821691505b602082108114156118dd576118dc611914565b5b50919050565b6118ec82611986565b810181811067ffffffffffffffff8211171561190b5761190a611943565b5b80604052505050565b7f4e487b7100000000000000000000000000000000000000000000000000000000600052602260045260246000fd5b7f4e487b7100000000000000000000000000000000000000000000000000000000600052604160045260246000fd5b600080fd5b600080fd5b600080fd5b600080fd5b6000601f19601f8301169050919050565b7f4661696c656420746f2070617373207468652072657669657700000000000000600082015250565b7f546865206d65646963616c206461746120646f6573206e6f742062656c6f6e6760008201527f20746f2074686520646f63746f72000000000000000000000000000000000000602082015250565b7f70617469656e74206e6f20657869737400000000000000000000000000000000600082015250565b611a4181611827565b8114611a4c57600080fd5b50565b611a5881611839565b8114611a6357600080fd5b50565b611a6f81611865565b8114611a7a57600080fd5b5056fea264697066735822122097f2a858ab83da601d33ae9bb61515ec7b3e76200b969d30273b6867d83f896164736f6c63430008070033",
					"opcodes": "PUSH1 0x80 PUSH1 0x40 MSTORE CALLVALUE DUP1 ISZERO PUSH2 0x10 JUMPI PUSH1 0x0 DUP1 REVERT JUMPDEST POP PUSH2 0x1AB3 DUP1 PUSH2 0x20 PUSH1 0x0 CODECOPY PUSH1 0x0 RETURN INVALID PUSH1 0x80 PUSH1 0x40 MSTORE PUSH1 0x4 CALLDATASIZE LT PUSH2 0xC6 JUMPI PUSH1 0x0 CALLDATALOAD PUSH1 0xE0 SHR DUP1 PUSH4 0xAB547346 GT PUSH2 0x7F JUMPI DUP1 PUSH4 0xD5F03D3C GT PUSH2 0x59 JUMPI DUP1 PUSH4 0xD5F03D3C EQ PUSH2 0x2C0 JUMPI DUP1 PUSH4 0xE70C5B1F EQ PUSH2 0x2FD JUMPI DUP1 PUSH4 0xFCC585C5 EQ PUSH2 0x326 JUMPI DUP1 PUSH4 0xFECE0FE8 EQ PUSH2 0x364 JUMPI PUSH2 0x11D JUMP JUMPDEST DUP1 PUSH4 0xAB547346 EQ PUSH2 0x243 JUMPI DUP1 PUSH4 0xAC5679D0 EQ PUSH2 0x26C JUMPI DUP1 PUSH4 0xC8F33C91 EQ PUSH2 0x295 JUMPI PUSH2 0x11D JUMP JUMPDEST DUP1 PUSH4 0x1DD9EC67 EQ PUSH2 0x122 JUMPI DUP1 PUSH4 0x495C184E EQ PUSH2 0x14B JUMPI DUP1 PUSH4 0x5D268670 EQ PUSH2 0x176 JUMPI DUP1 PUSH4 0x600D9056 EQ PUSH2 0x19F JUMPI DUP1 PUSH4 0x79172B5B EQ PUSH2 0x1DD JUMPI DUP1 PUSH4 0x93172BF7 EQ PUSH2 0x206 JUMPI PUSH2 0x11D JUMP JUMPDEST CALLDATASIZE PUSH2 0x11D JUMPI CALLER PUSH20 0xFFFFFFFFFFFFFFFFFFFFFFFFFFFFFFFFFFFFFFFF AND PUSH32 0x90890809C654F11D6E72A28FA60149770A0D11EC6C92319D6CEB2BB0A4EA1A15 CALLVALUE SELFBALANCE PUSH1 0x40 MLOAD PUSH2 0x113 SWAP3 SWAP2 SWAP1 PUSH2 0x1737 JUMP JUMPDEST PUSH1 0x40 MLOAD DUP1 SWAP2 SUB SWAP1 LOG2 STOP JUMPDEST PUSH1 0x0 DUP1 REVERT JUMPDEST CALLVALUE DUP1 ISZERO PUSH2 0x12E JUMPI PUSH1 0x0 DUP1 REVERT JUMPDEST POP PUSH2 0x149 PUSH1 0x4 DUP1 CALLDATASIZE SUB DUP2 ADD SWAP1 PUSH2 0x144 SWAP2 SWAP1 PUSH2 0x121E JUMP JUMPDEST PUSH2 0x3A3 JUMP JUMPDEST STOP JUMPDEST CALLVALUE DUP1 ISZERO PUSH2 0x157 JUMPI PUSH1 0x0 DUP1 REVERT JUMPDEST POP PUSH2 0x160 PUSH2 0x482 JUMP JUMPDEST PUSH1 0x40 MLOAD PUSH2 0x16D SWAP2 SWAP1 PUSH2 0x171C JUMP JUMPDEST PUSH1 0x40 MLOAD DUP1 SWAP2 SUB SWAP1 RETURN JUMPDEST CALLVALUE DUP1 ISZERO PUSH2 0x182 JUMPI PUSH1 0x0 DUP1 REVERT JUMPDEST POP PUSH2 0x19D PUSH1 0x4 DUP1 CALLDATASIZE SUB DUP2 ADD SWAP1 PUSH2 0x198 SWAP2 SWAP1 PUSH2 0x121E JUMP JUMPDEST PUSH2 0x488 JUMP JUMPDEST STOP JUMPDEST CALLVALUE DUP1 ISZERO PUSH2 0x1AB JUMPI PUSH1 0x0 DUP1 REVERT JUMPDEST POP PUSH2 0x1C6 PUSH1 0x4 DUP1 CALLDATASIZE SUB DUP2 ADD SWAP1 PUSH2 0x1C1 SWAP2 SWAP1 PUSH2 0x134E JUMP JUMPDEST PUSH2 0x567 JUMP JUMPDEST PUSH1 0x40 MLOAD PUSH2 0x1D4 SWAP3 SWAP2 SWAP1 PUSH2 0x168C JUMP JUMPDEST PUSH1 0x40 MLOAD DUP1 SWAP2 SUB SWAP1 RETURN JUMPDEST CALLVALUE DUP1 ISZERO PUSH2 0x1E9 JUMPI PUSH1 0x0 DUP1 REVERT JUMPDEST POP PUSH2 0x204 PUSH1 0x4 DUP1 CALLDATASIZE SUB DUP2 ADD SWAP1 PUSH2 0x1FF SWAP2 SWAP1 PUSH2 0x121E JUMP JUMPDEST PUSH2 0x5A4 JUMP JUMPDEST STOP JUMPDEST CALLVALUE DUP1 ISZERO PUSH2 0x212 JUMPI PUSH1 0x0 DUP1 REVERT JUMPDEST POP PUSH2 0x22D PUSH1 0x4 DUP1 CALLDATASIZE SUB DUP2 ADD SWAP1 PUSH2 0x228 SWAP2 SWAP1 PUSH2 0x121E JUMP JUMPDEST PUSH2 0x5E7 JUMP JUMPDEST PUSH1 0x40 MLOAD PUSH2 0x23A SWAP2 SWAP1 PUSH2 0x1671 JUMP JUMPDEST PUSH1 0x40 MLOAD DUP1 SWAP2 SUB SWAP1 RETURN JUMPDEST CALLVALUE DUP1 ISZERO PUSH2 0x24F JUMPI PUSH1 0x0 DUP1 REVERT JUMPDEST POP PUSH2 0x26A PUSH1 0x4 DUP1 CALLDATASIZE SUB DUP2 ADD SWAP1 PUSH2 0x265 SWAP2 SWAP1 PUSH2 0x1397 JUMP JUMPDEST PUSH2 0x640 JUMP JUMPDEST STOP JUMPDEST CALLVALUE DUP1 ISZERO PUSH2 0x278 JUMPI PUSH1 0x0 DUP1 REVERT JUMPDEST POP PUSH2 0x293 PUSH1 0x4 DUP1 CALLDATASIZE SUB DUP2 ADD SWAP1 PUSH2 0x28E SWAP2 SWAP1 PUSH2 0x129E JUMP JUMPDEST PUSH2 0x85B JUMP JUMPDEST STOP JUMPDEST CALLVALUE DUP1 ISZERO PUSH2 0x2A1 JUMPI PUSH1 0x0 DUP1 REVERT JUMPDEST POP PUSH2 0x2AA PUSH2 0xBE8 JUMP JUMPDEST PUSH1 0x40 MLOAD PUSH2 0x2B7 SWAP2 SWAP1 PUSH2 0x171C JUMP JUMPDEST PUSH1 0x40 MLOAD DUP1 SWAP2 SUB SWAP1 RETURN JUMPDEST CALLVALUE DUP1 ISZERO PUSH2 0x2CC JUMPI PUSH1 0x0 DUP1 REVERT JUMPDEST POP PUSH2 0x2E7 PUSH1 0x4 DUP1 CALLDATASIZE SUB DUP2 ADD SWAP1 PUSH2 0x2E2 SWAP2 SWAP1 PUSH2 0x121E JUMP JUMPDEST PUSH2 0xBEE JUMP JUMPDEST PUSH1 0x40 MLOAD PUSH2 0x2F4 SWAP2 SWAP1 PUSH2 0x1671 JUMP JUMPDEST PUSH1 0x40 MLOAD DUP1 SWAP2 SUB SWAP1 RETURN JUMPDEST CALLVALUE DUP1 ISZERO PUSH2 0x309 JUMPI PUSH1 0x0 DUP1 REVERT JUMPDEST POP PUSH2 0x324 PUSH1 0x4 DUP1 CALLDATASIZE SUB DUP2 ADD SWAP1 PUSH2 0x31F SWAP2 SWAP1 PUSH2 0x124B JUMP JUMPDEST PUSH2 0xC47 JUMP JUMPDEST STOP JUMPDEST CALLVALUE DUP1 ISZERO PUSH2 0x332 JUMPI PUSH1 0x0 DUP1 REVERT JUMPDEST POP PUSH2 0x34D PUSH1 0x4 DUP1 CALLDATASIZE SUB DUP2 ADD SWAP1 PUSH2 0x348 SWAP2 SWAP1 PUSH2 0x121E JUMP JUMPDEST PUSH2 0xCFC JUMP JUMPDEST PUSH1 0x40 MLOAD PUSH2 0x35B SWAP3 SWAP2 SWAP1 PUSH2 0x1641 JUMP JUMPDEST PUSH1 0x40 MLOAD DUP1 SWAP2 SUB SWAP1 RETURN JUMPDEST CALLVALUE DUP1 ISZERO PUSH2 0x370 JUMPI PUSH1 0x0 DUP1 REVERT JUMPDEST POP PUSH2 0x38B PUSH1 0x4 DUP1 CALLDATASIZE SUB DUP2 ADD SWAP1 PUSH2 0x386 SWAP2 SWAP1 PUSH2 0x121E JUMP JUMPDEST PUSH2 0xEC9 JUMP JUMPDEST PUSH1 0x40 MLOAD PUSH2 0x39A SWAP4 SWAP3 SWAP2 SWAP1 PUSH2 0x1603 JUMP JUMPDEST PUSH1 0x40 MLOAD DUP1 SWAP2 SUB SWAP1 RETURN JUMPDEST DUP1 PUSH1 0x3 PUSH1 0x0 DUP4 PUSH20 0xFFFFFFFFFFFFFFFFFFFFFFFFFFFFFFFFFFFFFFFF AND PUSH20 0xFFFFFFFFFFFFFFFFFFFFFFFFFFFFFFFFFFFFFFFF AND DUP2 MSTORE PUSH1 0x20 ADD SWAP1 DUP2 MSTORE PUSH1 0x20 ADD PUSH1 0x0 KECCAK256 PUSH1 0x0 ADD PUSH1 0x0 PUSH2 0x100 EXP DUP2 SLOAD DUP2 PUSH20 0xFFFFFFFFFFFFFFFFFFFFFFFFFFFFFFFFFFFFFFFF MUL NOT AND SWAP1 DUP4 PUSH20 0xFFFFFFFFFFFFFFFFFFFFFFFFFFFFFFFFFFFFFFFF AND MUL OR SWAP1 SSTORE POP PUSH1 0x1 PUSH1 0x3 PUSH1 0x0 DUP4 PUSH20 0xFFFFFFFFFFFFFFFFFFFFFFFFFFFFFFFFFFFFFFFF AND PUSH20 0xFFFFFFFFFFFFFFFFFFFFFFFFFFFFFFFFFFFFFFFF AND DUP2 MSTORE PUSH1 0x20 ADD SWAP1 DUP2 MSTORE PUSH1 0x20 ADD PUSH1 0x0 KECCAK256 PUSH1 0x0 ADD PUSH1 0x14 PUSH2 0x100 EXP DUP2 SLOAD DUP2 PUSH1 0xFF MUL NOT AND SWAP1 DUP4 ISZERO ISZERO MUL OR SWAP1 SSTORE POP POP JUMP JUMPDEST PUSH1 0x2 SLOAD DUP2 JUMP JUMPDEST DUP1 PUSH1 0x4 PUSH1 0x0 DUP4 PUSH20 0xFFFFFFFFFFFFFFFFFFFFFFFFFFFFFFFFFFFFFFFF AND PUSH20 0xFFFFFFFFFFFFFFFFFFFFFFFFFFFFFFFFFFFFFFFF AND DUP2 MSTORE PUSH1 0x20 ADD SWAP1 DUP2 MSTORE PUSH1 0x20 ADD PUSH1 0x0 KECCAK256 PUSH1 0x0 ADD PUSH1 0x0 PUSH2 0x100 EXP DUP2 SLOAD DUP2 PUSH20 0xFFFFFFFFFFFFFFFFFFFFFFFFFFFFFFFFFFFFFFFF MUL NOT AND SWAP1 DUP4 PUSH20 0xFFFFFFFFFFFFFFFFFFFFFFFFFFFFFFFFFFFFFFFF AND MUL OR SWAP1 SSTORE POP PUSH1 0x1 PUSH1 0x4 PUSH1 0x0 DUP4 PUSH20 0xFFFFFFFFFFFFFFFFFFFFFFFFFFFFFFFFFFFFFFFF AND PUSH20 0xFFFFFFFFFFFFFFFFFFFFFFFFFFFFFFFFFFFFFFFF AND DUP2 MSTORE PUSH1 0x20 ADD SWAP1 DUP2 MSTORE PUSH1 0x20 ADD PUSH1 0x0 KECCAK256 PUSH1 0x0 ADD PUSH1 0x14 PUSH2 0x100 EXP DUP2 SLOAD DUP2 PUSH1 0xFF MUL NOT AND SWAP1 DUP4 ISZERO ISZERO MUL OR SWAP1 SSTORE POP POP JUMP JUMPDEST PUSH1 0x60 PUSH1 0x0 DUP3 PUSH1 0x9 DUP5 PUSH1 0x40 MLOAD PUSH2 0x57C SWAP2 SWAP1 PUSH2 0x15B5 JUMP JUMPDEST SWAP1 DUP2 MSTORE PUSH1 0x20 ADD PUSH1 0x40 MLOAD DUP1 SWAP2 SUB SWAP1 KECCAK256 PUSH1 0x3 ADD PUSH1 0x0 SWAP1 SLOAD SWAP1 PUSH2 0x100 EXP SWAP1 DIV PUSH1 0xFF AND SWAP2 POP SWAP2 POP SWAP2 POP SWAP2 JUMP JUMPDEST DUP1 PUSH1 0x0 DUP1 PUSH2 0x100 EXP DUP2 SLOAD DUP2 PUSH20 0xFFFFFFFFFFFFFFFFFFFFFFFFFFFFFFFFFFFFFFFF MUL NOT AND SWAP1 DUP4 PUSH20 0xFFFFFFFFFFFFFFFFFFFFFFFFFFFFFFFFFFFFFFFF AND MUL OR SWAP1 SSTORE POP POP JUMP JUMPDEST PUSH1 0x0 PUSH1 0x4 PUSH1 0x0 DUP4 PUSH20 0xFFFFFFFFFFFFFFFFFFFFFFFFFFFFFFFFFFFFFFFF AND PUSH20 0xFFFFFFFFFFFFFFFFFFFFFFFFFFFFFFFFFFFFFFFF AND DUP2 MSTORE PUSH1 0x20 ADD SWAP1 DUP2 MSTORE PUSH1 0x20 ADD PUSH1 0x0 KECCAK256 PUSH1 0x0 ADD PUSH1 0x14 SWAP1 SLOAD SWAP1 PUSH2 0x100 EXP SWAP1 DIV PUSH1 0xFF AND SWAP1 POP SWAP2 SWAP1 POP JUMP JUMPDEST CALLER TIMESTAMP PUSH1 0x1 DUP2 SWAP1 SSTORE POP PUSH2 0x651 CALLER PUSH2 0xBEE JUMP JUMPDEST PUSH2 0x690 JUMPI PUSH1 0x40 MLOAD PUSH32 0x8C379A000000000000000000000000000000000000000000000000000000000 DUP2 MSTORE PUSH1 0x4 ADD PUSH2 0x687 SWAP1 PUSH2 0x16FC JUMP JUMPDEST PUSH1 0x40 MLOAD DUP1 SWAP2 SUB SWAP1 REVERT JUMPDEST PUSH2 0x699 DUP3 PUSH2 0x5E7 JUMP JUMPDEST PUSH2 0x6D8 JUMPI PUSH1 0x40 MLOAD PUSH32 0x8C379A000000000000000000000000000000000000000000000000000000000 DUP2 MSTORE PUSH1 0x4 ADD PUSH2 0x6CF SWAP1 PUSH2 0x16FC JUMP JUMPDEST PUSH1 0x40 MLOAD DUP1 SWAP2 SUB SWAP1 REVERT JUMPDEST CALLER PUSH1 0x5 PUSH1 0x0 CALLER PUSH20 0xFFFFFFFFFFFFFFFFFFFFFFFFFFFFFFFFFFFFFFFF AND PUSH20 0xFFFFFFFFFFFFFFFFFFFFFFFFFFFFFFFFFFFFFFFF AND DUP2 MSTORE PUSH1 0x20 ADD SWAP1 DUP2 MSTORE PUSH1 0x20 ADD PUSH1 0x0 KECCAK256 PUSH1 0x0 ADD PUSH1 0x0 PUSH2 0x100 EXP DUP2 SLOAD DUP2 PUSH20 0xFFFFFFFFFFFFFFFFFFFFFFFFFFFFFFFFFFFFFFFF MUL NOT AND SWAP1 DUP4 PUSH20 0xFFFFFFFFFFFFFFFFFFFFFFFFFFFFFFFFFFFFFFFF AND MUL OR SWAP1 SSTORE POP PUSH1 0x5 PUSH1 0x0 CALLER PUSH20 0xFFFFFFFFFFFFFFFFFFFFFFFFFFFFFFFFFFFFFFFF AND PUSH20 0xFFFFFFFFFFFFFFFFFFFFFFFFFFFFFFFFFFFFFFFF AND DUP2 MSTORE PUSH1 0x20 ADD SWAP1 DUP2 MSTORE PUSH1 0x20 ADD PUSH1 0x0 KECCAK256 PUSH1 0x1 ADD DUP4 SWAP1 DUP1 PUSH1 0x1 DUP2 SLOAD ADD DUP1 DUP3 SSTORE DUP1 SWAP2 POP POP PUSH1 0x1 SWAP1 SUB SWAP1 PUSH1 0x0 MSTORE PUSH1 0x20 PUSH1 0x0 KECCAK256 ADD PUSH1 0x0 SWAP1 SWAP2 SWAP1 SWAP2 SWAP1 SWAP2 POP SWAP1 DUP1 MLOAD SWAP1 PUSH1 0x20 ADD SWAP1 PUSH2 0x7D4 SWAP3 SWAP2 SWAP1 PUSH2 0x10B7 JUMP JUMPDEST POP DUP2 PUSH1 0x5 PUSH1 0x0 DUP5 PUSH20 0xFFFFFFFFFFFFFFFFFFFFFFFFFFFFFFFFFFFFFFFF AND PUSH20 0xFFFFFFFFFFFFFFFFFFFFFFFFFFFFFFFFFFFFFFFF AND DUP2 MSTORE PUSH1 0x20 ADD SWAP1 DUP2 MSTORE PUSH1 0x20 ADD PUSH1 0x0 KECCAK256 PUSH1 0x2 ADD PUSH1 0x0 PUSH2 0x100 EXP DUP2 SLOAD DUP2 PUSH20 0xFFFFFFFFFFFFFFFFFFFFFFFFFFFFFFFFFFFFFFFF MUL NOT AND SWAP1 DUP4 PUSH20 0xFFFFFFFFFFFFFFFFFFFFFFFFFFFFFFFFFFFFFFFF AND MUL OR SWAP1 SSTORE POP POP POP POP JUMP JUMPDEST DUP4 TIMESTAMP PUSH1 0x2 DUP2 SWAP1 SSTORE POP DUP5 PUSH1 0x7 PUSH1 0x0 DUP8 PUSH20 0xFFFFFFFFFFFFFFFFFFFFFFFFFFFFFFFFFFFFFFFF AND PUSH20 0xFFFFFFFFFFFFFFFFFFFFFFFFFFFFFFFFFFFFFFFF AND DUP2 MSTORE PUSH1 0x20 ADD SWAP1 DUP2 MSTORE PUSH1 0x20 ADD PUSH1 0x0 KECCAK256 PUSH1 0x0 ADD PUSH1 0x0 PUSH2 0x100 EXP DUP2 SLOAD DUP2 PUSH20 0xFFFFFFFFFFFFFFFFFFFFFFFFFFFFFFFFFFFFFFFF MUL NOT AND SWAP1 DUP4 PUSH20 0xFFFFFFFFFFFFFFFFFFFFFFFFFFFFFFFFFFFFFFFF AND MUL OR SWAP1 SSTORE POP PUSH1 0x8 DUP5 PUSH1 0x40 MLOAD PUSH2 0x8F4 SWAP2 SWAP1 PUSH2 0x15B5 JUMP JUMPDEST SWAP1 DUP2 MSTORE PUSH1 0x20 ADD PUSH1 0x40 MLOAD DUP1 SWAP2 SUB SWAP1 KECCAK256 PUSH1 0x0 ADD PUSH1 0x0 SWAP1 SLOAD SWAP1 PUSH2 0x100 EXP SWAP1 DIV PUSH20 0xFFFFFFFFFFFFFFFFFFFFFFFFFFFFFFFFFFFFFFFF AND PUSH1 0x7 PUSH1 0x0 DUP8 PUSH20 0xFFFFFFFFFFFFFFFFFFFFFFFFFFFFFFFFFFFFFFFF AND PUSH20 0xFFFFFFFFFFFFFFFFFFFFFFFFFFFFFFFFFFFFFFFF AND DUP2 MSTORE PUSH1 0x20 ADD SWAP1 DUP2 MSTORE PUSH1 0x20 ADD PUSH1 0x0 KECCAK256 PUSH1 0x1 ADD PUSH1 0x0 PUSH2 0x100 EXP DUP2 SLOAD DUP2 PUSH20 0xFFFFFFFFFFFFFFFFFFFFFFFFFFFFFFFFFFFFFFFF MUL NOT AND SWAP1 DUP4 PUSH20 0xFFFFFFFFFFFFFFFFFFFFFFFFFFFFFFFFFFFFFFFF AND MUL OR SWAP1 SSTORE POP DUP4 PUSH1 0x7 PUSH1 0x0 DUP8 PUSH20 0xFFFFFFFFFFFFFFFFFFFFFFFFFFFFFFFFFFFFFFFF AND PUSH20 0xFFFFFFFFFFFFFFFFFFFFFFFFFFFFFFFFFFFFFFFF AND DUP2 MSTORE PUSH1 0x20 ADD SWAP1 DUP2 MSTORE PUSH1 0x20 ADD PUSH1 0x0 KECCAK256 PUSH1 0x2 ADD SWAP1 DUP1 MLOAD SWAP1 PUSH1 0x20 ADD SWAP1 PUSH2 0x9FC SWAP3 SWAP2 SWAP1 PUSH2 0x10B7 JUMP JUMPDEST POP PUSH1 0x8 DUP5 PUSH1 0x40 MLOAD PUSH2 0xA0D SWAP2 SWAP1 PUSH2 0x15B5 JUMP JUMPDEST SWAP1 DUP2 MSTORE PUSH1 0x20 ADD PUSH1 0x40 MLOAD DUP1 SWAP2 SUB SWAP1 KECCAK256 PUSH1 0x2 ADD PUSH1 0x0 SWAP1 SLOAD SWAP1 PUSH2 0x100 EXP SWAP1 DIV PUSH20 0xFFFFFFFFFFFFFFFFFFFFFFFFFFFFFFFFFFFFFFFF AND PUSH20 0xFFFFFFFFFFFFFFFFFFFFFFFFFFFFFFFFFFFFFFFF AND DUP6 PUSH20 0xFFFFFFFFFFFFFFFFFFFFFFFFFFFFFFFFFFFFFFFF AND EQ PUSH2 0xAAC JUMPI PUSH1 0x40 MLOAD PUSH32 0x8C379A000000000000000000000000000000000000000000000000000000000 DUP2 MSTORE PUSH1 0x4 ADD PUSH2 0xAA3 SWAP1 PUSH2 0x16DC JUMP JUMPDEST PUSH1 0x40 MLOAD DUP1 SWAP2 SUB SWAP1 REVERT JUMPDEST PUSH1 0x1 ISZERO ISZERO DUP4 ISZERO ISZERO EQ ISZERO PUSH2 0xBA6 JUMPI PUSH1 0x1 PUSH1 0x7 PUSH1 0x0 DUP8 PUSH20 0xFFFFFFFFFFFFFFFFFFFFFFFFFFFFFFFFFFFFFFFF AND PUSH20 0xFFFFFFFFFFFFFFFFFFFFFFFFFFFFFFFFFFFFFFFF AND DUP2 MSTORE PUSH1 0x20 ADD SWAP1 DUP2 MSTORE PUSH1 0x20 ADD PUSH1 0x0 KECCAK256 PUSH1 0x3 ADD PUSH1 0x0 PUSH2 0x100 EXP DUP2 SLOAD DUP2 PUSH1 0xFF MUL NOT AND SWAP1 DUP4 ISZERO ISZERO MUL OR SWAP1 SSTORE POP PUSH2 0xBA1 PUSH1 0x8 DUP6 PUSH1 0x40 MLOAD PUSH2 0xB27 SWAP2 SWAP1 PUSH2 0x15B5 JUMP JUMPDEST SWAP1 DUP2 MSTORE PUSH1 0x20 ADD PUSH1 0x40 MLOAD DUP1 SWAP2 SUB SWAP1 KECCAK256 PUSH1 0x2 ADD PUSH1 0x0 SWAP1 SLOAD SWAP1 PUSH2 0x100 EXP SWAP1 DIV PUSH20 0xFFFFFFFFFFFFFFFFFFFFFFFFFFFFFFFFFFFFFFFF AND PUSH1 0x8 DUP7 PUSH1 0x40 MLOAD PUSH2 0xB69 SWAP2 SWAP1 PUSH2 0x15B5 JUMP JUMPDEST SWAP1 DUP2 MSTORE PUSH1 0x20 ADD PUSH1 0x40 MLOAD DUP1 SWAP2 SUB SWAP1 KECCAK256 PUSH1 0x0 ADD PUSH1 0x0 SWAP1 SLOAD SWAP1 PUSH2 0x100 EXP SWAP1 DIV PUSH20 0xFFFFFFFFFFFFFFFFFFFFFFFFFFFFFFFFFFFFFFFF AND DUP5 PUSH2 0xC47 JUMP JUMPDEST PUSH2 0xBE1 JUMP JUMPDEST PUSH1 0x40 MLOAD PUSH32 0x8C379A000000000000000000000000000000000000000000000000000000000 DUP2 MSTORE PUSH1 0x4 ADD PUSH2 0xBD8 SWAP1 PUSH2 0x16BC JUMP JUMPDEST PUSH1 0x40 MLOAD DUP1 SWAP2 SUB SWAP1 REVERT JUMPDEST POP POP POP POP POP JUMP JUMPDEST PUSH1 0x1 SLOAD DUP2 JUMP JUMPDEST PUSH1 0x0 PUSH1 0x3 PUSH1 0x0 DUP4 PUSH20 0xFFFFFFFFFFFFFFFFFFFFFFFFFFFFFFFFFFFFFFFF AND PUSH20 0xFFFFFFFFFFFFFFFFFFFFFFFFFFFFFFFFFFFFFFFF AND DUP2 MSTORE PUSH1 0x20 ADD SWAP1 DUP2 MSTORE PUSH1 0x20 ADD PUSH1 0x0 KECCAK256 PUSH1 0x0 ADD PUSH1 0x14 SWAP1 SLOAD SWAP1 PUSH2 0x100 EXP SWAP1 DIV PUSH1 0xFF AND SWAP1 POP SWAP2 SWAP1 POP JUMP JUMPDEST PUSH1 0x0 DUP1 SLOAD SWAP1 PUSH2 0x100 EXP SWAP1 DIV PUSH20 0xFFFFFFFFFFFFFFFFFFFFFFFFFFFFFFFFFFFFFFFF AND PUSH20 0xFFFFFFFFFFFFFFFFFFFFFFFFFFFFFFFFFFFFFFFF AND PUSH4 0x23B872DD DUP5 DUP5 DUP5 PUSH1 0x40 MLOAD DUP5 PUSH4 0xFFFFFFFF AND PUSH1 0xE0 SHL DUP2 MSTORE PUSH1 0x4 ADD PUSH2 0xCA4 SWAP4 SWAP3 SWAP2 SWAP1 PUSH2 0x15CC JUMP JUMPDEST PUSH1 0x20 PUSH1 0x40 MLOAD DUP1 DUP4 SUB DUP2 PUSH1 0x0 DUP8 DUP1 EXTCODESIZE ISZERO DUP1 ISZERO PUSH2 0xCBE JUMPI PUSH1 0x0 DUP1 REVERT JUMPDEST POP GAS CALL ISZERO DUP1 ISZERO PUSH2 0xCD2 JUMPI RETURNDATASIZE PUSH1 0x0 DUP1 RETURNDATACOPY RETURNDATASIZE PUSH1 0x0 REVERT JUMPDEST POP POP POP POP PUSH1 0x40 MLOAD RETURNDATASIZE PUSH1 0x1F NOT PUSH1 0x1F DUP3 ADD AND DUP3 ADD DUP1 PUSH1 0x40 MSTORE POP DUP2 ADD SWAP1 PUSH2 0xCF6 SWAP2 SWAP1 PUSH2 0x1321 JUMP JUMPDEST POP POP POP POP JUMP JUMPDEST PUSH1 0x60 PUSH1 0x0 PUSH2 0xD09 DUP4 PUSH2 0xBEE JUMP JUMPDEST PUSH2 0xD48 JUMPI PUSH1 0x40 MLOAD PUSH32 0x8C379A000000000000000000000000000000000000000000000000000000000 DUP2 MSTORE PUSH1 0x4 ADD PUSH2 0xD3F SWAP1 PUSH2 0x16FC JUMP JUMPDEST PUSH1 0x40 MLOAD DUP1 SWAP2 SUB SWAP1 REVERT JUMPDEST PUSH1 0x5 PUSH1 0x0 DUP5 PUSH20 0xFFFFFFFFFFFFFFFFFFFFFFFFFFFFFFFFFFFFFFFF AND PUSH20 0xFFFFFFFFFFFFFFFFFFFFFFFFFFFFFFFFFFFFFFFF AND DUP2 MSTORE PUSH1 0x20 ADD SWAP1 DUP2 MSTORE PUSH1 0x20 ADD PUSH1 0x0 KECCAK256 PUSH1 0x1 ADD PUSH1 0x5 PUSH1 0x0 DUP6 PUSH20 0xFFFFFFFFFFFFFFFFFFFFFFFFFFFFFFFFFFFFFFFF AND PUSH20 0xFFFFFFFFFFFFFFFFFFFFFFFFFFFFFFFFFFFFFFFF AND DUP2 MSTORE PUSH1 0x20 ADD SWAP1 DUP2 MSTORE PUSH1 0x20 ADD PUSH1 0x0 KECCAK256 PUSH1 0x2 ADD PUSH1 0x0 SWAP1 SLOAD SWAP1 PUSH2 0x100 EXP SWAP1 DIV PUSH20 0xFFFFFFFFFFFFFFFFFFFFFFFFFFFFFFFFFFFFFFFF AND DUP2 DUP1 SLOAD DUP1 PUSH1 0x20 MUL PUSH1 0x20 ADD PUSH1 0x40 MLOAD SWAP1 DUP2 ADD PUSH1 0x40 MSTORE DUP1 SWAP3 SWAP2 SWAP1 DUP2 DUP2 MSTORE PUSH1 0x20 ADD PUSH1 0x0 SWAP1 JUMPDEST DUP3 DUP3 LT ISZERO PUSH2 0xEBA JUMPI DUP4 DUP3 SWAP1 PUSH1 0x0 MSTORE PUSH1 0x20 PUSH1 0x0 KECCAK256 ADD DUP1 SLOAD PUSH2 0xE2D SWAP1 PUSH2 0x18B1 JUMP JUMPDEST DUP1 PUSH1 0x1F ADD PUSH1 0x20 DUP1 SWAP2 DIV MUL PUSH1 0x20 ADD PUSH1 0x40 MLOAD SWAP1 DUP2 ADD PUSH1 0x40 MSTORE DUP1 SWAP3 SWAP2 SWAP1 DUP2 DUP2 MSTORE PUSH1 0x20 ADD DUP3 DUP1 SLOAD PUSH2 0xE59 SWAP1 PUSH2 0x18B1 JUMP JUMPDEST DUP1 ISZERO PUSH2 0xEA6 JUMPI DUP1 PUSH1 0x1F LT PUSH2 0xE7B JUMPI PUSH2 0x100 DUP1 DUP4 SLOAD DIV MUL DUP4 MSTORE SWAP2 PUSH1 0x20 ADD SWAP2 PUSH2 0xEA6 JUMP JUMPDEST DUP3 ADD SWAP2 SWAP1 PUSH1 0x0 MSTORE PUSH1 0x20 PUSH1 0x0 KECCAK256 SWAP1 JUMPDEST DUP2 SLOAD DUP2 MSTORE SWAP1 PUSH1 0x1 ADD SWAP1 PUSH1 0x20 ADD DUP1 DUP4 GT PUSH2 0xE89 JUMPI DUP3 SWAP1 SUB PUSH1 0x1F AND DUP3 ADD SWAP2 JUMPDEST POP POP POP POP POP DUP2 MSTORE PUSH1 0x20 ADD SWAP1 PUSH1 0x1 ADD SWAP1 PUSH2 0xE0E JUMP JUMPDEST POP POP POP POP SWAP2 POP SWAP2 POP SWAP2 POP SWAP2 POP SWAP2 JUMP JUMPDEST PUSH1 0x0 PUSH1 0x60 PUSH1 0x0 PUSH1 0x6 PUSH1 0x0 DUP6 PUSH20 0xFFFFFFFFFFFFFFFFFFFFFFFFFFFFFFFFFFFFFFFF AND PUSH20 0xFFFFFFFFFFFFFFFFFFFFFFFFFFFFFFFFFFFFFFFF AND DUP2 MSTORE PUSH1 0x20 ADD SWAP1 DUP2 MSTORE PUSH1 0x20 ADD PUSH1 0x0 KECCAK256 PUSH1 0x0 ADD PUSH1 0x0 SWAP1 SLOAD SWAP1 PUSH2 0x100 EXP SWAP1 DIV PUSH20 0xFFFFFFFFFFFFFFFFFFFFFFFFFFFFFFFFFFFFFFFF AND PUSH1 0x6 PUSH1 0x0 DUP7 PUSH20 0xFFFFFFFFFFFFFFFFFFFFFFFFFFFFFFFFFFFFFFFF AND PUSH20 0xFFFFFFFFFFFFFFFFFFFFFFFFFFFFFFFFFFFFFFFF AND DUP2 MSTORE PUSH1 0x20 ADD SWAP1 DUP2 MSTORE PUSH1 0x20 ADD PUSH1 0x0 KECCAK256 PUSH1 0x1 ADD PUSH1 0x6 PUSH1 0x0 DUP8 PUSH20 0xFFFFFFFFFFFFFFFFFFFFFFFFFFFFFFFFFFFFFFFF AND PUSH20 0xFFFFFFFFFFFFFFFFFFFFFFFFFFFFFFFFFFFFFFFF AND DUP2 MSTORE PUSH1 0x20 ADD SWAP1 DUP2 MSTORE PUSH1 0x20 ADD PUSH1 0x0 KECCAK256 PUSH1 0x2 ADD PUSH1 0x0 SWAP1 SLOAD SWAP1 PUSH2 0x100 EXP SWAP1 DIV PUSH20 0xFFFFFFFFFFFFFFFFFFFFFFFFFFFFFFFFFFFFFFFF AND DUP2 DUP1 SLOAD DUP1 PUSH1 0x20 MUL PUSH1 0x20 ADD PUSH1 0x40 MLOAD SWAP1 DUP2 ADD PUSH1 0x40 MSTORE DUP1 SWAP3 SWAP2 SWAP1 DUP2 DUP2 MSTORE PUSH1 0x20 ADD PUSH1 0x0 SWAP1 JUMPDEST DUP3 DUP3 LT ISZERO PUSH2 0x10A4 JUMPI DUP4 DUP3 SWAP1 PUSH1 0x0 MSTORE PUSH1 0x20 PUSH1 0x0 KECCAK256 ADD DUP1 SLOAD PUSH2 0x1017 SWAP1 PUSH2 0x18B1 JUMP JUMPDEST DUP1 PUSH1 0x1F ADD PUSH1 0x20 DUP1 SWAP2 DIV MUL PUSH1 0x20 ADD PUSH1 0x40 MLOAD SWAP1 DUP2 ADD PUSH1 0x40 MSTORE DUP1 SWAP3 SWAP2 SWAP1 DUP2 DUP2 MSTORE PUSH1 0x20 ADD DUP3 DUP1 SLOAD PUSH2 0x1043 SWAP1 PUSH2 0x18B1 JUMP JUMPDEST DUP1 ISZERO PUSH2 0x1090 JUMPI DUP1 PUSH1 0x1F LT PUSH2 0x1065 JUMPI PUSH2 0x100 DUP1 DUP4 SLOAD DIV MUL DUP4 MSTORE SWAP2 PUSH1 0x20 ADD SWAP2 PUSH2 0x1090 JUMP JUMPDEST DUP3 ADD SWAP2 SWAP1 PUSH1 0x0 MSTORE PUSH1 0x20 PUSH1 0x0 KECCAK256 SWAP1 JUMPDEST DUP2 SLOAD DUP2 MSTORE SWAP1 PUSH1 0x1 ADD SWAP1 PUSH1 0x20 ADD DUP1 DUP4 GT PUSH2 0x1073 JUMPI DUP3 SWAP1 SUB PUSH1 0x1F AND DUP3 ADD SWAP2 JUMPDEST POP POP POP POP POP DUP2 MSTORE PUSH1 0x20 ADD SWAP1 PUSH1 0x1 ADD SWAP1 PUSH2 0xFF8 JUMP JUMPDEST POP POP POP POP SWAP2 POP SWAP3 POP SWAP3 POP SWAP3 POP SWAP2 SWAP4 SWAP1 SWAP3 POP JUMP JUMPDEST DUP3 DUP1 SLOAD PUSH2 0x10C3 SWAP1 PUSH2 0x18B1 JUMP JUMPDEST SWAP1 PUSH1 0x0 MSTORE PUSH1 0x20 PUSH1 0x0 KECCAK256 SWAP1 PUSH1 0x1F ADD PUSH1 0x20 SWAP1 DIV DUP2 ADD SWAP3 DUP3 PUSH2 0x10E5 JUMPI PUSH1 0x0 DUP6 SSTORE PUSH2 0x112C JUMP JUMPDEST DUP3 PUSH1 0x1F LT PUSH2 0x10FE JUMPI DUP1 MLOAD PUSH1 0xFF NOT AND DUP4 DUP1 ADD OR DUP6 SSTORE PUSH2 0x112C JUMP JUMPDEST DUP3 DUP1 ADD PUSH1 0x1 ADD DUP6 SSTORE DUP3 ISZERO PUSH2 0x112C JUMPI SWAP2 DUP3 ADD JUMPDEST DUP3 DUP2 GT ISZERO PUSH2 0x112B JUMPI DUP3 MLOAD DUP3 SSTORE SWAP2 PUSH1 0x20 ADD SWAP2 SWAP1 PUSH1 0x1 ADD SWAP1 PUSH2 0x1110 JUMP JUMPDEST JUMPDEST POP SWAP1 POP PUSH2 0x1139 SWAP2 SWAP1 PUSH2 0x113D JUMP JUMPDEST POP SWAP1 JUMP JUMPDEST JUMPDEST DUP1 DUP3 GT ISZERO PUSH2 0x1156 JUMPI PUSH1 0x0 DUP2 PUSH1 0x0 SWAP1 SSTORE POP PUSH1 0x1 ADD PUSH2 0x113E JUMP JUMPDEST POP SWAP1 JUMP JUMPDEST PUSH1 0x0 PUSH2 0x116D PUSH2 0x1168 DUP5 PUSH2 0x1785 JUMP JUMPDEST PUSH2 0x1760 JUMP JUMPDEST SWAP1 POP DUP3 DUP2 MSTORE PUSH1 0x20 DUP2 ADD DUP5 DUP5 DUP5 ADD GT ISZERO PUSH2 0x1189 JUMPI PUSH2 0x1188 PUSH2 0x1977 JUMP JUMPDEST JUMPDEST PUSH2 0x1194 DUP5 DUP3 DUP6 PUSH2 0x186F JUMP JUMPDEST POP SWAP4 SWAP3 POP POP POP JUMP JUMPDEST PUSH1 0x0 DUP2 CALLDATALOAD SWAP1 POP PUSH2 0x11AB DUP2 PUSH2 0x1A38 JUMP JUMPDEST SWAP3 SWAP2 POP POP JUMP JUMPDEST PUSH1 0x0 DUP2 CALLDATALOAD SWAP1 POP PUSH2 0x11C0 DUP2 PUSH2 0x1A4F JUMP JUMPDEST SWAP3 SWAP2 POP POP JUMP JUMPDEST PUSH1 0x0 DUP2 MLOAD SWAP1 POP PUSH2 0x11D5 DUP2 PUSH2 0x1A4F JUMP JUMPDEST SWAP3 SWAP2 POP POP JUMP JUMPDEST PUSH1 0x0 DUP3 PUSH1 0x1F DUP4 ADD SLT PUSH2 0x11F0 JUMPI PUSH2 0x11EF PUSH2 0x1972 JUMP JUMPDEST JUMPDEST DUP2 CALLDATALOAD PUSH2 0x1200 DUP5 DUP3 PUSH1 0x20 DUP7 ADD PUSH2 0x115A JUMP JUMPDEST SWAP2 POP POP SWAP3 SWAP2 POP POP JUMP JUMPDEST PUSH1 0x0 DUP2 CALLDATALOAD SWAP1 POP PUSH2 0x1218 DUP2 PUSH2 0x1A66 JUMP JUMPDEST SWAP3 SWAP2 POP POP JUMP JUMPDEST PUSH1 0x0 PUSH1 0x20 DUP3 DUP5 SUB SLT ISZERO PUSH2 0x1234 JUMPI PUSH2 0x1233 PUSH2 0x1981 JUMP JUMPDEST JUMPDEST PUSH1 0x0 PUSH2 0x1242 DUP5 DUP3 DUP6 ADD PUSH2 0x119C JUMP JUMPDEST SWAP2 POP POP SWAP3 SWAP2 POP POP JUMP JUMPDEST PUSH1 0x0 DUP1 PUSH1 0x0 PUSH1 0x60 DUP5 DUP7 SUB SLT ISZERO PUSH2 0x1264 JUMPI PUSH2 0x1263 PUSH2 0x1981 JUMP JUMPDEST JUMPDEST PUSH1 0x0 PUSH2 0x1272 DUP7 DUP3 DUP8 ADD PUSH2 0x119C JUMP JUMPDEST SWAP4 POP POP PUSH1 0x20 PUSH2 0x1283 DUP7 DUP3 DUP8 ADD PUSH2 0x119C JUMP JUMPDEST SWAP3 POP POP PUSH1 0x40 PUSH2 0x1294 DUP7 DUP3 DUP8 ADD PUSH2 0x1209 JUMP JUMPDEST SWAP2 POP POP SWAP3 POP SWAP3 POP SWAP3 JUMP JUMPDEST PUSH1 0x0 DUP1 PUSH1 0x0 DUP1 PUSH1 0x80 DUP6 DUP8 SUB SLT ISZERO PUSH2 0x12B8 JUMPI PUSH2 0x12B7 PUSH2 0x1981 JUMP JUMPDEST JUMPDEST PUSH1 0x0 PUSH2 0x12C6 DUP8 DUP3 DUP9 ADD PUSH2 0x119C JUMP JUMPDEST SWAP5 POP POP PUSH1 0x20 DUP6 ADD CALLDATALOAD PUSH8 0xFFFFFFFFFFFFFFFF DUP2 GT ISZERO PUSH2 0x12E7 JUMPI PUSH2 0x12E6 PUSH2 0x197C JUMP JUMPDEST JUMPDEST PUSH2 0x12F3 DUP8 DUP3 DUP9 ADD PUSH2 0x11DB JUMP JUMPDEST SWAP4 POP POP PUSH1 0x40 PUSH2 0x1304 DUP8 DUP3 DUP9 ADD PUSH2 0x11B1 JUMP JUMPDEST SWAP3 POP POP PUSH1 0x60 PUSH2 0x1315 DUP8 DUP3 DUP9 ADD PUSH2 0x1209 JUMP JUMPDEST SWAP2 POP POP SWAP3 SWAP6 SWAP2 SWAP5 POP SWAP3 POP JUMP JUMPDEST PUSH1 0x0 PUSH1 0x20 DUP3 DUP5 SUB SLT ISZERO PUSH2 0x1337 JUMPI PUSH2 0x1336 PUSH2 0x1981 JUMP JUMPDEST JUMPDEST PUSH1 0x0 PUSH2 0x1345 DUP5 DUP3 DUP6 ADD PUSH2 0x11C6 JUMP JUMPDEST SWAP2 POP POP SWAP3 SWAP2 POP POP JUMP JUMPDEST PUSH1 0x0 PUSH1 0x20 DUP3 DUP5 SUB SLT ISZERO PUSH2 0x1364 JUMPI PUSH2 0x1363 PUSH2 0x1981 JUMP JUMPDEST JUMPDEST PUSH1 0x0 DUP3 ADD CALLDATALOAD PUSH8 0xFFFFFFFFFFFFFFFF DUP2 GT ISZERO PUSH2 0x1382 JUMPI PUSH2 0x1381 PUSH2 0x197C JUMP JUMPDEST JUMPDEST PUSH2 0x138E DUP5 DUP3 DUP6 ADD PUSH2 0x11DB JUMP JUMPDEST SWAP2 POP POP SWAP3 SWAP2 POP POP JUMP JUMPDEST PUSH1 0x0 DUP1 PUSH1 0x40 DUP4 DUP6 SUB SLT ISZERO PUSH2 0x13AE JUMPI PUSH2 0x13AD PUSH2 0x1981 JUMP JUMPDEST JUMPDEST PUSH1 0x0 DUP4 ADD CALLDATALOAD PUSH8 0xFFFFFFFFFFFFFFFF DUP2 GT ISZERO PUSH2 0x13CC JUMPI PUSH2 0x13CB PUSH2 0x197C JUMP JUMPDEST JUMPDEST PUSH2 0x13D8 DUP6 DUP3 DUP7 ADD PUSH2 0x11DB JUMP JUMPDEST SWAP3 POP POP PUSH1 0x20 PUSH2 0x13E9 DUP6 DUP3 DUP7 ADD PUSH2 0x119C JUMP JUMPDEST SWAP2 POP POP SWAP3 POP SWAP3 SWAP1 POP JUMP JUMPDEST PUSH1 0x0 PUSH2 0x13FF DUP4 DUP4 PUSH2 0x149A JUMP JUMPDEST SWAP1 POP SWAP3 SWAP2 POP POP JUMP JUMPDEST PUSH2 0x1410 DUP2 PUSH2 0x1827 JUMP JUMPDEST DUP3 MSTORE POP POP JUMP JUMPDEST PUSH1 0x0 PUSH2 0x1421 DUP3 PUSH2 0x17C6 JUMP JUMPDEST PUSH2 0x142B DUP2 DUP6 PUSH2 0x17E9 JUMP JUMPDEST SWAP4 POP DUP4 PUSH1 0x20 DUP3 MUL DUP6 ADD PUSH2 0x143D DUP6 PUSH2 0x17B6 JUMP JUMPDEST DUP1 PUSH1 0x0 JUMPDEST DUP6 DUP2 LT ISZERO PUSH2 0x1479 JUMPI DUP5 DUP5 SUB DUP10 MSTORE DUP2 MLOAD PUSH2 0x145A DUP6 DUP3 PUSH2 0x13F3 JUMP JUMPDEST SWAP5 POP PUSH2 0x1465 DUP4 PUSH2 0x17DC JUMP JUMPDEST SWAP3 POP PUSH1 0x20 DUP11 ADD SWAP10 POP POP PUSH1 0x1 DUP2 ADD SWAP1 POP PUSH2 0x1441 JUMP JUMPDEST POP DUP3 SWAP8 POP DUP8 SWAP6 POP POP POP POP POP POP SWAP3 SWAP2 POP POP JUMP JUMPDEST PUSH2 0x1494 DUP2 PUSH2 0x1839 JUMP JUMPDEST DUP3 MSTORE POP POP JUMP JUMPDEST PUSH1 0x0 PUSH2 0x14A5 DUP3 PUSH2 0x17D1 JUMP JUMPDEST PUSH2 0x14AF DUP2 DUP6 PUSH2 0x17FA JUMP JUMPDEST SWAP4 POP PUSH2 0x14BF DUP2 DUP6 PUSH1 0x20 DUP7 ADD PUSH2 0x187E JUMP JUMPDEST PUSH2 0x14C8 DUP2 PUSH2 0x1986 JUMP JUMPDEST DUP5 ADD SWAP2 POP POP SWAP3 SWAP2 POP POP JUMP JUMPDEST PUSH1 0x0 PUSH2 0x14DE DUP3 PUSH2 0x17D1 JUMP JUMPDEST PUSH2 0x14E8 DUP2 DUP6 PUSH2 0x180B JUMP JUMPDEST SWAP4 POP PUSH2 0x14F8 DUP2 DUP6 PUSH1 0x20 DUP7 ADD PUSH2 0x187E JUMP JUMPDEST PUSH2 0x1501 DUP2 PUSH2 0x1986 JUMP JUMPDEST DUP5 ADD SWAP2 POP POP SWAP3 SWAP2 POP POP JUMP JUMPDEST PUSH1 0x0 PUSH2 0x1517 DUP3 PUSH2 0x17D1 JUMP JUMPDEST PUSH2 0x1521 DUP2 DUP6 PUSH2 0x181C JUMP JUMPDEST SWAP4 POP PUSH2 0x1531 DUP2 DUP6 PUSH1 0x20 DUP7 ADD PUSH2 0x187E JUMP JUMPDEST DUP1 DUP5 ADD SWAP2 POP POP SWAP3 SWAP2 POP POP JUMP JUMPDEST PUSH1 0x0 PUSH2 0x154A PUSH1 0x19 DUP4 PUSH2 0x180B JUMP JUMPDEST SWAP2 POP PUSH2 0x1555 DUP3 PUSH2 0x1997 JUMP JUMPDEST PUSH1 0x20 DUP3 ADD SWAP1 POP SWAP2 SWAP1 POP JUMP JUMPDEST PUSH1 0x0 PUSH2 0x156D PUSH1 0x2E DUP4 PUSH2 0x180B JUMP JUMPDEST SWAP2 POP PUSH2 0x1578 DUP3 PUSH2 0x19C0 JUMP JUMPDEST PUSH1 0x40 DUP3 ADD SWAP1 POP SWAP2 SWAP1 POP JUMP JUMPDEST PUSH1 0x0 PUSH2 0x1590 PUSH1 0x10 DUP4 PUSH2 0x180B JUMP JUMPDEST SWAP2 POP PUSH2 0x159B DUP3 PUSH2 0x1A0F JUMP JUMPDEST PUSH1 0x20 DUP3 ADD SWAP1 POP SWAP2 SWAP1 POP JUMP JUMPDEST PUSH2 0x15AF DUP2 PUSH2 0x1865 JUMP JUMPDEST DUP3 MSTORE POP POP JUMP JUMPDEST PUSH1 0x0 PUSH2 0x15C1 DUP3 DUP5 PUSH2 0x150C JUMP JUMPDEST SWAP2 POP DUP2 SWAP1 POP SWAP3 SWAP2 POP POP JUMP JUMPDEST PUSH1 0x0 PUSH1 0x60 DUP3 ADD SWAP1 POP PUSH2 0x15E1 PUSH1 0x0 DUP4 ADD DUP7 PUSH2 0x1407 JUMP JUMPDEST PUSH2 0x15EE PUSH1 0x20 DUP4 ADD DUP6 PUSH2 0x1407 JUMP JUMPDEST PUSH2 0x15FB PUSH1 0x40 DUP4 ADD DUP5 PUSH2 0x15A6 JUMP JUMPDEST SWAP5 SWAP4 POP POP POP POP JUMP JUMPDEST PUSH1 0x0 PUSH1 0x60 DUP3 ADD SWAP1 POP PUSH2 0x1618 PUSH1 0x0 DUP4 ADD DUP7 PUSH2 0x1407 JUMP JUMPDEST DUP2 DUP2 SUB PUSH1 0x20 DUP4 ADD MSTORE PUSH2 0x162A DUP2 DUP6 PUSH2 0x1416 JUMP JUMPDEST SWAP1 POP PUSH2 0x1639 PUSH1 0x40 DUP4 ADD DUP5 PUSH2 0x1407 JUMP JUMPDEST SWAP5 SWAP4 POP POP POP POP JUMP JUMPDEST PUSH1 0x0 PUSH1 0x40 DUP3 ADD SWAP1 POP DUP2 DUP2 SUB PUSH1 0x0 DUP4 ADD MSTORE PUSH2 0x165B DUP2 DUP6 PUSH2 0x1416 JUMP JUMPDEST SWAP1 POP PUSH2 0x166A PUSH1 0x20 DUP4 ADD DUP5 PUSH2 0x1407 JUMP JUMPDEST SWAP4 SWAP3 POP POP POP JUMP JUMPDEST PUSH1 0x0 PUSH1 0x20 DUP3 ADD SWAP1 POP PUSH2 0x1686 PUSH1 0x0 DUP4 ADD DUP5 PUSH2 0x148B JUMP JUMPDEST SWAP3 SWAP2 POP POP JUMP JUMPDEST PUSH1 0x0 PUSH1 0x40 DUP3 ADD SWAP1 POP DUP2 DUP2 SUB PUSH1 0x0 DUP4 ADD MSTORE PUSH2 0x16A6 DUP2 DUP6 PUSH2 0x14D3 JUMP JUMPDEST SWAP1 POP PUSH2 0x16B5 PUSH1 0x20 DUP4 ADD DUP5 PUSH2 0x148B JUMP JUMPDEST SWAP4 SWAP3 POP POP POP JUMP JUMPDEST PUSH1 0x0 PUSH1 0x20 DUP3 ADD SWAP1 POP DUP2 DUP2 SUB PUSH1 0x0 DUP4 ADD MSTORE PUSH2 0x16D5 DUP2 PUSH2 0x153D JUMP JUMPDEST SWAP1 POP SWAP2 SWAP1 POP JUMP JUMPDEST PUSH1 0x0 PUSH1 0x20 DUP3 ADD SWAP1 POP DUP2 DUP2 SUB PUSH1 0x0 DUP4 ADD MSTORE PUSH2 0x16F5 DUP2 PUSH2 0x1560 JUMP JUMPDEST SWAP1 POP SWAP2 SWAP1 POP JUMP JUMPDEST PUSH1 0x0 PUSH1 0x20 DUP3 ADD SWAP1 POP DUP2 DUP2 SUB PUSH1 0x0 DUP4 ADD MSTORE PUSH2 0x1715 DUP2 PUSH2 0x1583 JUMP JUMPDEST SWAP1 POP SWAP2 SWAP1 POP JUMP JUMPDEST PUSH1 0x0 PUSH1 0x20 DUP3 ADD SWAP1 POP PUSH2 0x1731 PUSH1 0x0 DUP4 ADD DUP5 PUSH2 0x15A6 JUMP JUMPDEST SWAP3 SWAP2 POP POP JUMP JUMPDEST PUSH1 0x0 PUSH1 0x40 DUP3 ADD SWAP1 POP PUSH2 0x174C PUSH1 0x0 DUP4 ADD DUP6 PUSH2 0x15A6 JUMP JUMPDEST PUSH2 0x1759 PUSH1 0x20 DUP4 ADD DUP5 PUSH2 0x15A6 JUMP JUMPDEST SWAP4 SWAP3 POP POP POP JUMP JUMPDEST PUSH1 0x0 PUSH2 0x176A PUSH2 0x177B JUMP JUMPDEST SWAP1 POP PUSH2 0x1776 DUP3 DUP3 PUSH2 0x18E3 JUMP JUMPDEST SWAP2 SWAP1 POP JUMP JUMPDEST PUSH1 0x0 PUSH1 0x40 MLOAD SWAP1 POP SWAP1 JUMP JUMPDEST PUSH1 0x0 PUSH8 0xFFFFFFFFFFFFFFFF DUP3 GT ISZERO PUSH2 0x17A0 JUMPI PUSH2 0x179F PUSH2 0x1943 JUMP JUMPDEST JUMPDEST PUSH2 0x17A9 DUP3 PUSH2 0x1986 JUMP JUMPDEST SWAP1 POP PUSH1 0x20 DUP2 ADD SWAP1 POP SWAP2 SWAP1 POP JUMP JUMPDEST PUSH1 0x0 DUP2 SWAP1 POP PUSH1 0x20 DUP3 ADD SWAP1 POP SWAP2 SWAP1 POP JUMP JUMPDEST PUSH1 0x0 DUP2 MLOAD SWAP1 POP SWAP2 SWAP1 POP JUMP JUMPDEST PUSH1 0x0 DUP2 MLOAD SWAP1 POP SWAP2 SWAP1 POP JUMP JUMPDEST PUSH1 0x0 PUSH1 0x20 DUP3 ADD SWAP1 POP SWAP2 SWAP1 POP JUMP JUMPDEST PUSH1 0x0 DUP3 DUP3 MSTORE PUSH1 0x20 DUP3 ADD SWAP1 POP SWAP3 SWAP2 POP POP JUMP JUMPDEST PUSH1 0x0 DUP3 DUP3 MSTORE PUSH1 0x20 DUP3 ADD SWAP1 POP SWAP3 SWAP2 POP POP JUMP JUMPDEST PUSH1 0x0 DUP3 DUP3 MSTORE PUSH1 0x20 DUP3 ADD SWAP1 POP SWAP3 SWAP2 POP POP JUMP JUMPDEST PUSH1 0x0 DUP2 SWAP1 POP SWAP3 SWAP2 POP POP JUMP JUMPDEST PUSH1 0x0 PUSH2 0x1832 DUP3 PUSH2 0x1845 JUMP JUMPDEST SWAP1 POP SWAP2 SWAP1 POP JUMP JUMPDEST PUSH1 0x0 DUP2 ISZERO ISZERO SWAP1 POP SWAP2 SWAP1 POP JUMP JUMPDEST PUSH1 0x0 PUSH20 0xFFFFFFFFFFFFFFFFFFFFFFFFFFFFFFFFFFFFFFFF DUP3 AND SWAP1 POP SWAP2 SWAP1 POP JUMP JUMPDEST PUSH1 0x0 DUP2 SWAP1 POP SWAP2 SWAP1 POP JUMP JUMPDEST DUP3 DUP2 DUP4 CALLDATACOPY PUSH1 0x0 DUP4 DUP4 ADD MSTORE POP POP POP JUMP JUMPDEST PUSH1 0x0 JUMPDEST DUP4 DUP2 LT ISZERO PUSH2 0x189C JUMPI DUP1 DUP3 ADD MLOAD DUP2 DUP5 ADD MSTORE PUSH1 0x20 DUP2 ADD SWAP1 POP PUSH2 0x1881 JUMP JUMPDEST DUP4 DUP2 GT ISZERO PUSH2 0x18AB JUMPI PUSH1 0x0 DUP5 DUP5 ADD MSTORE JUMPDEST POP POP POP POP JUMP JUMPDEST PUSH1 0x0 PUSH1 0x2 DUP3 DIV SWAP1 POP PUSH1 0x1 DUP3 AND DUP1 PUSH2 0x18C9 JUMPI PUSH1 0x7F DUP3 AND SWAP2 POP JUMPDEST PUSH1 0x20 DUP3 LT DUP2 EQ ISZERO PUSH2 0x18DD JUMPI PUSH2 0x18DC PUSH2 0x1914 JUMP JUMPDEST JUMPDEST POP SWAP2 SWAP1 POP JUMP JUMPDEST PUSH2 0x18EC DUP3 PUSH2 0x1986 JUMP JUMPDEST DUP2 ADD DUP2 DUP2 LT PUSH8 0xFFFFFFFFFFFFFFFF DUP3 GT OR ISZERO PUSH2 0x190B JUMPI PUSH2 0x190A PUSH2 0x1943 JUMP JUMPDEST JUMPDEST DUP1 PUSH1 0x40 MSTORE POP POP POP JUMP JUMPDEST PUSH32 0x4E487B7100000000000000000000000000000000000000000000000000000000 PUSH1 0x0 MSTORE PUSH1 0x22 PUSH1 0x4 MSTORE PUSH1 0x24 PUSH1 0x0 REVERT JUMPDEST PUSH32 0x4E487B7100000000000000000000000000000000000000000000000000000000 PUSH1 0x0 MSTORE PUSH1 0x41 PUSH1 0x4 MSTORE PUSH1 0x24 PUSH1 0x0 REVERT JUMPDEST PUSH1 0x0 DUP1 REVERT JUMPDEST PUSH1 0x0 DUP1 REVERT JUMPDEST PUSH1 0x0 DUP1 REVERT JUMPDEST PUSH1 0x0 DUP1 REVERT JUMPDEST PUSH1 0x0 PUSH1 0x1F NOT PUSH1 0x1F DUP4 ADD AND SWAP1 POP SWAP2 SWAP1 POP JUMP JUMPDEST PUSH32 0x4661696C656420746F2070617373207468652072657669657700000000000000 PUSH1 0x0 DUP3 ADD MSTORE POP JUMP JUMPDEST PUSH32 0x546865206D65646963616C206461746120646F6573206E6F742062656C6F6E67 PUSH1 0x0 DUP3 ADD MSTORE PUSH32 0x20746F2074686520646F63746F72000000000000000000000000000000000000 PUSH1 0x20 DUP3 ADD MSTORE POP JUMP JUMPDEST PUSH32 0x70617469656E74206E6F20657869737400000000000000000000000000000000 PUSH1 0x0 DUP3 ADD MSTORE POP JUMP JUMPDEST PUSH2 0x1A41 DUP2 PUSH2 0x1827 JUMP JUMPDEST DUP2 EQ PUSH2 0x1A4C JUMPI PUSH1 0x0 DUP1 REVERT JUMPDEST POP JUMP JUMPDEST PUSH2 0x1A58 DUP2 PUSH2 0x1839 JUMP JUMPDEST DUP2 EQ PUSH2 0x1A63 JUMPI PUSH1 0x0 DUP1 REVERT JUMPDEST POP JUMP JUMPDEST PUSH2 0x1A6F DUP2 PUSH2 0x1865 JUMP JUMPDEST DUP2 EQ PUSH2 0x1A7A JUMPI PUSH1 0x0 DUP1 REVERT JUMPDEST POP JUMP INVALID LOG2 PUSH5 0x6970667358 0x22 SLT KECCAK256 SWAP8 CALLCODE 0xA8 PC 0xAB DUP4 0xDA PUSH1 0x1D CALLER 0xAE SWAP12 0xB6 ISZERO ISZERO 0xEC PUSH28 0x3E76200B969D30273B6867D83F896164736F6C634300080700330000 "
				},
				"gasEstimates": {
					"creation": {
						"codeDepositCost": "1367000",
						"executionCost": "1424",
						"totalCost": "1368424"
					},
					"external": {
						"_transfer2other(address,address,uint256)": "infinite",
						"examineTime()": "2452",
						"gainer_doctorsee(address)": "infinite",
						"gainer_isDoctor(address)": "3050",
						"gainer_setDoctor(address)": "49276",
						"gainer_whether(address,string,bool,uint256)": "infinite",
						"lastUpdateTime()": "2496",
						"seeMedicaldata(string)": "infinite",
						"setErc(address)": "24811",
						"user_AddMedicalInformation(string,address)": "infinite",
						"user_Adduser(address)": "49232",
						"user_IsUser(address)": "2961",
						"user_ViewMedicalRecords(address)": "infinite"
					}
				},
				"methodIdentifiers": {
					"_transfer2other(address,address,uint256)": "e70c5b1f",
					"examineTime()": "495c184e",
					"gainer_doctorsee(address)": "fece0fe8",
					"gainer_isDoctor(address)": "93172bf7",
					"gainer_setDoctor(address)": "5d268670",
					"gainer_whether(address,string,bool,uint256)": "ac5679d0",
					"lastUpdateTime()": "c8f33c91",
					"seeMedicaldata(string)": "600d9056",
					"setErc(address)": "79172b5b",
					"user_AddMedicalInformation(string,address)": "ab547346",
					"user_Adduser(address)": "1dd9ec67",
					"user_IsUser(address)": "d5f03d3c",
					"user_ViewMedicalRecords(address)": "fcc585c5"
				}
			},
			"userdoc": {
				"kind": "user",
				"methods": {},
				"version": 1
			}
		}
	}
}