{
	"test,sol.sol": {
		"Test": {
			"abi": [
				{
					"inputs": [
						{
							"internalType": "string",
							"name": "_name",
							"type": "string"
						},
						{
							"internalType": "string",
							"name": "_url",
							"type": "string"
						}
					],
					"name": "AddMedical",
					"outputs": [],
					"stateMutability": "nonpayable",
					"type": "function"
				},
				{
					"inputs": [
						{
							"internalType": "address",
							"name": "",
							"type": "address"
						},
						{
							"internalType": "uint256",
							"name": "",
							"type": "uint256"
						}
					],
					"name": "user_Medical_name",
					"outputs": [
						{
							"internalType": "string",
							"name": "",
							"type": "string"
						}
					],
					"stateMutability": "view",
					"type": "function"
				}
			],
			"devdoc": {
				"kind": "dev",
				"methods": {},
				"version": 1
			},
			"evm": {
				"assembly": "    /* \"test,sol.sol\":27:429  contract Test{\r... */\n  mstore(0x40, 0x80)\n  callvalue\n  dup1\n  iszero\n  tag_1\n  jumpi\n  0x00\n  dup1\n  revert\ntag_1:\n  pop\n  dataSize(sub_0)\n  dup1\n  dataOffset(sub_0)\n  0x00\n  codecopy\n  0x00\n  return\nstop\n\nsub_0: assembly {\n        /* \"test,sol.sol\":27:429  contract Test{\r... */\n      mstore(0x40, 0x80)\n      callvalue\n      dup1\n      iszero\n      tag_1\n      jumpi\n      0x00\n      dup1\n      revert\n    tag_1:\n      pop\n      jumpi(tag_2, lt(calldatasize, 0x04))\n      shr(0xe0, calldataload(0x00))\n      dup1\n      0x5cf9a90a\n      eq\n      tag_3\n      jumpi\n      dup1\n      0xed8b0231\n      eq\n      tag_4\n      jumpi\n    tag_2:\n      0x00\n      dup1\n      revert\n        /* \"test,sol.sol\":170:223  mapping(address => string[]) public user_Medical_name */\n    tag_3:\n      tag_5\n      0x04\n      dup1\n      calldatasize\n      sub\n      dup2\n      add\n      swap1\n      tag_6\n      swap2\n      swap1\n      tag_7\n      jump\t// in\n    tag_6:\n      tag_8\n      jump\t// in\n    tag_5:\n      mload(0x40)\n      tag_9\n      swap2\n      swap1\n      tag_10\n      jump\t// in\n    tag_9:\n      mload(0x40)\n      dup1\n      swap2\n      sub\n      swap1\n      return\n        /* \"test,sol.sol\":232:416  function AddMedical (string memory _name , string memory _url) public {\r... */\n    tag_4:\n      tag_11\n      0x04\n      dup1\n      calldatasize\n      sub\n      dup2\n      add\n      swap1\n      tag_12\n      swap2\n      swap1\n      tag_13\n      jump\t// in\n    tag_12:\n      tag_14\n      jump\t// in\n    tag_11:\n      stop\n        /* \"test,sol.sol\":170:223  mapping(address => string[]) public user_Medical_name */\n    tag_8:\n      mstore(0x20, 0x01)\n      dup2\n      0x00\n      mstore\n      keccak256(0x00, 0x40)\n      dup2\n      dup2\n      sload\n      dup2\n      lt\n      tag_15\n      jumpi\n      0x00\n      dup1\n      revert\n    tag_15:\n      swap1\n      0x00\n      mstore\n      keccak256(0x00, 0x20)\n      add\n      0x00\n      swap2\n      pop\n      swap2\n      pop\n      pop\n      dup1\n      sload\n      tag_17\n      swap1\n      tag_18\n      jump\t// in\n    tag_17:\n      dup1\n      0x1f\n      add\n      0x20\n      dup1\n      swap2\n      div\n      mul\n      0x20\n      add\n      mload(0x40)\n      swap1\n      dup2\n      add\n      0x40\n      mstore\n      dup1\n      swap3\n      swap2\n      swap1\n      dup2\n      dup2\n      mstore\n      0x20\n      add\n      dup3\n      dup1\n      sload\n      tag_19\n      swap1\n      tag_18\n      jump\t// in\n    tag_19:\n      dup1\n      iszero\n      tag_20\n      jumpi\n      dup1\n      0x1f\n      lt\n      tag_21\n      jumpi\n      0x0100\n      dup1\n      dup4\n      sload\n      div\n      mul\n      dup4\n      mstore\n      swap2\n      0x20\n      add\n      swap2\n      jump(tag_20)\n    tag_21:\n      dup3\n      add\n      swap2\n      swap1\n      0x00\n      mstore\n      keccak256(0x00, 0x20)\n      swap1\n    tag_22:\n      dup2\n      sload\n      dup2\n      mstore\n      swap1\n      0x01\n      add\n      swap1\n      0x20\n      add\n      dup1\n      dup4\n      gt\n      tag_22\n      jumpi\n      dup3\n      swap1\n      sub\n      0x1f\n      and\n      dup3\n      add\n      swap2\n    tag_20:\n      pop\n      pop\n      pop\n      pop\n      pop\n      dup2\n      jump\t// out\n        /* \"test,sol.sol\":232:416  function AddMedical (string memory _name , string memory _url) public {\r... */\n    tag_14:\n        /* \"test,sol.sol\":352:356  _url */\n      dup1\n        /* \"test,sol.sol\":313:325  User_Medical */\n      0x00\n        /* \"test,sol.sol\":313:337  User_Medical[msg.sender] */\n      dup1\n        /* \"test,sol.sol\":326:336  msg.sender */\n      caller\n        /* \"test,sol.sol\":313:337  User_Medical[msg.sender] */\n      0xffffffffffffffffffffffffffffffffffffffff\n      and\n      0xffffffffffffffffffffffffffffffffffffffff\n      and\n      dup2\n      mstore\n      0x20\n      add\n      swap1\n      dup2\n      mstore\n      0x20\n      add\n      0x00\n      keccak256\n        /* \"test,sol.sol\":313:342  User_Medical[msg.sender].File */\n      0x00\n      add\n        /* \"test,sol.sol\":343:348  _name */\n      dup4\n        /* \"test,sol.sol\":313:349  User_Medical[msg.sender].File[_name] */\n      mload(0x40)\n      tag_24\n      swap2\n      swap1\n      tag_25\n      jump\t// in\n    tag_24:\n      swap1\n      dup2\n      mstore\n      0x20\n      add\n      mload(0x40)\n      dup1\n      swap2\n      sub\n      swap1\n      keccak256\n        /* \"test,sol.sol\":313:356  User_Medical[msg.sender].File[_name] = _url */\n      swap1\n      dup1\n      mload\n      swap1\n      0x20\n      add\n      swap1\n      tag_26\n      swap3\n      swap2\n      swap1\n      tag_27\n      jump\t// in\n    tag_26:\n      pop\n        /* \"test,sol.sol\":367:384  user_Medical_name */\n      0x01\n        /* \"test,sol.sol\":367:396  user_Medical_name[msg.sender] */\n      0x00\n        /* \"test,sol.sol\":385:395  msg.sender */\n      caller\n        /* \"test,sol.sol\":367:396  user_Medical_name[msg.sender] */\n      0xffffffffffffffffffffffffffffffffffffffff\n      and\n      0xffffffffffffffffffffffffffffffffffffffff\n      and\n      dup2\n      mstore\n      0x20\n      add\n      swap1\n      dup2\n      mstore\n      0x20\n      add\n      0x00\n      keccak256\n        /* \"test,sol.sol\":402:407  _name */\n      dup3\n        /* \"test,sol.sol\":367:408  user_Medical_name[msg.sender].push(_name) */\n      swap1\n      dup1\n      0x01\n      dup2\n      sload\n      add\n      dup1\n      dup3\n      sstore\n      dup1\n      swap2\n      pop\n      pop\n      0x01\n      swap1\n      sub\n      swap1\n      0x00\n      mstore\n      keccak256(0x00, 0x20)\n      add\n      0x00\n      swap1\n      swap2\n      swap1\n      swap2\n      swap1\n      swap2\n      pop\n      swap1\n      dup1\n      mload\n      swap1\n      0x20\n      add\n      swap1\n      tag_29\n      swap3\n      swap2\n      swap1\n      tag_27\n      jump\t// in\n    tag_29:\n      pop\n        /* \"test,sol.sol\":232:416  function AddMedical (string memory _name , string memory _url) public {\r... */\n      pop\n      pop\n      jump\t// out\n    tag_27:\n      dup3\n      dup1\n      sload\n      tag_30\n      swap1\n      tag_18\n      jump\t// in\n    tag_30:\n      swap1\n      0x00\n      mstore\n      keccak256(0x00, 0x20)\n      swap1\n      0x1f\n      add\n      0x20\n      swap1\n      div\n      dup2\n      add\n      swap3\n      dup3\n      tag_32\n      jumpi\n      0x00\n      dup6\n      sstore\n      jump(tag_31)\n    tag_32:\n      dup3\n      0x1f\n      lt\n      tag_33\n      jumpi\n      dup1\n      mload\n      not(0xff)\n      and\n      dup4\n      dup1\n      add\n      or\n      dup6\n      sstore\n      jump(tag_31)\n    tag_33:\n      dup3\n      dup1\n      add\n      0x01\n      add\n      dup6\n      sstore\n      dup3\n      iszero\n      tag_31\n      jumpi\n      swap2\n      dup3\n      add\n    tag_34:\n      dup3\n      dup2\n      gt\n      iszero\n      tag_35\n      jumpi\n      dup3\n      mload\n      dup3\n      sstore\n      swap2\n      0x20\n      add\n      swap2\n      swap1\n      0x01\n      add\n      swap1\n      jump(tag_34)\n    tag_35:\n    tag_31:\n      pop\n      swap1\n      pop\n      tag_36\n      swap2\n      swap1\n      tag_37\n      jump\t// in\n    tag_36:\n      pop\n      swap1\n      jump\t// out\n    tag_37:\n    tag_38:\n      dup1\n      dup3\n      gt\n      iszero\n      tag_39\n      jumpi\n      0x00\n      dup2\n      0x00\n      swap1\n      sstore\n      pop\n      0x01\n      add\n      jump(tag_38)\n    tag_39:\n      pop\n      swap1\n      jump\t// out\n        /* \"#utility.yul\":7:351   */\n    tag_41:\n      0x00\n        /* \"#utility.yul\":110:175   */\n      tag_43\n        /* \"#utility.yul\":125:174   */\n      tag_44\n        /* \"#utility.yul\":167:173   */\n      dup5\n        /* \"#utility.yul\":125:174   */\n      tag_45\n      jump\t// in\n    tag_44:\n        /* \"#utility.yul\":110:175   */\n      tag_46\n      jump\t// in\n    tag_43:\n        /* \"#utility.yul\":101:175   */\n      swap1\n      pop\n        /* \"#utility.yul\":198:204   */\n      dup3\n        /* \"#utility.yul\":191:196   */\n      dup2\n        /* \"#utility.yul\":184:205   */\n      mstore\n        /* \"#utility.yul\":236:240   */\n      0x20\n        /* \"#utility.yul\":229:234   */\n      dup2\n        /* \"#utility.yul\":225:241   */\n      add\n        /* \"#utility.yul\":274:277   */\n      dup5\n        /* \"#utility.yul\":265:271   */\n      dup5\n        /* \"#utility.yul\":260:263   */\n      dup5\n        /* \"#utility.yul\":256:272   */\n      add\n        /* \"#utility.yul\":253:278   */\n      gt\n        /* \"#utility.yul\":250:252   */\n      iszero\n      tag_47\n      jumpi\n        /* \"#utility.yul\":291:292   */\n      0x00\n        /* \"#utility.yul\":288:289   */\n      dup1\n        /* \"#utility.yul\":281:293   */\n      revert\n        /* \"#utility.yul\":250:252   */\n    tag_47:\n        /* \"#utility.yul\":304:345   */\n      tag_48\n        /* \"#utility.yul\":338:344   */\n      dup5\n        /* \"#utility.yul\":333:336   */\n      dup3\n        /* \"#utility.yul\":328:331   */\n      dup6\n        /* \"#utility.yul\":304:345   */\n      tag_49\n      jump\t// in\n    tag_48:\n        /* \"#utility.yul\":91:351   */\n      pop\n      swap4\n      swap3\n      pop\n      pop\n      pop\n      jump\t// out\n        /* \"#utility.yul\":357:496   */\n    tag_50:\n      0x00\n        /* \"#utility.yul\":441:447   */\n      dup2\n        /* \"#utility.yul\":428:448   */\n      calldataload\n        /* \"#utility.yul\":419:448   */\n      swap1\n      pop\n        /* \"#utility.yul\":457:490   */\n      tag_52\n        /* \"#utility.yul\":484:489   */\n      dup2\n        /* \"#utility.yul\":457:490   */\n      tag_53\n      jump\t// in\n    tag_52:\n        /* \"#utility.yul\":409:496   */\n      swap3\n      swap2\n      pop\n      pop\n      jump\t// out\n        /* \"#utility.yul\":516:789   */\n    tag_54:\n      0x00\n        /* \"#utility.yul\":621:624   */\n      dup3\n        /* \"#utility.yul\":614:618   */\n      0x1f\n        /* \"#utility.yul\":606:612   */\n      dup4\n        /* \"#utility.yul\":602:619   */\n      add\n        /* \"#utility.yul\":598:625   */\n      slt\n        /* \"#utility.yul\":588:590   */\n      tag_56\n      jumpi\n        /* \"#utility.yul\":639:640   */\n      0x00\n        /* \"#utility.yul\":636:637   */\n      dup1\n        /* \"#utility.yul\":629:641   */\n      revert\n        /* \"#utility.yul\":588:590   */\n    tag_56:\n        /* \"#utility.yul\":679:685   */\n      dup2\n        /* \"#utility.yul\":666:686   */\n      calldataload\n        /* \"#utility.yul\":704:783   */\n      tag_57\n        /* \"#utility.yul\":779:782   */\n      dup5\n        /* \"#utility.yul\":771:777   */\n      dup3\n        /* \"#utility.yul\":764:768   */\n      0x20\n        /* \"#utility.yul\":756:762   */\n      dup7\n        /* \"#utility.yul\":752:769   */\n      add\n        /* \"#utility.yul\":704:783   */\n      tag_41\n      jump\t// in\n    tag_57:\n        /* \"#utility.yul\":695:783   */\n      swap2\n      pop\n        /* \"#utility.yul\":578:789   */\n      pop\n      swap3\n      swap2\n      pop\n      pop\n      jump\t// out\n        /* \"#utility.yul\":795:934   */\n    tag_58:\n      0x00\n        /* \"#utility.yul\":879:885   */\n      dup2\n        /* \"#utility.yul\":866:886   */\n      calldataload\n        /* \"#utility.yul\":857:886   */\n      swap1\n      pop\n        /* \"#utility.yul\":895:928   */\n      tag_60\n        /* \"#utility.yul\":922:927   */\n      dup2\n        /* \"#utility.yul\":895:928   */\n      tag_61\n      jump\t// in\n    tag_60:\n        /* \"#utility.yul\":847:934   */\n      swap3\n      swap2\n      pop\n      pop\n      jump\t// out\n        /* \"#utility.yul\":940:1347   */\n    tag_7:\n      0x00\n      dup1\n        /* \"#utility.yul\":1065:1067   */\n      0x40\n        /* \"#utility.yul\":1053:1062   */\n      dup4\n        /* \"#utility.yul\":1044:1051   */\n      dup6\n        /* \"#utility.yul\":1040:1063   */\n      sub\n        /* \"#utility.yul\":1036:1068   */\n      slt\n        /* \"#utility.yul\":1033:1035   */\n      iszero\n      tag_63\n      jumpi\n        /* \"#utility.yul\":1081:1082   */\n      0x00\n        /* \"#utility.yul\":1078:1079   */\n      dup1\n        /* \"#utility.yul\":1071:1083   */\n      revert\n        /* \"#utility.yul\":1033:1035   */\n    tag_63:\n        /* \"#utility.yul\":1124:1125   */\n      0x00\n        /* \"#utility.yul\":1149:1202   */\n      tag_64\n        /* \"#utility.yul\":1194:1201   */\n      dup6\n        /* \"#utility.yul\":1185:1191   */\n      dup3\n        /* \"#utility.yul\":1174:1183   */\n      dup7\n        /* \"#utility.yul\":1170:1192   */\n      add\n        /* \"#utility.yul\":1149:1202   */\n      tag_50\n      jump\t// in\n    tag_64:\n        /* \"#utility.yul\":1139:1202   */\n      swap3\n      pop\n        /* \"#utility.yul\":1095:1212   */\n      pop\n        /* \"#utility.yul\":1251:1253   */\n      0x20\n        /* \"#utility.yul\":1277:1330   */\n      tag_65\n        /* \"#utility.yul\":1322:1329   */\n      dup6\n        /* \"#utility.yul\":1313:1319   */\n      dup3\n        /* \"#utility.yul\":1302:1311   */\n      dup7\n        /* \"#utility.yul\":1298:1320   */\n      add\n        /* \"#utility.yul\":1277:1330   */\n      tag_58\n      jump\t// in\n    tag_65:\n        /* \"#utility.yul\":1267:1330   */\n      swap2\n      pop\n        /* \"#utility.yul\":1222:1340   */\n      pop\n        /* \"#utility.yul\":1023:1347   */\n      swap3\n      pop\n      swap3\n      swap1\n      pop\n      jump\t// out\n        /* \"#utility.yul\":1353:1986   */\n    tag_13:\n      0x00\n      dup1\n        /* \"#utility.yul\":1498:1500   */\n      0x40\n        /* \"#utility.yul\":1486:1495   */\n      dup4\n        /* \"#utility.yul\":1477:1484   */\n      dup6\n        /* \"#utility.yul\":1473:1496   */\n      sub\n        /* \"#utility.yul\":1469:1501   */\n      slt\n        /* \"#utility.yul\":1466:1468   */\n      iszero\n      tag_67\n      jumpi\n        /* \"#utility.yul\":1514:1515   */\n      0x00\n        /* \"#utility.yul\":1511:1512   */\n      dup1\n        /* \"#utility.yul\":1504:1516   */\n      revert\n        /* \"#utility.yul\":1466:1468   */\n    tag_67:\n        /* \"#utility.yul\":1585:1586   */\n      0x00\n        /* \"#utility.yul\":1574:1583   */\n      dup4\n        /* \"#utility.yul\":1570:1587   */\n      add\n        /* \"#utility.yul\":1557:1588   */\n      calldataload\n        /* \"#utility.yul\":1615:1633   */\n      0xffffffffffffffff\n        /* \"#utility.yul\":1607:1613   */\n      dup2\n        /* \"#utility.yul\":1604:1634   */\n      gt\n        /* \"#utility.yul\":1601:1603   */\n      iszero\n      tag_68\n      jumpi\n        /* \"#utility.yul\":1647:1648   */\n      0x00\n        /* \"#utility.yul\":1644:1645   */\n      dup1\n        /* \"#utility.yul\":1637:1649   */\n      revert\n        /* \"#utility.yul\":1601:1603   */\n    tag_68:\n        /* \"#utility.yul\":1675:1738   */\n      tag_69\n        /* \"#utility.yul\":1730:1737   */\n      dup6\n        /* \"#utility.yul\":1721:1727   */\n      dup3\n        /* \"#utility.yul\":1710:1719   */\n      dup7\n        /* \"#utility.yul\":1706:1728   */\n      add\n        /* \"#utility.yul\":1675:1738   */\n      tag_54\n      jump\t// in\n    tag_69:\n        /* \"#utility.yul\":1665:1738   */\n      swap3\n      pop\n        /* \"#utility.yul\":1528:1748   */\n      pop\n        /* \"#utility.yul\":1815:1817   */\n      0x20\n        /* \"#utility.yul\":1804:1813   */\n      dup4\n        /* \"#utility.yul\":1800:1818   */\n      add\n        /* \"#utility.yul\":1787:1819   */\n      calldataload\n        /* \"#utility.yul\":1846:1864   */\n      0xffffffffffffffff\n        /* \"#utility.yul\":1838:1844   */\n      dup2\n        /* \"#utility.yul\":1835:1865   */\n      gt\n        /* \"#utility.yul\":1832:1834   */\n      iszero\n      tag_70\n      jumpi\n        /* \"#utility.yul\":1878:1879   */\n      0x00\n        /* \"#utility.yul\":1875:1876   */\n      dup1\n        /* \"#utility.yul\":1868:1880   */\n      revert\n        /* \"#utility.yul\":1832:1834   */\n    tag_70:\n        /* \"#utility.yul\":1906:1969   */\n      tag_71\n        /* \"#utility.yul\":1961:1968   */\n      dup6\n        /* \"#utility.yul\":1952:1958   */\n      dup3\n        /* \"#utility.yul\":1941:1950   */\n      dup7\n        /* \"#utility.yul\":1937:1959   */\n      add\n        /* \"#utility.yul\":1906:1969   */\n      tag_54\n      jump\t// in\n    tag_71:\n        /* \"#utility.yul\":1896:1969   */\n      swap2\n      pop\n        /* \"#utility.yul\":1758:1979   */\n      pop\n        /* \"#utility.yul\":1456:1986   */\n      swap3\n      pop\n      swap3\n      swap1\n      pop\n      jump\t// out\n        /* \"#utility.yul\":1992:2356   */\n    tag_72:\n      0x00\n        /* \"#utility.yul\":2108:2147   */\n      tag_74\n        /* \"#utility.yul\":2141:2146   */\n      dup3\n        /* \"#utility.yul\":2108:2147   */\n      tag_75\n      jump\t// in\n    tag_74:\n        /* \"#utility.yul\":2163:2234   */\n      tag_76\n        /* \"#utility.yul\":2227:2233   */\n      dup2\n        /* \"#utility.yul\":2222:2225   */\n      dup6\n        /* \"#utility.yul\":2163:2234   */\n      tag_77\n      jump\t// in\n    tag_76:\n        /* \"#utility.yul\":2156:2234   */\n      swap4\n      pop\n        /* \"#utility.yul\":2243:2295   */\n      tag_78\n        /* \"#utility.yul\":2288:2294   */\n      dup2\n        /* \"#utility.yul\":2283:2286   */\n      dup6\n        /* \"#utility.yul\":2276:2280   */\n      0x20\n        /* \"#utility.yul\":2269:2274   */\n      dup7\n        /* \"#utility.yul\":2265:2281   */\n      add\n        /* \"#utility.yul\":2243:2295   */\n      tag_79\n      jump\t// in\n    tag_78:\n        /* \"#utility.yul\":2320:2349   */\n      tag_80\n        /* \"#utility.yul\":2342:2348   */\n      dup2\n        /* \"#utility.yul\":2320:2349   */\n      tag_81\n      jump\t// in\n    tag_80:\n        /* \"#utility.yul\":2315:2318   */\n      dup5\n        /* \"#utility.yul\":2311:2350   */\n      add\n        /* \"#utility.yul\":2304:2350   */\n      swap2\n      pop\n        /* \"#utility.yul\":2084:2356   */\n      pop\n      swap3\n      swap2\n      pop\n      pop\n      jump\t// out\n        /* \"#utility.yul\":2362:2739   */\n    tag_82:\n      0x00\n        /* \"#utility.yul\":2496:2535   */\n      tag_84\n        /* \"#utility.yul\":2529:2534   */\n      dup3\n        /* \"#utility.yul\":2496:2535   */\n      tag_75\n      jump\t// in\n    tag_84:\n        /* \"#utility.yul\":2551:2640   */\n      tag_85\n        /* \"#utility.yul\":2633:2639   */\n      dup2\n        /* \"#utility.yul\":2628:2631   */\n      dup6\n        /* \"#utility.yul\":2551:2640   */\n      tag_86\n      jump\t// in\n    tag_85:\n        /* \"#utility.yul\":2544:2640   */\n      swap4\n      pop\n        /* \"#utility.yul\":2649:2701   */\n      tag_87\n        /* \"#utility.yul\":2694:2700   */\n      dup2\n        /* \"#utility.yul\":2689:2692   */\n      dup6\n        /* \"#utility.yul\":2682:2686   */\n      0x20\n        /* \"#utility.yul\":2675:2680   */\n      dup7\n        /* \"#utility.yul\":2671:2687   */\n      add\n        /* \"#utility.yul\":2649:2701   */\n      tag_79\n      jump\t// in\n    tag_87:\n        /* \"#utility.yul\":2726:2732   */\n      dup1\n        /* \"#utility.yul\":2721:2724   */\n      dup5\n        /* \"#utility.yul\":2717:2733   */\n      add\n        /* \"#utility.yul\":2710:2733   */\n      swap2\n      pop\n        /* \"#utility.yul\":2472:2739   */\n      pop\n      swap3\n      swap2\n      pop\n      pop\n      jump\t// out\n        /* \"#utility.yul\":2745:3020   */\n    tag_25:\n      0x00\n        /* \"#utility.yul\":2899:2994   */\n      tag_89\n        /* \"#utility.yul\":2990:2993   */\n      dup3\n        /* \"#utility.yul\":2981:2987   */\n      dup5\n        /* \"#utility.yul\":2899:2994   */\n      tag_82\n      jump\t// in\n    tag_89:\n        /* \"#utility.yul\":2892:2994   */\n      swap2\n      pop\n        /* \"#utility.yul\":3011:3014   */\n      dup2\n        /* \"#utility.yul\":3004:3014   */\n      swap1\n      pop\n        /* \"#utility.yul\":2881:3020   */\n      swap3\n      swap2\n      pop\n      pop\n      jump\t// out\n        /* \"#utility.yul\":3026:3339   */\n    tag_10:\n      0x00\n        /* \"#utility.yul\":3177:3179   */\n      0x20\n        /* \"#utility.yul\":3166:3175   */\n      dup3\n        /* \"#utility.yul\":3162:3180   */\n      add\n        /* \"#utility.yul\":3154:3180   */\n      swap1\n      pop\n        /* \"#utility.yul\":3226:3235   */\n      dup2\n        /* \"#utility.yul\":3220:3224   */\n      dup2\n        /* \"#utility.yul\":3216:3236   */\n      sub\n        /* \"#utility.yul\":3212:3213   */\n      0x00\n        /* \"#utility.yul\":3201:3210   */\n      dup4\n        /* \"#utility.yul\":3197:3214   */\n      add\n        /* \"#utility.yul\":3190:3237   */\n      mstore\n        /* \"#utility.yul\":3254:3332   */\n      tag_91\n        /* \"#utility.yul\":3327:3331   */\n      dup2\n        /* \"#utility.yul\":3318:3324   */\n      dup5\n        /* \"#utility.yul\":3254:3332   */\n      tag_72\n      jump\t// in\n    tag_91:\n        /* \"#utility.yul\":3246:3332   */\n      swap1\n      pop\n        /* \"#utility.yul\":3144:3339   */\n      swap3\n      swap2\n      pop\n      pop\n      jump\t// out\n        /* \"#utility.yul\":3345:3628   */\n    tag_46:\n      0x00\n        /* \"#utility.yul\":3411:3413   */\n      0x40\n        /* \"#utility.yul\":3405:3414   */\n      mload\n        /* \"#utility.yul\":3395:3414   */\n      swap1\n      pop\n        /* \"#utility.yul\":3453:3457   */\n      dup2\n        /* \"#utility.yul\":3445:3451   */\n      dup2\n        /* \"#utility.yul\":3441:3458   */\n      add\n        /* \"#utility.yul\":3560:3566   */\n      dup2\n        /* \"#utility.yul\":3548:3558   */\n      dup2\n        /* \"#utility.yul\":3545:3567   */\n      lt\n        /* \"#utility.yul\":3524:3542   */\n      0xffffffffffffffff\n        /* \"#utility.yul\":3512:3522   */\n      dup3\n        /* \"#utility.yul\":3509:3543   */\n      gt\n        /* \"#utility.yul\":3506:3568   */\n      or\n        /* \"#utility.yul\":3503:3505   */\n      iszero\n      tag_93\n      jumpi\n        /* \"#utility.yul\":3571:3589   */\n      tag_94\n      tag_95\n      jump\t// in\n    tag_94:\n        /* \"#utility.yul\":3503:3505   */\n    tag_93:\n        /* \"#utility.yul\":3611:3621   */\n      dup1\n        /* \"#utility.yul\":3607:3609   */\n      0x40\n        /* \"#utility.yul\":3600:3622   */\n      mstore\n        /* \"#utility.yul\":3385:3628   */\n      pop\n      swap2\n      swap1\n      pop\n      jump\t// out\n        /* \"#utility.yul\":3634:3966   */\n    tag_45:\n      0x00\n        /* \"#utility.yul\":3786:3804   */\n      0xffffffffffffffff\n        /* \"#utility.yul\":3778:3784   */\n      dup3\n        /* \"#utility.yul\":3775:3805   */\n      gt\n        /* \"#utility.yul\":3772:3774   */\n      iszero\n      tag_97\n      jumpi\n        /* \"#utility.yul\":3808:3826   */\n      tag_98\n      tag_95\n      jump\t// in\n    tag_98:\n        /* \"#utility.yul\":3772:3774   */\n    tag_97:\n        /* \"#utility.yul\":3893:3897   */\n      0x1f\n        /* \"#utility.yul\":3889:3898   */\n      not\n        /* \"#utility.yul\":3882:3886   */\n      0x1f\n        /* \"#utility.yul\":3874:3880   */\n      dup4\n        /* \"#utility.yul\":3870:3887   */\n      add\n        /* \"#utility.yul\":3866:3899   */\n      and\n        /* \"#utility.yul\":3858:3899   */\n      swap1\n      pop\n        /* \"#utility.yul\":3954:3958   */\n      0x20\n        /* \"#utility.yul\":3948:3952   */\n      dup2\n        /* \"#utility.yul\":3944:3959   */\n      add\n        /* \"#utility.yul\":3936:3959   */\n      swap1\n      pop\n        /* \"#utility.yul\":3701:3966   */\n      swap2\n      swap1\n      pop\n      jump\t// out\n        /* \"#utility.yul\":3972:4071   */\n    tag_75:\n      0x00\n        /* \"#utility.yul\":4058:4063   */\n      dup2\n        /* \"#utility.yul\":4052:4064   */\n      mload\n        /* \"#utility.yul\":4042:4064   */\n      swap1\n      pop\n        /* \"#utility.yul\":4031:4071   */\n      swap2\n      swap1\n      pop\n      jump\t// out\n        /* \"#utility.yul\":4077:4246   */\n    tag_77:\n      0x00\n        /* \"#utility.yul\":4195:4201   */\n      dup3\n        /* \"#utility.yul\":4190:4193   */\n      dup3\n        /* \"#utility.yul\":4183:4202   */\n      mstore\n        /* \"#utility.yul\":4235:4239   */\n      0x20\n        /* \"#utility.yul\":4230:4233   */\n      dup3\n        /* \"#utility.yul\":4226:4240   */\n      add\n        /* \"#utility.yul\":4211:4240   */\n      swap1\n      pop\n        /* \"#utility.yul\":4173:4246   */\n      swap3\n      swap2\n      pop\n      pop\n      jump\t// out\n        /* \"#utility.yul\":4252:4400   */\n    tag_86:\n      0x00\n        /* \"#utility.yul\":4391:4394   */\n      dup2\n        /* \"#utility.yul\":4376:4394   */\n      swap1\n      pop\n        /* \"#utility.yul\":4366:4400   */\n      swap3\n      swap2\n      pop\n      pop\n      jump\t// out\n        /* \"#utility.yul\":4406:4502   */\n    tag_102:\n      0x00\n        /* \"#utility.yul\":4472:4496   */\n      tag_104\n        /* \"#utility.yul\":4490:4495   */\n      dup3\n        /* \"#utility.yul\":4472:4496   */\n      tag_105\n      jump\t// in\n    tag_104:\n        /* \"#utility.yul\":4461:4496   */\n      swap1\n      pop\n        /* \"#utility.yul\":4451:4502   */\n      swap2\n      swap1\n      pop\n      jump\t// out\n        /* \"#utility.yul\":4508:4634   */\n    tag_105:\n      0x00\n        /* \"#utility.yul\":4585:4627   */\n      0xffffffffffffffffffffffffffffffffffffffff\n        /* \"#utility.yul\":4578:4583   */\n      dup3\n        /* \"#utility.yul\":4574:4628   */\n      and\n        /* \"#utility.yul\":4563:4628   */\n      swap1\n      pop\n        /* \"#utility.yul\":4553:4634   */\n      swap2\n      swap1\n      pop\n      jump\t// out\n        /* \"#utility.yul\":4640:4717   */\n    tag_107:\n      0x00\n        /* \"#utility.yul\":4706:4711   */\n      dup2\n        /* \"#utility.yul\":4695:4711   */\n      swap1\n      pop\n        /* \"#utility.yul\":4685:4717   */\n      swap2\n      swap1\n      pop\n      jump\t// out\n        /* \"#utility.yul\":4723:4877   */\n    tag_49:\n        /* \"#utility.yul\":4807:4813   */\n      dup3\n        /* \"#utility.yul\":4802:4805   */\n      dup2\n        /* \"#utility.yul\":4797:4800   */\n      dup4\n        /* \"#utility.yul\":4784:4814   */\n      calldatacopy\n        /* \"#utility.yul\":4869:4870   */\n      0x00\n        /* \"#utility.yul\":4860:4866   */\n      dup4\n        /* \"#utility.yul\":4855:4858   */\n      dup4\n        /* \"#utility.yul\":4851:4867   */\n      add\n        /* \"#utility.yul\":4844:4871   */\n      mstore\n        /* \"#utility.yul\":4774:4877   */\n      pop\n      pop\n      pop\n      jump\t// out\n        /* \"#utility.yul\":4883:5190   */\n    tag_79:\n        /* \"#utility.yul\":4951:4952   */\n      0x00\n        /* \"#utility.yul\":4961:5074   */\n    tag_111:\n        /* \"#utility.yul\":4975:4981   */\n      dup4\n        /* \"#utility.yul\":4972:4973   */\n      dup2\n        /* \"#utility.yul\":4969:4982   */\n      lt\n        /* \"#utility.yul\":4961:5074   */\n      iszero\n      tag_113\n      jumpi\n        /* \"#utility.yul\":5060:5061   */\n      dup1\n        /* \"#utility.yul\":5055:5058   */\n      dup3\n        /* \"#utility.yul\":5051:5062   */\n      add\n        /* \"#utility.yul\":5045:5063   */\n      mload\n        /* \"#utility.yul\":5041:5042   */\n      dup2\n        /* \"#utility.yul\":5036:5039   */\n      dup5\n        /* \"#utility.yul\":5032:5043   */\n      add\n        /* \"#utility.yul\":5025:5064   */\n      mstore\n        /* \"#utility.yul\":4997:4999   */\n      0x20\n        /* \"#utility.yul\":4994:4995   */\n      dup2\n        /* \"#utility.yul\":4990:5000   */\n      add\n        /* \"#utility.yul\":4985:5000   */\n      swap1\n      pop\n        /* \"#utility.yul\":4961:5074   */\n      jump(tag_111)\n    tag_113:\n        /* \"#utility.yul\":5092:5098   */\n      dup4\n        /* \"#utility.yul\":5089:5090   */\n      dup2\n        /* \"#utility.yul\":5086:5099   */\n      gt\n        /* \"#utility.yul\":5083:5085   */\n      iszero\n      tag_114\n      jumpi\n        /* \"#utility.yul\":5172:5173   */\n      0x00\n        /* \"#utility.yul\":5163:5169   */\n      dup5\n        /* \"#utility.yul\":5158:5161   */\n      dup5\n        /* \"#utility.yul\":5154:5170   */\n      add\n        /* \"#utility.yul\":5147:5174   */\n      mstore\n        /* \"#utility.yul\":5083:5085   */\n    tag_114:\n        /* \"#utility.yul\":4932:5190   */\n      pop\n      pop\n      pop\n      pop\n      jump\t// out\n        /* \"#utility.yul\":5196:5516   */\n    tag_18:\n      0x00\n        /* \"#utility.yul\":5277:5278   */\n      0x02\n        /* \"#utility.yul\":5271:5275   */\n      dup3\n        /* \"#utility.yul\":5267:5279   */\n      div\n        /* \"#utility.yul\":5257:5279   */\n      swap1\n      pop\n        /* \"#utility.yul\":5324:5325   */\n      0x01\n        /* \"#utility.yul\":5318:5322   */\n      dup3\n        /* \"#utility.yul\":5314:5326   */\n      and\n        /* \"#utility.yul\":5345:5363   */\n      dup1\n        /* \"#utility.yul\":5335:5337   */\n      tag_116\n      jumpi\n        /* \"#utility.yul\":5401:5405   */\n      0x7f\n        /* \"#utility.yul\":5393:5399   */\n      dup3\n        /* \"#utility.yul\":5389:5406   */\n      and\n        /* \"#utility.yul\":5379:5406   */\n      swap2\n      pop\n        /* \"#utility.yul\":5335:5337   */\n    tag_116:\n        /* \"#utility.yul\":5463:5465   */\n      0x20\n        /* \"#utility.yul\":5455:5461   */\n      dup3\n        /* \"#utility.yul\":5452:5466   */\n      lt\n        /* \"#utility.yul\":5432:5450   */\n      dup2\n        /* \"#utility.yul\":5429:5467   */\n      eq\n        /* \"#utility.yul\":5426:5428   */\n      iszero\n      tag_117\n      jumpi\n        /* \"#utility.yul\":5482:5500   */\n      tag_118\n      tag_119\n      jump\t// in\n    tag_118:\n        /* \"#utility.yul\":5426:5428   */\n    tag_117:\n        /* \"#utility.yul\":5247:5516   */\n      pop\n      swap2\n      swap1\n      pop\n      jump\t// out\n        /* \"#utility.yul\":5522:5702   */\n    tag_119:\n        /* \"#utility.yul\":5570:5647   */\n      0x4e487b7100000000000000000000000000000000000000000000000000000000\n        /* \"#utility.yul\":5567:5568   */\n      0x00\n        /* \"#utility.yul\":5560:5648   */\n      mstore\n        /* \"#utility.yul\":5667:5671   */\n      0x22\n        /* \"#utility.yul\":5664:5665   */\n      0x04\n        /* \"#utility.yul\":5657:5672   */\n      mstore\n        /* \"#utility.yul\":5691:5695   */\n      0x24\n        /* \"#utility.yul\":5688:5689   */\n      0x00\n        /* \"#utility.yul\":5681:5696   */\n      revert\n        /* \"#utility.yul\":5708:5888   */\n    tag_95:\n        /* \"#utility.yul\":5756:5833   */\n      0x4e487b7100000000000000000000000000000000000000000000000000000000\n        /* \"#utility.yul\":5753:5754   */\n      0x00\n        /* \"#utility.yul\":5746:5834   */\n      mstore\n        /* \"#utility.yul\":5853:5857   */\n      0x41\n        /* \"#utility.yul\":5850:5851   */\n      0x04\n        /* \"#utility.yul\":5843:5858   */\n      mstore\n        /* \"#utility.yul\":5877:5881   */\n      0x24\n        /* \"#utility.yul\":5874:5875   */\n      0x00\n        /* \"#utility.yul\":5867:5882   */\n      revert\n        /* \"#utility.yul\":5894:5996   */\n    tag_81:\n      0x00\n        /* \"#utility.yul\":5986:5988   */\n      0x1f\n        /* \"#utility.yul\":5982:5989   */\n      not\n        /* \"#utility.yul\":5977:5979   */\n      0x1f\n        /* \"#utility.yul\":5970:5975   */\n      dup4\n        /* \"#utility.yul\":5966:5980   */\n      add\n        /* \"#utility.yul\":5962:5990   */\n      and\n        /* \"#utility.yul\":5952:5990   */\n      swap1\n      pop\n        /* \"#utility.yul\":5942:5996   */\n      swap2\n      swap1\n      pop\n      jump\t// out\n        /* \"#utility.yul\":6002:6124   */\n    tag_53:\n        /* \"#utility.yul\":6075:6099   */\n      tag_124\n        /* \"#utility.yul\":6093:6098   */\n      dup2\n        /* \"#utility.yul\":6075:6099   */\n      tag_102\n      jump\t// in\n    tag_124:\n        /* \"#utility.yul\":6068:6073   */\n      dup2\n        /* \"#utility.yul\":6065:6100   */\n      eq\n        /* \"#utility.yul\":6055:6057   */\n      tag_125\n      jumpi\n        /* \"#utility.yul\":6114:6115   */\n      0x00\n        /* \"#utility.yul\":6111:6112   */\n      dup1\n        /* \"#utility.yul\":6104:6116   */\n      revert\n        /* \"#utility.yul\":6055:6057   */\n    tag_125:\n        /* \"#utility.yul\":6045:6124   */\n      pop\n      jump\t// out\n        /* \"#utility.yul\":6130:6252   */\n    tag_61:\n        /* \"#utility.yul\":6203:6227   */\n      tag_127\n        /* \"#utility.yul\":6221:6226   */\n      dup2\n        /* \"#utility.yul\":6203:6227   */\n      tag_107\n      jump\t// in\n    tag_127:\n        /* \"#utility.yul\":6196:6201   */\n      dup2\n        /* \"#utility.yul\":6193:6228   */\n      eq\n        /* \"#utility.yul\":6183:6185   */\n      tag_128\n      jumpi\n        /* \"#utility.yul\":6242:6243   */\n      0x00\n        /* \"#utility.yul\":6239:6240   */\n      dup1\n        /* \"#utility.yul\":6232:6244   */\n      revert\n        /* \"#utility.yul\":6183:6185   */\n    tag_128:\n        /* \"#utility.yul\":6173:6252   */\n      pop\n      jump\t// out\n\n    auxdata: 0xa2646970667358221220be7b73360d492f4e8283d758c6adb0882f1601fd5bbdf6d28d1879e611276d5f64736f6c63430008000033\n}\n",
				"bytecode": {
					"linkReferences": {},
					"object": "608060405234801561001057600080fd5b506106ba806100206000396000f3fe608060405234801561001057600080fd5b50600436106100365760003560e01c80635cf9a90a1461003b578063ed8b02311461006b575b600080fd5b61005560048036038101906100509190610364565b610087565b604051610062919061048d565b60405180910390f35b610085600480360381019061008091906103a0565b610140565b005b600160205281600052604060002081815481106100a357600080fd5b906000526020600020016000915091505080546100bf906105b5565b80601f01602080910402602001604051908101604052809291908181526020018280546100eb906105b5565b80156101385780601f1061010d57610100808354040283529160200191610138565b820191906000526020600020905b81548152906001019060200180831161011b57829003601f168201915b505050505081565b806000803373ffffffffffffffffffffffffffffffffffffffff1673ffffffffffffffffffffffffffffffffffffffff168152602001908152602001600020600001836040516101909190610476565b908152602001604051809103902090805190602001906101b192919061022f565b50600160003373ffffffffffffffffffffffffffffffffffffffff1673ffffffffffffffffffffffffffffffffffffffff1681526020019081526020016000208290806001815401808255809150506001900390600052602060002001600090919091909150908051906020019061022a92919061022f565b505050565b82805461023b906105b5565b90600052602060002090601f01602090048101928261025d57600085556102a4565b82601f1061027657805160ff19168380011785556102a4565b828001600101855582156102a4579182015b828111156102a3578251825591602001919060010190610288565b5b5090506102b191906102b5565b5090565b5b808211156102ce5760008160009055506001016102b6565b5090565b60006102e56102e0846104e0565b6104af565b9050828152602081018484840111156102fd57600080fd5b610308848285610573565b509392505050565b60008135905061031f81610656565b92915050565b600082601f83011261033657600080fd5b81356103468482602086016102d2565b91505092915050565b60008135905061035e8161066d565b92915050565b6000806040838503121561037757600080fd5b600061038585828601610310565b92505060206103968582860161034f565b9150509250929050565b600080604083850312156103b357600080fd5b600083013567ffffffffffffffff8111156103cd57600080fd5b6103d985828601610325565b925050602083013567ffffffffffffffff8111156103f657600080fd5b61040285828601610325565b9150509250929050565b600061041782610510565b610421818561051b565b9350610431818560208601610582565b61043a81610645565b840191505092915050565b600061045082610510565b61045a818561052c565b935061046a818560208601610582565b80840191505092915050565b60006104828284610445565b915081905092915050565b600060208201905081810360008301526104a7818461040c565b905092915050565b6000604051905081810181811067ffffffffffffffff821117156104d6576104d5610616565b5b8060405250919050565b600067ffffffffffffffff8211156104fb576104fa610616565b5b601f19601f8301169050602081019050919050565b600081519050919050565b600082825260208201905092915050565b600081905092915050565b600061054282610549565b9050919050565b600073ffffffffffffffffffffffffffffffffffffffff82169050919050565b6000819050919050565b82818337600083830152505050565b60005b838110156105a0578082015181840152602081019050610585565b838111156105af576000848401525b50505050565b600060028204905060018216806105cd57607f821691505b602082108114156105e1576105e06105e7565b5b50919050565b7f4e487b7100000000000000000000000000000000000000000000000000000000600052602260045260246000fd5b7f4e487b7100000000000000000000000000000000000000000000000000000000600052604160045260246000fd5b6000601f19601f8301169050919050565b61065f81610537565b811461066a57600080fd5b50565b61067681610569565b811461068157600080fd5b5056fea2646970667358221220be7b73360d492f4e8283d758c6adb0882f1601fd5bbdf6d28d1879e611276d5f64736f6c63430008000033",
					"opcodes": "PUSH1 0x80 PUSH1 0x40 MSTORE CALLVALUE DUP1 ISZERO PUSH2 0x10 JUMPI PUSH1 0x0 DUP1 REVERT JUMPDEST POP PUSH2 0x6BA DUP1 PUSH2 0x20 PUSH1 0x0 CODECOPY PUSH1 0x0 RETURN INVALID PUSH1 0x80 PUSH1 0x40 MSTORE CALLVALUE DUP1 ISZERO PUSH2 0x10 JUMPI PUSH1 0x0 DUP1 REVERT JUMPDEST POP PUSH1 0x4 CALLDATASIZE LT PUSH2 0x36 JUMPI PUSH1 0x0 CALLDATALOAD PUSH1 0xE0 SHR DUP1 PUSH4 0x5CF9A90A EQ PUSH2 0x3B JUMPI DUP1 PUSH4 0xED8B0231 EQ PUSH2 0x6B JUMPI JUMPDEST PUSH1 0x0 DUP1 REVERT JUMPDEST PUSH2 0x55 PUSH1 0x4 DUP1 CALLDATASIZE SUB DUP2 ADD SWAP1 PUSH2 0x50 SWAP2 SWAP1 PUSH2 0x364 JUMP JUMPDEST PUSH2 0x87 JUMP JUMPDEST PUSH1 0x40 MLOAD PUSH2 0x62 SWAP2 SWAP1 PUSH2 0x48D JUMP JUMPDEST PUSH1 0x40 MLOAD DUP1 SWAP2 SUB SWAP1 RETURN JUMPDEST PUSH2 0x85 PUSH1 0x4 DUP1 CALLDATASIZE SUB DUP2 ADD SWAP1 PUSH2 0x80 SWAP2 SWAP1 PUSH2 0x3A0 JUMP JUMPDEST PUSH2 0x140 JUMP JUMPDEST STOP JUMPDEST PUSH1 0x1 PUSH1 0x20 MSTORE DUP2 PUSH1 0x0 MSTORE PUSH1 0x40 PUSH1 0x0 KECCAK256 DUP2 DUP2 SLOAD DUP2 LT PUSH2 0xA3 JUMPI PUSH1 0x0 DUP1 REVERT JUMPDEST SWAP1 PUSH1 0x0 MSTORE PUSH1 0x20 PUSH1 0x0 KECCAK256 ADD PUSH1 0x0 SWAP2 POP SWAP2 POP POP DUP1 SLOAD PUSH2 0xBF SWAP1 PUSH2 0x5B5 JUMP JUMPDEST DUP1 PUSH1 0x1F ADD PUSH1 0x20 DUP1 SWAP2 DIV MUL PUSH1 0x20 ADD PUSH1 0x40 MLOAD SWAP1 DUP2 ADD PUSH1 0x40 MSTORE DUP1 SWAP3 SWAP2 SWAP1 DUP2 DUP2 MSTORE PUSH1 0x20 ADD DUP3 DUP1 SLOAD PUSH2 0xEB SWAP1 PUSH2 0x5B5 JUMP JUMPDEST DUP1 ISZERO PUSH2 0x138 JUMPI DUP1 PUSH1 0x1F LT PUSH2 0x10D JUMPI PUSH2 0x100 DUP1 DUP4 SLOAD DIV MUL DUP4 MSTORE SWAP2 PUSH1 0x20 ADD SWAP2 PUSH2 0x138 JUMP JUMPDEST DUP3 ADD SWAP2 SWAP1 PUSH1 0x0 MSTORE PUSH1 0x20 PUSH1 0x0 KECCAK256 SWAP1 JUMPDEST DUP2 SLOAD DUP2 MSTORE SWAP1 PUSH1 0x1 ADD SWAP1 PUSH1 0x20 ADD DUP1 DUP4 GT PUSH2 0x11B JUMPI DUP3 SWAP1 SUB PUSH1 0x1F AND DUP3 ADD SWAP2 JUMPDEST POP POP POP POP POP DUP2 JUMP JUMPDEST DUP1 PUSH1 0x0 DUP1 CALLER PUSH20 0xFFFFFFFFFFFFFFFFFFFFFFFFFFFFFFFFFFFFFFFF AND PUSH20 0xFFFFFFFFFFFFFFFFFFFFFFFFFFFFFFFFFFFFFFFF AND DUP2 MSTORE PUSH1 0x20 ADD SWAP1 DUP2 MSTORE PUSH1 0x20 ADD PUSH1 0x0 KECCAK256 PUSH1 0x0 ADD DUP4 PUSH1 0x40 MLOAD PUSH2 0x190 SWAP2 SWAP1 PUSH2 0x476 JUMP JUMPDEST SWAP1 DUP2 MSTORE PUSH1 0x20 ADD PUSH1 0x40 MLOAD DUP1 SWAP2 SUB SWAP1 KECCAK256 SWAP1 DUP1 MLOAD SWAP1 PUSH1 0x20 ADD SWAP1 PUSH2 0x1B1 SWAP3 SWAP2 SWAP1 PUSH2 0x22F JUMP JUMPDEST POP PUSH1 0x1 PUSH1 0x0 CALLER PUSH20 0xFFFFFFFFFFFFFFFFFFFFFFFFFFFFFFFFFFFFFFFF AND PUSH20 0xFFFFFFFFFFFFFFFFFFFFFFFFFFFFFFFFFFFFFFFF AND DUP2 MSTORE PUSH1 0x20 ADD SWAP1 DUP2 MSTORE PUSH1 0x20 ADD PUSH1 0x0 KECCAK256 DUP3 SWAP1 DUP1 PUSH1 0x1 DUP2 SLOAD ADD DUP1 DUP3 SSTORE DUP1 SWAP2 POP POP PUSH1 0x1 SWAP1 SUB SWAP1 PUSH1 0x0 MSTORE PUSH1 0x20 PUSH1 0x0 KECCAK256 ADD PUSH1 0x0 SWAP1 SWAP2 SWAP1 SWAP2 SWAP1 SWAP2 POP SWAP1 DUP1 MLOAD SWAP1 PUSH1 0x20 ADD SWAP1 PUSH2 0x22A SWAP3 SWAP2 SWAP1 PUSH2 0x22F JUMP JUMPDEST POP POP POP JUMP JUMPDEST DUP3 DUP1 SLOAD PUSH2 0x23B SWAP1 PUSH2 0x5B5 JUMP JUMPDEST SWAP1 PUSH1 0x0 MSTORE PUSH1 0x20 PUSH1 0x0 KECCAK256 SWAP1 PUSH1 0x1F ADD PUSH1 0x20 SWAP1 DIV DUP2 ADD SWAP3 DUP3 PUSH2 0x25D JUMPI PUSH1 0x0 DUP6 SSTORE PUSH2 0x2A4 JUMP JUMPDEST DUP3 PUSH1 0x1F LT PUSH2 0x276 JUMPI DUP1 MLOAD PUSH1 0xFF NOT AND DUP4 DUP1 ADD OR DUP6 SSTORE PUSH2 0x2A4 JUMP JUMPDEST DUP3 DUP1 ADD PUSH1 0x1 ADD DUP6 SSTORE DUP3 ISZERO PUSH2 0x2A4 JUMPI SWAP2 DUP3 ADD JUMPDEST DUP3 DUP2 GT ISZERO PUSH2 0x2A3 JUMPI DUP3 MLOAD DUP3 SSTORE SWAP2 PUSH1 0x20 ADD SWAP2 SWAP1 PUSH1 0x1 ADD SWAP1 PUSH2 0x288 JUMP JUMPDEST JUMPDEST POP SWAP1 POP PUSH2 0x2B1 SWAP2 SWAP1 PUSH2 0x2B5 JUMP JUMPDEST POP SWAP1 JUMP JUMPDEST JUMPDEST DUP1 DUP3 GT ISZERO PUSH2 0x2CE JUMPI PUSH1 0x0 DUP2 PUSH1 0x0 SWAP1 SSTORE POP PUSH1 0x1 ADD PUSH2 0x2B6 JUMP JUMPDEST POP SWAP1 JUMP JUMPDEST PUSH1 0x0 PUSH2 0x2E5 PUSH2 0x2E0 DUP5 PUSH2 0x4E0 JUMP JUMPDEST PUSH2 0x4AF JUMP JUMPDEST SWAP1 POP DUP3 DUP2 MSTORE PUSH1 0x20 DUP2 ADD DUP5 DUP5 DUP5 ADD GT ISZERO PUSH2 0x2FD JUMPI PUSH1 0x0 DUP1 REVERT JUMPDEST PUSH2 0x308 DUP5 DUP3 DUP6 PUSH2 0x573 JUMP JUMPDEST POP SWAP4 SWAP3 POP POP POP JUMP JUMPDEST PUSH1 0x0 DUP2 CALLDATALOAD SWAP1 POP PUSH2 0x31F DUP2 PUSH2 0x656 JUMP JUMPDEST SWAP3 SWAP2 POP POP JUMP JUMPDEST PUSH1 0x0 DUP3 PUSH1 0x1F DUP4 ADD SLT PUSH2 0x336 JUMPI PUSH1 0x0 DUP1 REVERT JUMPDEST DUP2 CALLDATALOAD PUSH2 0x346 DUP5 DUP3 PUSH1 0x20 DUP7 ADD PUSH2 0x2D2 JUMP JUMPDEST SWAP2 POP POP SWAP3 SWAP2 POP POP JUMP JUMPDEST PUSH1 0x0 DUP2 CALLDATALOAD SWAP1 POP PUSH2 0x35E DUP2 PUSH2 0x66D JUMP JUMPDEST SWAP3 SWAP2 POP POP JUMP JUMPDEST PUSH1 0x0 DUP1 PUSH1 0x40 DUP4 DUP6 SUB SLT ISZERO PUSH2 0x377 JUMPI PUSH1 0x0 DUP1 REVERT JUMPDEST PUSH1 0x0 PUSH2 0x385 DUP6 DUP3 DUP7 ADD PUSH2 0x310 JUMP JUMPDEST SWAP3 POP POP PUSH1 0x20 PUSH2 0x396 DUP6 DUP3 DUP7 ADD PUSH2 0x34F JUMP JUMPDEST SWAP2 POP POP SWAP3 POP SWAP3 SWAP1 POP JUMP JUMPDEST PUSH1 0x0 DUP1 PUSH1 0x40 DUP4 DUP6 SUB SLT ISZERO PUSH2 0x3B3 JUMPI PUSH1 0x0 DUP1 REVERT JUMPDEST PUSH1 0x0 DUP4 ADD CALLDATALOAD PUSH8 0xFFFFFFFFFFFFFFFF DUP2 GT ISZERO PUSH2 0x3CD JUMPI PUSH1 0x0 DUP1 REVERT JUMPDEST PUSH2 0x3D9 DUP6 DUP3 DUP7 ADD PUSH2 0x325 JUMP JUMPDEST SWAP3 POP POP PUSH1 0x20 DUP4 ADD CALLDATALOAD PUSH8 0xFFFFFFFFFFFFFFFF DUP2 GT ISZERO PUSH2 0x3F6 JUMPI PUSH1 0x0 DUP1 REVERT JUMPDEST PUSH2 0x402 DUP6 DUP3 DUP7 ADD PUSH2 0x325 JUMP JUMPDEST SWAP2 POP POP SWAP3 POP SWAP3 SWAP1 POP JUMP JUMPDEST PUSH1 0x0 PUSH2 0x417 DUP3 PUSH2 0x510 JUMP JUMPDEST PUSH2 0x421 DUP2 DUP6 PUSH2 0x51B JUMP JUMPDEST SWAP4 POP PUSH2 0x431 DUP2 DUP6 PUSH1 0x20 DUP7 ADD PUSH2 0x582 JUMP JUMPDEST PUSH2 0x43A DUP2 PUSH2 0x645 JUMP JUMPDEST DUP5 ADD SWAP2 POP POP SWAP3 SWAP2 POP POP JUMP JUMPDEST PUSH1 0x0 PUSH2 0x450 DUP3 PUSH2 0x510 JUMP JUMPDEST PUSH2 0x45A DUP2 DUP6 PUSH2 0x52C JUMP JUMPDEST SWAP4 POP PUSH2 0x46A DUP2 DUP6 PUSH1 0x20 DUP7 ADD PUSH2 0x582 JUMP JUMPDEST DUP1 DUP5 ADD SWAP2 POP POP SWAP3 SWAP2 POP POP JUMP JUMPDEST PUSH1 0x0 PUSH2 0x482 DUP3 DUP5 PUSH2 0x445 JUMP JUMPDEST SWAP2 POP DUP2 SWAP1 POP SWAP3 SWAP2 POP POP JUMP JUMPDEST PUSH1 0x0 PUSH1 0x20 DUP3 ADD SWAP1 POP DUP2 DUP2 SUB PUSH1 0x0 DUP4 ADD MSTORE PUSH2 0x4A7 DUP2 DUP5 PUSH2 0x40C JUMP JUMPDEST SWAP1 POP SWAP3 SWAP2 POP POP JUMP JUMPDEST PUSH1 0x0 PUSH1 0x40 MLOAD SWAP1 POP DUP2 DUP2 ADD DUP2 DUP2 LT PUSH8 0xFFFFFFFFFFFFFFFF DUP3 GT OR ISZERO PUSH2 0x4D6 JUMPI PUSH2 0x4D5 PUSH2 0x616 JUMP JUMPDEST JUMPDEST DUP1 PUSH1 0x40 MSTORE POP SWAP2 SWAP1 POP JUMP JUMPDEST PUSH1 0x0 PUSH8 0xFFFFFFFFFFFFFFFF DUP3 GT ISZERO PUSH2 0x4FB JUMPI PUSH2 0x4FA PUSH2 0x616 JUMP JUMPDEST JUMPDEST PUSH1 0x1F NOT PUSH1 0x1F DUP4 ADD AND SWAP1 POP PUSH1 0x20 DUP2 ADD SWAP1 POP SWAP2 SWAP1 POP JUMP JUMPDEST PUSH1 0x0 DUP2 MLOAD SWAP1 POP SWAP2 SWAP1 POP JUMP JUMPDEST PUSH1 0x0 DUP3 DUP3 MSTORE PUSH1 0x20 DUP3 ADD SWAP1 POP SWAP3 SWAP2 POP POP JUMP JUMPDEST PUSH1 0x0 DUP2 SWAP1 POP SWAP3 SWAP2 POP POP JUMP JUMPDEST PUSH1 0x0 PUSH2 0x542 DUP3 PUSH2 0x549 JUMP JUMPDEST SWAP1 POP SWAP2 SWAP1 POP JUMP JUMPDEST PUSH1 0x0 PUSH20 0xFFFFFFFFFFFFFFFFFFFFFFFFFFFFFFFFFFFFFFFF DUP3 AND SWAP1 POP SWAP2 SWAP1 POP JUMP JUMPDEST PUSH1 0x0 DUP2 SWAP1 POP SWAP2 SWAP1 POP JUMP JUMPDEST DUP3 DUP2 DUP4 CALLDATACOPY PUSH1 0x0 DUP4 DUP4 ADD MSTORE POP POP POP JUMP JUMPDEST PUSH1 0x0 JUMPDEST DUP4 DUP2 LT ISZERO PUSH2 0x5A0 JUMPI DUP1 DUP3 ADD MLOAD DUP2 DUP5 ADD MSTORE PUSH1 0x20 DUP2 ADD SWAP1 POP PUSH2 0x585 JUMP JUMPDEST DUP4 DUP2 GT ISZERO PUSH2 0x5AF JUMPI PUSH1 0x0 DUP5 DUP5 ADD MSTORE JUMPDEST POP POP POP POP JUMP JUMPDEST PUSH1 0x0 PUSH1 0x2 DUP3 DIV SWAP1 POP PUSH1 0x1 DUP3 AND DUP1 PUSH2 0x5CD JUMPI PUSH1 0x7F DUP3 AND SWAP2 POP JUMPDEST PUSH1 0x20 DUP3 LT DUP2 EQ ISZERO PUSH2 0x5E1 JUMPI PUSH2 0x5E0 PUSH2 0x5E7 JUMP JUMPDEST JUMPDEST POP SWAP2 SWAP1 POP JUMP JUMPDEST PUSH32 0x4E487B7100000000000000000000000000000000000000000000000000000000 PUSH1 0x0 MSTORE PUSH1 0x22 PUSH1 0x4 MSTORE PUSH1 0x24 PUSH1 0x0 REVERT JUMPDEST PUSH32 0x4E487B7100000000000000000000000000000000000000000000000000000000 PUSH1 0x0 MSTORE PUSH1 0x41 PUSH1 0x4 MSTORE PUSH1 0x24 PUSH1 0x0 REVERT JUMPDEST PUSH1 0x0 PUSH1 0x1F NOT PUSH1 0x1F DUP4 ADD AND SWAP1 POP SWAP2 SWAP1 POP JUMP JUMPDEST PUSH2 0x65F DUP2 PUSH2 0x537 JUMP JUMPDEST DUP2 EQ PUSH2 0x66A JUMPI PUSH1 0x0 DUP1 REVERT JUMPDEST POP JUMP JUMPDEST PUSH2 0x676 DUP2 PUSH2 0x569 JUMP JUMPDEST DUP2 EQ PUSH2 0x681 JUMPI PUSH1 0x0 DUP1 REVERT JUMPDEST POP JUMP INVALID LOG2 PUSH5 0x6970667358 0x22 SLT KECCAK256 0xBE PUSH28 0x73360D492F4E8283D758C6ADB0882F1601FD5BBDF6D28D1879E61127 PUSH14 0x5F64736F6C634300080000330000 "
				},
				"gasEstimates": {
					"creation": {
						"codeDepositCost": "344400",
						"executionCost": "380",
						"totalCost": "344780"
					},
					"external": {
						"AddMedical(string,string)": "infinite",
						"user_Medical_name(address,uint256)": "infinite"
					}
				},
				"methodIdentifiers": {
					"AddMedical(string,string)": "ed8b0231",
					"user_Medical_name(address,uint256)": "5cf9a90a"
				}
			},
			"storageLayout": {
				"storage": [
					{
						"astId": 11,
						"contract": "test,sol.sol:Test",
						"label": "User_Medical",
						"offset": 0,
						"slot": "0",
						"type": "t_mapping(t_address,t_struct(Medical)6_storage)"
					},
					{
						"astId": 16,
						"contract": "test,sol.sol:Test",
						"label": "user_Medical_name",
						"offset": 0,
						"slot": "1",
						"type": "t_mapping(t_address,t_array(t_string_storage)dyn_storage)"
					}
				],
				"types": {
					"t_address": {
						"encoding": "inplace",
						"label": "address",
						"numberOfBytes": "20"
					},
					"t_array(t_string_storage)dyn_storage": {
						"base": "t_string_storage",
						"encoding": "dynamic_array",
						"label": "string[]",
						"numberOfBytes": "32"
					},
					"t_mapping(t_address,t_array(t_string_storage)dyn_storage)": {
						"encoding": "mapping",
						"key": "t_address",
						"label": "mapping(address => string[])",
						"numberOfBytes": "32",
						"value": "t_array(t_string_storage)dyn_storage"
					},
					"t_mapping(t_address,t_struct(Medical)6_storage)": {
						"encoding": "mapping",
						"key": "t_address",
						"label": "mapping(address => struct Test.Medical)",
						"numberOfBytes": "32",
						"value": "t_struct(Medical)6_storage"
					},
					"t_mapping(t_string_memory_ptr,t_string_storage)": {
						"encoding": "mapping",
						"key": "t_string_memory_ptr",
						"label": "mapping(string => string)",
						"numberOfBytes": "32",
						"value": "t_string_storage"
					},
					"t_string_memory_ptr": {
						"encoding": "bytes",
						"label": "string",
						"numberOfBytes": "32"
					},
					"t_string_storage": {
						"encoding": "bytes",
						"label": "string",
						"numberOfBytes": "32"
					},
					"t_struct(Medical)6_storage": {
						"encoding": "inplace",
						"label": "struct Test.Medical",
						"members": [
							{
								"astId": 5,
								"contract": "test,sol.sol:Test",
								"label": "File",
								"offset": 0,
								"slot": "0",
								"type": "t_mapping(t_string_memory_ptr,t_string_storage)"
							}
						],
						"numberOfBytes": "32"
					}
				}
			},
			"userdoc": {
				"kind": "user",
				"methods": {},
				"version": 1
			}
		}
	}
}