{
	"test,sol.sol": {
		"Test": {
			"abi": [
				{
					"inputs": [
						{
							"internalType": "string",
							"name": "_name",
							"type": "string"
						},
						{
							"internalType": "string",
							"name": "_url",
							"type": "string"
						}
					],
					"name": "AddMedical",
					"outputs": [],
					"stateMutability": "nonpayable",
					"type": "function"
				}
			],
			"devdoc": {
				"kind": "dev",
				"methods": {},
				"version": 1
			},
			"evm": {
				"assembly": "    /* \"test,sol.sol\":27:428  contract Test{\r... */\n  mstore(0x40, 0x80)\n  callvalue\n  dup1\n  iszero\n  tag_1\n  jumpi\n  0x00\n  dup1\n  revert\ntag_1:\n  pop\n  dataSize(sub_0)\n  dup1\n  dataOffset(sub_0)\n  0x00\n  codecopy\n  0x00\n  return\nstop\n\nsub_0: assembly {\n        /* \"test,sol.sol\":27:428  contract Test{\r... */\n      mstore(0x40, 0x80)\n      callvalue\n      dup1\n      iszero\n      tag_1\n      jumpi\n      0x00\n      dup1\n      revert\n    tag_1:\n      pop\n      jumpi(tag_2, lt(calldatasize, 0x04))\n      shr(0xe0, calldataload(0x00))\n      dup1\n      0xed8b0231\n      eq\n      tag_3\n      jumpi\n    tag_2:\n      0x00\n      dup1\n      revert\n        /* \"test,sol.sol\":233:417  function AddMedical (string memory _name , string memory _url) public {\r... */\n    tag_3:\n      tag_4\n      0x04\n      dup1\n      calldatasize\n      sub\n      dup2\n      add\n      swap1\n      tag_5\n      swap2\n      swap1\n      tag_6\n      jump\t// in\n    tag_5:\n      tag_7\n      jump\t// in\n    tag_4:\n      stop\n    tag_7:\n        /* \"test,sol.sol\":353:357  _url */\n      dup1\n        /* \"test,sol.sol\":314:326  User_Medical */\n      0x00\n        /* \"test,sol.sol\":314:338  User_Medical[msg.sender] */\n      dup1\n        /* \"test,sol.sol\":327:337  msg.sender */\n      caller\n        /* \"test,sol.sol\":314:338  User_Medical[msg.sender] */\n      0xffffffffffffffffffffffffffffffffffffffff\n      and\n      0xffffffffffffffffffffffffffffffffffffffff\n      and\n      dup2\n      mstore\n      0x20\n      add\n      swap1\n      dup2\n      mstore\n      0x20\n      add\n      0x00\n      keccak256\n        /* \"test,sol.sol\":314:343  User_Medical[msg.sender].File */\n      0x00\n      add\n        /* \"test,sol.sol\":344:349  _name */\n      dup4\n        /* \"test,sol.sol\":314:350  User_Medical[msg.sender].File[_name] */\n      mload(0x40)\n      tag_9\n      swap2\n      swap1\n      tag_10\n      jump\t// in\n    tag_9:\n      swap1\n      dup2\n      mstore\n      0x20\n      add\n      mload(0x40)\n      dup1\n      swap2\n      sub\n      swap1\n      keccak256\n        /* \"test,sol.sol\":314:357  User_Medical[msg.sender].File[_name] = _url */\n      swap1\n      dup1\n      mload\n      swap1\n      0x20\n      add\n      swap1\n      tag_11\n      swap3\n      swap2\n      swap1\n      tag_12\n      jump\t// in\n    tag_11:\n      pop\n        /* \"test,sol.sol\":368:385  user_Medical_name */\n      0x01\n        /* \"test,sol.sol\":368:397  user_Medical_name[msg.sender] */\n      0x00\n        /* \"test,sol.sol\":386:396  msg.sender */\n      caller\n        /* \"test,sol.sol\":368:397  user_Medical_name[msg.sender] */\n      0xffffffffffffffffffffffffffffffffffffffff\n      and\n      0xffffffffffffffffffffffffffffffffffffffff\n      and\n      dup2\n      mstore\n      0x20\n      add\n      swap1\n      dup2\n      mstore\n      0x20\n      add\n      0x00\n      keccak256\n        /* \"test,sol.sol\":403:408  _name */\n      dup3\n        /* \"test,sol.sol\":368:409  user_Medical_name[msg.sender].push(_name) */\n      swap1\n      dup1\n      0x01\n      dup2\n      sload\n      add\n      dup1\n      dup3\n      sstore\n      dup1\n      swap2\n      pop\n      pop\n      0x01\n      swap1\n      sub\n      swap1\n      0x00\n      mstore\n      keccak256(0x00, 0x20)\n      add\n      0x00\n      swap1\n      swap2\n      swap1\n      swap2\n      swap1\n      swap2\n      pop\n      swap1\n      dup1\n      mload\n      swap1\n      0x20\n      add\n      swap1\n      tag_14\n      swap3\n      swap2\n      swap1\n      tag_12\n      jump\t// in\n    tag_14:\n      pop\n        /* \"test,sol.sol\":233:417  function AddMedical (string memory _name , string memory _url) public {\r... */\n      pop\n      pop\n      jump\t// out\n    tag_12:\n      dup3\n      dup1\n      sload\n      tag_15\n      swap1\n      tag_16\n      jump\t// in\n    tag_15:\n      swap1\n      0x00\n      mstore\n      keccak256(0x00, 0x20)\n      swap1\n      0x1f\n      add\n      0x20\n      swap1\n      div\n      dup2\n      add\n      swap3\n      dup3\n      tag_18\n      jumpi\n      0x00\n      dup6\n      sstore\n      jump(tag_17)\n    tag_18:\n      dup3\n      0x1f\n      lt\n      tag_19\n      jumpi\n      dup1\n      mload\n      not(0xff)\n      and\n      dup4\n      dup1\n      add\n      or\n      dup6\n      sstore\n      jump(tag_17)\n    tag_19:\n      dup3\n      dup1\n      add\n      0x01\n      add\n      dup6\n      sstore\n      dup3\n      iszero\n      tag_17\n      jumpi\n      swap2\n      dup3\n      add\n    tag_20:\n      dup3\n      dup2\n      gt\n      iszero\n      tag_21\n      jumpi\n      dup3\n      mload\n      dup3\n      sstore\n      swap2\n      0x20\n      add\n      swap2\n      swap1\n      0x01\n      add\n      swap1\n      jump(tag_20)\n    tag_21:\n    tag_17:\n      pop\n      swap1\n      pop\n      tag_22\n      swap2\n      swap1\n      tag_23\n      jump\t// in\n    tag_22:\n      pop\n      swap1\n      jump\t// out\n    tag_23:\n    tag_24:\n      dup1\n      dup3\n      gt\n      iszero\n      tag_25\n      jumpi\n      0x00\n      dup2\n      0x00\n      swap1\n      sstore\n      pop\n      0x01\n      add\n      jump(tag_24)\n    tag_25:\n      pop\n      swap1\n      jump\t// out\n        /* \"#utility.yul\":7:351   */\n    tag_27:\n      0x00\n        /* \"#utility.yul\":110:175   */\n      tag_29\n        /* \"#utility.yul\":125:174   */\n      tag_30\n        /* \"#utility.yul\":167:173   */\n      dup5\n        /* \"#utility.yul\":125:174   */\n      tag_31\n      jump\t// in\n    tag_30:\n        /* \"#utility.yul\":110:175   */\n      tag_32\n      jump\t// in\n    tag_29:\n        /* \"#utility.yul\":101:175   */\n      swap1\n      pop\n        /* \"#utility.yul\":198:204   */\n      dup3\n        /* \"#utility.yul\":191:196   */\n      dup2\n        /* \"#utility.yul\":184:205   */\n      mstore\n        /* \"#utility.yul\":236:240   */\n      0x20\n        /* \"#utility.yul\":229:234   */\n      dup2\n        /* \"#utility.yul\":225:241   */\n      add\n        /* \"#utility.yul\":274:277   */\n      dup5\n        /* \"#utility.yul\":265:271   */\n      dup5\n        /* \"#utility.yul\":260:263   */\n      dup5\n        /* \"#utility.yul\":256:272   */\n      add\n        /* \"#utility.yul\":253:278   */\n      gt\n        /* \"#utility.yul\":250:252   */\n      iszero\n      tag_33\n      jumpi\n        /* \"#utility.yul\":291:292   */\n      0x00\n        /* \"#utility.yul\":288:289   */\n      dup1\n        /* \"#utility.yul\":281:293   */\n      revert\n        /* \"#utility.yul\":250:252   */\n    tag_33:\n        /* \"#utility.yul\":304:345   */\n      tag_34\n        /* \"#utility.yul\":338:344   */\n      dup5\n        /* \"#utility.yul\":333:336   */\n      dup3\n        /* \"#utility.yul\":328:331   */\n      dup6\n        /* \"#utility.yul\":304:345   */\n      tag_35\n      jump\t// in\n    tag_34:\n        /* \"#utility.yul\":91:351   */\n      pop\n      swap4\n      swap3\n      pop\n      pop\n      pop\n      jump\t// out\n        /* \"#utility.yul\":371:644   */\n    tag_36:\n      0x00\n        /* \"#utility.yul\":476:479   */\n      dup3\n        /* \"#utility.yul\":469:473   */\n      0x1f\n        /* \"#utility.yul\":461:467   */\n      dup4\n        /* \"#utility.yul\":457:474   */\n      add\n        /* \"#utility.yul\":453:480   */\n      slt\n        /* \"#utility.yul\":443:445   */\n      tag_38\n      jumpi\n        /* \"#utility.yul\":494:495   */\n      0x00\n        /* \"#utility.yul\":491:492   */\n      dup1\n        /* \"#utility.yul\":484:496   */\n      revert\n        /* \"#utility.yul\":443:445   */\n    tag_38:\n        /* \"#utility.yul\":534:540   */\n      dup2\n        /* \"#utility.yul\":521:541   */\n      calldataload\n        /* \"#utility.yul\":559:638   */\n      tag_39\n        /* \"#utility.yul\":634:637   */\n      dup5\n        /* \"#utility.yul\":626:632   */\n      dup3\n        /* \"#utility.yul\":619:623   */\n      0x20\n        /* \"#utility.yul\":611:617   */\n      dup7\n        /* \"#utility.yul\":607:624   */\n      add\n        /* \"#utility.yul\":559:638   */\n      tag_27\n      jump\t// in\n    tag_39:\n        /* \"#utility.yul\":550:638   */\n      swap2\n      pop\n        /* \"#utility.yul\":433:644   */\n      pop\n      swap3\n      swap2\n      pop\n      pop\n      jump\t// out\n        /* \"#utility.yul\":650:1283   */\n    tag_6:\n      0x00\n      dup1\n        /* \"#utility.yul\":795:797   */\n      0x40\n        /* \"#utility.yul\":783:792   */\n      dup4\n        /* \"#utility.yul\":774:781   */\n      dup6\n        /* \"#utility.yul\":770:793   */\n      sub\n        /* \"#utility.yul\":766:798   */\n      slt\n        /* \"#utility.yul\":763:765   */\n      iszero\n      tag_41\n      jumpi\n        /* \"#utility.yul\":811:812   */\n      0x00\n        /* \"#utility.yul\":808:809   */\n      dup1\n        /* \"#utility.yul\":801:813   */\n      revert\n        /* \"#utility.yul\":763:765   */\n    tag_41:\n        /* \"#utility.yul\":882:883   */\n      0x00\n        /* \"#utility.yul\":871:880   */\n      dup4\n        /* \"#utility.yul\":867:884   */\n      add\n        /* \"#utility.yul\":854:885   */\n      calldataload\n        /* \"#utility.yul\":912:930   */\n      0xffffffffffffffff\n        /* \"#utility.yul\":904:910   */\n      dup2\n        /* \"#utility.yul\":901:931   */\n      gt\n        /* \"#utility.yul\":898:900   */\n      iszero\n      tag_42\n      jumpi\n        /* \"#utility.yul\":944:945   */\n      0x00\n        /* \"#utility.yul\":941:942   */\n      dup1\n        /* \"#utility.yul\":934:946   */\n      revert\n        /* \"#utility.yul\":898:900   */\n    tag_42:\n        /* \"#utility.yul\":972:1035   */\n      tag_43\n        /* \"#utility.yul\":1027:1034   */\n      dup6\n        /* \"#utility.yul\":1018:1024   */\n      dup3\n        /* \"#utility.yul\":1007:1016   */\n      dup7\n        /* \"#utility.yul\":1003:1025   */\n      add\n        /* \"#utility.yul\":972:1035   */\n      tag_36\n      jump\t// in\n    tag_43:\n        /* \"#utility.yul\":962:1035   */\n      swap3\n      pop\n        /* \"#utility.yul\":825:1045   */\n      pop\n        /* \"#utility.yul\":1112:1114   */\n      0x20\n        /* \"#utility.yul\":1101:1110   */\n      dup4\n        /* \"#utility.yul\":1097:1115   */\n      add\n        /* \"#utility.yul\":1084:1116   */\n      calldataload\n        /* \"#utility.yul\":1143:1161   */\n      0xffffffffffffffff\n        /* \"#utility.yul\":1135:1141   */\n      dup2\n        /* \"#utility.yul\":1132:1162   */\n      gt\n        /* \"#utility.yul\":1129:1131   */\n      iszero\n      tag_44\n      jumpi\n        /* \"#utility.yul\":1175:1176   */\n      0x00\n        /* \"#utility.yul\":1172:1173   */\n      dup1\n        /* \"#utility.yul\":1165:1177   */\n      revert\n        /* \"#utility.yul\":1129:1131   */\n    tag_44:\n        /* \"#utility.yul\":1203:1266   */\n      tag_45\n        /* \"#utility.yul\":1258:1265   */\n      dup6\n        /* \"#utility.yul\":1249:1255   */\n      dup3\n        /* \"#utility.yul\":1238:1247   */\n      dup7\n        /* \"#utility.yul\":1234:1256   */\n      add\n        /* \"#utility.yul\":1203:1266   */\n      tag_36\n      jump\t// in\n    tag_45:\n        /* \"#utility.yul\":1193:1266   */\n      swap2\n      pop\n        /* \"#utility.yul\":1055:1276   */\n      pop\n        /* \"#utility.yul\":753:1283   */\n      swap3\n      pop\n      swap3\n      swap1\n      pop\n      jump\t// out\n        /* \"#utility.yul\":1289:1666   */\n    tag_46:\n      0x00\n        /* \"#utility.yul\":1423:1462   */\n      tag_48\n        /* \"#utility.yul\":1456:1461   */\n      dup3\n        /* \"#utility.yul\":1423:1462   */\n      tag_49\n      jump\t// in\n    tag_48:\n        /* \"#utility.yul\":1478:1567   */\n      tag_50\n        /* \"#utility.yul\":1560:1566   */\n      dup2\n        /* \"#utility.yul\":1555:1558   */\n      dup6\n        /* \"#utility.yul\":1478:1567   */\n      tag_51\n      jump\t// in\n    tag_50:\n        /* \"#utility.yul\":1471:1567   */\n      swap4\n      pop\n        /* \"#utility.yul\":1576:1628   */\n      tag_52\n        /* \"#utility.yul\":1621:1627   */\n      dup2\n        /* \"#utility.yul\":1616:1619   */\n      dup6\n        /* \"#utility.yul\":1609:1613   */\n      0x20\n        /* \"#utility.yul\":1602:1607   */\n      dup7\n        /* \"#utility.yul\":1598:1614   */\n      add\n        /* \"#utility.yul\":1576:1628   */\n      tag_53\n      jump\t// in\n    tag_52:\n        /* \"#utility.yul\":1653:1659   */\n      dup1\n        /* \"#utility.yul\":1648:1651   */\n      dup5\n        /* \"#utility.yul\":1644:1660   */\n      add\n        /* \"#utility.yul\":1637:1660   */\n      swap2\n      pop\n        /* \"#utility.yul\":1399:1666   */\n      pop\n      swap3\n      swap2\n      pop\n      pop\n      jump\t// out\n        /* \"#utility.yul\":1672:1947   */\n    tag_10:\n      0x00\n        /* \"#utility.yul\":1826:1921   */\n      tag_55\n        /* \"#utility.yul\":1917:1920   */\n      dup3\n        /* \"#utility.yul\":1908:1914   */\n      dup5\n        /* \"#utility.yul\":1826:1921   */\n      tag_46\n      jump\t// in\n    tag_55:\n        /* \"#utility.yul\":1819:1921   */\n      swap2\n      pop\n        /* \"#utility.yul\":1938:1941   */\n      dup2\n        /* \"#utility.yul\":1931:1941   */\n      swap1\n      pop\n        /* \"#utility.yul\":1808:1947   */\n      swap3\n      swap2\n      pop\n      pop\n      jump\t// out\n        /* \"#utility.yul\":1953:2236   */\n    tag_32:\n      0x00\n        /* \"#utility.yul\":2019:2021   */\n      0x40\n        /* \"#utility.yul\":2013:2022   */\n      mload\n        /* \"#utility.yul\":2003:2022   */\n      swap1\n      pop\n        /* \"#utility.yul\":2061:2065   */\n      dup2\n        /* \"#utility.yul\":2053:2059   */\n      dup2\n        /* \"#utility.yul\":2049:2066   */\n      add\n        /* \"#utility.yul\":2168:2174   */\n      dup2\n        /* \"#utility.yul\":2156:2166   */\n      dup2\n        /* \"#utility.yul\":2153:2175   */\n      lt\n        /* \"#utility.yul\":2132:2150   */\n      0xffffffffffffffff\n        /* \"#utility.yul\":2120:2130   */\n      dup3\n        /* \"#utility.yul\":2117:2151   */\n      gt\n        /* \"#utility.yul\":2114:2176   */\n      or\n        /* \"#utility.yul\":2111:2113   */\n      iszero\n      tag_57\n      jumpi\n        /* \"#utility.yul\":2179:2197   */\n      tag_58\n      tag_59\n      jump\t// in\n    tag_58:\n        /* \"#utility.yul\":2111:2113   */\n    tag_57:\n        /* \"#utility.yul\":2219:2229   */\n      dup1\n        /* \"#utility.yul\":2215:2217   */\n      0x40\n        /* \"#utility.yul\":2208:2230   */\n      mstore\n        /* \"#utility.yul\":1993:2236   */\n      pop\n      swap2\n      swap1\n      pop\n      jump\t// out\n        /* \"#utility.yul\":2242:2574   */\n    tag_31:\n      0x00\n        /* \"#utility.yul\":2394:2412   */\n      0xffffffffffffffff\n        /* \"#utility.yul\":2386:2392   */\n      dup3\n        /* \"#utility.yul\":2383:2413   */\n      gt\n        /* \"#utility.yul\":2380:2382   */\n      iszero\n      tag_61\n      jumpi\n        /* \"#utility.yul\":2416:2434   */\n      tag_62\n      tag_59\n      jump\t// in\n    tag_62:\n        /* \"#utility.yul\":2380:2382   */\n    tag_61:\n        /* \"#utility.yul\":2501:2505   */\n      0x1f\n        /* \"#utility.yul\":2497:2506   */\n      not\n        /* \"#utility.yul\":2490:2494   */\n      0x1f\n        /* \"#utility.yul\":2482:2488   */\n      dup4\n        /* \"#utility.yul\":2478:2495   */\n      add\n        /* \"#utility.yul\":2474:2507   */\n      and\n        /* \"#utility.yul\":2466:2507   */\n      swap1\n      pop\n        /* \"#utility.yul\":2562:2566   */\n      0x20\n        /* \"#utility.yul\":2556:2560   */\n      dup2\n        /* \"#utility.yul\":2552:2567   */\n      add\n        /* \"#utility.yul\":2544:2567   */\n      swap1\n      pop\n        /* \"#utility.yul\":2309:2574   */\n      swap2\n      swap1\n      pop\n      jump\t// out\n        /* \"#utility.yul\":2580:2679   */\n    tag_49:\n      0x00\n        /* \"#utility.yul\":2666:2671   */\n      dup2\n        /* \"#utility.yul\":2660:2672   */\n      mload\n        /* \"#utility.yul\":2650:2672   */\n      swap1\n      pop\n        /* \"#utility.yul\":2639:2679   */\n      swap2\n      swap1\n      pop\n      jump\t// out\n        /* \"#utility.yul\":2685:2833   */\n    tag_51:\n      0x00\n        /* \"#utility.yul\":2824:2827   */\n      dup2\n        /* \"#utility.yul\":2809:2827   */\n      swap1\n      pop\n        /* \"#utility.yul\":2799:2833   */\n      swap3\n      swap2\n      pop\n      pop\n      jump\t// out\n        /* \"#utility.yul\":2839:2993   */\n    tag_35:\n        /* \"#utility.yul\":2923:2929   */\n      dup3\n        /* \"#utility.yul\":2918:2921   */\n      dup2\n        /* \"#utility.yul\":2913:2916   */\n      dup4\n        /* \"#utility.yul\":2900:2930   */\n      calldatacopy\n        /* \"#utility.yul\":2985:2986   */\n      0x00\n        /* \"#utility.yul\":2976:2982   */\n      dup4\n        /* \"#utility.yul\":2971:2974   */\n      dup4\n        /* \"#utility.yul\":2967:2983   */\n      add\n        /* \"#utility.yul\":2960:2987   */\n      mstore\n        /* \"#utility.yul\":2890:2993   */\n      pop\n      pop\n      pop\n      jump\t// out\n        /* \"#utility.yul\":2999:3306   */\n    tag_53:\n        /* \"#utility.yul\":3067:3068   */\n      0x00\n        /* \"#utility.yul\":3077:3190   */\n    tag_67:\n        /* \"#utility.yul\":3091:3097   */\n      dup4\n        /* \"#utility.yul\":3088:3089   */\n      dup2\n        /* \"#utility.yul\":3085:3098   */\n      lt\n        /* \"#utility.yul\":3077:3190   */\n      iszero\n      tag_69\n      jumpi\n        /* \"#utility.yul\":3176:3177   */\n      dup1\n        /* \"#utility.yul\":3171:3174   */\n      dup3\n        /* \"#utility.yul\":3167:3178   */\n      add\n        /* \"#utility.yul\":3161:3179   */\n      mload\n        /* \"#utility.yul\":3157:3158   */\n      dup2\n        /* \"#utility.yul\":3152:3155   */\n      dup5\n        /* \"#utility.yul\":3148:3159   */\n      add\n        /* \"#utility.yul\":3141:3180   */\n      mstore\n        /* \"#utility.yul\":3113:3115   */\n      0x20\n        /* \"#utility.yul\":3110:3111   */\n      dup2\n        /* \"#utility.yul\":3106:3116   */\n      add\n        /* \"#utility.yul\":3101:3116   */\n      swap1\n      pop\n        /* \"#utility.yul\":3077:3190   */\n      jump(tag_67)\n    tag_69:\n        /* \"#utility.yul\":3208:3214   */\n      dup4\n        /* \"#utility.yul\":3205:3206   */\n      dup2\n        /* \"#utility.yul\":3202:3215   */\n      gt\n        /* \"#utility.yul\":3199:3201   */\n      iszero\n      tag_70\n      jumpi\n        /* \"#utility.yul\":3288:3289   */\n      0x00\n        /* \"#utility.yul\":3279:3285   */\n      dup5\n        /* \"#utility.yul\":3274:3277   */\n      dup5\n        /* \"#utility.yul\":3270:3286   */\n      add\n        /* \"#utility.yul\":3263:3290   */\n      mstore\n        /* \"#utility.yul\":3199:3201   */\n    tag_70:\n        /* \"#utility.yul\":3048:3306   */\n      pop\n      pop\n      pop\n      pop\n      jump\t// out\n        /* \"#utility.yul\":3312:3632   */\n    tag_16:\n      0x00\n        /* \"#utility.yul\":3393:3394   */\n      0x02\n        /* \"#utility.yul\":3387:3391   */\n      dup3\n        /* \"#utility.yul\":3383:3395   */\n      div\n        /* \"#utility.yul\":3373:3395   */\n      swap1\n      pop\n        /* \"#utility.yul\":3440:3441   */\n      0x01\n        /* \"#utility.yul\":3434:3438   */\n      dup3\n        /* \"#utility.yul\":3430:3442   */\n      and\n        /* \"#utility.yul\":3461:3479   */\n      dup1\n        /* \"#utility.yul\":3451:3453   */\n      tag_72\n      jumpi\n        /* \"#utility.yul\":3517:3521   */\n      0x7f\n        /* \"#utility.yul\":3509:3515   */\n      dup3\n        /* \"#utility.yul\":3505:3522   */\n      and\n        /* \"#utility.yul\":3495:3522   */\n      swap2\n      pop\n        /* \"#utility.yul\":3451:3453   */\n    tag_72:\n        /* \"#utility.yul\":3579:3581   */\n      0x20\n        /* \"#utility.yul\":3571:3577   */\n      dup3\n        /* \"#utility.yul\":3568:3582   */\n      lt\n        /* \"#utility.yul\":3548:3566   */\n      dup2\n        /* \"#utility.yul\":3545:3583   */\n      eq\n        /* \"#utility.yul\":3542:3544   */\n      iszero\n      tag_73\n      jumpi\n        /* \"#utility.yul\":3598:3616   */\n      tag_74\n      tag_75\n      jump\t// in\n    tag_74:\n        /* \"#utility.yul\":3542:3544   */\n    tag_73:\n        /* \"#utility.yul\":3363:3632   */\n      pop\n      swap2\n      swap1\n      pop\n      jump\t// out\n        /* \"#utility.yul\":3638:3818   */\n    tag_75:\n        /* \"#utility.yul\":3686:3763   */\n      0x4e487b7100000000000000000000000000000000000000000000000000000000\n        /* \"#utility.yul\":3683:3684   */\n      0x00\n        /* \"#utility.yul\":3676:3764   */\n      mstore\n        /* \"#utility.yul\":3783:3787   */\n      0x22\n        /* \"#utility.yul\":3780:3781   */\n      0x04\n        /* \"#utility.yul\":3773:3788   */\n      mstore\n        /* \"#utility.yul\":3807:3811   */\n      0x24\n        /* \"#utility.yul\":3804:3805   */\n      0x00\n        /* \"#utility.yul\":3797:3812   */\n      revert\n        /* \"#utility.yul\":3824:4004   */\n    tag_59:\n        /* \"#utility.yul\":3872:3949   */\n      0x4e487b7100000000000000000000000000000000000000000000000000000000\n        /* \"#utility.yul\":3869:3870   */\n      0x00\n        /* \"#utility.yul\":3862:3950   */\n      mstore\n        /* \"#utility.yul\":3969:3973   */\n      0x41\n        /* \"#utility.yul\":3966:3967   */\n      0x04\n        /* \"#utility.yul\":3959:3974   */\n      mstore\n        /* \"#utility.yul\":3993:3997   */\n      0x24\n        /* \"#utility.yul\":3990:3991   */\n      0x00\n        /* \"#utility.yul\":3983:3998   */\n      revert\n\n    auxdata: 0xa2646970667358221220c259919cba14025d1977cf7f1a7f866dc2b9197d092d5c0839f6ccb920586be664736f6c63430008000033\n}\n",
				"bytecode": {
					"linkReferences": {},
					"object": "608060405234801561001057600080fd5b50610479806100206000396000f3fe608060405234801561001057600080fd5b506004361061002b5760003560e01c8063ed8b023114610030575b600080fd5b61004a60048036038101906100459190610246565b61004c565b005b806000803373ffffffffffffffffffffffffffffffffffffffff1673ffffffffffffffffffffffffffffffffffffffff1681526020019081526020016000206000018360405161009c91906102e3565b908152602001604051809103902090805190602001906100bd92919061013b565b50600160003373ffffffffffffffffffffffffffffffffffffffff1673ffffffffffffffffffffffffffffffffffffffff1681526020019081526020016000208290806001815401808255809150506001900390600052602060002001600090919091909150908051906020019061013692919061013b565b505050565b828054610147906103b3565b90600052602060002090601f01602090048101928261016957600085556101b0565b82601f1061018257805160ff19168380011785556101b0565b828001600101855582156101b0579182015b828111156101af578251825591602001919060010190610194565b5b5090506101bd91906101c1565b5090565b5b808211156101da5760008160009055506001016101c2565b5090565b60006101f16101ec8461032b565b6102fa565b90508281526020810184848401111561020957600080fd5b610214848285610371565b509392505050565b600082601f83011261022d57600080fd5b813561023d8482602086016101de565b91505092915050565b6000806040838503121561025957600080fd5b600083013567ffffffffffffffff81111561027357600080fd5b61027f8582860161021c565b925050602083013567ffffffffffffffff81111561029c57600080fd5b6102a88582860161021c565b9150509250929050565b60006102bd8261035b565b6102c78185610366565b93506102d7818560208601610380565b80840191505092915050565b60006102ef82846102b2565b915081905092915050565b6000604051905081810181811067ffffffffffffffff8211171561032157610320610414565b5b8060405250919050565b600067ffffffffffffffff82111561034657610345610414565b5b601f19601f8301169050602081019050919050565b600081519050919050565b600081905092915050565b82818337600083830152505050565b60005b8381101561039e578082015181840152602081019050610383565b838111156103ad576000848401525b50505050565b600060028204905060018216806103cb57607f821691505b602082108114156103df576103de6103e5565b5b50919050565b7f4e487b7100000000000000000000000000000000000000000000000000000000600052602260045260246000fd5b7f4e487b7100000000000000000000000000000000000000000000000000000000600052604160045260246000fdfea2646970667358221220c259919cba14025d1977cf7f1a7f866dc2b9197d092d5c0839f6ccb920586be664736f6c63430008000033",
					"opcodes": "PUSH1 0x80 PUSH1 0x40 MSTORE CALLVALUE DUP1 ISZERO PUSH2 0x10 JUMPI PUSH1 0x0 DUP1 REVERT JUMPDEST POP PUSH2 0x479 DUP1 PUSH2 0x20 PUSH1 0x0 CODECOPY PUSH1 0x0 RETURN INVALID PUSH1 0x80 PUSH1 0x40 MSTORE CALLVALUE DUP1 ISZERO PUSH2 0x10 JUMPI PUSH1 0x0 DUP1 REVERT JUMPDEST POP PUSH1 0x4 CALLDATASIZE LT PUSH2 0x2B JUMPI PUSH1 0x0 CALLDATALOAD PUSH1 0xE0 SHR DUP1 PUSH4 0xED8B0231 EQ PUSH2 0x30 JUMPI JUMPDEST PUSH1 0x0 DUP1 REVERT JUMPDEST PUSH2 0x4A PUSH1 0x4 DUP1 CALLDATASIZE SUB DUP2 ADD SWAP1 PUSH2 0x45 SWAP2 SWAP1 PUSH2 0x246 JUMP JUMPDEST PUSH2 0x4C JUMP JUMPDEST STOP JUMPDEST DUP1 PUSH1 0x0 DUP1 CALLER PUSH20 0xFFFFFFFFFFFFFFFFFFFFFFFFFFFFFFFFFFFFFFFF AND PUSH20 0xFFFFFFFFFFFFFFFFFFFFFFFFFFFFFFFFFFFFFFFF AND DUP2 MSTORE PUSH1 0x20 ADD SWAP1 DUP2 MSTORE PUSH1 0x20 ADD PUSH1 0x0 KECCAK256 PUSH1 0x0 ADD DUP4 PUSH1 0x40 MLOAD PUSH2 0x9C SWAP2 SWAP1 PUSH2 0x2E3 JUMP JUMPDEST SWAP1 DUP2 MSTORE PUSH1 0x20 ADD PUSH1 0x40 MLOAD DUP1 SWAP2 SUB SWAP1 KECCAK256 SWAP1 DUP1 MLOAD SWAP1 PUSH1 0x20 ADD SWAP1 PUSH2 0xBD SWAP3 SWAP2 SWAP1 PUSH2 0x13B JUMP JUMPDEST POP PUSH1 0x1 PUSH1 0x0 CALLER PUSH20 0xFFFFFFFFFFFFFFFFFFFFFFFFFFFFFFFFFFFFFFFF AND PUSH20 0xFFFFFFFFFFFFFFFFFFFFFFFFFFFFFFFFFFFFFFFF AND DUP2 MSTORE PUSH1 0x20 ADD SWAP1 DUP2 MSTORE PUSH1 0x20 ADD PUSH1 0x0 KECCAK256 DUP3 SWAP1 DUP1 PUSH1 0x1 DUP2 SLOAD ADD DUP1 DUP3 SSTORE DUP1 SWAP2 POP POP PUSH1 0x1 SWAP1 SUB SWAP1 PUSH1 0x0 MSTORE PUSH1 0x20 PUSH1 0x0 KECCAK256 ADD PUSH1 0x0 SWAP1 SWAP2 SWAP1 SWAP2 SWAP1 SWAP2 POP SWAP1 DUP1 MLOAD SWAP1 PUSH1 0x20 ADD SWAP1 PUSH2 0x136 SWAP3 SWAP2 SWAP1 PUSH2 0x13B JUMP JUMPDEST POP POP POP JUMP JUMPDEST DUP3 DUP1 SLOAD PUSH2 0x147 SWAP1 PUSH2 0x3B3 JUMP JUMPDEST SWAP1 PUSH1 0x0 MSTORE PUSH1 0x20 PUSH1 0x0 KECCAK256 SWAP1 PUSH1 0x1F ADD PUSH1 0x20 SWAP1 DIV DUP2 ADD SWAP3 DUP3 PUSH2 0x169 JUMPI PUSH1 0x0 DUP6 SSTORE PUSH2 0x1B0 JUMP JUMPDEST DUP3 PUSH1 0x1F LT PUSH2 0x182 JUMPI DUP1 MLOAD PUSH1 0xFF NOT AND DUP4 DUP1 ADD OR DUP6 SSTORE PUSH2 0x1B0 JUMP JUMPDEST DUP3 DUP1 ADD PUSH1 0x1 ADD DUP6 SSTORE DUP3 ISZERO PUSH2 0x1B0 JUMPI SWAP2 DUP3 ADD JUMPDEST DUP3 DUP2 GT ISZERO PUSH2 0x1AF JUMPI DUP3 MLOAD DUP3 SSTORE SWAP2 PUSH1 0x20 ADD SWAP2 SWAP1 PUSH1 0x1 ADD SWAP1 PUSH2 0x194 JUMP JUMPDEST JUMPDEST POP SWAP1 POP PUSH2 0x1BD SWAP2 SWAP1 PUSH2 0x1C1 JUMP JUMPDEST POP SWAP1 JUMP JUMPDEST JUMPDEST DUP1 DUP3 GT ISZERO PUSH2 0x1DA JUMPI PUSH1 0x0 DUP2 PUSH1 0x0 SWAP1 SSTORE POP PUSH1 0x1 ADD PUSH2 0x1C2 JUMP JUMPDEST POP SWAP1 JUMP JUMPDEST PUSH1 0x0 PUSH2 0x1F1 PUSH2 0x1EC DUP5 PUSH2 0x32B JUMP JUMPDEST PUSH2 0x2FA JUMP JUMPDEST SWAP1 POP DUP3 DUP2 MSTORE PUSH1 0x20 DUP2 ADD DUP5 DUP5 DUP5 ADD GT ISZERO PUSH2 0x209 JUMPI PUSH1 0x0 DUP1 REVERT JUMPDEST PUSH2 0x214 DUP5 DUP3 DUP6 PUSH2 0x371 JUMP JUMPDEST POP SWAP4 SWAP3 POP POP POP JUMP JUMPDEST PUSH1 0x0 DUP3 PUSH1 0x1F DUP4 ADD SLT PUSH2 0x22D JUMPI PUSH1 0x0 DUP1 REVERT JUMPDEST DUP2 CALLDATALOAD PUSH2 0x23D DUP5 DUP3 PUSH1 0x20 DUP7 ADD PUSH2 0x1DE JUMP JUMPDEST SWAP2 POP POP SWAP3 SWAP2 POP POP JUMP JUMPDEST PUSH1 0x0 DUP1 PUSH1 0x40 DUP4 DUP6 SUB SLT ISZERO PUSH2 0x259 JUMPI PUSH1 0x0 DUP1 REVERT JUMPDEST PUSH1 0x0 DUP4 ADD CALLDATALOAD PUSH8 0xFFFFFFFFFFFFFFFF DUP2 GT ISZERO PUSH2 0x273 JUMPI PUSH1 0x0 DUP1 REVERT JUMPDEST PUSH2 0x27F DUP6 DUP3 DUP7 ADD PUSH2 0x21C JUMP JUMPDEST SWAP3 POP POP PUSH1 0x20 DUP4 ADD CALLDATALOAD PUSH8 0xFFFFFFFFFFFFFFFF DUP2 GT ISZERO PUSH2 0x29C JUMPI PUSH1 0x0 DUP1 REVERT JUMPDEST PUSH2 0x2A8 DUP6 DUP3 DUP7 ADD PUSH2 0x21C JUMP JUMPDEST SWAP2 POP POP SWAP3 POP SWAP3 SWAP1 POP JUMP JUMPDEST PUSH1 0x0 PUSH2 0x2BD DUP3 PUSH2 0x35B JUMP JUMPDEST PUSH2 0x2C7 DUP2 DUP6 PUSH2 0x366 JUMP JUMPDEST SWAP4 POP PUSH2 0x2D7 DUP2 DUP6 PUSH1 0x20 DUP7 ADD PUSH2 0x380 JUMP JUMPDEST DUP1 DUP5 ADD SWAP2 POP POP SWAP3 SWAP2 POP POP JUMP JUMPDEST PUSH1 0x0 PUSH2 0x2EF DUP3 DUP5 PUSH2 0x2B2 JUMP JUMPDEST SWAP2 POP DUP2 SWAP1 POP SWAP3 SWAP2 POP POP JUMP JUMPDEST PUSH1 0x0 PUSH1 0x40 MLOAD SWAP1 POP DUP2 DUP2 ADD DUP2 DUP2 LT PUSH8 0xFFFFFFFFFFFFFFFF DUP3 GT OR ISZERO PUSH2 0x321 JUMPI PUSH2 0x320 PUSH2 0x414 JUMP JUMPDEST JUMPDEST DUP1 PUSH1 0x40 MSTORE POP SWAP2 SWAP1 POP JUMP JUMPDEST PUSH1 0x0 PUSH8 0xFFFFFFFFFFFFFFFF DUP3 GT ISZERO PUSH2 0x346 JUMPI PUSH2 0x345 PUSH2 0x414 JUMP JUMPDEST JUMPDEST PUSH1 0x1F NOT PUSH1 0x1F DUP4 ADD AND SWAP1 POP PUSH1 0x20 DUP2 ADD SWAP1 POP SWAP2 SWAP1 POP JUMP JUMPDEST PUSH1 0x0 DUP2 MLOAD SWAP1 POP SWAP2 SWAP1 POP JUMP JUMPDEST PUSH1 0x0 DUP2 SWAP1 POP SWAP3 SWAP2 POP POP JUMP JUMPDEST DUP3 DUP2 DUP4 CALLDATACOPY PUSH1 0x0 DUP4 DUP4 ADD MSTORE POP POP POP JUMP JUMPDEST PUSH1 0x0 JUMPDEST DUP4 DUP2 LT ISZERO PUSH2 0x39E JUMPI DUP1 DUP3 ADD MLOAD DUP2 DUP5 ADD MSTORE PUSH1 0x20 DUP2 ADD SWAP1 POP PUSH2 0x383 JUMP JUMPDEST DUP4 DUP2 GT ISZERO PUSH2 0x3AD JUMPI PUSH1 0x0 DUP5 DUP5 ADD MSTORE JUMPDEST POP POP POP POP JUMP JUMPDEST PUSH1 0x0 PUSH1 0x2 DUP3 DIV SWAP1 POP PUSH1 0x1 DUP3 AND DUP1 PUSH2 0x3CB JUMPI PUSH1 0x7F DUP3 AND SWAP2 POP JUMPDEST PUSH1 0x20 DUP3 LT DUP2 EQ ISZERO PUSH2 0x3DF JUMPI PUSH2 0x3DE PUSH2 0x3E5 JUMP JUMPDEST JUMPDEST POP SWAP2 SWAP1 POP JUMP JUMPDEST PUSH32 0x4E487B7100000000000000000000000000000000000000000000000000000000 PUSH1 0x0 MSTORE PUSH1 0x22 PUSH1 0x4 MSTORE PUSH1 0x24 PUSH1 0x0 REVERT JUMPDEST PUSH32 0x4E487B7100000000000000000000000000000000000000000000000000000000 PUSH1 0x0 MSTORE PUSH1 0x41 PUSH1 0x4 MSTORE PUSH1 0x24 PUSH1 0x0 REVERT INVALID LOG2 PUSH5 0x6970667358 0x22 SLT KECCAK256 0xC2 MSIZE SWAP2 SWAP13 0xBA EQ MUL 0x5D NOT PUSH24 0xCF7F1A7F866DC2B9197D092D5C0839F6CCB920586BE66473 PUSH16 0x6C634300080000330000000000000000 "
				},
				"gasEstimates": {
					"creation": {
						"codeDepositCost": "229000",
						"executionCost": "269",
						"totalCost": "229269"
					},
					"external": {
						"AddMedical(string,string)": "infinite"
					}
				},
				"methodIdentifiers": {
					"AddMedical(string,string)": "ed8b0231"
				}
			},
			"storageLayout": {
				"storage": [
					{
						"astId": 11,
						"contract": "test,sol.sol:Test",
						"label": "User_Medical",
						"offset": 0,
						"slot": "0",
						"type": "t_mapping(t_address,t_struct(Medical)6_storage)"
					},
					{
						"astId": 16,
						"contract": "test,sol.sol:Test",
						"label": "user_Medical_name",
						"offset": 0,
						"slot": "1",
						"type": "t_mapping(t_address,t_array(t_string_storage)dyn_storage)"
					}
				],
				"types": {
					"t_address": {
						"encoding": "inplace",
						"label": "address",
						"numberOfBytes": "20"
					},
					"t_array(t_string_storage)dyn_storage": {
						"base": "t_string_storage",
						"encoding": "dynamic_array",
						"label": "string[]",
						"numberOfBytes": "32"
					},
					"t_mapping(t_address,t_array(t_string_storage)dyn_storage)": {
						"encoding": "mapping",
						"key": "t_address",
						"label": "mapping(address => string[])",
						"numberOfBytes": "32",
						"value": "t_array(t_string_storage)dyn_storage"
					},
					"t_mapping(t_address,t_struct(Medical)6_storage)": {
						"encoding": "mapping",
						"key": "t_address",
						"label": "mapping(address => struct Test.Medical)",
						"numberOfBytes": "32",
						"value": "t_struct(Medical)6_storage"
					},
					"t_mapping(t_string_memory_ptr,t_string_storage)": {
						"encoding": "mapping",
						"key": "t_string_memory_ptr",
						"label": "mapping(string => string)",
						"numberOfBytes": "32",
						"value": "t_string_storage"
					},
					"t_string_memory_ptr": {
						"encoding": "bytes",
						"label": "string",
						"numberOfBytes": "32"
					},
					"t_string_storage": {
						"encoding": "bytes",
						"label": "string",
						"numberOfBytes": "32"
					},
					"t_struct(Medical)6_storage": {
						"encoding": "inplace",
						"label": "struct Test.Medical",
						"members": [
							{
								"astId": 5,
								"contract": "test,sol.sol:Test",
								"label": "File",
								"offset": 0,
								"slot": "0",
								"type": "t_mapping(t_string_memory_ptr,t_string_storage)"
							}
						],
						"numberOfBytes": "32"
					}
				}
			},
			"userdoc": {
				"kind": "user",
				"methods": {},
				"version": 1
			}
		}
	}
}