{
	"test,sol.sol": {
		"Test": {
			"abi": [
				{
					"inputs": [
						{
							"internalType": "string",
							"name": "_name",
							"type": "string"
						},
						{
							"internalType": "string",
							"name": "_url",
							"type": "string"
						}
					],
					"name": "AddMedical",
					"outputs": [],
					"stateMutability": "nonpayable",
					"type": "function"
				},
				{
					"inputs": [
						{
							"internalType": "string",
							"name": "_name",
							"type": "string"
						}
					],
					"name": "PreviewMedicalFile",
					"outputs": [
						{
							"internalType": "string",
							"name": "",
							"type": "string"
						}
					],
					"stateMutability": "view",
					"type": "function"
				},
				{
					"inputs": [
						{
							"internalType": "address",
							"name": "",
							"type": "address"
						},
						{
							"internalType": "uint256",
							"name": "",
							"type": "uint256"
						}
					],
					"name": "user_Medical_name",
					"outputs": [
						{
							"internalType": "string",
							"name": "",
							"type": "string"
						}
					],
					"stateMutability": "view",
					"type": "function"
				}
			],
			"devdoc": {
				"kind": "dev",
				"methods": {},
				"version": 1
			},
			"evm": {
				"assembly": "    /* \"test,sol.sol\":27:572  contract Test{\r... */\n  mstore(0x40, 0x80)\n  callvalue\n  dup1\n  iszero\n  tag_1\n  jumpi\n  0x00\n  dup1\n  revert\ntag_1:\n  pop\n  dataSize(sub_0)\n  dup1\n  dataOffset(sub_0)\n  0x00\n  codecopy\n  0x00\n  return\nstop\n\nsub_0: assembly {\n        /* \"test,sol.sol\":27:572  contract Test{\r... */\n      mstore(0x40, 0x80)\n      callvalue\n      dup1\n      iszero\n      tag_1\n      jumpi\n      0x00\n      dup1\n      revert\n    tag_1:\n      pop\n      jumpi(tag_2, lt(calldatasize, 0x04))\n      shr(0xe0, calldataload(0x00))\n      dup1\n      0x5cf9a90a\n      eq\n      tag_3\n      jumpi\n      dup1\n      0xc44a10df\n      eq\n      tag_4\n      jumpi\n      dup1\n      0xed8b0231\n      eq\n      tag_5\n      jumpi\n    tag_2:\n      0x00\n      dup1\n      revert\n        /* \"test,sol.sol\":169:222  mapping(address => string[]) public user_Medical_name */\n    tag_3:\n      tag_6\n      0x04\n      dup1\n      calldatasize\n      sub\n      dup2\n      add\n      swap1\n      tag_7\n      swap2\n      swap1\n      tag_8\n      jump\t// in\n    tag_7:\n      tag_9\n      jump\t// in\n    tag_6:\n      mload(0x40)\n      tag_10\n      swap2\n      swap1\n      tag_11\n      jump\t// in\n    tag_10:\n      mload(0x40)\n      dup1\n      swap2\n      sub\n      swap1\n      return\n        /* \"test,sol.sol\":423:569  function PreviewMedicalFile (string memory _name) public view returns(string memory){\r... */\n    tag_4:\n      tag_12\n      0x04\n      dup1\n      calldatasize\n      sub\n      dup2\n      add\n      swap1\n      tag_13\n      swap2\n      swap1\n      tag_14\n      jump\t// in\n    tag_13:\n      tag_15\n      jump\t// in\n    tag_12:\n      mload(0x40)\n      tag_16\n      swap2\n      swap1\n      tag_11\n      jump\t// in\n    tag_16:\n      mload(0x40)\n      dup1\n      swap2\n      sub\n      swap1\n      return\n        /* \"test,sol.sol\":231:415  function AddMedical (string memory _name , string memory _url) public {\r... */\n    tag_5:\n      tag_17\n      0x04\n      dup1\n      calldatasize\n      sub\n      dup2\n      add\n      swap1\n      tag_18\n      swap2\n      swap1\n      tag_19\n      jump\t// in\n    tag_18:\n      tag_20\n      jump\t// in\n    tag_17:\n      stop\n        /* \"test,sol.sol\":169:222  mapping(address => string[]) public user_Medical_name */\n    tag_9:\n      mstore(0x20, 0x01)\n      dup2\n      0x00\n      mstore\n      keccak256(0x00, 0x40)\n      dup2\n      dup2\n      sload\n      dup2\n      lt\n      tag_21\n      jumpi\n      0x00\n      dup1\n      revert\n    tag_21:\n      swap1\n      0x00\n      mstore\n      keccak256(0x00, 0x20)\n      add\n      0x00\n      swap2\n      pop\n      swap2\n      pop\n      pop\n      dup1\n      sload\n      tag_23\n      swap1\n      tag_24\n      jump\t// in\n    tag_23:\n      dup1\n      0x1f\n      add\n      0x20\n      dup1\n      swap2\n      div\n      mul\n      0x20\n      add\n      mload(0x40)\n      swap1\n      dup2\n      add\n      0x40\n      mstore\n      dup1\n      swap3\n      swap2\n      swap1\n      dup2\n      dup2\n      mstore\n      0x20\n      add\n      dup3\n      dup1\n      sload\n      tag_25\n      swap1\n      tag_24\n      jump\t// in\n    tag_25:\n      dup1\n      iszero\n      tag_26\n      jumpi\n      dup1\n      0x1f\n      lt\n      tag_27\n      jumpi\n      0x0100\n      dup1\n      dup4\n      sload\n      div\n      mul\n      dup4\n      mstore\n      swap2\n      0x20\n      add\n      swap2\n      jump(tag_26)\n    tag_27:\n      dup3\n      add\n      swap2\n      swap1\n      0x00\n      mstore\n      keccak256(0x00, 0x20)\n      swap1\n    tag_28:\n      dup2\n      sload\n      dup2\n      mstore\n      swap1\n      0x01\n      add\n      swap1\n      0x20\n      add\n      dup1\n      dup4\n      gt\n      tag_28\n      jumpi\n      dup3\n      swap1\n      sub\n      0x1f\n      and\n      dup3\n      add\n      swap2\n    tag_26:\n      pop\n      pop\n      pop\n      pop\n      pop\n      dup2\n      jump\t// out\n        /* \"test,sol.sol\":423:569  function PreviewMedicalFile (string memory _name) public view returns(string memory){\r... */\n    tag_15:\n        /* \"test,sol.sol\":493:506  string memory */\n      0x60\n        /* \"test,sol.sol\":525:537  User_Medical */\n      0x00\n        /* \"test,sol.sol\":525:549  User_Medical[msg.sender] */\n      dup1\n        /* \"test,sol.sol\":538:548  msg.sender */\n      caller\n        /* \"test,sol.sol\":525:549  User_Medical[msg.sender] */\n      0xffffffffffffffffffffffffffffffffffffffff\n      and\n      0xffffffffffffffffffffffffffffffffffffffff\n      and\n      dup2\n      mstore\n      0x20\n      add\n      swap1\n      dup2\n      mstore\n      0x20\n      add\n      0x00\n      keccak256\n        /* \"test,sol.sol\":525:554  User_Medical[msg.sender].File */\n      0x00\n      add\n        /* \"test,sol.sol\":555:560  _name */\n      dup3\n        /* \"test,sol.sol\":525:561  User_Medical[msg.sender].File[_name] */\n      mload(0x40)\n      tag_30\n      swap2\n      swap1\n      tag_31\n      jump\t// in\n    tag_30:\n      swap1\n      dup2\n      mstore\n      0x20\n      add\n      mload(0x40)\n      dup1\n      swap2\n      sub\n      swap1\n      keccak256\n        /* \"test,sol.sol\":518:561  return User_Medical[msg.sender].File[_name] */\n      dup1\n      sload\n      tag_32\n      swap1\n      tag_24\n      jump\t// in\n    tag_32:\n      dup1\n      0x1f\n      add\n      0x20\n      dup1\n      swap2\n      div\n      mul\n      0x20\n      add\n      mload(0x40)\n      swap1\n      dup2\n      add\n      0x40\n      mstore\n      dup1\n      swap3\n      swap2\n      swap1\n      dup2\n      dup2\n      mstore\n      0x20\n      add\n      dup3\n      dup1\n      sload\n      tag_33\n      swap1\n      tag_24\n      jump\t// in\n    tag_33:\n      dup1\n      iszero\n      tag_34\n      jumpi\n      dup1\n      0x1f\n      lt\n      tag_35\n      jumpi\n      0x0100\n      dup1\n      dup4\n      sload\n      div\n      mul\n      dup4\n      mstore\n      swap2\n      0x20\n      add\n      swap2\n      jump(tag_34)\n    tag_35:\n      dup3\n      add\n      swap2\n      swap1\n      0x00\n      mstore\n      keccak256(0x00, 0x20)\n      swap1\n    tag_36:\n      dup2\n      sload\n      dup2\n      mstore\n      swap1\n      0x01\n      add\n      swap1\n      0x20\n      add\n      dup1\n      dup4\n      gt\n      tag_36\n      jumpi\n      dup3\n      swap1\n      sub\n      0x1f\n      and\n      dup3\n      add\n      swap2\n    tag_34:\n      pop\n      pop\n      pop\n      pop\n      pop\n      swap1\n      pop\n        /* \"test,sol.sol\":423:569  function PreviewMedicalFile (string memory _name) public view returns(string memory){\r... */\n      swap2\n      swap1\n      pop\n      jump\t// out\n        /* \"test,sol.sol\":231:415  function AddMedical (string memory _name , string memory _url) public {\r... */\n    tag_20:\n        /* \"test,sol.sol\":351:355  _url */\n      dup1\n        /* \"test,sol.sol\":312:324  User_Medical */\n      0x00\n        /* \"test,sol.sol\":312:336  User_Medical[msg.sender] */\n      dup1\n        /* \"test,sol.sol\":325:335  msg.sender */\n      caller\n        /* \"test,sol.sol\":312:336  User_Medical[msg.sender] */\n      0xffffffffffffffffffffffffffffffffffffffff\n      and\n      0xffffffffffffffffffffffffffffffffffffffff\n      and\n      dup2\n      mstore\n      0x20\n      add\n      swap1\n      dup2\n      mstore\n      0x20\n      add\n      0x00\n      keccak256\n        /* \"test,sol.sol\":312:341  User_Medical[msg.sender].File */\n      0x00\n      add\n        /* \"test,sol.sol\":342:347  _name */\n      dup4\n        /* \"test,sol.sol\":312:348  User_Medical[msg.sender].File[_name] */\n      mload(0x40)\n      tag_38\n      swap2\n      swap1\n      tag_31\n      jump\t// in\n    tag_38:\n      swap1\n      dup2\n      mstore\n      0x20\n      add\n      mload(0x40)\n      dup1\n      swap2\n      sub\n      swap1\n      keccak256\n        /* \"test,sol.sol\":312:355  User_Medical[msg.sender].File[_name] = _url */\n      swap1\n      dup1\n      mload\n      swap1\n      0x20\n      add\n      swap1\n      tag_39\n      swap3\n      swap2\n      swap1\n      tag_40\n      jump\t// in\n    tag_39:\n      pop\n        /* \"test,sol.sol\":366:383  user_Medical_name */\n      0x01\n        /* \"test,sol.sol\":366:395  user_Medical_name[msg.sender] */\n      0x00\n        /* \"test,sol.sol\":384:394  msg.sender */\n      caller\n        /* \"test,sol.sol\":366:395  user_Medical_name[msg.sender] */\n      0xffffffffffffffffffffffffffffffffffffffff\n      and\n      0xffffffffffffffffffffffffffffffffffffffff\n      and\n      dup2\n      mstore\n      0x20\n      add\n      swap1\n      dup2\n      mstore\n      0x20\n      add\n      0x00\n      keccak256\n        /* \"test,sol.sol\":401:406  _name */\n      dup3\n        /* \"test,sol.sol\":366:407  user_Medical_name[msg.sender].push(_name) */\n      swap1\n      dup1\n      0x01\n      dup2\n      sload\n      add\n      dup1\n      dup3\n      sstore\n      dup1\n      swap2\n      pop\n      pop\n      0x01\n      swap1\n      sub\n      swap1\n      0x00\n      mstore\n      keccak256(0x00, 0x20)\n      add\n      0x00\n      swap1\n      swap2\n      swap1\n      swap2\n      swap1\n      swap2\n      pop\n      swap1\n      dup1\n      mload\n      swap1\n      0x20\n      add\n      swap1\n      tag_42\n      swap3\n      swap2\n      swap1\n      tag_40\n      jump\t// in\n    tag_42:\n      pop\n        /* \"test,sol.sol\":231:415  function AddMedical (string memory _name , string memory _url) public {\r... */\n      pop\n      pop\n      jump\t// out\n    tag_40:\n      dup3\n      dup1\n      sload\n      tag_43\n      swap1\n      tag_24\n      jump\t// in\n    tag_43:\n      swap1\n      0x00\n      mstore\n      keccak256(0x00, 0x20)\n      swap1\n      0x1f\n      add\n      0x20\n      swap1\n      div\n      dup2\n      add\n      swap3\n      dup3\n      tag_45\n      jumpi\n      0x00\n      dup6\n      sstore\n      jump(tag_44)\n    tag_45:\n      dup3\n      0x1f\n      lt\n      tag_46\n      jumpi\n      dup1\n      mload\n      not(0xff)\n      and\n      dup4\n      dup1\n      add\n      or\n      dup6\n      sstore\n      jump(tag_44)\n    tag_46:\n      dup3\n      dup1\n      add\n      0x01\n      add\n      dup6\n      sstore\n      dup3\n      iszero\n      tag_44\n      jumpi\n      swap2\n      dup3\n      add\n    tag_47:\n      dup3\n      dup2\n      gt\n      iszero\n      tag_48\n      jumpi\n      dup3\n      mload\n      dup3\n      sstore\n      swap2\n      0x20\n      add\n      swap2\n      swap1\n      0x01\n      add\n      swap1\n      jump(tag_47)\n    tag_48:\n    tag_44:\n      pop\n      swap1\n      pop\n      tag_49\n      swap2\n      swap1\n      tag_50\n      jump\t// in\n    tag_49:\n      pop\n      swap1\n      jump\t// out\n    tag_50:\n    tag_51:\n      dup1\n      dup3\n      gt\n      iszero\n      tag_52\n      jumpi\n      0x00\n      dup2\n      0x00\n      swap1\n      sstore\n      pop\n      0x01\n      add\n      jump(tag_51)\n    tag_52:\n      pop\n      swap1\n      jump\t// out\n        /* \"#utility.yul\":7:351   */\n    tag_54:\n      0x00\n        /* \"#utility.yul\":110:175   */\n      tag_56\n        /* \"#utility.yul\":125:174   */\n      tag_57\n        /* \"#utility.yul\":167:173   */\n      dup5\n        /* \"#utility.yul\":125:174   */\n      tag_58\n      jump\t// in\n    tag_57:\n        /* \"#utility.yul\":110:175   */\n      tag_59\n      jump\t// in\n    tag_56:\n        /* \"#utility.yul\":101:175   */\n      swap1\n      pop\n        /* \"#utility.yul\":198:204   */\n      dup3\n        /* \"#utility.yul\":191:196   */\n      dup2\n        /* \"#utility.yul\":184:205   */\n      mstore\n        /* \"#utility.yul\":236:240   */\n      0x20\n        /* \"#utility.yul\":229:234   */\n      dup2\n        /* \"#utility.yul\":225:241   */\n      add\n        /* \"#utility.yul\":274:277   */\n      dup5\n        /* \"#utility.yul\":265:271   */\n      dup5\n        /* \"#utility.yul\":260:263   */\n      dup5\n        /* \"#utility.yul\":256:272   */\n      add\n        /* \"#utility.yul\":253:278   */\n      gt\n        /* \"#utility.yul\":250:252   */\n      iszero\n      tag_60\n      jumpi\n        /* \"#utility.yul\":291:292   */\n      0x00\n        /* \"#utility.yul\":288:289   */\n      dup1\n        /* \"#utility.yul\":281:293   */\n      revert\n        /* \"#utility.yul\":250:252   */\n    tag_60:\n        /* \"#utility.yul\":304:345   */\n      tag_61\n        /* \"#utility.yul\":338:344   */\n      dup5\n        /* \"#utility.yul\":333:336   */\n      dup3\n        /* \"#utility.yul\":328:331   */\n      dup6\n        /* \"#utility.yul\":304:345   */\n      tag_62\n      jump\t// in\n    tag_61:\n        /* \"#utility.yul\":91:351   */\n      pop\n      swap4\n      swap3\n      pop\n      pop\n      pop\n      jump\t// out\n        /* \"#utility.yul\":357:496   */\n    tag_63:\n      0x00\n        /* \"#utility.yul\":441:447   */\n      dup2\n        /* \"#utility.yul\":428:448   */\n      calldataload\n        /* \"#utility.yul\":419:448   */\n      swap1\n      pop\n        /* \"#utility.yul\":457:490   */\n      tag_65\n        /* \"#utility.yul\":484:489   */\n      dup2\n        /* \"#utility.yul\":457:490   */\n      tag_66\n      jump\t// in\n    tag_65:\n        /* \"#utility.yul\":409:496   */\n      swap3\n      swap2\n      pop\n      pop\n      jump\t// out\n        /* \"#utility.yul\":516:789   */\n    tag_67:\n      0x00\n        /* \"#utility.yul\":621:624   */\n      dup3\n        /* \"#utility.yul\":614:618   */\n      0x1f\n        /* \"#utility.yul\":606:612   */\n      dup4\n        /* \"#utility.yul\":602:619   */\n      add\n        /* \"#utility.yul\":598:625   */\n      slt\n        /* \"#utility.yul\":588:590   */\n      tag_69\n      jumpi\n        /* \"#utility.yul\":639:640   */\n      0x00\n        /* \"#utility.yul\":636:637   */\n      dup1\n        /* \"#utility.yul\":629:641   */\n      revert\n        /* \"#utility.yul\":588:590   */\n    tag_69:\n        /* \"#utility.yul\":679:685   */\n      dup2\n        /* \"#utility.yul\":666:686   */\n      calldataload\n        /* \"#utility.yul\":704:783   */\n      tag_70\n        /* \"#utility.yul\":779:782   */\n      dup5\n        /* \"#utility.yul\":771:777   */\n      dup3\n        /* \"#utility.yul\":764:768   */\n      0x20\n        /* \"#utility.yul\":756:762   */\n      dup7\n        /* \"#utility.yul\":752:769   */\n      add\n        /* \"#utility.yul\":704:783   */\n      tag_54\n      jump\t// in\n    tag_70:\n        /* \"#utility.yul\":695:783   */\n      swap2\n      pop\n        /* \"#utility.yul\":578:789   */\n      pop\n      swap3\n      swap2\n      pop\n      pop\n      jump\t// out\n        /* \"#utility.yul\":795:934   */\n    tag_71:\n      0x00\n        /* \"#utility.yul\":879:885   */\n      dup2\n        /* \"#utility.yul\":866:886   */\n      calldataload\n        /* \"#utility.yul\":857:886   */\n      swap1\n      pop\n        /* \"#utility.yul\":895:928   */\n      tag_73\n        /* \"#utility.yul\":922:927   */\n      dup2\n        /* \"#utility.yul\":895:928   */\n      tag_74\n      jump\t// in\n    tag_73:\n        /* \"#utility.yul\":847:934   */\n      swap3\n      swap2\n      pop\n      pop\n      jump\t// out\n        /* \"#utility.yul\":940:1347   */\n    tag_8:\n      0x00\n      dup1\n        /* \"#utility.yul\":1065:1067   */\n      0x40\n        /* \"#utility.yul\":1053:1062   */\n      dup4\n        /* \"#utility.yul\":1044:1051   */\n      dup6\n        /* \"#utility.yul\":1040:1063   */\n      sub\n        /* \"#utility.yul\":1036:1068   */\n      slt\n        /* \"#utility.yul\":1033:1035   */\n      iszero\n      tag_76\n      jumpi\n        /* \"#utility.yul\":1081:1082   */\n      0x00\n        /* \"#utility.yul\":1078:1079   */\n      dup1\n        /* \"#utility.yul\":1071:1083   */\n      revert\n        /* \"#utility.yul\":1033:1035   */\n    tag_76:\n        /* \"#utility.yul\":1124:1125   */\n      0x00\n        /* \"#utility.yul\":1149:1202   */\n      tag_77\n        /* \"#utility.yul\":1194:1201   */\n      dup6\n        /* \"#utility.yul\":1185:1191   */\n      dup3\n        /* \"#utility.yul\":1174:1183   */\n      dup7\n        /* \"#utility.yul\":1170:1192   */\n      add\n        /* \"#utility.yul\":1149:1202   */\n      tag_63\n      jump\t// in\n    tag_77:\n        /* \"#utility.yul\":1139:1202   */\n      swap3\n      pop\n        /* \"#utility.yul\":1095:1212   */\n      pop\n        /* \"#utility.yul\":1251:1253   */\n      0x20\n        /* \"#utility.yul\":1277:1330   */\n      tag_78\n        /* \"#utility.yul\":1322:1329   */\n      dup6\n        /* \"#utility.yul\":1313:1319   */\n      dup3\n        /* \"#utility.yul\":1302:1311   */\n      dup7\n        /* \"#utility.yul\":1298:1320   */\n      add\n        /* \"#utility.yul\":1277:1330   */\n      tag_71\n      jump\t// in\n    tag_78:\n        /* \"#utility.yul\":1267:1330   */\n      swap2\n      pop\n        /* \"#utility.yul\":1222:1340   */\n      pop\n        /* \"#utility.yul\":1023:1347   */\n      swap3\n      pop\n      swap3\n      swap1\n      pop\n      jump\t// out\n        /* \"#utility.yul\":1353:1728   */\n    tag_14:\n      0x00\n        /* \"#utility.yul\":1471:1473   */\n      0x20\n        /* \"#utility.yul\":1459:1468   */\n      dup3\n        /* \"#utility.yul\":1450:1457   */\n      dup5\n        /* \"#utility.yul\":1446:1469   */\n      sub\n        /* \"#utility.yul\":1442:1474   */\n      slt\n        /* \"#utility.yul\":1439:1441   */\n      iszero\n      tag_80\n      jumpi\n        /* \"#utility.yul\":1487:1488   */\n      0x00\n        /* \"#utility.yul\":1484:1485   */\n      dup1\n        /* \"#utility.yul\":1477:1489   */\n      revert\n        /* \"#utility.yul\":1439:1441   */\n    tag_80:\n        /* \"#utility.yul\":1558:1559   */\n      0x00\n        /* \"#utility.yul\":1547:1556   */\n      dup3\n        /* \"#utility.yul\":1543:1560   */\n      add\n        /* \"#utility.yul\":1530:1561   */\n      calldataload\n        /* \"#utility.yul\":1588:1606   */\n      0xffffffffffffffff\n        /* \"#utility.yul\":1580:1586   */\n      dup2\n        /* \"#utility.yul\":1577:1607   */\n      gt\n        /* \"#utility.yul\":1574:1576   */\n      iszero\n      tag_81\n      jumpi\n        /* \"#utility.yul\":1620:1621   */\n      0x00\n        /* \"#utility.yul\":1617:1618   */\n      dup1\n        /* \"#utility.yul\":1610:1622   */\n      revert\n        /* \"#utility.yul\":1574:1576   */\n    tag_81:\n        /* \"#utility.yul\":1648:1711   */\n      tag_82\n        /* \"#utility.yul\":1703:1710   */\n      dup5\n        /* \"#utility.yul\":1694:1700   */\n      dup3\n        /* \"#utility.yul\":1683:1692   */\n      dup6\n        /* \"#utility.yul\":1679:1701   */\n      add\n        /* \"#utility.yul\":1648:1711   */\n      tag_67\n      jump\t// in\n    tag_82:\n        /* \"#utility.yul\":1638:1711   */\n      swap2\n      pop\n        /* \"#utility.yul\":1501:1721   */\n      pop\n        /* \"#utility.yul\":1429:1728   */\n      swap3\n      swap2\n      pop\n      pop\n      jump\t// out\n        /* \"#utility.yul\":1734:2367   */\n    tag_19:\n      0x00\n      dup1\n        /* \"#utility.yul\":1879:1881   */\n      0x40\n        /* \"#utility.yul\":1867:1876   */\n      dup4\n        /* \"#utility.yul\":1858:1865   */\n      dup6\n        /* \"#utility.yul\":1854:1877   */\n      sub\n        /* \"#utility.yul\":1850:1882   */\n      slt\n        /* \"#utility.yul\":1847:1849   */\n      iszero\n      tag_84\n      jumpi\n        /* \"#utility.yul\":1895:1896   */\n      0x00\n        /* \"#utility.yul\":1892:1893   */\n      dup1\n        /* \"#utility.yul\":1885:1897   */\n      revert\n        /* \"#utility.yul\":1847:1849   */\n    tag_84:\n        /* \"#utility.yul\":1966:1967   */\n      0x00\n        /* \"#utility.yul\":1955:1964   */\n      dup4\n        /* \"#utility.yul\":1951:1968   */\n      add\n        /* \"#utility.yul\":1938:1969   */\n      calldataload\n        /* \"#utility.yul\":1996:2014   */\n      0xffffffffffffffff\n        /* \"#utility.yul\":1988:1994   */\n      dup2\n        /* \"#utility.yul\":1985:2015   */\n      gt\n        /* \"#utility.yul\":1982:1984   */\n      iszero\n      tag_85\n      jumpi\n        /* \"#utility.yul\":2028:2029   */\n      0x00\n        /* \"#utility.yul\":2025:2026   */\n      dup1\n        /* \"#utility.yul\":2018:2030   */\n      revert\n        /* \"#utility.yul\":1982:1984   */\n    tag_85:\n        /* \"#utility.yul\":2056:2119   */\n      tag_86\n        /* \"#utility.yul\":2111:2118   */\n      dup6\n        /* \"#utility.yul\":2102:2108   */\n      dup3\n        /* \"#utility.yul\":2091:2100   */\n      dup7\n        /* \"#utility.yul\":2087:2109   */\n      add\n        /* \"#utility.yul\":2056:2119   */\n      tag_67\n      jump\t// in\n    tag_86:\n        /* \"#utility.yul\":2046:2119   */\n      swap3\n      pop\n        /* \"#utility.yul\":1909:2129   */\n      pop\n        /* \"#utility.yul\":2196:2198   */\n      0x20\n        /* \"#utility.yul\":2185:2194   */\n      dup4\n        /* \"#utility.yul\":2181:2199   */\n      add\n        /* \"#utility.yul\":2168:2200   */\n      calldataload\n        /* \"#utility.yul\":2227:2245   */\n      0xffffffffffffffff\n        /* \"#utility.yul\":2219:2225   */\n      dup2\n        /* \"#utility.yul\":2216:2246   */\n      gt\n        /* \"#utility.yul\":2213:2215   */\n      iszero\n      tag_87\n      jumpi\n        /* \"#utility.yul\":2259:2260   */\n      0x00\n        /* \"#utility.yul\":2256:2257   */\n      dup1\n        /* \"#utility.yul\":2249:2261   */\n      revert\n        /* \"#utility.yul\":2213:2215   */\n    tag_87:\n        /* \"#utility.yul\":2287:2350   */\n      tag_88\n        /* \"#utility.yul\":2342:2349   */\n      dup6\n        /* \"#utility.yul\":2333:2339   */\n      dup3\n        /* \"#utility.yul\":2322:2331   */\n      dup7\n        /* \"#utility.yul\":2318:2340   */\n      add\n        /* \"#utility.yul\":2287:2350   */\n      tag_67\n      jump\t// in\n    tag_88:\n        /* \"#utility.yul\":2277:2350   */\n      swap2\n      pop\n        /* \"#utility.yul\":2139:2360   */\n      pop\n        /* \"#utility.yul\":1837:2367   */\n      swap3\n      pop\n      swap3\n      swap1\n      pop\n      jump\t// out\n        /* \"#utility.yul\":2373:2737   */\n    tag_89:\n      0x00\n        /* \"#utility.yul\":2489:2528   */\n      tag_91\n        /* \"#utility.yul\":2522:2527   */\n      dup3\n        /* \"#utility.yul\":2489:2528   */\n      tag_92\n      jump\t// in\n    tag_91:\n        /* \"#utility.yul\":2544:2615   */\n      tag_93\n        /* \"#utility.yul\":2608:2614   */\n      dup2\n        /* \"#utility.yul\":2603:2606   */\n      dup6\n        /* \"#utility.yul\":2544:2615   */\n      tag_94\n      jump\t// in\n    tag_93:\n        /* \"#utility.yul\":2537:2615   */\n      swap4\n      pop\n        /* \"#utility.yul\":2624:2676   */\n      tag_95\n        /* \"#utility.yul\":2669:2675   */\n      dup2\n        /* \"#utility.yul\":2664:2667   */\n      dup6\n        /* \"#utility.yul\":2657:2661   */\n      0x20\n        /* \"#utility.yul\":2650:2655   */\n      dup7\n        /* \"#utility.yul\":2646:2662   */\n      add\n        /* \"#utility.yul\":2624:2676   */\n      tag_96\n      jump\t// in\n    tag_95:\n        /* \"#utility.yul\":2701:2730   */\n      tag_97\n        /* \"#utility.yul\":2723:2729   */\n      dup2\n        /* \"#utility.yul\":2701:2730   */\n      tag_98\n      jump\t// in\n    tag_97:\n        /* \"#utility.yul\":2696:2699   */\n      dup5\n        /* \"#utility.yul\":2692:2731   */\n      add\n        /* \"#utility.yul\":2685:2731   */\n      swap2\n      pop\n        /* \"#utility.yul\":2465:2737   */\n      pop\n      swap3\n      swap2\n      pop\n      pop\n      jump\t// out\n        /* \"#utility.yul\":2743:3120   */\n    tag_99:\n      0x00\n        /* \"#utility.yul\":2877:2916   */\n      tag_101\n        /* \"#utility.yul\":2910:2915   */\n      dup3\n        /* \"#utility.yul\":2877:2916   */\n      tag_92\n      jump\t// in\n    tag_101:\n        /* \"#utility.yul\":2932:3021   */\n      tag_102\n        /* \"#utility.yul\":3014:3020   */\n      dup2\n        /* \"#utility.yul\":3009:3012   */\n      dup6\n        /* \"#utility.yul\":2932:3021   */\n      tag_103\n      jump\t// in\n    tag_102:\n        /* \"#utility.yul\":2925:3021   */\n      swap4\n      pop\n        /* \"#utility.yul\":3030:3082   */\n      tag_104\n        /* \"#utility.yul\":3075:3081   */\n      dup2\n        /* \"#utility.yul\":3070:3073   */\n      dup6\n        /* \"#utility.yul\":3063:3067   */\n      0x20\n        /* \"#utility.yul\":3056:3061   */\n      dup7\n        /* \"#utility.yul\":3052:3068   */\n      add\n        /* \"#utility.yul\":3030:3082   */\n      tag_96\n      jump\t// in\n    tag_104:\n        /* \"#utility.yul\":3107:3113   */\n      dup1\n        /* \"#utility.yul\":3102:3105   */\n      dup5\n        /* \"#utility.yul\":3098:3114   */\n      add\n        /* \"#utility.yul\":3091:3114   */\n      swap2\n      pop\n        /* \"#utility.yul\":2853:3120   */\n      pop\n      swap3\n      swap2\n      pop\n      pop\n      jump\t// out\n        /* \"#utility.yul\":3126:3401   */\n    tag_31:\n      0x00\n        /* \"#utility.yul\":3280:3375   */\n      tag_106\n        /* \"#utility.yul\":3371:3374   */\n      dup3\n        /* \"#utility.yul\":3362:3368   */\n      dup5\n        /* \"#utility.yul\":3280:3375   */\n      tag_99\n      jump\t// in\n    tag_106:\n        /* \"#utility.yul\":3273:3375   */\n      swap2\n      pop\n        /* \"#utility.yul\":3392:3395   */\n      dup2\n        /* \"#utility.yul\":3385:3395   */\n      swap1\n      pop\n        /* \"#utility.yul\":3262:3401   */\n      swap3\n      swap2\n      pop\n      pop\n      jump\t// out\n        /* \"#utility.yul\":3407:3720   */\n    tag_11:\n      0x00\n        /* \"#utility.yul\":3558:3560   */\n      0x20\n        /* \"#utility.yul\":3547:3556   */\n      dup3\n        /* \"#utility.yul\":3543:3561   */\n      add\n        /* \"#utility.yul\":3535:3561   */\n      swap1\n      pop\n        /* \"#utility.yul\":3607:3616   */\n      dup2\n        /* \"#utility.yul\":3601:3605   */\n      dup2\n        /* \"#utility.yul\":3597:3617   */\n      sub\n        /* \"#utility.yul\":3593:3594   */\n      0x00\n        /* \"#utility.yul\":3582:3591   */\n      dup4\n        /* \"#utility.yul\":3578:3595   */\n      add\n        /* \"#utility.yul\":3571:3618   */\n      mstore\n        /* \"#utility.yul\":3635:3713   */\n      tag_108\n        /* \"#utility.yul\":3708:3712   */\n      dup2\n        /* \"#utility.yul\":3699:3705   */\n      dup5\n        /* \"#utility.yul\":3635:3713   */\n      tag_89\n      jump\t// in\n    tag_108:\n        /* \"#utility.yul\":3627:3713   */\n      swap1\n      pop\n        /* \"#utility.yul\":3525:3720   */\n      swap3\n      swap2\n      pop\n      pop\n      jump\t// out\n        /* \"#utility.yul\":3726:4009   */\n    tag_59:\n      0x00\n        /* \"#utility.yul\":3792:3794   */\n      0x40\n        /* \"#utility.yul\":3786:3795   */\n      mload\n        /* \"#utility.yul\":3776:3795   */\n      swap1\n      pop\n        /* \"#utility.yul\":3834:3838   */\n      dup2\n        /* \"#utility.yul\":3826:3832   */\n      dup2\n        /* \"#utility.yul\":3822:3839   */\n      add\n        /* \"#utility.yul\":3941:3947   */\n      dup2\n        /* \"#utility.yul\":3929:3939   */\n      dup2\n        /* \"#utility.yul\":3926:3948   */\n      lt\n        /* \"#utility.yul\":3905:3923   */\n      0xffffffffffffffff\n        /* \"#utility.yul\":3893:3903   */\n      dup3\n        /* \"#utility.yul\":3890:3924   */\n      gt\n        /* \"#utility.yul\":3887:3949   */\n      or\n        /* \"#utility.yul\":3884:3886   */\n      iszero\n      tag_110\n      jumpi\n        /* \"#utility.yul\":3952:3970   */\n      tag_111\n      tag_112\n      jump\t// in\n    tag_111:\n        /* \"#utility.yul\":3884:3886   */\n    tag_110:\n        /* \"#utility.yul\":3992:4002   */\n      dup1\n        /* \"#utility.yul\":3988:3990   */\n      0x40\n        /* \"#utility.yul\":3981:4003   */\n      mstore\n        /* \"#utility.yul\":3766:4009   */\n      pop\n      swap2\n      swap1\n      pop\n      jump\t// out\n        /* \"#utility.yul\":4015:4347   */\n    tag_58:\n      0x00\n        /* \"#utility.yul\":4167:4185   */\n      0xffffffffffffffff\n        /* \"#utility.yul\":4159:4165   */\n      dup3\n        /* \"#utility.yul\":4156:4186   */\n      gt\n        /* \"#utility.yul\":4153:4155   */\n      iszero\n      tag_114\n      jumpi\n        /* \"#utility.yul\":4189:4207   */\n      tag_115\n      tag_112\n      jump\t// in\n    tag_115:\n        /* \"#utility.yul\":4153:4155   */\n    tag_114:\n        /* \"#utility.yul\":4274:4278   */\n      0x1f\n        /* \"#utility.yul\":4270:4279   */\n      not\n        /* \"#utility.yul\":4263:4267   */\n      0x1f\n        /* \"#utility.yul\":4255:4261   */\n      dup4\n        /* \"#utility.yul\":4251:4268   */\n      add\n        /* \"#utility.yul\":4247:4280   */\n      and\n        /* \"#utility.yul\":4239:4280   */\n      swap1\n      pop\n        /* \"#utility.yul\":4335:4339   */\n      0x20\n        /* \"#utility.yul\":4329:4333   */\n      dup2\n        /* \"#utility.yul\":4325:4340   */\n      add\n        /* \"#utility.yul\":4317:4340   */\n      swap1\n      pop\n        /* \"#utility.yul\":4082:4347   */\n      swap2\n      swap1\n      pop\n      jump\t// out\n        /* \"#utility.yul\":4353:4452   */\n    tag_92:\n      0x00\n        /* \"#utility.yul\":4439:4444   */\n      dup2\n        /* \"#utility.yul\":4433:4445   */\n      mload\n        /* \"#utility.yul\":4423:4445   */\n      swap1\n      pop\n        /* \"#utility.yul\":4412:4452   */\n      swap2\n      swap1\n      pop\n      jump\t// out\n        /* \"#utility.yul\":4458:4627   */\n    tag_94:\n      0x00\n        /* \"#utility.yul\":4576:4582   */\n      dup3\n        /* \"#utility.yul\":4571:4574   */\n      dup3\n        /* \"#utility.yul\":4564:4583   */\n      mstore\n        /* \"#utility.yul\":4616:4620   */\n      0x20\n        /* \"#utility.yul\":4611:4614   */\n      dup3\n        /* \"#utility.yul\":4607:4621   */\n      add\n        /* \"#utility.yul\":4592:4621   */\n      swap1\n      pop\n        /* \"#utility.yul\":4554:4627   */\n      swap3\n      swap2\n      pop\n      pop\n      jump\t// out\n        /* \"#utility.yul\":4633:4781   */\n    tag_103:\n      0x00\n        /* \"#utility.yul\":4772:4775   */\n      dup2\n        /* \"#utility.yul\":4757:4775   */\n      swap1\n      pop\n        /* \"#utility.yul\":4747:4781   */\n      swap3\n      swap2\n      pop\n      pop\n      jump\t// out\n        /* \"#utility.yul\":4787:4883   */\n    tag_119:\n      0x00\n        /* \"#utility.yul\":4853:4877   */\n      tag_121\n        /* \"#utility.yul\":4871:4876   */\n      dup3\n        /* \"#utility.yul\":4853:4877   */\n      tag_122\n      jump\t// in\n    tag_121:\n        /* \"#utility.yul\":4842:4877   */\n      swap1\n      pop\n        /* \"#utility.yul\":4832:4883   */\n      swap2\n      swap1\n      pop\n      jump\t// out\n        /* \"#utility.yul\":4889:5015   */\n    tag_122:\n      0x00\n        /* \"#utility.yul\":4966:5008   */\n      0xffffffffffffffffffffffffffffffffffffffff\n        /* \"#utility.yul\":4959:4964   */\n      dup3\n        /* \"#utility.yul\":4955:5009   */\n      and\n        /* \"#utility.yul\":4944:5009   */\n      swap1\n      pop\n        /* \"#utility.yul\":4934:5015   */\n      swap2\n      swap1\n      pop\n      jump\t// out\n        /* \"#utility.yul\":5021:5098   */\n    tag_124:\n      0x00\n        /* \"#utility.yul\":5087:5092   */\n      dup2\n        /* \"#utility.yul\":5076:5092   */\n      swap1\n      pop\n        /* \"#utility.yul\":5066:5098   */\n      swap2\n      swap1\n      pop\n      jump\t// out\n        /* \"#utility.yul\":5104:5258   */\n    tag_62:\n        /* \"#utility.yul\":5188:5194   */\n      dup3\n        /* \"#utility.yul\":5183:5186   */\n      dup2\n        /* \"#utility.yul\":5178:5181   */\n      dup4\n        /* \"#utility.yul\":5165:5195   */\n      calldatacopy\n        /* \"#utility.yul\":5250:5251   */\n      0x00\n        /* \"#utility.yul\":5241:5247   */\n      dup4\n        /* \"#utility.yul\":5236:5239   */\n      dup4\n        /* \"#utility.yul\":5232:5248   */\n      add\n        /* \"#utility.yul\":5225:5252   */\n      mstore\n        /* \"#utility.yul\":5155:5258   */\n      pop\n      pop\n      pop\n      jump\t// out\n        /* \"#utility.yul\":5264:5571   */\n    tag_96:\n        /* \"#utility.yul\":5332:5333   */\n      0x00\n        /* \"#utility.yul\":5342:5455   */\n    tag_128:\n        /* \"#utility.yul\":5356:5362   */\n      dup4\n        /* \"#utility.yul\":5353:5354   */\n      dup2\n        /* \"#utility.yul\":5350:5363   */\n      lt\n        /* \"#utility.yul\":5342:5455   */\n      iszero\n      tag_130\n      jumpi\n        /* \"#utility.yul\":5441:5442   */\n      dup1\n        /* \"#utility.yul\":5436:5439   */\n      dup3\n        /* \"#utility.yul\":5432:5443   */\n      add\n        /* \"#utility.yul\":5426:5444   */\n      mload\n        /* \"#utility.yul\":5422:5423   */\n      dup2\n        /* \"#utility.yul\":5417:5420   */\n      dup5\n        /* \"#utility.yul\":5413:5424   */\n      add\n        /* \"#utility.yul\":5406:5445   */\n      mstore\n        /* \"#utility.yul\":5378:5380   */\n      0x20\n        /* \"#utility.yul\":5375:5376   */\n      dup2\n        /* \"#utility.yul\":5371:5381   */\n      add\n        /* \"#utility.yul\":5366:5381   */\n      swap1\n      pop\n        /* \"#utility.yul\":5342:5455   */\n      jump(tag_128)\n    tag_130:\n        /* \"#utility.yul\":5473:5479   */\n      dup4\n        /* \"#utility.yul\":5470:5471   */\n      dup2\n        /* \"#utility.yul\":5467:5480   */\n      gt\n        /* \"#utility.yul\":5464:5466   */\n      iszero\n      tag_131\n      jumpi\n        /* \"#utility.yul\":5553:5554   */\n      0x00\n        /* \"#utility.yul\":5544:5550   */\n      dup5\n        /* \"#utility.yul\":5539:5542   */\n      dup5\n        /* \"#utility.yul\":5535:5551   */\n      add\n        /* \"#utility.yul\":5528:5555   */\n      mstore\n        /* \"#utility.yul\":5464:5466   */\n    tag_131:\n        /* \"#utility.yul\":5313:5571   */\n      pop\n      pop\n      pop\n      pop\n      jump\t// out\n        /* \"#utility.yul\":5577:5897   */\n    tag_24:\n      0x00\n        /* \"#utility.yul\":5658:5659   */\n      0x02\n        /* \"#utility.yul\":5652:5656   */\n      dup3\n        /* \"#utility.yul\":5648:5660   */\n      div\n        /* \"#utility.yul\":5638:5660   */\n      swap1\n      pop\n        /* \"#utility.yul\":5705:5706   */\n      0x01\n        /* \"#utility.yul\":5699:5703   */\n      dup3\n        /* \"#utility.yul\":5695:5707   */\n      and\n        /* \"#utility.yul\":5726:5744   */\n      dup1\n        /* \"#utility.yul\":5716:5718   */\n      tag_133\n      jumpi\n        /* \"#utility.yul\":5782:5786   */\n      0x7f\n        /* \"#utility.yul\":5774:5780   */\n      dup3\n        /* \"#utility.yul\":5770:5787   */\n      and\n        /* \"#utility.yul\":5760:5787   */\n      swap2\n      pop\n        /* \"#utility.yul\":5716:5718   */\n    tag_133:\n        /* \"#utility.yul\":5844:5846   */\n      0x20\n        /* \"#utility.yul\":5836:5842   */\n      dup3\n        /* \"#utility.yul\":5833:5847   */\n      lt\n        /* \"#utility.yul\":5813:5831   */\n      dup2\n        /* \"#utility.yul\":5810:5848   */\n      eq\n        /* \"#utility.yul\":5807:5809   */\n      iszero\n      tag_134\n      jumpi\n        /* \"#utility.yul\":5863:5881   */\n      tag_135\n      tag_136\n      jump\t// in\n    tag_135:\n        /* \"#utility.yul\":5807:5809   */\n    tag_134:\n        /* \"#utility.yul\":5628:5897   */\n      pop\n      swap2\n      swap1\n      pop\n      jump\t// out\n        /* \"#utility.yul\":5903:6083   */\n    tag_136:\n        /* \"#utility.yul\":5951:6028   */\n      0x4e487b7100000000000000000000000000000000000000000000000000000000\n        /* \"#utility.yul\":5948:5949   */\n      0x00\n        /* \"#utility.yul\":5941:6029   */\n      mstore\n        /* \"#utility.yul\":6048:6052   */\n      0x22\n        /* \"#utility.yul\":6045:6046   */\n      0x04\n        /* \"#utility.yul\":6038:6053   */\n      mstore\n        /* \"#utility.yul\":6072:6076   */\n      0x24\n        /* \"#utility.yul\":6069:6070   */\n      0x00\n        /* \"#utility.yul\":6062:6077   */\n      revert\n        /* \"#utility.yul\":6089:6269   */\n    tag_112:\n        /* \"#utility.yul\":6137:6214   */\n      0x4e487b7100000000000000000000000000000000000000000000000000000000\n        /* \"#utility.yul\":6134:6135   */\n      0x00\n        /* \"#utility.yul\":6127:6215   */\n      mstore\n        /* \"#utility.yul\":6234:6238   */\n      0x41\n        /* \"#utility.yul\":6231:6232   */\n      0x04\n        /* \"#utility.yul\":6224:6239   */\n      mstore\n        /* \"#utility.yul\":6258:6262   */\n      0x24\n        /* \"#utility.yul\":6255:6256   */\n      0x00\n        /* \"#utility.yul\":6248:6263   */\n      revert\n        /* \"#utility.yul\":6275:6377   */\n    tag_98:\n      0x00\n        /* \"#utility.yul\":6367:6369   */\n      0x1f\n        /* \"#utility.yul\":6363:6370   */\n      not\n        /* \"#utility.yul\":6358:6360   */\n      0x1f\n        /* \"#utility.yul\":6351:6356   */\n      dup4\n        /* \"#utility.yul\":6347:6361   */\n      add\n        /* \"#utility.yul\":6343:6371   */\n      and\n        /* \"#utility.yul\":6333:6371   */\n      swap1\n      pop\n        /* \"#utility.yul\":6323:6377   */\n      swap2\n      swap1\n      pop\n      jump\t// out\n        /* \"#utility.yul\":6383:6505   */\n    tag_66:\n        /* \"#utility.yul\":6456:6480   */\n      tag_141\n        /* \"#utility.yul\":6474:6479   */\n      dup2\n        /* \"#utility.yul\":6456:6480   */\n      tag_119\n      jump\t// in\n    tag_141:\n        /* \"#utility.yul\":6449:6454   */\n      dup2\n        /* \"#utility.yul\":6446:6481   */\n      eq\n        /* \"#utility.yul\":6436:6438   */\n      tag_142\n      jumpi\n        /* \"#utility.yul\":6495:6496   */\n      0x00\n        /* \"#utility.yul\":6492:6493   */\n      dup1\n        /* \"#utility.yul\":6485:6497   */\n      revert\n        /* \"#utility.yul\":6436:6438   */\n    tag_142:\n        /* \"#utility.yul\":6426:6505   */\n      pop\n      jump\t// out\n        /* \"#utility.yul\":6511:6633   */\n    tag_74:\n        /* \"#utility.yul\":6584:6608   */\n      tag_144\n        /* \"#utility.yul\":6602:6607   */\n      dup2\n        /* \"#utility.yul\":6584:6608   */\n      tag_124\n      jump\t// in\n    tag_144:\n        /* \"#utility.yul\":6577:6582   */\n      dup2\n        /* \"#utility.yul\":6574:6609   */\n      eq\n        /* \"#utility.yul\":6564:6566   */\n      tag_145\n      jumpi\n        /* \"#utility.yul\":6623:6624   */\n      0x00\n        /* \"#utility.yul\":6620:6621   */\n      dup1\n        /* \"#utility.yul\":6613:6625   */\n      revert\n        /* \"#utility.yul\":6564:6566   */\n    tag_145:\n        /* \"#utility.yul\":6554:6633   */\n      pop\n      jump\t// out\n\n    auxdata: 0xa2646970667358221220885c5d958009086f0c217dde9774714b95156827e7c28da819ea943fd80b787264736f6c63430008000033\n}\n",
				"bytecode": {
					"linkReferences": {},
					"object": "608060405234801561001057600080fd5b50610825806100206000396000f3fe608060405234801561001057600080fd5b50600436106100415760003560e01c80635cf9a90a14610046578063c44a10df14610076578063ed8b0231146100a6575b600080fd5b610060600480360381019061005b919061048e565b6100c2565b60405161006d91906105f8565b60405180910390f35b610090600480360381019061008b91906104ca565b61017b565b60405161009d91906105f8565b60405180910390f35b6100c060048036038101906100bb919061050b565b61026a565b005b600160205281600052604060002081815481106100de57600080fd5b906000526020600020016000915091505080546100fa90610720565b80601f016020809104026020016040519081016040528092919081815260200182805461012690610720565b80156101735780601f1061014857610100808354040283529160200191610173565b820191906000526020600020905b81548152906001019060200180831161015657829003601f168201915b505050505081565b60606000803373ffffffffffffffffffffffffffffffffffffffff1673ffffffffffffffffffffffffffffffffffffffff168152602001908152602001600020600001826040516101cc91906105e1565b908152602001604051809103902080546101e590610720565b80601f016020809104026020016040519081016040528092919081815260200182805461021190610720565b801561025e5780601f106102335761010080835404028352916020019161025e565b820191906000526020600020905b81548152906001019060200180831161024157829003601f168201915b50505050509050919050565b806000803373ffffffffffffffffffffffffffffffffffffffff1673ffffffffffffffffffffffffffffffffffffffff168152602001908152602001600020600001836040516102ba91906105e1565b908152602001604051809103902090805190602001906102db929190610359565b50600160003373ffffffffffffffffffffffffffffffffffffffff1673ffffffffffffffffffffffffffffffffffffffff16815260200190815260200160002082908060018154018082558091505060019003906000526020600020016000909190919091509080519060200190610354929190610359565b505050565b82805461036590610720565b90600052602060002090601f01602090048101928261038757600085556103ce565b82601f106103a057805160ff19168380011785556103ce565b828001600101855582156103ce579182015b828111156103cd5782518255916020019190600101906103b2565b5b5090506103db91906103df565b5090565b5b808211156103f85760008160009055506001016103e0565b5090565b600061040f61040a8461064b565b61061a565b90508281526020810184848401111561042757600080fd5b6104328482856106de565b509392505050565b600081359050610449816107c1565b92915050565b600082601f83011261046057600080fd5b81356104708482602086016103fc565b91505092915050565b600081359050610488816107d8565b92915050565b600080604083850312156104a157600080fd5b60006104af8582860161043a565b92505060206104c085828601610479565b9150509250929050565b6000602082840312156104dc57600080fd5b600082013567ffffffffffffffff8111156104f657600080fd5b6105028482850161044f565b91505092915050565b6000806040838503121561051e57600080fd5b600083013567ffffffffffffffff81111561053857600080fd5b6105448582860161044f565b925050602083013567ffffffffffffffff81111561056157600080fd5b61056d8582860161044f565b9150509250929050565b60006105828261067b565b61058c8185610686565b935061059c8185602086016106ed565b6105a5816107b0565b840191505092915050565b60006105bb8261067b565b6105c58185610697565b93506105d58185602086016106ed565b80840191505092915050565b60006105ed82846105b0565b915081905092915050565b600060208201905081810360008301526106128184610577565b905092915050565b6000604051905081810181811067ffffffffffffffff8211171561064157610640610781565b5b8060405250919050565b600067ffffffffffffffff82111561066657610665610781565b5b601f19601f8301169050602081019050919050565b600081519050919050565b600082825260208201905092915050565b600081905092915050565b60006106ad826106b4565b9050919050565b600073ffffffffffffffffffffffffffffffffffffffff82169050919050565b6000819050919050565b82818337600083830152505050565b60005b8381101561070b5780820151818401526020810190506106f0565b8381111561071a576000848401525b50505050565b6000600282049050600182168061073857607f821691505b6020821081141561074c5761074b610752565b5b50919050565b7f4e487b7100000000000000000000000000000000000000000000000000000000600052602260045260246000fd5b7f4e487b7100000000000000000000000000000000000000000000000000000000600052604160045260246000fd5b6000601f19601f8301169050919050565b6107ca816106a2565b81146107d557600080fd5b50565b6107e1816106d4565b81146107ec57600080fd5b5056fea2646970667358221220885c5d958009086f0c217dde9774714b95156827e7c28da819ea943fd80b787264736f6c63430008000033",
					"opcodes": "PUSH1 0x80 PUSH1 0x40 MSTORE CALLVALUE DUP1 ISZERO PUSH2 0x10 JUMPI PUSH1 0x0 DUP1 REVERT JUMPDEST POP PUSH2 0x825 DUP1 PUSH2 0x20 PUSH1 0x0 CODECOPY PUSH1 0x0 RETURN INVALID PUSH1 0x80 PUSH1 0x40 MSTORE CALLVALUE DUP1 ISZERO PUSH2 0x10 JUMPI PUSH1 0x0 DUP1 REVERT JUMPDEST POP PUSH1 0x4 CALLDATASIZE LT PUSH2 0x41 JUMPI PUSH1 0x0 CALLDATALOAD PUSH1 0xE0 SHR DUP1 PUSH4 0x5CF9A90A EQ PUSH2 0x46 JUMPI DUP1 PUSH4 0xC44A10DF EQ PUSH2 0x76 JUMPI DUP1 PUSH4 0xED8B0231 EQ PUSH2 0xA6 JUMPI JUMPDEST PUSH1 0x0 DUP1 REVERT JUMPDEST PUSH2 0x60 PUSH1 0x4 DUP1 CALLDATASIZE SUB DUP2 ADD SWAP1 PUSH2 0x5B SWAP2 SWAP1 PUSH2 0x48E JUMP JUMPDEST PUSH2 0xC2 JUMP JUMPDEST PUSH1 0x40 MLOAD PUSH2 0x6D SWAP2 SWAP1 PUSH2 0x5F8 JUMP JUMPDEST PUSH1 0x40 MLOAD DUP1 SWAP2 SUB SWAP1 RETURN JUMPDEST PUSH2 0x90 PUSH1 0x4 DUP1 CALLDATASIZE SUB DUP2 ADD SWAP1 PUSH2 0x8B SWAP2 SWAP1 PUSH2 0x4CA JUMP JUMPDEST PUSH2 0x17B JUMP JUMPDEST PUSH1 0x40 MLOAD PUSH2 0x9D SWAP2 SWAP1 PUSH2 0x5F8 JUMP JUMPDEST PUSH1 0x40 MLOAD DUP1 SWAP2 SUB SWAP1 RETURN JUMPDEST PUSH2 0xC0 PUSH1 0x4 DUP1 CALLDATASIZE SUB DUP2 ADD SWAP1 PUSH2 0xBB SWAP2 SWAP1 PUSH2 0x50B JUMP JUMPDEST PUSH2 0x26A JUMP JUMPDEST STOP JUMPDEST PUSH1 0x1 PUSH1 0x20 MSTORE DUP2 PUSH1 0x0 MSTORE PUSH1 0x40 PUSH1 0x0 KECCAK256 DUP2 DUP2 SLOAD DUP2 LT PUSH2 0xDE JUMPI PUSH1 0x0 DUP1 REVERT JUMPDEST SWAP1 PUSH1 0x0 MSTORE PUSH1 0x20 PUSH1 0x0 KECCAK256 ADD PUSH1 0x0 SWAP2 POP SWAP2 POP POP DUP1 SLOAD PUSH2 0xFA SWAP1 PUSH2 0x720 JUMP JUMPDEST DUP1 PUSH1 0x1F ADD PUSH1 0x20 DUP1 SWAP2 DIV MUL PUSH1 0x20 ADD PUSH1 0x40 MLOAD SWAP1 DUP2 ADD PUSH1 0x40 MSTORE DUP1 SWAP3 SWAP2 SWAP1 DUP2 DUP2 MSTORE PUSH1 0x20 ADD DUP3 DUP1 SLOAD PUSH2 0x126 SWAP1 PUSH2 0x720 JUMP JUMPDEST DUP1 ISZERO PUSH2 0x173 JUMPI DUP1 PUSH1 0x1F LT PUSH2 0x148 JUMPI PUSH2 0x100 DUP1 DUP4 SLOAD DIV MUL DUP4 MSTORE SWAP2 PUSH1 0x20 ADD SWAP2 PUSH2 0x173 JUMP JUMPDEST DUP3 ADD SWAP2 SWAP1 PUSH1 0x0 MSTORE PUSH1 0x20 PUSH1 0x0 KECCAK256 SWAP1 JUMPDEST DUP2 SLOAD DUP2 MSTORE SWAP1 PUSH1 0x1 ADD SWAP1 PUSH1 0x20 ADD DUP1 DUP4 GT PUSH2 0x156 JUMPI DUP3 SWAP1 SUB PUSH1 0x1F AND DUP3 ADD SWAP2 JUMPDEST POP POP POP POP POP DUP2 JUMP JUMPDEST PUSH1 0x60 PUSH1 0x0 DUP1 CALLER PUSH20 0xFFFFFFFFFFFFFFFFFFFFFFFFFFFFFFFFFFFFFFFF AND PUSH20 0xFFFFFFFFFFFFFFFFFFFFFFFFFFFFFFFFFFFFFFFF AND DUP2 MSTORE PUSH1 0x20 ADD SWAP1 DUP2 MSTORE PUSH1 0x20 ADD PUSH1 0x0 KECCAK256 PUSH1 0x0 ADD DUP3 PUSH1 0x40 MLOAD PUSH2 0x1CC SWAP2 SWAP1 PUSH2 0x5E1 JUMP JUMPDEST SWAP1 DUP2 MSTORE PUSH1 0x20 ADD PUSH1 0x40 MLOAD DUP1 SWAP2 SUB SWAP1 KECCAK256 DUP1 SLOAD PUSH2 0x1E5 SWAP1 PUSH2 0x720 JUMP JUMPDEST DUP1 PUSH1 0x1F ADD PUSH1 0x20 DUP1 SWAP2 DIV MUL PUSH1 0x20 ADD PUSH1 0x40 MLOAD SWAP1 DUP2 ADD PUSH1 0x40 MSTORE DUP1 SWAP3 SWAP2 SWAP1 DUP2 DUP2 MSTORE PUSH1 0x20 ADD DUP3 DUP1 SLOAD PUSH2 0x211 SWAP1 PUSH2 0x720 JUMP JUMPDEST DUP1 ISZERO PUSH2 0x25E JUMPI DUP1 PUSH1 0x1F LT PUSH2 0x233 JUMPI PUSH2 0x100 DUP1 DUP4 SLOAD DIV MUL DUP4 MSTORE SWAP2 PUSH1 0x20 ADD SWAP2 PUSH2 0x25E JUMP JUMPDEST DUP3 ADD SWAP2 SWAP1 PUSH1 0x0 MSTORE PUSH1 0x20 PUSH1 0x0 KECCAK256 SWAP1 JUMPDEST DUP2 SLOAD DUP2 MSTORE SWAP1 PUSH1 0x1 ADD SWAP1 PUSH1 0x20 ADD DUP1 DUP4 GT PUSH2 0x241 JUMPI DUP3 SWAP1 SUB PUSH1 0x1F AND DUP3 ADD SWAP2 JUMPDEST POP POP POP POP POP SWAP1 POP SWAP2 SWAP1 POP JUMP JUMPDEST DUP1 PUSH1 0x0 DUP1 CALLER PUSH20 0xFFFFFFFFFFFFFFFFFFFFFFFFFFFFFFFFFFFFFFFF AND PUSH20 0xFFFFFFFFFFFFFFFFFFFFFFFFFFFFFFFFFFFFFFFF AND DUP2 MSTORE PUSH1 0x20 ADD SWAP1 DUP2 MSTORE PUSH1 0x20 ADD PUSH1 0x0 KECCAK256 PUSH1 0x0 ADD DUP4 PUSH1 0x40 MLOAD PUSH2 0x2BA SWAP2 SWAP1 PUSH2 0x5E1 JUMP JUMPDEST SWAP1 DUP2 MSTORE PUSH1 0x20 ADD PUSH1 0x40 MLOAD DUP1 SWAP2 SUB SWAP1 KECCAK256 SWAP1 DUP1 MLOAD SWAP1 PUSH1 0x20 ADD SWAP1 PUSH2 0x2DB SWAP3 SWAP2 SWAP1 PUSH2 0x359 JUMP JUMPDEST POP PUSH1 0x1 PUSH1 0x0 CALLER PUSH20 0xFFFFFFFFFFFFFFFFFFFFFFFFFFFFFFFFFFFFFFFF AND PUSH20 0xFFFFFFFFFFFFFFFFFFFFFFFFFFFFFFFFFFFFFFFF AND DUP2 MSTORE PUSH1 0x20 ADD SWAP1 DUP2 MSTORE PUSH1 0x20 ADD PUSH1 0x0 KECCAK256 DUP3 SWAP1 DUP1 PUSH1 0x1 DUP2 SLOAD ADD DUP1 DUP3 SSTORE DUP1 SWAP2 POP POP PUSH1 0x1 SWAP1 SUB SWAP1 PUSH1 0x0 MSTORE PUSH1 0x20 PUSH1 0x0 KECCAK256 ADD PUSH1 0x0 SWAP1 SWAP2 SWAP1 SWAP2 SWAP1 SWAP2 POP SWAP1 DUP1 MLOAD SWAP1 PUSH1 0x20 ADD SWAP1 PUSH2 0x354 SWAP3 SWAP2 SWAP1 PUSH2 0x359 JUMP JUMPDEST POP POP POP JUMP JUMPDEST DUP3 DUP1 SLOAD PUSH2 0x365 SWAP1 PUSH2 0x720 JUMP JUMPDEST SWAP1 PUSH1 0x0 MSTORE PUSH1 0x20 PUSH1 0x0 KECCAK256 SWAP1 PUSH1 0x1F ADD PUSH1 0x20 SWAP1 DIV DUP2 ADD SWAP3 DUP3 PUSH2 0x387 JUMPI PUSH1 0x0 DUP6 SSTORE PUSH2 0x3CE JUMP JUMPDEST DUP3 PUSH1 0x1F LT PUSH2 0x3A0 JUMPI DUP1 MLOAD PUSH1 0xFF NOT AND DUP4 DUP1 ADD OR DUP6 SSTORE PUSH2 0x3CE JUMP JUMPDEST DUP3 DUP1 ADD PUSH1 0x1 ADD DUP6 SSTORE DUP3 ISZERO PUSH2 0x3CE JUMPI SWAP2 DUP3 ADD JUMPDEST DUP3 DUP2 GT ISZERO PUSH2 0x3CD JUMPI DUP3 MLOAD DUP3 SSTORE SWAP2 PUSH1 0x20 ADD SWAP2 SWAP1 PUSH1 0x1 ADD SWAP1 PUSH2 0x3B2 JUMP JUMPDEST JUMPDEST POP SWAP1 POP PUSH2 0x3DB SWAP2 SWAP1 PUSH2 0x3DF JUMP JUMPDEST POP SWAP1 JUMP JUMPDEST JUMPDEST DUP1 DUP3 GT ISZERO PUSH2 0x3F8 JUMPI PUSH1 0x0 DUP2 PUSH1 0x0 SWAP1 SSTORE POP PUSH1 0x1 ADD PUSH2 0x3E0 JUMP JUMPDEST POP SWAP1 JUMP JUMPDEST PUSH1 0x0 PUSH2 0x40F PUSH2 0x40A DUP5 PUSH2 0x64B JUMP JUMPDEST PUSH2 0x61A JUMP JUMPDEST SWAP1 POP DUP3 DUP2 MSTORE PUSH1 0x20 DUP2 ADD DUP5 DUP5 DUP5 ADD GT ISZERO PUSH2 0x427 JUMPI PUSH1 0x0 DUP1 REVERT JUMPDEST PUSH2 0x432 DUP5 DUP3 DUP6 PUSH2 0x6DE JUMP JUMPDEST POP SWAP4 SWAP3 POP POP POP JUMP JUMPDEST PUSH1 0x0 DUP2 CALLDATALOAD SWAP1 POP PUSH2 0x449 DUP2 PUSH2 0x7C1 JUMP JUMPDEST SWAP3 SWAP2 POP POP JUMP JUMPDEST PUSH1 0x0 DUP3 PUSH1 0x1F DUP4 ADD SLT PUSH2 0x460 JUMPI PUSH1 0x0 DUP1 REVERT JUMPDEST DUP2 CALLDATALOAD PUSH2 0x470 DUP5 DUP3 PUSH1 0x20 DUP7 ADD PUSH2 0x3FC JUMP JUMPDEST SWAP2 POP POP SWAP3 SWAP2 POP POP JUMP JUMPDEST PUSH1 0x0 DUP2 CALLDATALOAD SWAP1 POP PUSH2 0x488 DUP2 PUSH2 0x7D8 JUMP JUMPDEST SWAP3 SWAP2 POP POP JUMP JUMPDEST PUSH1 0x0 DUP1 PUSH1 0x40 DUP4 DUP6 SUB SLT ISZERO PUSH2 0x4A1 JUMPI PUSH1 0x0 DUP1 REVERT JUMPDEST PUSH1 0x0 PUSH2 0x4AF DUP6 DUP3 DUP7 ADD PUSH2 0x43A JUMP JUMPDEST SWAP3 POP POP PUSH1 0x20 PUSH2 0x4C0 DUP6 DUP3 DUP7 ADD PUSH2 0x479 JUMP JUMPDEST SWAP2 POP POP SWAP3 POP SWAP3 SWAP1 POP JUMP JUMPDEST PUSH1 0x0 PUSH1 0x20 DUP3 DUP5 SUB SLT ISZERO PUSH2 0x4DC JUMPI PUSH1 0x0 DUP1 REVERT JUMPDEST PUSH1 0x0 DUP3 ADD CALLDATALOAD PUSH8 0xFFFFFFFFFFFFFFFF DUP2 GT ISZERO PUSH2 0x4F6 JUMPI PUSH1 0x0 DUP1 REVERT JUMPDEST PUSH2 0x502 DUP5 DUP3 DUP6 ADD PUSH2 0x44F JUMP JUMPDEST SWAP2 POP POP SWAP3 SWAP2 POP POP JUMP JUMPDEST PUSH1 0x0 DUP1 PUSH1 0x40 DUP4 DUP6 SUB SLT ISZERO PUSH2 0x51E JUMPI PUSH1 0x0 DUP1 REVERT JUMPDEST PUSH1 0x0 DUP4 ADD CALLDATALOAD PUSH8 0xFFFFFFFFFFFFFFFF DUP2 GT ISZERO PUSH2 0x538 JUMPI PUSH1 0x0 DUP1 REVERT JUMPDEST PUSH2 0x544 DUP6 DUP3 DUP7 ADD PUSH2 0x44F JUMP JUMPDEST SWAP3 POP POP PUSH1 0x20 DUP4 ADD CALLDATALOAD PUSH8 0xFFFFFFFFFFFFFFFF DUP2 GT ISZERO PUSH2 0x561 JUMPI PUSH1 0x0 DUP1 REVERT JUMPDEST PUSH2 0x56D DUP6 DUP3 DUP7 ADD PUSH2 0x44F JUMP JUMPDEST SWAP2 POP POP SWAP3 POP SWAP3 SWAP1 POP JUMP JUMPDEST PUSH1 0x0 PUSH2 0x582 DUP3 PUSH2 0x67B JUMP JUMPDEST PUSH2 0x58C DUP2 DUP6 PUSH2 0x686 JUMP JUMPDEST SWAP4 POP PUSH2 0x59C DUP2 DUP6 PUSH1 0x20 DUP7 ADD PUSH2 0x6ED JUMP JUMPDEST PUSH2 0x5A5 DUP2 PUSH2 0x7B0 JUMP JUMPDEST DUP5 ADD SWAP2 POP POP SWAP3 SWAP2 POP POP JUMP JUMPDEST PUSH1 0x0 PUSH2 0x5BB DUP3 PUSH2 0x67B JUMP JUMPDEST PUSH2 0x5C5 DUP2 DUP6 PUSH2 0x697 JUMP JUMPDEST SWAP4 POP PUSH2 0x5D5 DUP2 DUP6 PUSH1 0x20 DUP7 ADD PUSH2 0x6ED JUMP JUMPDEST DUP1 DUP5 ADD SWAP2 POP POP SWAP3 SWAP2 POP POP JUMP JUMPDEST PUSH1 0x0 PUSH2 0x5ED DUP3 DUP5 PUSH2 0x5B0 JUMP JUMPDEST SWAP2 POP DUP2 SWAP1 POP SWAP3 SWAP2 POP POP JUMP JUMPDEST PUSH1 0x0 PUSH1 0x20 DUP3 ADD SWAP1 POP DUP2 DUP2 SUB PUSH1 0x0 DUP4 ADD MSTORE PUSH2 0x612 DUP2 DUP5 PUSH2 0x577 JUMP JUMPDEST SWAP1 POP SWAP3 SWAP2 POP POP JUMP JUMPDEST PUSH1 0x0 PUSH1 0x40 MLOAD SWAP1 POP DUP2 DUP2 ADD DUP2 DUP2 LT PUSH8 0xFFFFFFFFFFFFFFFF DUP3 GT OR ISZERO PUSH2 0x641 JUMPI PUSH2 0x640 PUSH2 0x781 JUMP JUMPDEST JUMPDEST DUP1 PUSH1 0x40 MSTORE POP SWAP2 SWAP1 POP JUMP JUMPDEST PUSH1 0x0 PUSH8 0xFFFFFFFFFFFFFFFF DUP3 GT ISZERO PUSH2 0x666 JUMPI PUSH2 0x665 PUSH2 0x781 JUMP JUMPDEST JUMPDEST PUSH1 0x1F NOT PUSH1 0x1F DUP4 ADD AND SWAP1 POP PUSH1 0x20 DUP2 ADD SWAP1 POP SWAP2 SWAP1 POP JUMP JUMPDEST PUSH1 0x0 DUP2 MLOAD SWAP1 POP SWAP2 SWAP1 POP JUMP JUMPDEST PUSH1 0x0 DUP3 DUP3 MSTORE PUSH1 0x20 DUP3 ADD SWAP1 POP SWAP3 SWAP2 POP POP JUMP JUMPDEST PUSH1 0x0 DUP2 SWAP1 POP SWAP3 SWAP2 POP POP JUMP JUMPDEST PUSH1 0x0 PUSH2 0x6AD DUP3 PUSH2 0x6B4 JUMP JUMPDEST SWAP1 POP SWAP2 SWAP1 POP JUMP JUMPDEST PUSH1 0x0 PUSH20 0xFFFFFFFFFFFFFFFFFFFFFFFFFFFFFFFFFFFFFFFF DUP3 AND SWAP1 POP SWAP2 SWAP1 POP JUMP JUMPDEST PUSH1 0x0 DUP2 SWAP1 POP SWAP2 SWAP1 POP JUMP JUMPDEST DUP3 DUP2 DUP4 CALLDATACOPY PUSH1 0x0 DUP4 DUP4 ADD MSTORE POP POP POP JUMP JUMPDEST PUSH1 0x0 JUMPDEST DUP4 DUP2 LT ISZERO PUSH2 0x70B JUMPI DUP1 DUP3 ADD MLOAD DUP2 DUP5 ADD MSTORE PUSH1 0x20 DUP2 ADD SWAP1 POP PUSH2 0x6F0 JUMP JUMPDEST DUP4 DUP2 GT ISZERO PUSH2 0x71A JUMPI PUSH1 0x0 DUP5 DUP5 ADD MSTORE JUMPDEST POP POP POP POP JUMP JUMPDEST PUSH1 0x0 PUSH1 0x2 DUP3 DIV SWAP1 POP PUSH1 0x1 DUP3 AND DUP1 PUSH2 0x738 JUMPI PUSH1 0x7F DUP3 AND SWAP2 POP JUMPDEST PUSH1 0x20 DUP3 LT DUP2 EQ ISZERO PUSH2 0x74C JUMPI PUSH2 0x74B PUSH2 0x752 JUMP JUMPDEST JUMPDEST POP SWAP2 SWAP1 POP JUMP JUMPDEST PUSH32 0x4E487B7100000000000000000000000000000000000000000000000000000000 PUSH1 0x0 MSTORE PUSH1 0x22 PUSH1 0x4 MSTORE PUSH1 0x24 PUSH1 0x0 REVERT JUMPDEST PUSH32 0x4E487B7100000000000000000000000000000000000000000000000000000000 PUSH1 0x0 MSTORE PUSH1 0x41 PUSH1 0x4 MSTORE PUSH1 0x24 PUSH1 0x0 REVERT JUMPDEST PUSH1 0x0 PUSH1 0x1F NOT PUSH1 0x1F DUP4 ADD AND SWAP1 POP SWAP2 SWAP1 POP JUMP JUMPDEST PUSH2 0x7CA DUP2 PUSH2 0x6A2 JUMP JUMPDEST DUP2 EQ PUSH2 0x7D5 JUMPI PUSH1 0x0 DUP1 REVERT JUMPDEST POP JUMP JUMPDEST PUSH2 0x7E1 DUP2 PUSH2 0x6D4 JUMP JUMPDEST DUP2 EQ PUSH2 0x7EC JUMPI PUSH1 0x0 DUP1 REVERT JUMPDEST POP JUMP INVALID LOG2 PUSH5 0x6970667358 0x22 SLT KECCAK256 DUP9 0x5C 0x5D SWAP6 DUP1 MULMOD ADDMOD PUSH16 0xC217DDE9774714B95156827E7C28DA8 NOT 0xEA SWAP5 EXTCODEHASH 0xD8 SIGNEXTEND PUSH25 0x7264736F6C6343000800003300000000000000000000000000 "
				},
				"gasEstimates": {
					"creation": {
						"codeDepositCost": "417000",
						"executionCost": "455",
						"totalCost": "417455"
					},
					"external": {
						"AddMedical(string,string)": "infinite",
						"PreviewMedicalFile(string)": "infinite",
						"user_Medical_name(address,uint256)": "infinite"
					}
				},
				"methodIdentifiers": {
					"AddMedical(string,string)": "ed8b0231",
					"PreviewMedicalFile(string)": "c44a10df",
					"user_Medical_name(address,uint256)": "5cf9a90a"
				}
			},
			"storageLayout": {
				"storage": [
					{
						"astId": 11,
						"contract": "test,sol.sol:Test",
						"label": "User_Medical",
						"offset": 0,
						"slot": "0",
						"type": "t_mapping(t_address,t_struct(Medical)6_storage)"
					},
					{
						"astId": 16,
						"contract": "test,sol.sol:Test",
						"label": "user_Medical_name",
						"offset": 0,
						"slot": "1",
						"type": "t_mapping(t_address,t_array(t_string_storage)dyn_storage)"
					}
				],
				"types": {
					"t_address": {
						"encoding": "inplace",
						"label": "address",
						"numberOfBytes": "20"
					},
					"t_array(t_string_storage)dyn_storage": {
						"base": "t_string_storage",
						"encoding": "dynamic_array",
						"label": "string[]",
						"numberOfBytes": "32"
					},
					"t_mapping(t_address,t_array(t_string_storage)dyn_storage)": {
						"encoding": "mapping",
						"key": "t_address",
						"label": "mapping(address => string[])",
						"numberOfBytes": "32",
						"value": "t_array(t_string_storage)dyn_storage"
					},
					"t_mapping(t_address,t_struct(Medical)6_storage)": {
						"encoding": "mapping",
						"key": "t_address",
						"label": "mapping(address => struct Test.Medical)",
						"numberOfBytes": "32",
						"value": "t_struct(Medical)6_storage"
					},
					"t_mapping(t_string_memory_ptr,t_string_storage)": {
						"encoding": "mapping",
						"key": "t_string_memory_ptr",
						"label": "mapping(string => string)",
						"numberOfBytes": "32",
						"value": "t_string_storage"
					},
					"t_string_memory_ptr": {
						"encoding": "bytes",
						"label": "string",
						"numberOfBytes": "32"
					},
					"t_string_storage": {
						"encoding": "bytes",
						"label": "string",
						"numberOfBytes": "32"
					},
					"t_struct(Medical)6_storage": {
						"encoding": "inplace",
						"label": "struct Test.Medical",
						"members": [
							{
								"astId": 5,
								"contract": "test,sol.sol:Test",
								"label": "File",
								"offset": 0,
								"slot": "0",
								"type": "t_mapping(t_string_memory_ptr,t_string_storage)"
							}
						],
						"numberOfBytes": "32"
					}
				}
			},
			"userdoc": {
				"kind": "user",
				"methods": {},
				"version": 1
			}
		}
	}
}