{
	"test,sol.sol": {
		"Test": {
			"abi": [
				{
					"inputs": [
						{
							"internalType": "string",
							"name": "_name",
							"type": "string"
						},
						{
							"internalType": "string",
							"name": "_url",
							"type": "string"
						}
					],
					"name": "AddMedical",
					"outputs": [],
					"stateMutability": "nonpayable",
					"type": "function"
				}
			],
			"devdoc": {
				"kind": "dev",
				"methods": {},
				"version": 1
			},
			"evm": {
				"assembly": "    /* \"test,sol.sol\":27:307  contract Test{\r... */\n  mstore(0x40, 0x80)\n  callvalue\n  dup1\n  iszero\n  tag_1\n  jumpi\n  0x00\n  dup1\n  revert\ntag_1:\n  pop\n  dataSize(sub_0)\n  dup1\n  dataOffset(sub_0)\n  0x00\n  codecopy\n  0x00\n  return\nstop\n\nsub_0: assembly {\n        /* \"test,sol.sol\":27:307  contract Test{\r... */\n      mstore(0x40, 0x80)\n      callvalue\n      dup1\n      iszero\n      tag_1\n      jumpi\n      0x00\n      dup1\n      revert\n    tag_1:\n      pop\n      jumpi(tag_2, lt(calldatasize, 0x04))\n      shr(0xe0, calldataload(0x00))\n      dup1\n      0xed8b0231\n      eq\n      tag_3\n      jumpi\n    tag_2:\n      0x00\n      dup1\n      revert\n        /* \"test,sol.sol\":224:304  function AddMedical (string memory _name , string memory _url) public {\r... */\n    tag_3:\n      tag_4\n      0x04\n      dup1\n      calldatasize\n      sub\n      dup2\n      add\n      swap1\n      tag_5\n      swap2\n      swap1\n      tag_6\n      jump\t// in\n    tag_5:\n      tag_7\n      jump\t// in\n    tag_4:\n      stop\n    tag_7:\n      pop\n      pop\n      jump\t// out\n        /* \"#utility.yul\":7:419   */\n    tag_10:\n        /* \"#utility.yul\":85:90   */\n      0x00\n        /* \"#utility.yul\":110:176   */\n      tag_12\n        /* \"#utility.yul\":126:175   */\n      tag_13\n        /* \"#utility.yul\":168:174   */\n      dup5\n        /* \"#utility.yul\":126:175   */\n      tag_14\n      jump\t// in\n    tag_13:\n        /* \"#utility.yul\":110:176   */\n      tag_15\n      jump\t// in\n    tag_12:\n        /* \"#utility.yul\":101:176   */\n      swap1\n      pop\n        /* \"#utility.yul\":199:205   */\n      dup3\n        /* \"#utility.yul\":192:197   */\n      dup2\n        /* \"#utility.yul\":185:206   */\n      mstore\n        /* \"#utility.yul\":237:241   */\n      0x20\n        /* \"#utility.yul\":230:235   */\n      dup2\n        /* \"#utility.yul\":226:242   */\n      add\n        /* \"#utility.yul\":275:278   */\n      dup5\n        /* \"#utility.yul\":266:272   */\n      dup5\n        /* \"#utility.yul\":261:264   */\n      dup5\n        /* \"#utility.yul\":257:273   */\n      add\n        /* \"#utility.yul\":254:279   */\n      gt\n        /* \"#utility.yul\":251:363   */\n      iszero\n      tag_16\n      jumpi\n        /* \"#utility.yul\":282:361   */\n      tag_17\n      tag_18\n      jump\t// in\n    tag_17:\n        /* \"#utility.yul\":251:363   */\n    tag_16:\n        /* \"#utility.yul\":372:413   */\n      tag_19\n        /* \"#utility.yul\":406:412   */\n      dup5\n        /* \"#utility.yul\":401:404   */\n      dup3\n        /* \"#utility.yul\":396:399   */\n      dup6\n        /* \"#utility.yul\":372:413   */\n      tag_20\n      jump\t// in\n    tag_19:\n        /* \"#utility.yul\":91:419   */\n      pop\n        /* \"#utility.yul\":7:419   */\n      swap4\n      swap3\n      pop\n      pop\n      pop\n      jump\t// out\n        /* \"#utility.yul\":439:779   */\n    tag_21:\n        /* \"#utility.yul\":495:500   */\n      0x00\n        /* \"#utility.yul\":544:547   */\n      dup3\n        /* \"#utility.yul\":537:541   */\n      0x1f\n        /* \"#utility.yul\":529:535   */\n      dup4\n        /* \"#utility.yul\":525:542   */\n      add\n        /* \"#utility.yul\":521:548   */\n      slt\n        /* \"#utility.yul\":511:633   */\n      tag_23\n      jumpi\n        /* \"#utility.yul\":552:631   */\n      tag_24\n      tag_25\n      jump\t// in\n    tag_24:\n        /* \"#utility.yul\":511:633   */\n    tag_23:\n        /* \"#utility.yul\":669:675   */\n      dup2\n        /* \"#utility.yul\":656:676   */\n      calldataload\n        /* \"#utility.yul\":694:773   */\n      tag_26\n        /* \"#utility.yul\":769:772   */\n      dup5\n        /* \"#utility.yul\":761:767   */\n      dup3\n        /* \"#utility.yul\":754:758   */\n      0x20\n        /* \"#utility.yul\":746:752   */\n      dup7\n        /* \"#utility.yul\":742:759   */\n      add\n        /* \"#utility.yul\":694:773   */\n      tag_10\n      jump\t// in\n    tag_26:\n        /* \"#utility.yul\":685:773   */\n      swap2\n      pop\n        /* \"#utility.yul\":501:779   */\n      pop\n        /* \"#utility.yul\":439:779   */\n      swap3\n      swap2\n      pop\n      pop\n      jump\t// out\n        /* \"#utility.yul\":785:1619   */\n    tag_6:\n        /* \"#utility.yul\":873:879   */\n      0x00\n        /* \"#utility.yul\":881:887   */\n      dup1\n        /* \"#utility.yul\":930:932   */\n      0x40\n        /* \"#utility.yul\":918:927   */\n      dup4\n        /* \"#utility.yul\":909:916   */\n      dup6\n        /* \"#utility.yul\":905:928   */\n      sub\n        /* \"#utility.yul\":901:933   */\n      slt\n        /* \"#utility.yul\":898:1017   */\n      iszero\n      tag_28\n      jumpi\n        /* \"#utility.yul\":936:1015   */\n      tag_29\n      tag_30\n      jump\t// in\n    tag_29:\n        /* \"#utility.yul\":898:1017   */\n    tag_28:\n        /* \"#utility.yul\":1084:1085   */\n      0x00\n        /* \"#utility.yul\":1073:1082   */\n      dup4\n        /* \"#utility.yul\":1069:1086   */\n      add\n        /* \"#utility.yul\":1056:1087   */\n      calldataload\n        /* \"#utility.yul\":1114:1132   */\n      0xffffffffffffffff\n        /* \"#utility.yul\":1106:1112   */\n      dup2\n        /* \"#utility.yul\":1103:1133   */\n      gt\n        /* \"#utility.yul\":1100:1217   */\n      iszero\n      tag_31\n      jumpi\n        /* \"#utility.yul\":1136:1215   */\n      tag_32\n      tag_33\n      jump\t// in\n    tag_32:\n        /* \"#utility.yul\":1100:1217   */\n    tag_31:\n        /* \"#utility.yul\":1241:1304   */\n      tag_34\n        /* \"#utility.yul\":1296:1303   */\n      dup6\n        /* \"#utility.yul\":1287:1293   */\n      dup3\n        /* \"#utility.yul\":1276:1285   */\n      dup7\n        /* \"#utility.yul\":1272:1294   */\n      add\n        /* \"#utility.yul\":1241:1304   */\n      tag_21\n      jump\t// in\n    tag_34:\n        /* \"#utility.yul\":1231:1304   */\n      swap3\n      pop\n        /* \"#utility.yul\":1027:1314   */\n      pop\n        /* \"#utility.yul\":1381:1383   */\n      0x20\n        /* \"#utility.yul\":1370:1379   */\n      dup4\n        /* \"#utility.yul\":1366:1384   */\n      add\n        /* \"#utility.yul\":1353:1385   */\n      calldataload\n        /* \"#utility.yul\":1412:1430   */\n      0xffffffffffffffff\n        /* \"#utility.yul\":1404:1410   */\n      dup2\n        /* \"#utility.yul\":1401:1431   */\n      gt\n        /* \"#utility.yul\":1398:1515   */\n      iszero\n      tag_35\n      jumpi\n        /* \"#utility.yul\":1434:1513   */\n      tag_36\n      tag_33\n      jump\t// in\n    tag_36:\n        /* \"#utility.yul\":1398:1515   */\n    tag_35:\n        /* \"#utility.yul\":1539:1602   */\n      tag_37\n        /* \"#utility.yul\":1594:1601   */\n      dup6\n        /* \"#utility.yul\":1585:1591   */\n      dup3\n        /* \"#utility.yul\":1574:1583   */\n      dup7\n        /* \"#utility.yul\":1570:1592   */\n      add\n        /* \"#utility.yul\":1539:1602   */\n      tag_21\n      jump\t// in\n    tag_37:\n        /* \"#utility.yul\":1529:1602   */\n      swap2\n      pop\n        /* \"#utility.yul\":1324:1612   */\n      pop\n        /* \"#utility.yul\":785:1619   */\n      swap3\n      pop\n      swap3\n      swap1\n      pop\n      jump\t// out\n        /* \"#utility.yul\":1625:1754   */\n    tag_15:\n        /* \"#utility.yul\":1659:1665   */\n      0x00\n        /* \"#utility.yul\":1686:1706   */\n      tag_39\n      tag_40\n      jump\t// in\n    tag_39:\n        /* \"#utility.yul\":1676:1706   */\n      swap1\n      pop\n        /* \"#utility.yul\":1715:1748   */\n      tag_41\n        /* \"#utility.yul\":1743:1747   */\n      dup3\n        /* \"#utility.yul\":1735:1741   */\n      dup3\n        /* \"#utility.yul\":1715:1748   */\n      tag_42\n      jump\t// in\n    tag_41:\n        /* \"#utility.yul\":1625:1754   */\n      swap2\n      swap1\n      pop\n      jump\t// out\n        /* \"#utility.yul\":1760:1835   */\n    tag_40:\n        /* \"#utility.yul\":1793:1799   */\n      0x00\n        /* \"#utility.yul\":1826:1828   */\n      0x40\n        /* \"#utility.yul\":1820:1829   */\n      mload\n        /* \"#utility.yul\":1810:1829   */\n      swap1\n      pop\n        /* \"#utility.yul\":1760:1835   */\n      swap1\n      jump\t// out\n        /* \"#utility.yul\":1841:2149   */\n    tag_14:\n        /* \"#utility.yul\":1903:1907   */\n      0x00\n        /* \"#utility.yul\":1993:2011   */\n      0xffffffffffffffff\n        /* \"#utility.yul\":1985:1991   */\n      dup3\n        /* \"#utility.yul\":1982:2012   */\n      gt\n        /* \"#utility.yul\":1979:2035   */\n      iszero\n      tag_45\n      jumpi\n        /* \"#utility.yul\":2015:2033   */\n      tag_46\n      tag_47\n      jump\t// in\n    tag_46:\n        /* \"#utility.yul\":1979:2035   */\n    tag_45:\n        /* \"#utility.yul\":2053:2082   */\n      tag_48\n        /* \"#utility.yul\":2075:2081   */\n      dup3\n        /* \"#utility.yul\":2053:2082   */\n      tag_49\n      jump\t// in\n    tag_48:\n        /* \"#utility.yul\":2045:2082   */\n      swap1\n      pop\n        /* \"#utility.yul\":2137:2141   */\n      0x20\n        /* \"#utility.yul\":2131:2135   */\n      dup2\n        /* \"#utility.yul\":2127:2142   */\n      add\n        /* \"#utility.yul\":2119:2142   */\n      swap1\n      pop\n        /* \"#utility.yul\":1841:2149   */\n      swap2\n      swap1\n      pop\n      jump\t// out\n        /* \"#utility.yul\":2155:2309   */\n    tag_20:\n        /* \"#utility.yul\":2239:2245   */\n      dup3\n        /* \"#utility.yul\":2234:2237   */\n      dup2\n        /* \"#utility.yul\":2229:2232   */\n      dup4\n        /* \"#utility.yul\":2216:2246   */\n      calldatacopy\n        /* \"#utility.yul\":2301:2302   */\n      0x00\n        /* \"#utility.yul\":2292:2298   */\n      dup4\n        /* \"#utility.yul\":2287:2290   */\n      dup4\n        /* \"#utility.yul\":2283:2299   */\n      add\n        /* \"#utility.yul\":2276:2303   */\n      mstore\n        /* \"#utility.yul\":2155:2309   */\n      pop\n      pop\n      pop\n      jump\t// out\n        /* \"#utility.yul\":2315:2596   */\n    tag_42:\n        /* \"#utility.yul\":2398:2425   */\n      tag_52\n        /* \"#utility.yul\":2420:2424   */\n      dup3\n        /* \"#utility.yul\":2398:2425   */\n      tag_49\n      jump\t// in\n    tag_52:\n        /* \"#utility.yul\":2390:2396   */\n      dup2\n        /* \"#utility.yul\":2386:2426   */\n      add\n        /* \"#utility.yul\":2528:2534   */\n      dup2\n        /* \"#utility.yul\":2516:2526   */\n      dup2\n        /* \"#utility.yul\":2513:2535   */\n      lt\n        /* \"#utility.yul\":2492:2510   */\n      0xffffffffffffffff\n        /* \"#utility.yul\":2480:2490   */\n      dup3\n        /* \"#utility.yul\":2477:2511   */\n      gt\n        /* \"#utility.yul\":2474:2536   */\n      or\n        /* \"#utility.yul\":2471:2559   */\n      iszero\n      tag_53\n      jumpi\n        /* \"#utility.yul\":2539:2557   */\n      tag_54\n      tag_47\n      jump\t// in\n    tag_54:\n        /* \"#utility.yul\":2471:2559   */\n    tag_53:\n        /* \"#utility.yul\":2579:2589   */\n      dup1\n        /* \"#utility.yul\":2575:2577   */\n      0x40\n        /* \"#utility.yul\":2568:2590   */\n      mstore\n        /* \"#utility.yul\":2358:2596   */\n      pop\n        /* \"#utility.yul\":2315:2596   */\n      pop\n      pop\n      jump\t// out\n        /* \"#utility.yul\":2602:2782   */\n    tag_47:\n        /* \"#utility.yul\":2650:2727   */\n      0x4e487b7100000000000000000000000000000000000000000000000000000000\n        /* \"#utility.yul\":2647:2648   */\n      0x00\n        /* \"#utility.yul\":2640:2728   */\n      mstore\n        /* \"#utility.yul\":2747:2751   */\n      0x41\n        /* \"#utility.yul\":2744:2745   */\n      0x04\n        /* \"#utility.yul\":2737:2752   */\n      mstore\n        /* \"#utility.yul\":2771:2775   */\n      0x24\n        /* \"#utility.yul\":2768:2769   */\n      0x00\n        /* \"#utility.yul\":2761:2776   */\n      revert\n        /* \"#utility.yul\":2788:2905   */\n    tag_25:\n        /* \"#utility.yul\":2897:2898   */\n      0x00\n        /* \"#utility.yul\":2894:2895   */\n      dup1\n        /* \"#utility.yul\":2887:2899   */\n      revert\n        /* \"#utility.yul\":2911:3028   */\n    tag_18:\n        /* \"#utility.yul\":3020:3021   */\n      0x00\n        /* \"#utility.yul\":3017:3018   */\n      dup1\n        /* \"#utility.yul\":3010:3022   */\n      revert\n        /* \"#utility.yul\":3034:3151   */\n    tag_33:\n        /* \"#utility.yul\":3143:3144   */\n      0x00\n        /* \"#utility.yul\":3140:3141   */\n      dup1\n        /* \"#utility.yul\":3133:3145   */\n      revert\n        /* \"#utility.yul\":3157:3274   */\n    tag_30:\n        /* \"#utility.yul\":3266:3267   */\n      0x00\n        /* \"#utility.yul\":3263:3264   */\n      dup1\n        /* \"#utility.yul\":3256:3268   */\n      revert\n        /* \"#utility.yul\":3280:3382   */\n    tag_49:\n        /* \"#utility.yul\":3321:3327   */\n      0x00\n        /* \"#utility.yul\":3372:3374   */\n      0x1f\n        /* \"#utility.yul\":3368:3375   */\n      not\n        /* \"#utility.yul\":3363:3365   */\n      0x1f\n        /* \"#utility.yul\":3356:3361   */\n      dup4\n        /* \"#utility.yul\":3352:3366   */\n      add\n        /* \"#utility.yul\":3348:3376   */\n      and\n        /* \"#utility.yul\":3338:3376   */\n      swap1\n      pop\n        /* \"#utility.yul\":3280:3382   */\n      swap2\n      swap1\n      pop\n      jump\t// out\n\n    auxdata: 0xa26469706673582212201831477f2ef3a0d6f7948a6587b6c3aa4109187b7af2fe021d7caaa01748eb5f64736f6c63430008070033\n}\n",
				"bytecode": {
					"linkReferences": {},
					"object": "608060405234801561001057600080fd5b50610258806100206000396000f3fe608060405234801561001057600080fd5b506004361061002b5760003560e01c8063ed8b023114610030575b600080fd5b61004a600480360381019061004591906100c0565b61004c565b005b5050565b600061006361005e8461015d565b610138565b90508281526020810184848401111561007f5761007e610202565b5b61008a84828561018e565b509392505050565b600082601f8301126100a7576100a66101fd565b5b81356100b7848260208601610050565b91505092915050565b600080604083850312156100d7576100d661020c565b5b600083013567ffffffffffffffff8111156100f5576100f4610207565b5b61010185828601610092565b925050602083013567ffffffffffffffff81111561012257610121610207565b5b61012e85828601610092565b9150509250929050565b6000610142610153565b905061014e828261019d565b919050565b6000604051905090565b600067ffffffffffffffff821115610178576101776101ce565b5b61018182610211565b9050602081019050919050565b82818337600083830152505050565b6101a682610211565b810181811067ffffffffffffffff821117156101c5576101c46101ce565b5b80604052505050565b7f4e487b7100000000000000000000000000000000000000000000000000000000600052604160045260246000fd5b600080fd5b600080fd5b600080fd5b600080fd5b6000601f19601f830116905091905056fea26469706673582212201831477f2ef3a0d6f7948a6587b6c3aa4109187b7af2fe021d7caaa01748eb5f64736f6c63430008070033",
					"opcodes": "PUSH1 0x80 PUSH1 0x40 MSTORE CALLVALUE DUP1 ISZERO PUSH2 0x10 JUMPI PUSH1 0x0 DUP1 REVERT JUMPDEST POP PUSH2 0x258 DUP1 PUSH2 0x20 PUSH1 0x0 CODECOPY PUSH1 0x0 RETURN INVALID PUSH1 0x80 PUSH1 0x40 MSTORE CALLVALUE DUP1 ISZERO PUSH2 0x10 JUMPI PUSH1 0x0 DUP1 REVERT JUMPDEST POP PUSH1 0x4 CALLDATASIZE LT PUSH2 0x2B JUMPI PUSH1 0x0 CALLDATALOAD PUSH1 0xE0 SHR DUP1 PUSH4 0xED8B0231 EQ PUSH2 0x30 JUMPI JUMPDEST PUSH1 0x0 DUP1 REVERT JUMPDEST PUSH2 0x4A PUSH1 0x4 DUP1 CALLDATASIZE SUB DUP2 ADD SWAP1 PUSH2 0x45 SWAP2 SWAP1 PUSH2 0xC0 JUMP JUMPDEST PUSH2 0x4C JUMP JUMPDEST STOP JUMPDEST POP POP JUMP JUMPDEST PUSH1 0x0 PUSH2 0x63 PUSH2 0x5E DUP5 PUSH2 0x15D JUMP JUMPDEST PUSH2 0x138 JUMP JUMPDEST SWAP1 POP DUP3 DUP2 MSTORE PUSH1 0x20 DUP2 ADD DUP5 DUP5 DUP5 ADD GT ISZERO PUSH2 0x7F JUMPI PUSH2 0x7E PUSH2 0x202 JUMP JUMPDEST JUMPDEST PUSH2 0x8A DUP5 DUP3 DUP6 PUSH2 0x18E JUMP JUMPDEST POP SWAP4 SWAP3 POP POP POP JUMP JUMPDEST PUSH1 0x0 DUP3 PUSH1 0x1F DUP4 ADD SLT PUSH2 0xA7 JUMPI PUSH2 0xA6 PUSH2 0x1FD JUMP JUMPDEST JUMPDEST DUP2 CALLDATALOAD PUSH2 0xB7 DUP5 DUP3 PUSH1 0x20 DUP7 ADD PUSH2 0x50 JUMP JUMPDEST SWAP2 POP POP SWAP3 SWAP2 POP POP JUMP JUMPDEST PUSH1 0x0 DUP1 PUSH1 0x40 DUP4 DUP6 SUB SLT ISZERO PUSH2 0xD7 JUMPI PUSH2 0xD6 PUSH2 0x20C JUMP JUMPDEST JUMPDEST PUSH1 0x0 DUP4 ADD CALLDATALOAD PUSH8 0xFFFFFFFFFFFFFFFF DUP2 GT ISZERO PUSH2 0xF5 JUMPI PUSH2 0xF4 PUSH2 0x207 JUMP JUMPDEST JUMPDEST PUSH2 0x101 DUP6 DUP3 DUP7 ADD PUSH2 0x92 JUMP JUMPDEST SWAP3 POP POP PUSH1 0x20 DUP4 ADD CALLDATALOAD PUSH8 0xFFFFFFFFFFFFFFFF DUP2 GT ISZERO PUSH2 0x122 JUMPI PUSH2 0x121 PUSH2 0x207 JUMP JUMPDEST JUMPDEST PUSH2 0x12E DUP6 DUP3 DUP7 ADD PUSH2 0x92 JUMP JUMPDEST SWAP2 POP POP SWAP3 POP SWAP3 SWAP1 POP JUMP JUMPDEST PUSH1 0x0 PUSH2 0x142 PUSH2 0x153 JUMP JUMPDEST SWAP1 POP PUSH2 0x14E DUP3 DUP3 PUSH2 0x19D JUMP JUMPDEST SWAP2 SWAP1 POP JUMP JUMPDEST PUSH1 0x0 PUSH1 0x40 MLOAD SWAP1 POP SWAP1 JUMP JUMPDEST PUSH1 0x0 PUSH8 0xFFFFFFFFFFFFFFFF DUP3 GT ISZERO PUSH2 0x178 JUMPI PUSH2 0x177 PUSH2 0x1CE JUMP JUMPDEST JUMPDEST PUSH2 0x181 DUP3 PUSH2 0x211 JUMP JUMPDEST SWAP1 POP PUSH1 0x20 DUP2 ADD SWAP1 POP SWAP2 SWAP1 POP JUMP JUMPDEST DUP3 DUP2 DUP4 CALLDATACOPY PUSH1 0x0 DUP4 DUP4 ADD MSTORE POP POP POP JUMP JUMPDEST PUSH2 0x1A6 DUP3 PUSH2 0x211 JUMP JUMPDEST DUP2 ADD DUP2 DUP2 LT PUSH8 0xFFFFFFFFFFFFFFFF DUP3 GT OR ISZERO PUSH2 0x1C5 JUMPI PUSH2 0x1C4 PUSH2 0x1CE JUMP JUMPDEST JUMPDEST DUP1 PUSH1 0x40 MSTORE POP POP POP JUMP JUMPDEST PUSH32 0x4E487B7100000000000000000000000000000000000000000000000000000000 PUSH1 0x0 MSTORE PUSH1 0x41 PUSH1 0x4 MSTORE PUSH1 0x24 PUSH1 0x0 REVERT JUMPDEST PUSH1 0x0 DUP1 REVERT JUMPDEST PUSH1 0x0 DUP1 REVERT JUMPDEST PUSH1 0x0 DUP1 REVERT JUMPDEST PUSH1 0x0 DUP1 REVERT JUMPDEST PUSH1 0x0 PUSH1 0x1F NOT PUSH1 0x1F DUP4 ADD AND SWAP1 POP SWAP2 SWAP1 POP JUMP INVALID LOG2 PUSH5 0x6970667358 0x22 SLT KECCAK256 XOR BALANCE SELFBALANCE PUSH32 0x2EF3A0D6F7948A6587B6C3AA4109187B7AF2FE021D7CAAA01748EB5F64736F6C PUSH4 0x43000807 STOP CALLER "
				},
				"gasEstimates": {
					"creation": {
						"codeDepositCost": "120000",
						"executionCost": "165",
						"totalCost": "120165"
					},
					"external": {
						"AddMedical(string,string)": "infinite"
					}
				},
				"methodIdentifiers": {
					"AddMedical(string,string)": "ed8b0231"
				}
			},
			"storageLayout": {
				"storage": [
					{
						"astId": 11,
						"contract": "test,sol.sol:Test",
						"label": "user_Medical",
						"offset": 0,
						"slot": "0",
						"type": "t_mapping(t_address,t_struct(Medical)6_storage)"
					},
					{
						"astId": 16,
						"contract": "test,sol.sol:Test",
						"label": "user_Medical_name",
						"offset": 0,
						"slot": "1",
						"type": "t_mapping(t_address,t_array(t_string_storage)dyn_storage)"
					}
				],
				"types": {
					"t_address": {
						"encoding": "inplace",
						"label": "address",
						"numberOfBytes": "20"
					},
					"t_array(t_string_storage)dyn_storage": {
						"base": "t_string_storage",
						"encoding": "dynamic_array",
						"label": "string[]",
						"numberOfBytes": "32"
					},
					"t_mapping(t_address,t_array(t_string_storage)dyn_storage)": {
						"encoding": "mapping",
						"key": "t_address",
						"label": "mapping(address => string[])",
						"numberOfBytes": "32",
						"value": "t_array(t_string_storage)dyn_storage"
					},
					"t_mapping(t_address,t_struct(Medical)6_storage)": {
						"encoding": "mapping",
						"key": "t_address",
						"label": "mapping(address => struct Test.Medical)",
						"numberOfBytes": "32",
						"value": "t_struct(Medical)6_storage"
					},
					"t_mapping(t_string_memory_ptr,t_string_storage)": {
						"encoding": "mapping",
						"key": "t_string_memory_ptr",
						"label": "mapping(string => string)",
						"numberOfBytes": "32",
						"value": "t_string_storage"
					},
					"t_string_memory_ptr": {
						"encoding": "bytes",
						"label": "string",
						"numberOfBytes": "32"
					},
					"t_string_storage": {
						"encoding": "bytes",
						"label": "string",
						"numberOfBytes": "32"
					},
					"t_struct(Medical)6_storage": {
						"encoding": "inplace",
						"label": "struct Test.Medical",
						"members": [
							{
								"astId": 5,
								"contract": "test,sol.sol:Test",
								"label": "File",
								"offset": 0,
								"slot": "0",
								"type": "t_mapping(t_string_memory_ptr,t_string_storage)"
							}
						],
						"numberOfBytes": "32"
					}
				}
			},
			"userdoc": {
				"kind": "user",
				"methods": {},
				"version": 1
			}
		}
	}
}