{
	"UploadMedicalrecords.sol": {
		"UploadMedicalrecords": {
			"abi": [
				{
					"inputs": [
						{
							"internalType": "address",
							"name": "_user",
							"type": "address"
						}
					],
					"name": "IsUser",
					"outputs": [
						{
							"internalType": "bool",
							"name": "",
							"type": "bool"
						}
					],
					"stateMutability": "view",
					"type": "function"
				},
				{
					"inputs": [
						{
							"internalType": "address",
							"name": "_user",
							"type": "address"
						}
					],
					"name": "ViewMedicalRecords",
					"outputs": [
						{
							"internalType": "string[]",
							"name": "",
							"type": "string[]"
						}
					],
					"stateMutability": "view",
					"type": "function"
				},
				{
					"inputs": [],
					"name": "lastUpdateTime",
					"outputs": [
						{
							"internalType": "uint256",
							"name": "",
							"type": "uint256"
						}
					],
					"stateMutability": "view",
					"type": "function"
				}
			],
			"devdoc": {
				"kind": "dev",
				"methods": {},
				"version": 1
			},
			"evm": {
				"assembly": "    /* \"UploadMedicalrecords.sol\":31:1001  contract UploadMedicalrecords{\r... */\n  mstore(0x40, 0x80)\n  callvalue\n  dup1\n  iszero\n  tag_1\n  jumpi\n  0x00\n  dup1\n  revert\ntag_1:\n  pop\n  dataSize(sub_0)\n  dup1\n  dataOffset(sub_0)\n  0x00\n  codecopy\n  0x00\n  return\nstop\n\nsub_0: assembly {\n        /* \"UploadMedicalrecords.sol\":31:1001  contract UploadMedicalrecords{\r... */\n      mstore(0x40, 0x80)\n      callvalue\n      dup1\n      iszero\n      tag_1\n      jumpi\n      0x00\n      dup1\n      revert\n    tag_1:\n      pop\n      jumpi(tag_2, lt(calldatasize, 0x04))\n      shr(0xe0, calldataload(0x00))\n      dup1\n      0x1363a1af\n      eq\n      tag_3\n      jumpi\n      dup1\n      0x63913094\n      eq\n      tag_4\n      jumpi\n      dup1\n      0xc8f33c91\n      eq\n      tag_5\n      jumpi\n    tag_2:\n      0x00\n      dup1\n      revert\n        /* \"UploadMedicalrecords.sol\":671:765  function IsUser(address _user) public view returns(bool){\r... */\n    tag_3:\n      tag_6\n      0x04\n      dup1\n      calldatasize\n      sub\n      dup2\n      add\n      swap1\n      tag_7\n      swap2\n      swap1\n      tag_8\n      jump\t// in\n    tag_7:\n      tag_9\n      jump\t// in\n    tag_6:\n      mload(0x40)\n      tag_10\n      swap2\n      swap1\n      tag_11\n      jump\t// in\n    tag_10:\n      mload(0x40)\n      dup1\n      swap2\n      sub\n      swap1\n      return\n        /* \"UploadMedicalrecords.sol\":806:992  function ViewMedicalRecords(address _user) public view returns(string[] memory){\r... */\n    tag_4:\n      tag_12\n      0x04\n      dup1\n      calldatasize\n      sub\n      dup2\n      add\n      swap1\n      tag_13\n      swap2\n      swap1\n      tag_8\n      jump\t// in\n    tag_13:\n      tag_14\n      jump\t// in\n    tag_12:\n      mload(0x40)\n      tag_15\n      swap2\n      swap1\n      tag_16\n      jump\t// in\n    tag_15:\n      mload(0x40)\n      dup1\n      swap2\n      sub\n      swap1\n      return\n        /* \"UploadMedicalrecords.sol\":180:206  uint public lastUpdateTime */\n    tag_5:\n      tag_17\n      tag_18\n      jump\t// in\n    tag_17:\n      mload(0x40)\n      tag_19\n      swap2\n      swap1\n      tag_20\n      jump\t// in\n    tag_19:\n      mload(0x40)\n      dup1\n      swap2\n      sub\n      swap1\n      return\n        /* \"UploadMedicalrecords.sol\":671:765  function IsUser(address _user) public view returns(bool){\r... */\n    tag_9:\n        /* \"UploadMedicalrecords.sol\":722:726  bool */\n      0x00\n        /* \"UploadMedicalrecords.sol\":741:747  Ausers */\n      0x01\n        /* \"UploadMedicalrecords.sol\":741:754  Ausers[_user] */\n      0x00\n        /* \"UploadMedicalrecords.sol\":748:753  _user */\n      dup4\n        /* \"UploadMedicalrecords.sol\":741:754  Ausers[_user] */\n      0xffffffffffffffffffffffffffffffffffffffff\n      and\n      0xffffffffffffffffffffffffffffffffffffffff\n      and\n      dup2\n      mstore\n      0x20\n      add\n      swap1\n      dup2\n      mstore\n      0x20\n      add\n      0x00\n      keccak256\n        /* \"UploadMedicalrecords.sol\":741:759  Ausers[_user].exit */\n      0x00\n      add\n      0x14\n      swap1\n      sload\n      swap1\n      0x0100\n      exp\n      swap1\n      div\n      0xff\n      and\n        /* \"UploadMedicalrecords.sol\":734:759  return Ausers[_user].exit */\n      swap1\n      pop\n        /* \"UploadMedicalrecords.sol\":671:765  function IsUser(address _user) public view returns(bool){\r... */\n      swap2\n      swap1\n      pop\n      jump\t// out\n        /* \"UploadMedicalrecords.sol\":806:992  function ViewMedicalRecords(address _user) public view returns(string[] memory){\r... */\n    tag_14:\n        /* \"UploadMedicalrecords.sol\":869:884  string[] memory */\n      0x60\n        /* \"UploadMedicalrecords.sol\":900:913  IsUser(_user) */\n      tag_23\n        /* \"UploadMedicalrecords.sol\":907:912  _user */\n      dup3\n        /* \"UploadMedicalrecords.sol\":900:906  IsUser */\n      tag_9\n        /* \"UploadMedicalrecords.sol\":900:913  IsUser(_user) */\n      jump\t// in\n    tag_23:\n        /* \"UploadMedicalrecords.sol\":892:933  require(IsUser(_user),\"patient no exist\") */\n      tag_24\n      jumpi\n      mload(0x40)\n      0x08c379a000000000000000000000000000000000000000000000000000000000\n      dup2\n      mstore\n      0x04\n      add\n      tag_25\n      swap1\n      tag_26\n      jump\t// in\n    tag_25:\n      mload(0x40)\n      dup1\n      swap2\n      sub\n      swap1\n      revert\n    tag_24:\n        /* \"UploadMedicalrecords.sol\":947:966  AmedicalInformation */\n      0x02\n        /* \"UploadMedicalrecords.sol\":947:973  AmedicalInformation[_user] */\n      0x00\n        /* \"UploadMedicalrecords.sol\":967:972  _user */\n      dup4\n        /* \"UploadMedicalrecords.sol\":947:973  AmedicalInformation[_user] */\n      0xffffffffffffffffffffffffffffffffffffffff\n      and\n      0xffffffffffffffffffffffffffffffffffffffff\n      and\n      dup2\n      mstore\n      0x20\n      add\n      swap1\n      dup2\n      mstore\n      0x20\n      add\n      0x00\n      keccak256\n        /* \"UploadMedicalrecords.sol\":947:986  AmedicalInformation[_user].PictureRoute */\n      0x01\n      add\n        /* \"UploadMedicalrecords.sol\":940:986  return AmedicalInformation[_user].PictureRoute */\n      dup1\n      sload\n      dup1\n      0x20\n      mul\n      0x20\n      add\n      mload(0x40)\n      swap1\n      dup2\n      add\n      0x40\n      mstore\n      dup1\n      swap3\n      swap2\n      swap1\n      dup2\n      dup2\n      mstore\n      0x20\n      add\n      0x00\n      swap1\n    tag_27:\n      dup3\n      dup3\n      lt\n      iszero\n      tag_28\n      jumpi\n      dup4\n      dup3\n      swap1\n      0x00\n      mstore\n      keccak256(0x00, 0x20)\n      add\n      dup1\n      sload\n      tag_30\n      swap1\n      tag_31\n      jump\t// in\n    tag_30:\n      dup1\n      0x1f\n      add\n      0x20\n      dup1\n      swap2\n      div\n      mul\n      0x20\n      add\n      mload(0x40)\n      swap1\n      dup2\n      add\n      0x40\n      mstore\n      dup1\n      swap3\n      swap2\n      swap1\n      dup2\n      dup2\n      mstore\n      0x20\n      add\n      dup3\n      dup1\n      sload\n      tag_32\n      swap1\n      tag_31\n      jump\t// in\n    tag_32:\n      dup1\n      iszero\n      tag_33\n      jumpi\n      dup1\n      0x1f\n      lt\n      tag_34\n      jumpi\n      0x0100\n      dup1\n      dup4\n      sload\n      div\n      mul\n      dup4\n      mstore\n      swap2\n      0x20\n      add\n      swap2\n      jump(tag_33)\n    tag_34:\n      dup3\n      add\n      swap2\n      swap1\n      0x00\n      mstore\n      keccak256(0x00, 0x20)\n      swap1\n    tag_35:\n      dup2\n      sload\n      dup2\n      mstore\n      swap1\n      0x01\n      add\n      swap1\n      0x20\n      add\n      dup1\n      dup4\n      gt\n      tag_35\n      jumpi\n      dup3\n      swap1\n      sub\n      0x1f\n      and\n      dup3\n      add\n      swap2\n    tag_33:\n      pop\n      pop\n      pop\n      pop\n      pop\n      dup2\n      mstore\n      0x20\n      add\n      swap1\n      0x01\n      add\n      swap1\n      jump(tag_27)\n    tag_28:\n      pop\n      pop\n      pop\n      pop\n      swap1\n      pop\n        /* \"UploadMedicalrecords.sol\":806:992  function ViewMedicalRecords(address _user) public view returns(string[] memory){\r... */\n      swap2\n      swap1\n      pop\n      jump\t// out\n        /* \"UploadMedicalrecords.sol\":180:206  uint public lastUpdateTime */\n    tag_18:\n      sload(0x00)\n      dup2\n      jump\t// out\n        /* \"#utility.yul\":7:146   */\n    tag_37:\n        /* \"#utility.yul\":53:58   */\n      0x00\n        /* \"#utility.yul\":91:97   */\n      dup2\n        /* \"#utility.yul\":78:98   */\n      calldataload\n        /* \"#utility.yul\":69:98   */\n      swap1\n      pop\n        /* \"#utility.yul\":107:140   */\n      tag_39\n        /* \"#utility.yul\":134:139   */\n      dup2\n        /* \"#utility.yul\":107:140   */\n      tag_40\n      jump\t// in\n    tag_39:\n        /* \"#utility.yul\":7:146   */\n      swap3\n      swap2\n      pop\n      pop\n      jump\t// out\n        /* \"#utility.yul\":152:481   */\n    tag_8:\n        /* \"#utility.yul\":211:217   */\n      0x00\n        /* \"#utility.yul\":260:262   */\n      0x20\n        /* \"#utility.yul\":248:257   */\n      dup3\n        /* \"#utility.yul\":239:246   */\n      dup5\n        /* \"#utility.yul\":235:258   */\n      sub\n        /* \"#utility.yul\":231:263   */\n      slt\n        /* \"#utility.yul\":228:347   */\n      iszero\n      tag_42\n      jumpi\n        /* \"#utility.yul\":266:345   */\n      tag_43\n      tag_44\n      jump\t// in\n    tag_43:\n        /* \"#utility.yul\":228:347   */\n    tag_42:\n        /* \"#utility.yul\":386:387   */\n      0x00\n        /* \"#utility.yul\":411:464   */\n      tag_45\n        /* \"#utility.yul\":456:463   */\n      dup5\n        /* \"#utility.yul\":447:453   */\n      dup3\n        /* \"#utility.yul\":436:445   */\n      dup6\n        /* \"#utility.yul\":432:454   */\n      add\n        /* \"#utility.yul\":411:464   */\n      tag_37\n      jump\t// in\n    tag_45:\n        /* \"#utility.yul\":401:464   */\n      swap2\n      pop\n        /* \"#utility.yul\":357:474   */\n      pop\n        /* \"#utility.yul\":152:481   */\n      swap3\n      swap2\n      pop\n      pop\n      jump\t// out\n        /* \"#utility.yul\":487:683   */\n    tag_46:\n        /* \"#utility.yul\":576:586   */\n      0x00\n        /* \"#utility.yul\":611:677   */\n      tag_48\n        /* \"#utility.yul\":673:676   */\n      dup4\n        /* \"#utility.yul\":665:671   */\n      dup4\n        /* \"#utility.yul\":611:677   */\n      tag_49\n      jump\t// in\n    tag_48:\n        /* \"#utility.yul\":597:677   */\n      swap1\n      pop\n        /* \"#utility.yul\":487:683   */\n      swap3\n      swap2\n      pop\n      pop\n      jump\t// out\n        /* \"#utility.yul\":717:1708   */\n    tag_50:\n        /* \"#utility.yul\":856:859   */\n      0x00\n        /* \"#utility.yul\":885:949   */\n      tag_52\n        /* \"#utility.yul\":943:948   */\n      dup3\n        /* \"#utility.yul\":885:949   */\n      tag_53\n      jump\t// in\n    tag_52:\n        /* \"#utility.yul\":965:1061   */\n      tag_54\n        /* \"#utility.yul\":1054:1060   */\n      dup2\n        /* \"#utility.yul\":1049:1052   */\n      dup6\n        /* \"#utility.yul\":965:1061   */\n      tag_55\n      jump\t// in\n    tag_54:\n        /* \"#utility.yul\":958:1061   */\n      swap4\n      pop\n        /* \"#utility.yul\":1087:1090   */\n      dup4\n        /* \"#utility.yul\":1132:1136   */\n      0x20\n        /* \"#utility.yul\":1124:1130   */\n      dup3\n        /* \"#utility.yul\":1120:1137   */\n      mul\n        /* \"#utility.yul\":1115:1118   */\n      dup6\n        /* \"#utility.yul\":1111:1138   */\n      add\n        /* \"#utility.yul\":1162:1228   */\n      tag_56\n        /* \"#utility.yul\":1222:1227   */\n      dup6\n        /* \"#utility.yul\":1162:1228   */\n      tag_57\n      jump\t// in\n    tag_56:\n        /* \"#utility.yul\":1251:1258   */\n      dup1\n        /* \"#utility.yul\":1282:1283   */\n      0x00\n        /* \"#utility.yul\":1267:1663   */\n    tag_58:\n        /* \"#utility.yul\":1292:1298   */\n      dup6\n        /* \"#utility.yul\":1289:1290   */\n      dup2\n        /* \"#utility.yul\":1286:1299   */\n      lt\n        /* \"#utility.yul\":1267:1663   */\n      iszero\n      tag_60\n      jumpi\n        /* \"#utility.yul\":1363:1372   */\n      dup5\n        /* \"#utility.yul\":1357:1361   */\n      dup5\n        /* \"#utility.yul\":1353:1373   */\n      sub\n        /* \"#utility.yul\":1348:1351   */\n      dup10\n        /* \"#utility.yul\":1341:1374   */\n      mstore\n        /* \"#utility.yul\":1414:1420   */\n      dup2\n        /* \"#utility.yul\":1408:1421   */\n      mload\n        /* \"#utility.yul\":1442:1526   */\n      tag_61\n        /* \"#utility.yul\":1521:1525   */\n      dup6\n        /* \"#utility.yul\":1506:1519   */\n      dup3\n        /* \"#utility.yul\":1442:1526   */\n      tag_46\n      jump\t// in\n    tag_61:\n        /* \"#utility.yul\":1434:1526   */\n      swap5\n      pop\n        /* \"#utility.yul\":1549:1619   */\n      tag_62\n        /* \"#utility.yul\":1612:1618   */\n      dup4\n        /* \"#utility.yul\":1549:1619   */\n      tag_63\n      jump\t// in\n    tag_62:\n        /* \"#utility.yul\":1539:1619   */\n      swap3\n      pop\n        /* \"#utility.yul\":1648:1652   */\n      0x20\n        /* \"#utility.yul\":1643:1646   */\n      dup11\n        /* \"#utility.yul\":1639:1653   */\n      add\n        /* \"#utility.yul\":1632:1653   */\n      swap10\n      pop\n        /* \"#utility.yul\":1327:1663   */\n      pop\n        /* \"#utility.yul\":1314:1315   */\n      0x01\n        /* \"#utility.yul\":1311:1312   */\n      dup2\n        /* \"#utility.yul\":1307:1316   */\n      add\n        /* \"#utility.yul\":1302:1316   */\n      swap1\n      pop\n        /* \"#utility.yul\":1267:1663   */\n      jump(tag_58)\n    tag_60:\n        /* \"#utility.yul\":1271:1285   */\n      pop\n        /* \"#utility.yul\":1679:1683   */\n      dup3\n        /* \"#utility.yul\":1672:1683   */\n      swap8\n      pop\n        /* \"#utility.yul\":1699:1702   */\n      dup8\n        /* \"#utility.yul\":1692:1702   */\n      swap6\n      pop\n        /* \"#utility.yul\":861:1708   */\n      pop\n      pop\n      pop\n      pop\n      pop\n        /* \"#utility.yul\":717:1708   */\n      swap3\n      swap2\n      pop\n      pop\n      jump\t// out\n        /* \"#utility.yul\":1714:1823   */\n    tag_64:\n        /* \"#utility.yul\":1795:1816   */\n      tag_66\n        /* \"#utility.yul\":1810:1815   */\n      dup2\n        /* \"#utility.yul\":1795:1816   */\n      tag_67\n      jump\t// in\n    tag_66:\n        /* \"#utility.yul\":1790:1793   */\n      dup3\n        /* \"#utility.yul\":1783:1817   */\n      mstore\n        /* \"#utility.yul\":1714:1823   */\n      pop\n      pop\n      jump\t// out\n        /* \"#utility.yul\":1829:2173   */\n    tag_49:\n        /* \"#utility.yul\":1907:1910   */\n      0x00\n        /* \"#utility.yul\":1935:1974   */\n      tag_69\n        /* \"#utility.yul\":1968:1973   */\n      dup3\n        /* \"#utility.yul\":1935:1974   */\n      tag_70\n      jump\t// in\n    tag_69:\n        /* \"#utility.yul\":1990:2051   */\n      tag_71\n        /* \"#utility.yul\":2044:2050   */\n      dup2\n        /* \"#utility.yul\":2039:2042   */\n      dup6\n        /* \"#utility.yul\":1990:2051   */\n      tag_72\n      jump\t// in\n    tag_71:\n        /* \"#utility.yul\":1983:2051   */\n      swap4\n      pop\n        /* \"#utility.yul\":2060:2112   */\n      tag_73\n        /* \"#utility.yul\":2105:2111   */\n      dup2\n        /* \"#utility.yul\":2100:2103   */\n      dup6\n        /* \"#utility.yul\":2093:2097   */\n      0x20\n        /* \"#utility.yul\":2086:2091   */\n      dup7\n        /* \"#utility.yul\":2082:2098   */\n      add\n        /* \"#utility.yul\":2060:2112   */\n      tag_74\n      jump\t// in\n    tag_73:\n        /* \"#utility.yul\":2137:2166   */\n      tag_75\n        /* \"#utility.yul\":2159:2165   */\n      dup2\n        /* \"#utility.yul\":2137:2166   */\n      tag_76\n      jump\t// in\n    tag_75:\n        /* \"#utility.yul\":2132:2135   */\n      dup5\n        /* \"#utility.yul\":2128:2167   */\n      add\n        /* \"#utility.yul\":2121:2167   */\n      swap2\n      pop\n        /* \"#utility.yul\":1911:2173   */\n      pop\n        /* \"#utility.yul\":1829:2173   */\n      swap3\n      swap2\n      pop\n      pop\n      jump\t// out\n        /* \"#utility.yul\":2179:2545   */\n    tag_77:\n        /* \"#utility.yul\":2321:2324   */\n      0x00\n        /* \"#utility.yul\":2342:2409   */\n      tag_79\n        /* \"#utility.yul\":2406:2408   */\n      0x10\n        /* \"#utility.yul\":2401:2404   */\n      dup4\n        /* \"#utility.yul\":2342:2409   */\n      tag_80\n      jump\t// in\n    tag_79:\n        /* \"#utility.yul\":2335:2409   */\n      swap2\n      pop\n        /* \"#utility.yul\":2418:2511   */\n      tag_81\n        /* \"#utility.yul\":2507:2510   */\n      dup3\n        /* \"#utility.yul\":2418:2511   */\n      tag_82\n      jump\t// in\n    tag_81:\n        /* \"#utility.yul\":2536:2538   */\n      0x20\n        /* \"#utility.yul\":2531:2534   */\n      dup3\n        /* \"#utility.yul\":2527:2539   */\n      add\n        /* \"#utility.yul\":2520:2539   */\n      swap1\n      pop\n        /* \"#utility.yul\":2179:2545   */\n      swap2\n      swap1\n      pop\n      jump\t// out\n        /* \"#utility.yul\":2551:2669   */\n    tag_83:\n        /* \"#utility.yul\":2638:2662   */\n      tag_85\n        /* \"#utility.yul\":2656:2661   */\n      dup2\n        /* \"#utility.yul\":2638:2662   */\n      tag_86\n      jump\t// in\n    tag_85:\n        /* \"#utility.yul\":2633:2636   */\n      dup3\n        /* \"#utility.yul\":2626:2663   */\n      mstore\n        /* \"#utility.yul\":2551:2669   */\n      pop\n      pop\n      jump\t// out\n        /* \"#utility.yul\":2675:3088   */\n    tag_16:\n        /* \"#utility.yul\":2838:2842   */\n      0x00\n        /* \"#utility.yul\":2876:2878   */\n      0x20\n        /* \"#utility.yul\":2865:2874   */\n      dup3\n        /* \"#utility.yul\":2861:2879   */\n      add\n        /* \"#utility.yul\":2853:2879   */\n      swap1\n      pop\n        /* \"#utility.yul\":2925:2934   */\n      dup2\n        /* \"#utility.yul\":2919:2923   */\n      dup2\n        /* \"#utility.yul\":2915:2935   */\n      sub\n        /* \"#utility.yul\":2911:2912   */\n      0x00\n        /* \"#utility.yul\":2900:2909   */\n      dup4\n        /* \"#utility.yul\":2896:2913   */\n      add\n        /* \"#utility.yul\":2889:2936   */\n      mstore\n        /* \"#utility.yul\":2953:3081   */\n      tag_88\n        /* \"#utility.yul\":3076:3080   */\n      dup2\n        /* \"#utility.yul\":3067:3073   */\n      dup5\n        /* \"#utility.yul\":2953:3081   */\n      tag_50\n      jump\t// in\n    tag_88:\n        /* \"#utility.yul\":2945:3081   */\n      swap1\n      pop\n        /* \"#utility.yul\":2675:3088   */\n      swap3\n      swap2\n      pop\n      pop\n      jump\t// out\n        /* \"#utility.yul\":3094:3304   */\n    tag_11:\n        /* \"#utility.yul\":3181:3185   */\n      0x00\n        /* \"#utility.yul\":3219:3221   */\n      0x20\n        /* \"#utility.yul\":3208:3217   */\n      dup3\n        /* \"#utility.yul\":3204:3222   */\n      add\n        /* \"#utility.yul\":3196:3222   */\n      swap1\n      pop\n        /* \"#utility.yul\":3232:3297   */\n      tag_90\n        /* \"#utility.yul\":3294:3295   */\n      0x00\n        /* \"#utility.yul\":3283:3292   */\n      dup4\n        /* \"#utility.yul\":3279:3296   */\n      add\n        /* \"#utility.yul\":3270:3276   */\n      dup5\n        /* \"#utility.yul\":3232:3297   */\n      tag_64\n      jump\t// in\n    tag_90:\n        /* \"#utility.yul\":3094:3304   */\n      swap3\n      swap2\n      pop\n      pop\n      jump\t// out\n        /* \"#utility.yul\":3310:3729   */\n    tag_26:\n        /* \"#utility.yul\":3476:3480   */\n      0x00\n        /* \"#utility.yul\":3514:3516   */\n      0x20\n        /* \"#utility.yul\":3503:3512   */\n      dup3\n        /* \"#utility.yul\":3499:3517   */\n      add\n        /* \"#utility.yul\":3491:3517   */\n      swap1\n      pop\n        /* \"#utility.yul\":3563:3572   */\n      dup2\n        /* \"#utility.yul\":3557:3561   */\n      dup2\n        /* \"#utility.yul\":3553:3573   */\n      sub\n        /* \"#utility.yul\":3549:3550   */\n      0x00\n        /* \"#utility.yul\":3538:3547   */\n      dup4\n        /* \"#utility.yul\":3534:3551   */\n      add\n        /* \"#utility.yul\":3527:3574   */\n      mstore\n        /* \"#utility.yul\":3591:3722   */\n      tag_92\n        /* \"#utility.yul\":3717:3721   */\n      dup2\n        /* \"#utility.yul\":3591:3722   */\n      tag_77\n      jump\t// in\n    tag_92:\n        /* \"#utility.yul\":3583:3722   */\n      swap1\n      pop\n        /* \"#utility.yul\":3310:3729   */\n      swap2\n      swap1\n      pop\n      jump\t// out\n        /* \"#utility.yul\":3735:3957   */\n    tag_20:\n        /* \"#utility.yul\":3828:3832   */\n      0x00\n        /* \"#utility.yul\":3866:3868   */\n      0x20\n        /* \"#utility.yul\":3855:3864   */\n      dup3\n        /* \"#utility.yul\":3851:3869   */\n      add\n        /* \"#utility.yul\":3843:3869   */\n      swap1\n      pop\n        /* \"#utility.yul\":3879:3950   */\n      tag_94\n        /* \"#utility.yul\":3947:3948   */\n      0x00\n        /* \"#utility.yul\":3936:3945   */\n      dup4\n        /* \"#utility.yul\":3932:3949   */\n      add\n        /* \"#utility.yul\":3923:3929   */\n      dup5\n        /* \"#utility.yul\":3879:3950   */\n      tag_83\n      jump\t// in\n    tag_94:\n        /* \"#utility.yul\":3735:3957   */\n      swap3\n      swap2\n      pop\n      pop\n      jump\t// out\n        /* \"#utility.yul\":4044:4186   */\n    tag_57:\n        /* \"#utility.yul\":4121:4125   */\n      0x00\n        /* \"#utility.yul\":4144:4147   */\n      dup2\n        /* \"#utility.yul\":4136:4147   */\n      swap1\n      pop\n        /* \"#utility.yul\":4174:4178   */\n      0x20\n        /* \"#utility.yul\":4169:4172   */\n      dup3\n        /* \"#utility.yul\":4165:4179   */\n      add\n        /* \"#utility.yul\":4157:4179   */\n      swap1\n      pop\n        /* \"#utility.yul\":4044:4186   */\n      swap2\n      swap1\n      pop\n      jump\t// out\n        /* \"#utility.yul\":4192:4316   */\n    tag_53:\n        /* \"#utility.yul\":4269:4275   */\n      0x00\n        /* \"#utility.yul\":4303:4308   */\n      dup2\n        /* \"#utility.yul\":4297:4309   */\n      mload\n        /* \"#utility.yul\":4287:4309   */\n      swap1\n      pop\n        /* \"#utility.yul\":4192:4316   */\n      swap2\n      swap1\n      pop\n      jump\t// out\n        /* \"#utility.yul\":4322:4421   */\n    tag_70:\n        /* \"#utility.yul\":4374:4380   */\n      0x00\n        /* \"#utility.yul\":4408:4413   */\n      dup2\n        /* \"#utility.yul\":4402:4414   */\n      mload\n        /* \"#utility.yul\":4392:4414   */\n      swap1\n      pop\n        /* \"#utility.yul\":4322:4421   */\n      swap2\n      swap1\n      pop\n      jump\t// out\n        /* \"#utility.yul\":4427:4550   */\n    tag_63:\n        /* \"#utility.yul\":4507:4511   */\n      0x00\n        /* \"#utility.yul\":4539:4543   */\n      0x20\n        /* \"#utility.yul\":4534:4537   */\n      dup3\n        /* \"#utility.yul\":4530:4544   */\n      add\n        /* \"#utility.yul\":4522:4544   */\n      swap1\n      pop\n        /* \"#utility.yul\":4427:4550   */\n      swap2\n      swap1\n      pop\n      jump\t// out\n        /* \"#utility.yul\":4556:4750   */\n    tag_55:\n        /* \"#utility.yul\":4665:4676   */\n      0x00\n        /* \"#utility.yul\":4699:4705   */\n      dup3\n        /* \"#utility.yul\":4694:4697   */\n      dup3\n        /* \"#utility.yul\":4687:4706   */\n      mstore\n        /* \"#utility.yul\":4739:4743   */\n      0x20\n        /* \"#utility.yul\":4734:4737   */\n      dup3\n        /* \"#utility.yul\":4730:4744   */\n      add\n        /* \"#utility.yul\":4715:4744   */\n      swap1\n      pop\n        /* \"#utility.yul\":4556:4750   */\n      swap3\n      swap2\n      pop\n      pop\n      jump\t// out\n        /* \"#utility.yul\":4756:4915   */\n    tag_72:\n        /* \"#utility.yul\":4830:4841   */\n      0x00\n        /* \"#utility.yul\":4864:4870   */\n      dup3\n        /* \"#utility.yul\":4859:4862   */\n      dup3\n        /* \"#utility.yul\":4852:4871   */\n      mstore\n        /* \"#utility.yul\":4904:4908   */\n      0x20\n        /* \"#utility.yul\":4899:4902   */\n      dup3\n        /* \"#utility.yul\":4895:4909   */\n      add\n        /* \"#utility.yul\":4880:4909   */\n      swap1\n      pop\n        /* \"#utility.yul\":4756:4915   */\n      swap3\n      swap2\n      pop\n      pop\n      jump\t// out\n        /* \"#utility.yul\":4921:5090   */\n    tag_80:\n        /* \"#utility.yul\":5005:5016   */\n      0x00\n        /* \"#utility.yul\":5039:5045   */\n      dup3\n        /* \"#utility.yul\":5034:5037   */\n      dup3\n        /* \"#utility.yul\":5027:5046   */\n      mstore\n        /* \"#utility.yul\":5079:5083   */\n      0x20\n        /* \"#utility.yul\":5074:5077   */\n      dup3\n        /* \"#utility.yul\":5070:5084   */\n      add\n        /* \"#utility.yul\":5055:5084   */\n      swap1\n      pop\n        /* \"#utility.yul\":4921:5090   */\n      swap3\n      swap2\n      pop\n      pop\n      jump\t// out\n        /* \"#utility.yul\":5096:5192   */\n    tag_104:\n        /* \"#utility.yul\":5133:5140   */\n      0x00\n        /* \"#utility.yul\":5162:5186   */\n      tag_106\n        /* \"#utility.yul\":5180:5185   */\n      dup3\n        /* \"#utility.yul\":5162:5186   */\n      tag_107\n      jump\t// in\n    tag_106:\n        /* \"#utility.yul\":5151:5186   */\n      swap1\n      pop\n        /* \"#utility.yul\":5096:5192   */\n      swap2\n      swap1\n      pop\n      jump\t// out\n        /* \"#utility.yul\":5198:5288   */\n    tag_67:\n        /* \"#utility.yul\":5232:5239   */\n      0x00\n        /* \"#utility.yul\":5275:5280   */\n      dup2\n        /* \"#utility.yul\":5268:5281   */\n      iszero\n        /* \"#utility.yul\":5261:5282   */\n      iszero\n        /* \"#utility.yul\":5250:5282   */\n      swap1\n      pop\n        /* \"#utility.yul\":5198:5288   */\n      swap2\n      swap1\n      pop\n      jump\t// out\n        /* \"#utility.yul\":5294:5420   */\n    tag_107:\n        /* \"#utility.yul\":5331:5338   */\n      0x00\n        /* \"#utility.yul\":5371:5413   */\n      0xffffffffffffffffffffffffffffffffffffffff\n        /* \"#utility.yul\":5364:5369   */\n      dup3\n        /* \"#utility.yul\":5360:5414   */\n      and\n        /* \"#utility.yul\":5349:5414   */\n      swap1\n      pop\n        /* \"#utility.yul\":5294:5420   */\n      swap2\n      swap1\n      pop\n      jump\t// out\n        /* \"#utility.yul\":5426:5503   */\n    tag_86:\n        /* \"#utility.yul\":5463:5470   */\n      0x00\n        /* \"#utility.yul\":5492:5497   */\n      dup2\n        /* \"#utility.yul\":5481:5497   */\n      swap1\n      pop\n        /* \"#utility.yul\":5426:5503   */\n      swap2\n      swap1\n      pop\n      jump\t// out\n        /* \"#utility.yul\":5509:5816   */\n    tag_74:\n        /* \"#utility.yul\":5577:5578   */\n      0x00\n        /* \"#utility.yul\":5587:5700   */\n    tag_112:\n        /* \"#utility.yul\":5601:5607   */\n      dup4\n        /* \"#utility.yul\":5598:5599   */\n      dup2\n        /* \"#utility.yul\":5595:5608   */\n      lt\n        /* \"#utility.yul\":5587:5700   */\n      iszero\n      tag_114\n      jumpi\n        /* \"#utility.yul\":5686:5687   */\n      dup1\n        /* \"#utility.yul\":5681:5684   */\n      dup3\n        /* \"#utility.yul\":5677:5688   */\n      add\n        /* \"#utility.yul\":5671:5689   */\n      mload\n        /* \"#utility.yul\":5667:5668   */\n      dup2\n        /* \"#utility.yul\":5662:5665   */\n      dup5\n        /* \"#utility.yul\":5658:5669   */\n      add\n        /* \"#utility.yul\":5651:5690   */\n      mstore\n        /* \"#utility.yul\":5623:5625   */\n      0x20\n        /* \"#utility.yul\":5620:5621   */\n      dup2\n        /* \"#utility.yul\":5616:5626   */\n      add\n        /* \"#utility.yul\":5611:5626   */\n      swap1\n      pop\n        /* \"#utility.yul\":5587:5700   */\n      jump(tag_112)\n    tag_114:\n        /* \"#utility.yul\":5718:5724   */\n      dup4\n        /* \"#utility.yul\":5715:5716   */\n      dup2\n        /* \"#utility.yul\":5712:5725   */\n      gt\n        /* \"#utility.yul\":5709:5810   */\n      iszero\n      tag_115\n      jumpi\n        /* \"#utility.yul\":5798:5799   */\n      0x00\n        /* \"#utility.yul\":5789:5795   */\n      dup5\n        /* \"#utility.yul\":5784:5787   */\n      dup5\n        /* \"#utility.yul\":5780:5796   */\n      add\n        /* \"#utility.yul\":5773:5800   */\n      mstore\n        /* \"#utility.yul\":5709:5810   */\n    tag_115:\n        /* \"#utility.yul\":5558:5816   */\n      pop\n        /* \"#utility.yul\":5509:5816   */\n      pop\n      pop\n      pop\n      jump\t// out\n        /* \"#utility.yul\":5822:6142   */\n    tag_31:\n        /* \"#utility.yul\":5866:5872   */\n      0x00\n        /* \"#utility.yul\":5903:5904   */\n      0x02\n        /* \"#utility.yul\":5897:5901   */\n      dup3\n        /* \"#utility.yul\":5893:5905   */\n      div\n        /* \"#utility.yul\":5883:5905   */\n      swap1\n      pop\n        /* \"#utility.yul\":5950:5951   */\n      0x01\n        /* \"#utility.yul\":5944:5948   */\n      dup3\n        /* \"#utility.yul\":5940:5952   */\n      and\n        /* \"#utility.yul\":5971:5989   */\n      dup1\n        /* \"#utility.yul\":5961:6042   */\n      tag_117\n      jumpi\n        /* \"#utility.yul\":6027:6031   */\n      0x7f\n        /* \"#utility.yul\":6019:6025   */\n      dup3\n        /* \"#utility.yul\":6015:6032   */\n      and\n        /* \"#utility.yul\":6005:6032   */\n      swap2\n      pop\n        /* \"#utility.yul\":5961:6042   */\n    tag_117:\n        /* \"#utility.yul\":6089:6091   */\n      0x20\n        /* \"#utility.yul\":6081:6087   */\n      dup3\n        /* \"#utility.yul\":6078:6092   */\n      lt\n        /* \"#utility.yul\":6058:6076   */\n      dup2\n        /* \"#utility.yul\":6055:6093   */\n      eq\n        /* \"#utility.yul\":6052:6136   */\n      iszero\n      tag_118\n      jumpi\n        /* \"#utility.yul\":6108:6126   */\n      tag_119\n      tag_120\n      jump\t// in\n    tag_119:\n        /* \"#utility.yul\":6052:6136   */\n    tag_118:\n        /* \"#utility.yul\":5873:6142   */\n      pop\n        /* \"#utility.yul\":5822:6142   */\n      swap2\n      swap1\n      pop\n      jump\t// out\n        /* \"#utility.yul\":6148:6328   */\n    tag_120:\n        /* \"#utility.yul\":6196:6273   */\n      0x4e487b7100000000000000000000000000000000000000000000000000000000\n        /* \"#utility.yul\":6193:6194   */\n      0x00\n        /* \"#utility.yul\":6186:6274   */\n      mstore\n        /* \"#utility.yul\":6293:6297   */\n      0x22\n        /* \"#utility.yul\":6290:6291   */\n      0x04\n        /* \"#utility.yul\":6283:6298   */\n      mstore\n        /* \"#utility.yul\":6317:6321   */\n      0x24\n        /* \"#utility.yul\":6314:6315   */\n      0x00\n        /* \"#utility.yul\":6307:6322   */\n      revert\n        /* \"#utility.yul\":6457:6574   */\n    tag_44:\n        /* \"#utility.yul\":6566:6567   */\n      0x00\n        /* \"#utility.yul\":6563:6564   */\n      dup1\n        /* \"#utility.yul\":6556:6568   */\n      revert\n        /* \"#utility.yul\":6580:6682   */\n    tag_76:\n        /* \"#utility.yul\":6621:6627   */\n      0x00\n        /* \"#utility.yul\":6672:6674   */\n      0x1f\n        /* \"#utility.yul\":6668:6675   */\n      not\n        /* \"#utility.yul\":6663:6665   */\n      0x1f\n        /* \"#utility.yul\":6656:6661   */\n      dup4\n        /* \"#utility.yul\":6652:6666   */\n      add\n        /* \"#utility.yul\":6648:6676   */\n      and\n        /* \"#utility.yul\":6638:6676   */\n      swap1\n      pop\n        /* \"#utility.yul\":6580:6682   */\n      swap2\n      swap1\n      pop\n      jump\t// out\n        /* \"#utility.yul\":6688:6854   */\n    tag_82:\n        /* \"#utility.yul\":6828:6846   */\n      0x70617469656e74206e6f20657869737400000000000000000000000000000000\n        /* \"#utility.yul\":6824:6825   */\n      0x00\n        /* \"#utility.yul\":6816:6822   */\n      dup3\n        /* \"#utility.yul\":6812:6826   */\n      add\n        /* \"#utility.yul\":6805:6847   */\n      mstore\n        /* \"#utility.yul\":6688:6854   */\n      pop\n      jump\t// out\n        /* \"#utility.yul\":6860:6982   */\n    tag_40:\n        /* \"#utility.yul\":6933:6957   */\n      tag_128\n        /* \"#utility.yul\":6951:6956   */\n      dup2\n        /* \"#utility.yul\":6933:6957   */\n      tag_104\n      jump\t// in\n    tag_128:\n        /* \"#utility.yul\":6926:6931   */\n      dup2\n        /* \"#utility.yul\":6923:6958   */\n      eq\n        /* \"#utility.yul\":6913:6976   */\n      tag_129\n      jumpi\n        /* \"#utility.yul\":6972:6973   */\n      0x00\n        /* \"#utility.yul\":6969:6970   */\n      dup1\n        /* \"#utility.yul\":6962:6974   */\n      revert\n        /* \"#utility.yul\":6913:6976   */\n    tag_129:\n        /* \"#utility.yul\":6860:6982   */\n      pop\n      jump\t// out\n\n    auxdata: 0xa2646970667358221220ae91f412f8fefde3ddff0d09ec4aaa27cf38929a8e46c10f6df2c0bc3d717a5a64736f6c63430008070033\n}\n",
				"bytecode": {
					"linkReferences": {},
					"object": "608060405234801561001057600080fd5b50610611806100206000396000f3fe608060405234801561001057600080fd5b50600436106100415760003560e01c80631363a1af146100465780636391309414610076578063c8f33c91146100a6575b600080fd5b610060600480360381019061005b919061029b565b6100c4565b60405161006d91906103ed565b60405180910390f35b610090600480360381019061008b919061029b565b61011d565b60405161009d91906103cb565b60405180910390f35b6100ae610280565b6040516100bb9190610428565b60405180910390f35b6000600160008373ffffffffffffffffffffffffffffffffffffffff1673ffffffffffffffffffffffffffffffffffffffff16815260200190815260200160002060000160149054906101000a900460ff169050919050565b6060610128826100c4565b610167576040517f08c379a000000000000000000000000000000000000000000000000000000000815260040161015e90610408565b60405180910390fd5b600260008373ffffffffffffffffffffffffffffffffffffffff1673ffffffffffffffffffffffffffffffffffffffff168152602001908152602001600020600101805480602002602001604051908101604052809291908181526020016000905b828210156102755783829060005260206000200180546101e890610524565b80601f016020809104026020016040519081016040528092919081815260200182805461021490610524565b80156102615780601f1061023657610100808354040283529160200191610261565b820191906000526020600020905b81548152906001019060200180831161024457829003601f168201915b5050505050815260200190600101906101c9565b505050509050919050565b60005481565b600081359050610295816105c4565b92915050565b6000602082840312156102b1576102b0610585565b5b60006102bf84828501610286565b91505092915050565b60006102d48383610360565b905092915050565b60006102e782610453565b6102f18185610476565b93508360208202850161030385610443565b8060005b8581101561033f578484038952815161032085826102c8565b945061032b83610469565b925060208a01995050600181019050610307565b50829750879550505050505092915050565b61035a816104bb565b82525050565b600061036b8261045e565b6103758185610487565b93506103858185602086016104f1565b61038e8161058a565b840191505092915050565b60006103a6601083610498565b91506103b18261059b565b602082019050919050565b6103c5816104e7565b82525050565b600060208201905081810360008301526103e581846102dc565b905092915050565b60006020820190506104026000830184610351565b92915050565b6000602082019050818103600083015261042181610399565b9050919050565b600060208201905061043d60008301846103bc565b92915050565b6000819050602082019050919050565b600081519050919050565b600081519050919050565b6000602082019050919050565b600082825260208201905092915050565b600082825260208201905092915050565b600082825260208201905092915050565b60006104b4826104c7565b9050919050565b60008115159050919050565b600073ffffffffffffffffffffffffffffffffffffffff82169050919050565b6000819050919050565b60005b8381101561050f5780820151818401526020810190506104f4565b8381111561051e576000848401525b50505050565b6000600282049050600182168061053c57607f821691505b602082108114156105505761054f610556565b5b50919050565b7f4e487b7100000000000000000000000000000000000000000000000000000000600052602260045260246000fd5b600080fd5b6000601f19601f8301169050919050565b7f70617469656e74206e6f20657869737400000000000000000000000000000000600082015250565b6105cd816104a9565b81146105d857600080fd5b5056fea2646970667358221220ae91f412f8fefde3ddff0d09ec4aaa27cf38929a8e46c10f6df2c0bc3d717a5a64736f6c63430008070033",
					"opcodes": "PUSH1 0x80 PUSH1 0x40 MSTORE CALLVALUE DUP1 ISZERO PUSH2 0x10 JUMPI PUSH1 0x0 DUP1 REVERT JUMPDEST POP PUSH2 0x611 DUP1 PUSH2 0x20 PUSH1 0x0 CODECOPY PUSH1 0x0 RETURN INVALID PUSH1 0x80 PUSH1 0x40 MSTORE CALLVALUE DUP1 ISZERO PUSH2 0x10 JUMPI PUSH1 0x0 DUP1 REVERT JUMPDEST POP PUSH1 0x4 CALLDATASIZE LT PUSH2 0x41 JUMPI PUSH1 0x0 CALLDATALOAD PUSH1 0xE0 SHR DUP1 PUSH4 0x1363A1AF EQ PUSH2 0x46 JUMPI DUP1 PUSH4 0x63913094 EQ PUSH2 0x76 JUMPI DUP1 PUSH4 0xC8F33C91 EQ PUSH2 0xA6 JUMPI JUMPDEST PUSH1 0x0 DUP1 REVERT JUMPDEST PUSH2 0x60 PUSH1 0x4 DUP1 CALLDATASIZE SUB DUP2 ADD SWAP1 PUSH2 0x5B SWAP2 SWAP1 PUSH2 0x29B JUMP JUMPDEST PUSH2 0xC4 JUMP JUMPDEST PUSH1 0x40 MLOAD PUSH2 0x6D SWAP2 SWAP1 PUSH2 0x3ED JUMP JUMPDEST PUSH1 0x40 MLOAD DUP1 SWAP2 SUB SWAP1 RETURN JUMPDEST PUSH2 0x90 PUSH1 0x4 DUP1 CALLDATASIZE SUB DUP2 ADD SWAP1 PUSH2 0x8B SWAP2 SWAP1 PUSH2 0x29B JUMP JUMPDEST PUSH2 0x11D JUMP JUMPDEST PUSH1 0x40 MLOAD PUSH2 0x9D SWAP2 SWAP1 PUSH2 0x3CB JUMP JUMPDEST PUSH1 0x40 MLOAD DUP1 SWAP2 SUB SWAP1 RETURN JUMPDEST PUSH2 0xAE PUSH2 0x280 JUMP JUMPDEST PUSH1 0x40 MLOAD PUSH2 0xBB SWAP2 SWAP1 PUSH2 0x428 JUMP JUMPDEST PUSH1 0x40 MLOAD DUP1 SWAP2 SUB SWAP1 RETURN JUMPDEST PUSH1 0x0 PUSH1 0x1 PUSH1 0x0 DUP4 PUSH20 0xFFFFFFFFFFFFFFFFFFFFFFFFFFFFFFFFFFFFFFFF AND PUSH20 0xFFFFFFFFFFFFFFFFFFFFFFFFFFFFFFFFFFFFFFFF AND DUP2 MSTORE PUSH1 0x20 ADD SWAP1 DUP2 MSTORE PUSH1 0x20 ADD PUSH1 0x0 KECCAK256 PUSH1 0x0 ADD PUSH1 0x14 SWAP1 SLOAD SWAP1 PUSH2 0x100 EXP SWAP1 DIV PUSH1 0xFF AND SWAP1 POP SWAP2 SWAP1 POP JUMP JUMPDEST PUSH1 0x60 PUSH2 0x128 DUP3 PUSH2 0xC4 JUMP JUMPDEST PUSH2 0x167 JUMPI PUSH1 0x40 MLOAD PUSH32 0x8C379A000000000000000000000000000000000000000000000000000000000 DUP2 MSTORE PUSH1 0x4 ADD PUSH2 0x15E SWAP1 PUSH2 0x408 JUMP JUMPDEST PUSH1 0x40 MLOAD DUP1 SWAP2 SUB SWAP1 REVERT JUMPDEST PUSH1 0x2 PUSH1 0x0 DUP4 PUSH20 0xFFFFFFFFFFFFFFFFFFFFFFFFFFFFFFFFFFFFFFFF AND PUSH20 0xFFFFFFFFFFFFFFFFFFFFFFFFFFFFFFFFFFFFFFFF AND DUP2 MSTORE PUSH1 0x20 ADD SWAP1 DUP2 MSTORE PUSH1 0x20 ADD PUSH1 0x0 KECCAK256 PUSH1 0x1 ADD DUP1 SLOAD DUP1 PUSH1 0x20 MUL PUSH1 0x20 ADD PUSH1 0x40 MLOAD SWAP1 DUP2 ADD PUSH1 0x40 MSTORE DUP1 SWAP3 SWAP2 SWAP1 DUP2 DUP2 MSTORE PUSH1 0x20 ADD PUSH1 0x0 SWAP1 JUMPDEST DUP3 DUP3 LT ISZERO PUSH2 0x275 JUMPI DUP4 DUP3 SWAP1 PUSH1 0x0 MSTORE PUSH1 0x20 PUSH1 0x0 KECCAK256 ADD DUP1 SLOAD PUSH2 0x1E8 SWAP1 PUSH2 0x524 JUMP JUMPDEST DUP1 PUSH1 0x1F ADD PUSH1 0x20 DUP1 SWAP2 DIV MUL PUSH1 0x20 ADD PUSH1 0x40 MLOAD SWAP1 DUP2 ADD PUSH1 0x40 MSTORE DUP1 SWAP3 SWAP2 SWAP1 DUP2 DUP2 MSTORE PUSH1 0x20 ADD DUP3 DUP1 SLOAD PUSH2 0x214 SWAP1 PUSH2 0x524 JUMP JUMPDEST DUP1 ISZERO PUSH2 0x261 JUMPI DUP1 PUSH1 0x1F LT PUSH2 0x236 JUMPI PUSH2 0x100 DUP1 DUP4 SLOAD DIV MUL DUP4 MSTORE SWAP2 PUSH1 0x20 ADD SWAP2 PUSH2 0x261 JUMP JUMPDEST DUP3 ADD SWAP2 SWAP1 PUSH1 0x0 MSTORE PUSH1 0x20 PUSH1 0x0 KECCAK256 SWAP1 JUMPDEST DUP2 SLOAD DUP2 MSTORE SWAP1 PUSH1 0x1 ADD SWAP1 PUSH1 0x20 ADD DUP1 DUP4 GT PUSH2 0x244 JUMPI DUP3 SWAP1 SUB PUSH1 0x1F AND DUP3 ADD SWAP2 JUMPDEST POP POP POP POP POP DUP2 MSTORE PUSH1 0x20 ADD SWAP1 PUSH1 0x1 ADD SWAP1 PUSH2 0x1C9 JUMP JUMPDEST POP POP POP POP SWAP1 POP SWAP2 SWAP1 POP JUMP JUMPDEST PUSH1 0x0 SLOAD DUP2 JUMP JUMPDEST PUSH1 0x0 DUP2 CALLDATALOAD SWAP1 POP PUSH2 0x295 DUP2 PUSH2 0x5C4 JUMP JUMPDEST SWAP3 SWAP2 POP POP JUMP JUMPDEST PUSH1 0x0 PUSH1 0x20 DUP3 DUP5 SUB SLT ISZERO PUSH2 0x2B1 JUMPI PUSH2 0x2B0 PUSH2 0x585 JUMP JUMPDEST JUMPDEST PUSH1 0x0 PUSH2 0x2BF DUP5 DUP3 DUP6 ADD PUSH2 0x286 JUMP JUMPDEST SWAP2 POP POP SWAP3 SWAP2 POP POP JUMP JUMPDEST PUSH1 0x0 PUSH2 0x2D4 DUP4 DUP4 PUSH2 0x360 JUMP JUMPDEST SWAP1 POP SWAP3 SWAP2 POP POP JUMP JUMPDEST PUSH1 0x0 PUSH2 0x2E7 DUP3 PUSH2 0x453 JUMP JUMPDEST PUSH2 0x2F1 DUP2 DUP6 PUSH2 0x476 JUMP JUMPDEST SWAP4 POP DUP4 PUSH1 0x20 DUP3 MUL DUP6 ADD PUSH2 0x303 DUP6 PUSH2 0x443 JUMP JUMPDEST DUP1 PUSH1 0x0 JUMPDEST DUP6 DUP2 LT ISZERO PUSH2 0x33F JUMPI DUP5 DUP5 SUB DUP10 MSTORE DUP2 MLOAD PUSH2 0x320 DUP6 DUP3 PUSH2 0x2C8 JUMP JUMPDEST SWAP5 POP PUSH2 0x32B DUP4 PUSH2 0x469 JUMP JUMPDEST SWAP3 POP PUSH1 0x20 DUP11 ADD SWAP10 POP POP PUSH1 0x1 DUP2 ADD SWAP1 POP PUSH2 0x307 JUMP JUMPDEST POP DUP3 SWAP8 POP DUP8 SWAP6 POP POP POP POP POP POP SWAP3 SWAP2 POP POP JUMP JUMPDEST PUSH2 0x35A DUP2 PUSH2 0x4BB JUMP JUMPDEST DUP3 MSTORE POP POP JUMP JUMPDEST PUSH1 0x0 PUSH2 0x36B DUP3 PUSH2 0x45E JUMP JUMPDEST PUSH2 0x375 DUP2 DUP6 PUSH2 0x487 JUMP JUMPDEST SWAP4 POP PUSH2 0x385 DUP2 DUP6 PUSH1 0x20 DUP7 ADD PUSH2 0x4F1 JUMP JUMPDEST PUSH2 0x38E DUP2 PUSH2 0x58A JUMP JUMPDEST DUP5 ADD SWAP2 POP POP SWAP3 SWAP2 POP POP JUMP JUMPDEST PUSH1 0x0 PUSH2 0x3A6 PUSH1 0x10 DUP4 PUSH2 0x498 JUMP JUMPDEST SWAP2 POP PUSH2 0x3B1 DUP3 PUSH2 0x59B JUMP JUMPDEST PUSH1 0x20 DUP3 ADD SWAP1 POP SWAP2 SWAP1 POP JUMP JUMPDEST PUSH2 0x3C5 DUP2 PUSH2 0x4E7 JUMP JUMPDEST DUP3 MSTORE POP POP JUMP JUMPDEST PUSH1 0x0 PUSH1 0x20 DUP3 ADD SWAP1 POP DUP2 DUP2 SUB PUSH1 0x0 DUP4 ADD MSTORE PUSH2 0x3E5 DUP2 DUP5 PUSH2 0x2DC JUMP JUMPDEST SWAP1 POP SWAP3 SWAP2 POP POP JUMP JUMPDEST PUSH1 0x0 PUSH1 0x20 DUP3 ADD SWAP1 POP PUSH2 0x402 PUSH1 0x0 DUP4 ADD DUP5 PUSH2 0x351 JUMP JUMPDEST SWAP3 SWAP2 POP POP JUMP JUMPDEST PUSH1 0x0 PUSH1 0x20 DUP3 ADD SWAP1 POP DUP2 DUP2 SUB PUSH1 0x0 DUP4 ADD MSTORE PUSH2 0x421 DUP2 PUSH2 0x399 JUMP JUMPDEST SWAP1 POP SWAP2 SWAP1 POP JUMP JUMPDEST PUSH1 0x0 PUSH1 0x20 DUP3 ADD SWAP1 POP PUSH2 0x43D PUSH1 0x0 DUP4 ADD DUP5 PUSH2 0x3BC JUMP JUMPDEST SWAP3 SWAP2 POP POP JUMP JUMPDEST PUSH1 0x0 DUP2 SWAP1 POP PUSH1 0x20 DUP3 ADD SWAP1 POP SWAP2 SWAP1 POP JUMP JUMPDEST PUSH1 0x0 DUP2 MLOAD SWAP1 POP SWAP2 SWAP1 POP JUMP JUMPDEST PUSH1 0x0 DUP2 MLOAD SWAP1 POP SWAP2 SWAP1 POP JUMP JUMPDEST PUSH1 0x0 PUSH1 0x20 DUP3 ADD SWAP1 POP SWAP2 SWAP1 POP JUMP JUMPDEST PUSH1 0x0 DUP3 DUP3 MSTORE PUSH1 0x20 DUP3 ADD SWAP1 POP SWAP3 SWAP2 POP POP JUMP JUMPDEST PUSH1 0x0 DUP3 DUP3 MSTORE PUSH1 0x20 DUP3 ADD SWAP1 POP SWAP3 SWAP2 POP POP JUMP JUMPDEST PUSH1 0x0 DUP3 DUP3 MSTORE PUSH1 0x20 DUP3 ADD SWAP1 POP SWAP3 SWAP2 POP POP JUMP JUMPDEST PUSH1 0x0 PUSH2 0x4B4 DUP3 PUSH2 0x4C7 JUMP JUMPDEST SWAP1 POP SWAP2 SWAP1 POP JUMP JUMPDEST PUSH1 0x0 DUP2 ISZERO ISZERO SWAP1 POP SWAP2 SWAP1 POP JUMP JUMPDEST PUSH1 0x0 PUSH20 0xFFFFFFFFFFFFFFFFFFFFFFFFFFFFFFFFFFFFFFFF DUP3 AND SWAP1 POP SWAP2 SWAP1 POP JUMP JUMPDEST PUSH1 0x0 DUP2 SWAP1 POP SWAP2 SWAP1 POP JUMP JUMPDEST PUSH1 0x0 JUMPDEST DUP4 DUP2 LT ISZERO PUSH2 0x50F JUMPI DUP1 DUP3 ADD MLOAD DUP2 DUP5 ADD MSTORE PUSH1 0x20 DUP2 ADD SWAP1 POP PUSH2 0x4F4 JUMP JUMPDEST DUP4 DUP2 GT ISZERO PUSH2 0x51E JUMPI PUSH1 0x0 DUP5 DUP5 ADD MSTORE JUMPDEST POP POP POP POP JUMP JUMPDEST PUSH1 0x0 PUSH1 0x2 DUP3 DIV SWAP1 POP PUSH1 0x1 DUP3 AND DUP1 PUSH2 0x53C JUMPI PUSH1 0x7F DUP3 AND SWAP2 POP JUMPDEST PUSH1 0x20 DUP3 LT DUP2 EQ ISZERO PUSH2 0x550 JUMPI PUSH2 0x54F PUSH2 0x556 JUMP JUMPDEST JUMPDEST POP SWAP2 SWAP1 POP JUMP JUMPDEST PUSH32 0x4E487B7100000000000000000000000000000000000000000000000000000000 PUSH1 0x0 MSTORE PUSH1 0x22 PUSH1 0x4 MSTORE PUSH1 0x24 PUSH1 0x0 REVERT JUMPDEST PUSH1 0x0 DUP1 REVERT JUMPDEST PUSH1 0x0 PUSH1 0x1F NOT PUSH1 0x1F DUP4 ADD AND SWAP1 POP SWAP2 SWAP1 POP JUMP JUMPDEST PUSH32 0x70617469656E74206E6F20657869737400000000000000000000000000000000 PUSH1 0x0 DUP3 ADD MSTORE POP JUMP JUMPDEST PUSH2 0x5CD DUP2 PUSH2 0x4A9 JUMP JUMPDEST DUP2 EQ PUSH2 0x5D8 JUMPI PUSH1 0x0 DUP1 REVERT JUMPDEST POP JUMP INVALID LOG2 PUSH5 0x6970667358 0x22 SLT KECCAK256 0xAE SWAP2 DELEGATECALL SLT 0xF8 INVALID REVERT 0xE3 0xDD SELFDESTRUCT 0xD MULMOD 0xEC 0x4A 0xAA 0x27 0xCF CODESIZE SWAP3 SWAP11 DUP15 CHAINID 0xC1 0xF PUSH14 0xF2C0BC3D717A5A64736F6C634300 ADDMOD SMOD STOP CALLER "
				},
				"gasEstimates": {
					"creation": {
						"codeDepositCost": "310600",
						"executionCost": "349",
						"totalCost": "310949"
					},
					"external": {
						"IsUser(address)": "2917",
						"ViewMedicalRecords(address)": "infinite",
						"lastUpdateTime()": "2451"
					}
				},
				"methodIdentifiers": {
					"IsUser(address)": "1363a1af",
					"ViewMedicalRecords(address)": "63913094",
					"lastUpdateTime()": "c8f33c91"
				}
			},
			"userdoc": {
				"kind": "user",
				"methods": {},
				"version": 1
			}
		}
	}
}